:020000040000FA
:10000000006AA4EF02F0008A00AA009A00B603D0AA
:10001000008644D827E2080E176E54D81636172EDD
:10002000FCD700AA2ED85CD855D800BA1BD821D846
:100030001650D890A1EF02F0008A00AA009A00B4EE
:1000400005D0FE0B016E0084D8900AD000B805D010
:100050001E6E008823D806E21E5027D803E200AAAD
:10006000A1EF02F00ED83CD800940098009601D879
:10007000F7D710C0EAFF0E3CE96EE9880C50EC128D
:1000800008D010C0EAFF0EC0E9FF0C1CEE16E9888C
:10009000EC16040E126E122EFED71200EADF20D8E4
:1000A000F0DF18D8015000B60109166E080E176E61
:1000B0001636D8B0DEDFD8A0E4DF12D80BD8172E62
:1000C000F7D7D7DF0DD810C0EAFF0EC0E9FF0C50FC
:1000D000EF14FF0F11C0EAFF0FC0E9FF0D1CD6D7C8
:1000E00011C0EAFF0FC0E9FF0D50EE12E9880D1CA8
:1000F000EC16CFD7E9501F6E8098809A809A92981C
:10010000929A929AF00E92161F5000B221D03A0E97
:10011000136EFC0E55EC01F0330E1E6E30D8100E2F
:10012000136E680E55EC01F02AD8640E54EC01F001
:1001300026D8220E1E6E23D8280E09D80C0E07D8FA
:10014000010E05D8060E03D800821F5001D0008092
:100150001E6E00A00BD0809A03080FE30ED8070E86
:10016000136ED00E55EC01F0D88012000080FE080E
:10017000D8B4A1EF02F0808A00D01E3A00A000900F
:100180008088F00E80161E500F0B801280981E3A49
:1001900000B0F5D7320E54EC01F0D8801200019E69
:1001A0000350D8B4018E0A0E026E3B0E196E9A0EE1
:1001B000186ECA0E176E000E35D8050E196EF50EA4
:1001C000186EE10E176E000E2DD8196A980E186E73
:1001D000960E176E800E26D8196A0F0E186E420EF4
:1001E000176E400E1FD8196A010E186E860E176E14
:1001F000A00E18D8196A186A270E176E100E12D89A
:10020000196A186A030E176EE80E0CD8196A186A74
:10021000176A640E07D8196A186A176A0A0E02D894
:100220001A500CD0166E1D50156E1C50146E1B50BB
:10023000136E1A50126ED5EC01F01250126E024E6F
:10024000019E035003E0025CD8B012001250D8A403
:10025000019E01BE1200300F9BEF02F0A66AA6803D
:10026000A850A92AA1EF02F0E86AA86EA66AA6849F
:10027000550EA76EAA0EA76EA682A6B2FED7A694AA
:10028000A92AA1EF02F0176A186A196A166EE86ABD
:100290001606175A185A195AD8A0A1EF02F0030EE1
:1002A000136EE50E02D8F3D7136AFB0F126E00D05F
:1002B000E86A01D01206135AFDE2000012001F6E18
:1002C0000A0E166E176A186A196AD5EC01F01F0635
:1002D000FCE21A501200D890123613361436153636
:1002E000FF0FF9E21250A1EF02F0D890153214324C
:1002F00013321232FF0FF9E21250A1EF02F0166E24
:10030000020E17D0166E030E14D0166E010E0FD00B
:10031000166E060E0ED0166E040E09D0166E040E62
:1003200008D0166E050E05D0166E050E04D0026EAE
:100330000FD0026E0AD0026E1950151815E619502A
:10034000155C08E11850145C05E11750135C02E1DC
:100350001650125C040ED8B0010ED8B4020E02146E
:10036000D8A4FF0EA1EF02F01550195CF3D7E86690
:10037000FF0E1214D8A4FF0EA1EF02F01210D8A4A1
:10038000FF0EA1EF02F0216A15AE06D0217EE86AC9
:10039000126C13561456155619AE08D0217EE86A11
:1003A000166C17561856195601D0216A1A6A1B6A1C
:1003B0001C6A1D6A200E1E6E15341A361B361C363A
:1003C0001D3616501A5E17501B5A18501C5A1950D9
:1003D0001D5A09E216501A2617501B2218501C22CB
:1003E00019501D22D89012361336143615361E2E8B
:1003F000E3D721AE09D0E86A126C1356145615568D
:100400001A6C1B561C561D561250A1EF02F01650C6
:100410001E02F3CF1AF0F4CF1BF017501F02F3CFD8
:100420001CF0F4CF1DF01E02F3501B26F4501C22CA
:10043000E86A1D2216501F02F3501B26F4501C229E
:10044000E86A1D2218501E02F3501C26F4501D228B
:1004500018501F02E86A126A1222F3501D26F45047
:10046000122216502002F3501C26F4501D22E86A76
:10047000136A1222132217502002F3501D26F45043
:100480001222E86A132218502002F3501226F45068
:10049000132219501F02F3501226F4501322195040
:1004A0002002E86A146A1422F3501326F45014222E
:1004B00019501E02F3501D26F4501222E86A13222E
:1004C000142219502102F4CF15F0F3501426E86AD3
:1004D000152216502102F3501D26F4501222E86A0C
:1004E00013221422152217502102F3501226F45021
:1004F0001322E86A1422152218502102F350132601
:10050000F4501422E86A152221AE08D01650125E6B
:100510001750135A1850145A1950155A19AE08D0BA
:100520001E50125E1F50135A2050145A2150155A53
:100530001A50A1EF02F0E96EFB6A0B50FA6E0A50F6
:10054000F96E00010000120072EF04F0090E126E45
:100550003D0E136E146A156A46C016F047C017F0B8
:10056000186A196A10DF486E13C049F048C012F0CB
:1005700049C013F0176A040ED1DED8A4D2EF02F0FE
:10058000D89667B3D886D8B6C7EF02F06785678379
:10059000D89667B1D886D8B6CFEF02F06785678165
:1005A000F6EF02F0D89667A3D886D8B6D9EF02F056
:1005B0006785679348C012F049C013F0176A000EB0
:1005C000A7DED8A4EEEF02F0D89667B1D886D8B6E9
:1005D000EBEF02F067856781F6EF02F0D89667A12E
:1005E000D886D8B6F5EF02F067856791126A090ED2
:1005F000136E3D0E146E156A46C016F047C017F014
:10060000186A196AC0DE486E13C049F0D89667A10F
:10061000D886D8B617EF03F048C012F049C013F0DF
:10062000146A156A020E66DE486E13C049F0D89649
:1006300067A3D886D8B628EF03F048C012F049C0A7
:1006400013F0146A156A020E55DE486E13C049F0A5
:100650004804686F6851BB5CD8B430EF03F067871B
:100660006829226E236A246A256A233622C012F082
:1006700023C013F0020E34DE486E13C049F048C0A8
:100680001EF049C01FF0206A216A44C016F045C020
:1006900017F0186A196ABBDE226E1BC023F01CC05B
:1006A00024F01DC025F022C012F023C013F024C096
:1006B00014F025C015F01668030E176E186A196A33
:1006C00062DE446E13C045F06651126E0508D8A074
:1006D0007CEF03F0FA6AFB6A1236FA36EC0E122649
:1006E000060EFA22000EFB221250F96E21D004D021
:1006F00009D00ED013D018D0BECF48F0BDCF49F0EE
:1007000098EF03F067CF48F066CF49F098EF03F019
:100710005ECF48F05DCF49F098EF03F058CF48F036
:1007200057CF49F098EF03F055CF48F054CF49F038
:1007300048C012F0136A146A156A020E70EC01F0D8
:10074000226E13C023F014C024F015C025F0300E23
:100750004914266E276A286A296A26C012F027C023
:1007600013F028C014F029C015F0040E7AEC01F043
:10077000266E13C027F014C028F015C029F02250AF
:100780002610486E23502710496E48C012F049C009
:1007900013F045C017F044507FEC01F0D8A436EFB9
:1007A00004F044C012F045C013F0146A156A020E3A
:1007B0007AEC01F0486E13C049F0030E4414226E27
:1007C000000E4514236E246A256A22C012F023C04D
:1007D00013F024C014F025C015F0040E70EC01F0E5
:1007E000226E13C023F014C024F015C025F00C0EA7
:1007F0002210496EBAA402EF04F09E929EB202EF5C
:1008000004F0FCD76651126E0508D8A01AEF04F068
:10081000FA6AFB6A1236FA36280E1226080EFA22F7
:10082000000EFB221250F96E21D004D009D00ED058
:1008300013D018D048C0BEFF49C0BDFF36EF04F04A
:1008400048C067FF49C066FF36EF04F048C05EFF4E
:1008500049C05DFF36EF04F048C058FF49C057FF5C
:1008600036EF04F048C055FF49C054FFBAB43AEF20
:1008700004F0BA84E86A67B5010F67B70109226E10
:10088000236A246A256A22C012F023C013F024C010
:1008900014F025C015F0196A186A176A010E94EC55
:1008A00001F0D8A471EF04F09E929EB259EF04F0CB
:1008B000FCD7D89667A5D886D8B668EF04F06795B8
:1008C00067B1BA8067A1BA9067B3BA8267A3BA92D8
:1008D000D89667A7D886D8B671EF04F0679768C036
:1008E000BBFF12000F01386B396BF19EF70E616E82
:1008F000780ED36ED26A800E9B6E070ECD6E386B6B
:10090000396B020E3A6F946892689368C80E0001C2
:1009100043EC01F08296949682989498829A949AE5
:10092000829C949C819693968190939082949494C7
:1009300093829388938A938C938E9384E968050EAF
:10094000EA6EED6AE950EA10FCE1EF6A300E426EA1
:10095000750E436E3C863C8C3C8A3C883D803C8EC8
:100960003B9C8286820E0E6E0F0E106E010E0C6E78
:10097000820E0F6E0F0E116E020E0D6E900E1EEC9B
:1009800000F0010E1EEC00F0000E1CEC00F0140E46
:1009900043EC01F0010EA96E2EEC01F08A6F8A5132
:1009A0000108D8B4D6EF04F089EC34F062EC3AF0E8
:1009B0003BAAE2EF04F0070EA96E2EEC01F0896F5E
:1009C0002EEC33F013EC3AF0050EA96E2EEC01F08C
:1009D000E8B03A80E8A03A90060EA96E2EEC01F03D
:1009E000E8B03A82E8A03A923AB0A5EF05F0640E7A
:1009F000A96E2EEC01F06C6F650EA96E2EEC01F065
:100A00006D6F660EA96E2EEC01F06E6F6CC01EF05D
:100A10001F6A206A216A166A040E176E186A196A1C
:100A200007EC02F0226E1BC023F01CC024F01DC096
:100A300025F022C012F023C013F024C014F025C00A
:100A400015F0640E166E176A186A196AC3EC01F085
:100A50008D6F13C08EF014C08FF015C090F06DC074
:100A60001EF01F6A206A216A166A040E176E186A41
:100A7000196A07EC02F0226E1BC023F01CC024F0A0
:100A80001DC025F022C012F023C013F024C014F0C2
:100A900025C015F0640E166E176A186A196AC3EC41
:100AA00001F0916F13C092F014C093F015C094F050
:100AB0006EC01EF01F6A206A216A166A040E176E45
:100AC000186A196A07EC02F0226E1BC023F01CC0E2
:100AD00024F01DC025F022C012F023C013F024C062
:100AE00014F025C015F0640E166E176A186A196A9C
:100AF000C3EC01F0956F13C096F014C097F015C0C9
:100B000098F0040E666F8DC044F08EC045F042C070
:100B100046F043C047F0A6EC02F0030E666F91C0AA
:100B200044F092C045F042C046F043C047F0A6EC06
:100B300002F0010E666F95C044F096C045F042C0C9
:100B400046F043C047F0A6EC02F03AB2E2EF05F0FF
:100B5000670EA96E2EEC01F06F6F6FC01EF01F6A5A
:100B6000206A216A166A040E176E186A196A07EC61
:100B700002F0226E1BC023F01CC024F01DC025F023
:100B800022C012F023C013F024C014F025C015F0C9
:100B9000640E166E176A186A196AC3EC01F0996F31
:100BA00013C09AF014C09BF015C09CF0020E666F43
:100BB00099C044F09AC045F042C046F043C047F0A7
:100BC000A6EC02F0FE0E7BEC00F0020E7BEC00F0D7
:100BD000410E7BEC00F0510E7BEC00F0550E7BECEF
:100BE00000F0410E7BEC00F02D0E7BEC00F04C0E83
:100BF0007BEC00F0450E7BEC00F0440E7BEC00F04B
:100C0000200E7BEC00F0200E7BEC00F0200E7BEC45
:100C100000F0200E7BEC00F0200E7BEC00F0200EAC
:100C20007BEC00F0200E7BEC00F0200E7BEC00F063
:100C3000200E7BEC00F0200E7BEC00F0200E7BEC15
:100C400000F0200E7BEC00F0FE0E7BEC00F0C00EFE
:100C50007BEC00F0440E7BEC00F0410E7BEC00F0EE
:100C60004E0E7BEC00F0450E7BEC00F0520E7BEC60
:100C700000F0200E7BEC00F0460E7BEC00F0570EEF
:100C80007BEC00F03A0E7BEC00F0330E7BEC00F0D6
:100C90002E0E7BEC00F0300E7BEC00F0200E7BEC97
:100CA00000F0200E7BEC00F0200E7BEC00F0200E1C
:100CB0007BEC00F0200E7BEC00F0200E7BEC00F0D3
:100CC000200E7BEC00F0050E176EDC0E44EC01F0FC
:100CD000010E8A6F6CEF06F062EC3AF047EC36F0EA
:100CE00017EC39F03BAE7FEF06F082A67EEF06F000
:100CF000010E8A6F43EF16F07FEF06F082863AA866
:100D0000C9EF06F082A6C8EF06F03AA090EF06F011
:100D10003A90050EA96E000E35EC01F0C6EF06F014
:100D20003A809DC012F09EC013F09FC014F0A0C086
:100D300015F0640E166E176A186A196AC3EC01F092
:100D40006C6FA1C012F0A2C013F0A3C014F0A4C035
:100D500015F0640E166E176A186A196AC3EC01F072
:100D60006D6FA5C012F0A6C013F0A7C014F0A8C004
:100D700015F0640E166E176A186A196AC3EC01F052
:100D80006E6F050EA96E010E35EC01F0C9EF06F08D
:100D900082863AA6F3EF06F082A6F2EF06F03AA2B8
:100DA000DAEF06F03A92060EA96E000E35EC01F06D
:100DB000F0EF06F03A82060EA96E010E35EC01F056
:100DC000A9C012F0AAC013F0ABC014F0ACC015F06B
:100DD000640E166E176A186A196AC3EC01F06F6F19
:100DE000F3EF06F082863BAA04EF07F082A603EF3A
:100DF00007F03B8C020EA96E2EEC01F0786F7FEFAE
:100E000030F004EF07F0828681B212EF07F0702B0A
:100E1000330E705DD8A010EF07F082789498706B55
:100E200013EF07F0706B81B821EF07F0632B330EDF
:100E3000635DD8A01FEF07F0827A949A636B22EF6C
:100E400007F0636B3AB0D8EF07F0640EA96E2EEC92
:100E500001F06C6F650EA96E2EEC01F06D6F660EE1
:100E6000A96E2EEC01F06E6F6CC01EF01F6A206A36
:100E7000216A166A040E176E186A196A07EC02F0E6
:100E8000226E1BC023F01CC024F01DC025F022C020
:100E900012F023C013F024C014F025C015F0640E26
:100EA000166E176A186A196AC3EC01F08D6F13C0C9
:100EB0008EF014C08FF015C090F06DC01EF01F6A48
:100EC000206A216A166A040E176E186A196A07ECFE
:100ED00002F0226E1BC023F01CC024F01DC025F0C0
:100EE00022C012F023C013F024C014F025C015F066
:100EF000640E166E176A186A196AC3EC01F0916FD6
:100F000013C092F014C093F015C094F06EC01EF0A0
:100F10001F6A206A216A166A040E176E186A196A17
:100F200007EC02F0226E1BC023F01CC024F01DC091
:100F300025F022C012F023C013F024C014F025C005
:100F400015F0640E166E176A186A196AC3EC01F080
:100F5000956F13C096F014C097F015C098F0040E6A
:100F6000666F8DC044F08EC045F042C046F043C06D
:100F700047F0A6EC02F0030E666F91C044F092C0F9
:100F800045F042C046F043C047F0A6EC02F0010E27
:100F9000666F95C044F096C045F042C046F043C02D
:100FA00047F0A6EC02F04D0E3E6E3F6ADBEF07F015
:100FB000410E3E6E3F6A3AB21DEF08F0670EA96E11
:100FC0002EEC01F06F6F6FC01EF01F6A206A216A5D
:100FD000166A040E176E186A196A07EC02F0226E80
:100FE0001BC023F01CC024F01DC025F022C012F04D
:100FF00023C013F024C014F025C015F0640E166E43
:10100000176A186A196AC3EC01F0996F13C09AF055
:1010100014C09BF015C09CF0020E666F99C044F09E
:101020009AC045F042C046F043C047F0A6EC02F03B
:101030004D0E526E536A20EF08F0410E526E536A05
:101040008A2B5A0E8A5DD8B028EF08F0200E646F04
:101050008AC012F05A0E85EC01F0226E8AC012F09E
:10106000AA0E8BEC01F0266E22C012F02650B7ECCF
:1010700001F0266E276E286E296E26502710281044
:101080002910D8B446EF08F03A0E646FAB0E8A5DB3
:10109000D8A04CEF08F08A6BE86A3AB8E868226E8C
:1010A000E86A3AB6E868266E22C012F02650BEEC16
:1010B00001F0266E276E286E296EE86A3ABAE86853
:1010C0002A6E2650271028102910126E2A50BEECC6
:1010D00001F02A6E2B6E2C6E2D6EE86A3AB4E86829
:1010E0002E6E2A502B102C102D10126E2E50BEEC8E
:1010F00001F02E6E2F6E306E316EE86A3BBEE868EE
:10110000326E2E502F1030103110126E3250BEEC55
:1011100001F0326E336E346E356EE86A3BBAE868C1
:10112000366E3250331034103510126E3650BEEC1D
:1011300001F0366E376E386E396E36503710381013
:101140003910D8B4A6EF08F0406A416A40C012F0E6
:1011500041C013F0060E176EA40E82EC01F0D8A465
:10116000B8EF08F0402A000E41228286B9EF08F05D
:10117000829662C012F00A0E85EC01F0226E62C007
:1011800012F00F0E8BEC01F0266E22C012F02650EA
:10119000B7EC01F0266E276E286E296E62C012F041
:1011A000190E85EC01F02A6E265027102810291000
:1011B000126E2A50BEEC01F02A6E2B6E2C6E2D6E34
:1011C00062C012F01E0E8BEC01F02E6E2A502B1016
:1011D0002C102D10126E2E50B7EC01F02E6E2F6ECB
:1011E000306E316E62C012F02D0E85EC01F0326E61
:1011F0002E502F1030103110126E3250BEEC01F014
:10120000326E336E346E356E62C012F0320E8BEC7D
:1012100001F0366E3250331034103510126E3650E5
:10122000B7EC01F0366E376E386E396E36503710C7
:1012300038103910D8B45BEF09F0FE0E7BEC00F0EB
:10124000020E7BEC00F0410E7BEC00F0510E7BECCB
:1012500000F0550E7BEC00F0410E7BEC00F02D0E03
:101260007BEC00F04C0E7BEC00F0450E7BEC00F0CC
:10127000440E7BEC00F0200E7BEC00F0200E7BECAB
:1012800000F0540E7BEC00F03D0E7BEC00F0020E03
:10129000036E88C01AF01B6A1C6A1D6AF40E0A6E7F
:1012A0000B6ACFEC00F0DF0E7BEC00F0430E7BEC22
:1012B00000F09DEF09F0FE0E7BEC00F0020E7BECDF
:1012C00000F0410E7BEC00F0510E7BEC00F0550E6F
:1012D0007BEC00F0410E7BEC00F02D0E7BEC00F07F
:1012E0004C0E7BEC00F0450E7BEC00F0440E7BECEA
:1012F00000F0200E7BEC00F0200E7BEC00F0200EC6
:101300007BEC00F0020E036E60C01AF01B6A1C6AD0
:101310001D6AF40E0A6E0B6ACFEC00F064517BEC90
:1013200000F0020E036E5CC01AF01B6A1C6A1D6A94
:10133000F40E0A6E0B6ACFEC00F0E86A82B8E86837
:10134000226EE86A82BAE868266E22C012F0265041
:10135000B7EC01F0266E276E286E296E26502710F6
:1013600028102910D8B4EBEF09F0FE0E7BEC00F04A
:10137000C00E7BEC00F0310E7BEC00F03D0E7BEC00
:1013800000F04F0E7BEC00F04E0E7BEC00F0200ED8
:101390007BEC00F0320E7BEC00F03D0E7BEC00F0BD
:1013A0004F0E7BEC00F04E0E7BEC00F0200E7BEC41
:1013B00000F0200E7BEC00F0200E7BEC00F0200E05
:1013C0007BEC00F03E507BEC00F0230E7BEC00F059
:1013D00052507BEC00F0E86A82B8E868226EE86A56
:1013E00082AAE868266E22C012F02650B7EC01F0FF
:1013F000266E276E286E296E265027102810291079
:10140000D8B439EF0AF0FE0E7BEC00F0C00E7BEC96
:1014100000F0310E7BEC00F03D0E7BEC00F04F0E47
:101420007BEC00F04E0E7BEC00F0200E7BEC00F02D
:10143000320E7BEC00F03D0E7BEC00F04F0E7BECAF
:1014400000F0460E7BEC00F0460E7BEC00F0200E28
:101450007BEC00F0200E7BEC00F0200E7BEC00F02B
:101460003E507BEC00F0230E7BEC00F052507BEC06
:1014700000F0E86A82A8E868226EE86A82AAE86852
:10148000266E22C012F02650B7EC01F0266E276EB1
:10149000286E296E2650271028102910D8B487EFFF
:1014A0000AF0FE0E7BEC00F0C00E7BEC00F0310E7B
:1014B0007BEC00F03D0E7BEC00F04F0E7BEC00F07F
:1014C000460E7BEC00F0460E7BEC00F0200E7BEC31
:1014D00000F0320E7BEC00F03D0E7BEC00F04F0E86
:1014E0007BEC00F0460E7BEC00F0460E7BEC00F04F
:1014F000200E7BEC00F0200E7BEC00F03E507BECED
:1015000000F0230E7BEC00F052507BEC00F0E86A18
:1015100082A8E868226EE86A82BAE868266E22C06D
:1015200012F02650B7EC01F0266E276E286E296E59
:101530002650271028102910D8B4D5EF0AF0FE0E37
:101540007BEC00F0C00E7BEC00F0310E7BEC00F089
:101550003D0E7BEC00F04F0E7BEC00F0460E7BEC7A
:1015600000F0460E7BEC00F0200E7BEC00F0320E1B
:101570007BEC00F03D0E7BEC00F04F0E7BEC00F0BE
:101580004E0E7BEC00F0200E7BEC00F0200E7BEC8E
:1015900000F0200E7BEC00F03E507BEC00F0230EC0
:1015A0007BEC00F052507BEC00F0D9EC0AF06CEFD1
:1015B00006F05CC077F060C01EF01F6A206A216AE6
:1015C0003C0E166E176A186A196A07EC02F0226E52
:1015D0001BC023F01CC024F01DC025F05C50222449
:1015E000566EE86A2320576E7751875DD8B4FDEFB9
:1015F0000AF0010E766FFEEF0AF0766BCDC085F033
:10160000CEC074F0CFC07BF0D1C084F0D2C073F0F4
:10161000D3C07AF085C01EF01F6A206A216A3C0E92
:10162000166E176A186A196A07EC02F0226E1BC060
:1016300023F01CC024F01DC025F0745122244C6EF0
:10164000E86A23204D6E84C01EF01F6A206A216A5A
:101650003C0E166E176A186A196A07EC02F0226EC1
:101660001BC023F01CC024F01DC025F073512224A0
:101670004A6EE86A23204B6E4CC012F04DC013F046
:1016800057C017F0565088EC01F0226E4AC012F095
:101690004BC013F057C017F0565082EC01F0266E85
:1016A00022C012F02650B7EC01F0266E276E286E8D
:1016B000296E2650271028102910D8B41BEF0CF0E3
:1016C0004CC012F04DC013F057C017F056507FECCD
:1016D00001F0226E62510008D8A4E868FF0A266E65
:1016E00022C012F02650B7EC01F0266E276E286E4D
:1016F000296E2650271028102910D8B497EF0BF028
:101700007BC06CF07BC01EF01F6A206A216A640EE9
:10171000166E176A186A196A07EC02F09D6F1BC0F3
:101720009EF01CC09FF01DC0A0F01BEF0CF04AC043
:1017300012F04BC013F057C017F056507FEC01F079
:10174000226E62510008D8A4E868FF0A266E22C003
:1017500012F02650B7EC01F0266E276E286E296E27
:101760002650271028102910D8B4BBEF0BF07AC0F0
:101770006CF01BEF0CF076510108D8A41BEF0CF0B5
:101780007B517A5D226EE86AD8A0E804236E246E4D
:10179000256E22C01EF023C01FF024C020F025C0FB
:1017A00021F0640E166E176A186A196A07EC02F0C7
:1017B000226E1BC023F01CC024F01DC025F04C502D
:1017C0004A5C266E4D504B58276EE86AD8A0E80454
:1017D000286E296E22C012F023C013F024C014F02A
:1017E00025C015F026C016F027C017F028C018F045
:1017F00029C019F0C3EC01F0266E13C027F014C005
:1018000028F015C029F026509D2727509E232850E8
:101810009F232950A0239DC012F09EC013F09FC0AB
:1018200014F0A0C015F0640E166E176A186A196AD3
:10183000C3EC01F06C6FD5C085F0D6C074F0D7C092
:101840007BF0D9C084F0DAC073F0DBC07AF085C0D9
:101850001EF01F6A206A216A3C0E166E176A186A0B
:10186000196A07EC02F0226E1BC023F01CC024F0A2
:101870001DC025F0745122244C6EE86A23204D6E61
:1018800084C01EF01F6A206A216A3C0E166E176A19
:10189000186A196A07EC02F0226E1BC023F01CC004
:1018A00024F01DC025F0735122244A6EE86A2320DB
:1018B0004B6E4CC012F04DC013F057C017F056508D
:1018C00088EC01F0226E4AC012F04BC013F057C0F2
:1018D00017F0565082EC01F0266E22C012F026500E
:1018E000B7EC01F0266E276E286E296E2650271061
:1018F00028102910D8B438EF0DF04CC012F04DC0AC
:1019000013F057C017F056507FEC01F0226E625171
:101910000008D8A4E868FF0A266E22C012F02650FC
:10192000B7EC01F0266E276E286E296E2650271020
:1019300028102910D8B4B4EF0CF07BC06CF07BC039
:101940001EF01F6A206A216A640E166E176A186AF2
:10195000196A07EC02F09D6F1BC09EF01CC09FF03F
:101960001DC0A0F038EF0DF04AC012F04BC013F0CC
:1019700057C017F056507FEC01F0226E62510008FC
:10198000D8A4E868FF0A266E22C012F02650B7ECF1
:1019900001F0266E276E286E296E2650271028101B
:1019A0002910D8B4D8EF0CF07AC06CF038EF0DF0F5
:1019B00076510108D8A438EF0DF07A517B5D226E84
:1019C000E86AD8A0E804236E246E256E22C01EF0BB
:1019D00023C01FF024C020F025C021F0640E166E35
:1019E000176A186A196A07EC02F0226E1BC023F00E
:1019F0001CC024F01DC025F04C504A5C266E4D5092
:101A00004B58276EE86AD8A0E804286E296E22C0D9
:101A100012F023C013F024C014F025C015F026C026
:101A200016F027C017F028C018F029C019F0C3EC31
:101A300001F0266E13C027F014C028F015C029F05D
:101A400026509D5F27509E5B28509F5B2950A05BCE
:101A50009DC012F09EC013F09FC014F0A0C015F0FE
:101A6000640E166E176A186A196AC3EC01F06C6F7F
:101A7000DDC085F0DEC074F0DFC07BF0E1C084F033
:101A8000E2C073F0E3C07AF085C01EF01F6A206ADE
:101A9000216A3C0E166E176A186A196A07EC02F082
:101AA000226E1BC023F01CC024F01DC025F0745111
:101AB00022244C6EE86A23204D6E84C01EF01F6AFB
:101AC000206A216A3C0E166E176A186A196A07ECBA
:101AD00002F0226E1BC023F01CC024F01DC025F0B4
:101AE000735122244A6EE86A23204B6E4CC012F0D8
:101AF0004DC013F057C017F0565088EC01F0226E1D
:101B00004AC012F04BC013F057C017F0565082EC89
:101B100001F0266E22C012F02650B7EC01F0266EBE
:101B2000276E286E296E2650271028102910D8B449
:101B300055EF0EF04CC012F04DC013F057C017F027
:101B400056507FEC01F0226E62510008D8A4E8687C
:101B5000FF0A266E22C012F02650B7EC01F0266E66
:101B6000276E286E296E2650271028102910D8B409
:101B7000D1EF0DF07BC06DF07BC01EF01F6A206AB4
:101B8000216A640E166E176A186A196A07EC02F069
:101B9000A16F1BC0A2F01CC0A3F01DC0A4F055EFA4
:101BA0000EF04AC012F04BC013F057C017F0565059
:101BB0007FEC01F0226E62510008D8A4E868FF0AA9
:101BC000266E22C012F02650B7EC01F0266E276E6A
:101BD000286E296E2650271028102910D8B4F5EF4A
:101BE0000DF07AC06DF055EF0EF076510108D8A4D3
:101BF00055EF0EF07B517A5D226EE86AD8A0E804BA
:101C0000236E246E256E22C01EF023C01FF024C058
:101C100020F025C021F0640E166E176A186A196A42
:101C200007EC02F0226E1BC023F01CC024F01DC084
:101C300025F04C504A5C266E4D504B58276EE86A92
:101C4000D8A0E804286E296E22C012F023C013F039
:101C500024C014F025C015F026C016F027C017F0D8
:101C600028C018F029C019F0C3EC01F0266E13C08B
:101C700027F014C028F015C029F02650A1272750BE
:101C8000A2232850A3232950A423A1C012F0A2C04C
:101C900013F0A3C014F0A4C015F0640E166E176AFA
:101CA000186A196AC3EC01F06D6FE5C085F0E6C0F3
:101CB00074F0E7C07BF0E9C084F0EAC073F0EBC0D9
:101CC0007AF085C01EF01F6A206A216A3C0E166EEB
:101CD000176A186A196A07EC02F0226E1BC023F01B
:101CE0001CC024F01DC025F0745122244C6EE86AFB
:101CF00023204D6E84C01EF01F6A206A216A3C0EAC
:101D0000166E176A186A196A07EC02F0226E1BC079
:101D100023F01CC024F01DC025F0735122244A6E0C
:101D2000E86A23204B6E4CC012F04DC013F057C030
:101D300017F0565088EC01F0226E4AC012F04BC0EA
:101D400013F057C017F0565082EC01F0266E22C0F7
:101D500012F02650B7EC01F0266E276E286E296E21
:101D60002650271028102910D8B472EF0FF04CC05D
:101D700012F04DC013F057C017F056507FEC01F031
:101D8000226E62510008D8A4E868FF0A266E22C0BD
:101D900012F02650B7EC01F0266E276E286E296EE1
:101DA0002650271028102910D8B4EEEF0EF07BC073
:101DB0006DF07BC01EF01F6A206A216A640E166EE9
:101DC000176A186A196A07EC02F0A16F1BC0A2F02B
:101DD0001CC0A3F01DC0A4F072EF0FF04AC012F0B7
:101DE0004BC013F057C017F056507FEC01F0226E35
:101DF00062510008D8A4E868FF0A266E22C012F0DB
:101E00002650B7EC01F0266E276E286E296E2650FC
:101E1000271028102910D8B412EF0FF07AC06DF0F7
:101E200072EF0FF076510108D8A472EF0FF07A51DB
:101E30007B5D226EE86AD8A0E804236E246E256ECE
:101E400022C01EF023C01FF024C020F025C021F0C6
:101E5000640E166E176A186A196A07EC02F0226E91
:101E60001BC023F01CC024F01DC025F04C504A5C60
:101E7000266E4D504B58276EE86AD8A0E804286EAD
:101E8000296E22C012F023C013F024C014F025C024
:101E900015F026C016F027C017F028C018F029C08A
:101EA00019F0C3EC01F0266E13C027F014C028F01F
:101EB00015C029F02650A15F2750A25B2850A35BD4
:101EC0002950A45BA1C012F0A2C013F0A3C014F06B
:101ED000A4C015F0640E166E176A186A196AC3EC6E
:101EE00001F06D6FEDC085F0EEC074F0EFC07BF0D7
:101EF000F1C084F0F2C073F0F3C07AF085C01EF038
:101F00001F6A206A216A3C0E166E176A186A196ADF
:101F100007EC02F0226E1BC023F01CC024F01DC091
:101F200025F0745122244C6EE86A23204D6E84C043
:101F30001EF01F6A206A216A3C0E166E176A186A24
:101F4000196A07EC02F0226E1BC023F01CC024F0BB
:101F50001DC025F0735122244A6EE86A23204B6E7F
:101F60004CC012F04DC013F057C017F0565088EC1B
:101F700001F0226E4AC012F04BC013F057C017F0A8
:101F8000565082EC01F0266E22C012F02650B7ECBB
:101F900001F0266E276E286E296E26502710281015
:101FA0002910D8B48FEF10F04CC012F04DC013F0D0
:101FB00057C017F056507FEC01F0226E62510008B6
:101FC000D8A4E868FF0A266E22C012F02650B7ECAB
:101FD00001F0266E276E286E296E265027102810D5
:101FE0002910D8B40BEF10F07BC06EF07BC01EF050
:101FF0001F6A206A216A640E166E176A186A196AC7
:1020000007EC02F0A56F1BC0A6F01CC0A7F01DC016
:10201000A8F08FEF10F04AC012F04BC013F057C079
:1020200017F056507FEC01F0226E62510008D8A4E0
:10203000E868FF0A266E22C012F02650B7EC01F0C5
:10204000266E276E286E296E26502710281029101C
:10205000D8B42FEF10F07AC06EF08FEF10F07651F9
:102060000108D8A48FEF10F07B517A5D226EE86AE8
:10207000D8A0E804236E246E256E22C01EF023C073
:102080001FF024C020F025C021F0640E166E176AE0
:10209000186A196A07EC02F0226E1BC023F01CC0FC
:1020A00024F01DC025F04C504A5C266E4D504B5814
:1020B000276EE86AD8A0E804286E296E22C012F0C4
:1020C00023C013F024C014F025C015F026C016F06C
:1020D00027C017F028C018F029C019F0C3EC01F090
:1020E000266E13C027F014C028F015C029F0265022
:1020F000A5272750A6232850A7232950A823A5C0E9
:1021000012F0A6C013F0A7C014F0A8C015F0640E1A
:10211000166E176A186A196AC3EC01F06E6FF5C083
:1021200085F0F6C074F0F7C07BF0F9C084F0FAC017
:1021300073F0FBC07AF085C01EF01F6A206A216A26
:102140003C0E166E176A186A196A07EC02F0226EC6
:102150001BC023F01CC024F01DC025F074512224A4
:102160004C6EE86A23204D6E84C01EF01F6A206A00
:10217000216A3C0E166E176A186A196A07EC02F09B
:10218000226E1BC023F01CC024F01DC025F073512B
:1021900022244A6EE86A23204B6E4CC012F04DC0D8
:1021A00013F057C017F0565088EC01F0226E4AC069
:1021B00012F04BC013F057C017F0565082EC01F0EC
:1021C000266E22C012F02650B7EC01F0266E276E64
:1021D000286E296E2650271028102910D8B4ACEF8D
:1021E00011F04CC012F04DC013F057C017F056500C
:1021F0007FEC01F0226E62510008D8A4E868FF0A63
:10220000266E22C012F02650B7EC01F0266E276E23
:10221000286E296E2650271028102910D8B428EFD0
:1022200011F07BC06EF07BC01EF01F6A206A216A2D
:10223000640E166E176A186A196A07EC02F0A56F29
:102240001BC0A6F01CC0A7F01DC0A8F0ACEF11F099
:102250004AC012F04BC013F057C017F056507FEC35
:1022600001F0226E62510008D8A4E868FF0A266EC9
:1022700022C012F02650B7EC01F0266E276E286EB1
:10228000296E2650271028102910D8B44CEF11F0D1
:102290007AC06EF0ACEF11F076510108D8A4ACEF23
:1022A00011F07A517B5D226EE86AD8A0E804236EB3
:1022B000246E256E22C01EF023C01FF024C020F023
:1022C00025C021F0640E166E176A186A196A07ECA9
:1022D00002F0226E1BC023F01CC024F01DC025F0AC
:1022E0004C504A5C266E4D504B58276EE86AD8A079
:1022F000E804286E296E22C012F023C013F024C017
:1023000014F025C015F026C016F027C017F028C01D
:1023100018F029C019F0C3EC01F0266E13C027F0A5
:1023200014C028F015C029F02650A55F2750A65BE1
:102330002850A75B2950A85BA5C012F0A6C013F0D7
:10234000A7C014F0A8C015F0640E166E176A186ABC
:10235000196AC3EC01F06E6FFDC085F0FEC074F029
:10236000FFC07BF001C184F002C173F003C17AF0B9
:1023700085C01EF01F6A206A216A3C0E166E176A1D
:10238000186A196A07EC02F0226E1BC023F01CC009
:1023900024F01DC025F0745122244C6EE86A2320DD
:1023A0004D6E84C01EF01F6A206A216A3C0E166EB4
:1023B000176A186A196A07EC02F0226E1BC023F034
:1023C0001CC024F01DC025F0735122244A6EE86A17
:1023D00023204B6E4CC012F04DC013F057C017F0C5
:1023E000565088EC01F0226E4AC012F04BC013F038
:1023F00057C017F0565082EC01F0266E22C012F042
:102400002650B7EC01F0266E276E286E296E2650F6
:10241000271028102910D8B4C9EF12F04CC012F0C0
:102420004DC013F057C017F056507FEC01F0226EEC
:1024300062510008D8A4E868FF0A266E22C012F094
:102440002650B7EC01F0266E276E286E296E2650B6
:10245000271028102910D8B445EF12F07BC06FF078
:102460007BC01EF01F6A206A216A640E166E176A0E
:10247000186A196A07EC02F0A96F1BC0AAF01CC009
:10248000ABF01DC0ACF0C9EF12F04AC012F04BC067
:1024900013F057C017F056507FEC01F0226E6251D6
:1024A0000008D8A4E868FF0A266E22C012F0265061
:1024B000B7EC01F0266E276E286E296E2650271085
:1024C00028102910D8B469EF12F07AC06FF0C9EF64
:1024D00012F076510108D8A4C9EF12F07B517A5D51
:1024E000226EE86AD8A0E804236E246E256E22C00E
:1024F0001EF023C01FF024C020F025C021F0640E80
:10250000166E176A186A196A07EC02F0226E1BC071
:1025100023F01CC024F01DC025F04C504A5C266EF0
:102520004D504B58276EE86AD8A0E804286E296EF3
:1025300022C012F023C013F024C014F025C015F0FF
:1025400026C016F027C017F028C018F029C019F0CF
:10255000C3EC01F0266E13C027F014C028F015C09C
:1025600029F02650A9272750AA232850AB23295009
:10257000AC23A9C012F0AAC013F0ABC014F0ACC0D9
:1025800015F0640E166E176A186A196AC3EC01F02A
:102590006F6F05C185F006C174F007C17BF009C1FA
:1025A00084F00AC173F00BC17AF085C01EF01F6A77
:1025B000206A216A3C0E166E176A186A196A07ECBF
:1025C00002F0226E1BC023F01CC024F01DC025F0B9
:1025D000745122244C6EE86A23204D6E84C01EF094
:1025E0001F6A206A216A3C0E166E176A186A196AF9
:1025F00007EC02F0226E1BC023F01CC024F01DC0AB
:1026000025F0735122244A6EE86A23204B6E4CC099
:1026100012F04DC013F057C017F0565088EC01F07F
:10262000226E4AC012F04BC013F057C017F056503C
:1026300082EC01F0266E22C012F02650B7EC01F0B9
:10264000266E276E286E296E265027102810291016
:10265000D8B4E6EF13F04CC012F04DC013F057C0E1
:1026600017F056507FEC01F0226E62510008D8A49A
:10267000E868FF0A266E22C012F02650B7EC01F07F
:10268000266E276E286E296E2650271028102910D6
:10269000D8B462EF13F07BC06FF07BC01EF01F6AEE
:1026A000206A216A640E166E176A186A196A07ECA6
:1026B00002F0A96F1BC0AAF01CC0ABF01DC0ACF0AB
:1026C000E6EF13F04AC012F04BC013F057C017F0FA
:1026D00056507FEC01F0226E62510008D8A4E868E1
:1026E000FF0A266E22C012F02650B7EC01F0266ECB
:1026F000276E286E296E2650271028102910D8B46E
:1027000086EF13F07AC06FF0E6EF13F07651010810
:10271000D8A4E6EF13F07A517B5D226EE86AD8A068
:10272000E804236E246E256E22C01EF023C01FF025
:1027300024C020F025C021F0640E166E176A186AB6
:10274000196A07EC02F0226E1BC023F01CC024F0B3
:102750001DC025F04C504A5C266E4D504B58276EDC
:10276000E86AD8A0E804286E296E22C012F023C0BF
:1027700013F024C014F025C015F026C016F027C0B1
:1027800017F028C018F029C019F0C3EC01F0266E2C
:1027900013C027F014C028F015C029F02650A95FF7
:1027A0002750AA5B2850AB5B2950AC5BA9C012F044
:1027B000AAC013F0ABC014F0ACC015F0640E166ED6
:1027C000176A186A196AC3EC01F06F6F7D5100082F
:1027D000D8A4C8EF14F03BBCC8EF14F03AA090EFB7
:1027E00014F06CC01EF01F6A206A216A166A040E7B
:1027F000176E186A196A07EC02F0226E1BC023F0EC
:102800001CC024F01DC025F022C012F023C013F01C
:1028100024C014F025C015F0640E166E176A186AED
:10282000196AC3EC01F08D6F13C08EF014C08FF0E5
:1028300015C090F06DC01EF01F6A206A216A166AEA
:10284000040E176E186A196A07EC02F0226E1BC09C
:1028500023F01CC024F01DC025F022C012F023C0BC
:1028600013F024C014F025C015F0640E166E176A1C
:10287000186A196AC3EC01F0916F13C092F014C08A
:1028800093F015C094F06EC01EF01F6A206A216A92
:10289000166A040E176E186A196A07EC02F0226EA7
:1028A0001BC023F01CC024F01DC025F022C012F074
:1028B00023C013F024C014F025C015F0640E166E6A
:1028C000176A186A196AC3EC01F0956F13C096F085
:1028D00014C097F015C098F0040E666F8DC044F0D8
:1028E0008EC045F042C046F043C047F0A6EC02F06F
:1028F000030E666F91C044F092C045F042C046F0AE
:1029000043C047F0A6EC02F0010E666F95C044F09C
:1029100096C045F042C046F043C047F0A6EC02F036
:102920003AA2C8EF14F06FC01EF01F6A206A216A35
:10293000166A040E176E186A196A07EC02F0226E06
:102940001BC023F01CC024F01DC025F022C012F0D3
:1029500023C013F024C014F025C015F0640E166EC9
:10296000176A186A196AC3EC01F0996F13C09AF0DC
:1029700014C09BF015C09CF0020E666F99C044F025
:102980009AC045F042C046F043C047F0A6EC02F0C2
:10299000B551605DD8A4E868FF0A226EB6515C5C50
:1029A000D8A4E868FF0A266E22C012F02650B7ECC1
:1029B00001F0266E276E286E296E62510008D8A499
:1029C000E868FF0A2A6E2650271028102910126E78
:1029D0002A50B7EC01F02A6E2B6E2C6E2D6E2A5009
:1029E0002B102C102D10D8B4F7EF14F08288B751AB
:1029F000605DD8A4E868FF0A226EB8515C5CD8A478
:102A0000E868FF0A266E22C012F02650B7EC01F0EB
:102A1000266E276E286E296E62510008D8A4E868D9
:102A2000FF0A2A6E2650271028102910126E2A50ED
:102A3000B7EC01F02A6E2B6E2C6E2D6E2A502B10E7
:102A40002C102D10D8B426EF15F08298B951605D86
:102A5000D8A4E868FF0A226EBA515C5CD8A4E86882
:102A6000FF0A266E22C012F02650B7EC01F0266E47
:102A7000276E286E296E62510008D8A4E868FF0A04
:102A80002A6E2650271028102910126E2A50B7ECF3
:102A900001F02A6E2B6E2C6E2D6E2A502B102C10EE
:102AA0002D10D8B455EF15F08288BB51605DD8A4C5
:102AB000E868FF0A226EBC515C5CD8A4E868FF0A93
:102AC000266E22C012F02650B7EC01F0266E276E5B
:102AD000286E296E62510008D8A4E868FF0A2A6EA1
:102AE0002650271028102910126E2A50B7EC01F03A
:102AF0002A6E2B6E2C6E2D6E2A502B102C102D1042
:102B0000D8B484EF15F08298BD51605DD8A4E86810
:102B1000FF0A226EBE515C5CD8A4E868FF0A266EEC
:102B200022C012F02650B7EC01F0266E276E286EF8
:102B3000296E62510008D8A4E868FF0A2A6E265060
:102B4000271028102910126E2A50B7EC01F02A6EB7
:102B50002B6E2C6E2D6E2A502B102C102D10D8B4ED
:102B6000B3EF15F0828ABF51605DD8A4E868FF0A10
:102B7000226EC0515C5CD8A4E868FF0A266E22C0B1
:102B800012F02650B7EC01F0266E276E286E296EE3
:102B900062510008D8A4E868FF0A2A6E2650271060
:102BA00028102910126E2A50B7EC01F02A6E2B6EF5
:102BB0002C6E2D6E2A502B102C102D10D8B4E2EF55
:102BC00015F0829AC151605DD8A4E868FF0A226EB0
:102BD000C2515C5CD8A4E868FF0A266E22C012F0DD
:102BE0002650B7EC01F0266E276E286E296E6251D2
:102BF0000008D8A4E868FF0A2A6E2650271028107B
:102C00002910126E2A50B7EC01F02A6E2B6E2C6E32
:102C10002D6E2A502B102C102D10D8B411EF16F059
:102C2000828AC351605DD8A4E868FF0A226EC4514D
:102C30005C5CD8A4E868FF0A266E22C012F0265019
:102C4000B7EC01F0266E276E286E296E62510008DF
:102C5000D8A4E868FF0A2A6E2650271028102910E9
:102C6000126E2A50B7EC01F02A6E2B6E2C6E2D6E70
:102C70002A502B102C102D10D8B440EF16F0829A49
:102C800077C087F012008286D9EC0AF03AA653EF9B
:102C900016F08A510308D8A452EF16F0030E8A6F7B
:102CA00053EF16F08A2B3AA860EF16F08A5101080C
:102CB000D8A45FEF16F0010E8A6F60EF16F08A0756
:102CC0003AAA69EF16F0406A416A010E8A6F6CEF0A
:102CD00006F062EC3AF08A510108D8A40FEF17F021
:102CE000FE0E7BEC00F0020E7BEC00F07E0E7BEC27
:102CF00000F04C0E7BEC00F0450E7BEC00F0440E37
:102D00007BEC00F02D0E7BEC00F06C0E7BEC00F009
:102D1000690E7BEC00F0670E7BEC00F0680E7BEC3C
:102D200000F0740E7BEC00F0200E7BEC00F0200E27
:102D30007BEC00F0200E7BEC00F0200E7BEC00F032
:102D4000200E7BEC00F0200E7BEC00F0200E7BECE4
:102D500000F0200E7BEC00F0200E7BEC00F0FE0E6D
:102D60007BEC00F0C00E7BEC00F0200E7BEC00F062
:102D7000490E7BEC00F06E0E7BEC00F0740E7BECE9
:102D800000F0650E7BEC00F0720E7BEC00F06E0E36
:102D90007BEC00F0610E7BEC00F06C0E7BEC00F045
:102DA000200E7BEC00F0730E7BEC00F0770E7BECDA
:102DB00000F0690E7BEC00F0740E7BEC00F0630E0B
:102DC0007BEC00F0680E7BEC00F0200E7BEC00F05A
:102DD000200E7BEC00F0200E7BEC00F0200E7BEC54
:102DE00000F0200E7BEC00F0200E7BEC00F0200EBB
:102DF0007BEC00F0200E7BEC00F0200E7BEC00F072
:102E0000200E7BEC00F0200E7BEC00F03BAE0DEFD3
:102E100017F0010E8A6F20EF18F01FEF18F08A519B
:102E20000208D8A498EF17F0FE0E7BEC00F0020E1B
:102E30007BEC00F0200E7BEC00F04C0E7BEC00F005
:102E4000450E7BEC00F0440E7BEC00F02D0E7BEC8D
:102E500000F06C0E7BEC00F0690E7BEC00F0670E6E
:102E60007BEC00F0680E7BEC00F0740E7BEC00F065
:102E7000200E7BEC00F0200E7BEC00F0200E7BECB3
:102E800000F0200E7BEC00F0200E7BEC00F0200E1A
:102E90007BEC00F0200E7BEC00F0200E7BEC00F0D1
:102EA000FE0E7BEC00F0C00E7BEC00F07E0E7BECA7
:102EB00000F0490E7BEC00F06E0E7BEC00F0740E1F
:102EC0007BEC00F0650E7BEC00F0720E7BEC00F00A
:102ED0006E0E7BEC00F0610E7BEC00F06C0E7BEC78
:102EE00000F0200E7BEC00F0730E7BEC00F0770E10
:102EF0007BEC00F0690E7BEC00F0740E7BEC00F0D4
:102F0000630E7BEC00F0680E7BEC00F0200E7BEC97
:102F100000F0200E7BEC00F0200E7BEC00F03BAECE
:102F200096EF17F0010E8A6F74EF24F01FEF18F080
:102F30008A510308D8A41FEF18F0FE0E7BEC00F0B6
:102F4000020E7BEC00F07E0E7BEC00F0540E7BEC6E
:102F500000F06F0E7BEC00F06F0E7BEC00F06C0E5F
:102F60007BEC00F0730E7BEC00F0200E7BEC00F0AD
:102F7000200E7BEC00F0200E7BEC00F0200E7BECB2
:102F800000F0200E7BEC00F0200E7BEC00F0200E19
:102F90007BEC00F0200E7BEC00F0200E7BEC00F0D0
:102FA000200E7BEC00F0200E7BEC00F0200E7BEC82
:102FB00000F0200E7BEC00F0FE0E7BEC00F0C00E6B
:102FC0007BEC00F0200E7BEC00F0200E7BEC00F0A0
:102FD000200E7BEC00F0200E7BEC00F0200E7BEC52
:102FE00000F0200E7BEC00F0200E7BEC00F0200EB9
:102FF0007BEC00F0200E7BEC00F0200E7BEC00F070
:10300000200E7BEC00F0200E7BEC00F0200E7BEC21
:1030100000F0200E7BEC00F0200E7BEC00F0200E88
:103020007BEC00F0200E7BEC00F0200E7BEC00F03F
:103030003BAE1FEF18F0010E8A6F0DEF2FF023D675
:10304000D9EC0AF062EC3AF03AA631EF18F08A5166
:103050000208D8A430EF18F0020E8A6F31EF18F092
:103060008A2B3AA83EEF18F08A510108D8A43DEF08
:1030700018F0010E8A6F3EEF18F08A073AAA45EF62
:1030800018F0010E8A6F43EF16F08A510108D8A498
:10309000DAEF18F0FE0E7BEC00F0020E7BEC00F095
:1030A0007E0E7BEC00F0410E7BEC00F0750E7BECAD
:1030B00000F0740E7BEC00F06F0E7BEC00F06D0EF8
:1030C0007BEC00F0610E7BEC00F0740E7BEC00F00A
:1030D000690E7BEC00F0630E7BEC00F0200E7BECC5
:1030E00000F0200E7BEC00F0200E7BEC00F0200EB8
:1030F0007BEC00F0200E7BEC00F0200E7BEC00F06F
:10310000200E7BEC00F0200E7BEC00F0200E7BEC20
:1031100000F0200E7BEC00F0FE0E7BEC00F0C00E09
:103120007BEC00F0200E7BEC00F04D0E7BEC00F011
:10313000610E7BEC00F06E0E7BEC00F0750E7BEC0C
:1031400000F0610E7BEC00F06C0E7BEC00F0200ECA
:103150007BEC00F0200E7BEC00F0200E7BEC00F00E
:10316000200E7BEC00F0200E7BEC00F0200E7BECC0
:1031700000F0200E7BEC00F0200E7BEC00F0200E27
:103180007BEC00F0200E7BEC00F0200E7BEC00F0DE
:10319000200E7BEC00F0200E7BEC00F0200E7BEC90
:1031A00000F03BAED8EF18F0010E8A6F6EEF19F009
:1031B0006DEF19F08A510208D8A46DEF19F0FE0ED8
:1031C0007BEC00F0020E7BEC00F0200E7BEC00F0BC
:1031D000410E7BEC00F0750E7BEC00F0740E7BEC86
:1031E00000F06F0E7BEC00F06D0E7BEC00F0610EDA
:1031F0007BEC00F0740E7BEC00F0690E7BEC00F0D1
:10320000630E7BEC00F0200E7BEC00F0200E7BECDC
:1032100000F0200E7BEC00F0200E7BEC00F0200E86
:103220007BEC00F0200E7BEC00F0200E7BEC00F03D
:10323000200E7BEC00F0200E7BEC00F0200E7BECEF
:1032400000F0200E7BEC00F0FE0E7BEC00F0C00ED8
:103250007BEC00F07E0E7BEC00F04D0E7BEC00F082
:10326000610E7BEC00F06E0E7BEC00F0750E7BECDB
:1032700000F0610E7BEC00F06C0E7BEC00F0200E99
:103280007BEC00F0200E7BEC00F0200E7BEC00F0DD
:10329000200E7BEC00F0200E7BEC00F0200E7BEC8F
:1032A00000F0200E7BEC00F0200E7BEC00F0200EF6
:1032B0007BEC00F0200E7BEC00F0200E7BEC00F0AD
:1032C000200E7BEC00F0200E7BEC00F03BAE6DEFAF
:1032D00019F0010E8A6F60EF2AF0B2D6D9EC0AF02D
:1032E00062EC3AF03AA67FEF19F08A510208D8A4AE
:1032F0007EEF19F0020E8A6F7FEF19F08A2B3AA841
:103300008CEF19F08A510108D8A48BEF19F0010E47
:103310008A6F8CEF19F08A073AAA92EF19F0010E22
:103320008A6F8ED68A510108D8A433EF1AF0FE0EA8
:103330007BEC00F0020E7BEC00F07E0E7BEC00F0EC
:10334000410E7BEC00F0710E7BEC00F0750E7BEC17
:1033500000F0610E7BEC00F0720E7BEC00F0690E69
:103360007BEC00F0750E7BEC00F06D0E7BEC00F05A
:10337000200E7BEC00F06C0E7BEC00F0690E7BEC19
:1033800000F0670E7BEC00F0680E7BEC00F0740E32
:103390007BEC00F0200E7BEC00F0200E7BEC00F0CC
:1033A000200E7BEC00F0200E7BEC00F0200E7BEC7E
:1033B00000F0200E7BEC00F0FE0E7BEC00F0C00E67
:1033C0007BEC00F0200E7BEC00F0520E7BEC00F06A
:1033D0006F0E7BEC00F06F0E7BEC00F06D0E7BEC63
:1033E00000F0200E7BEC00F06C0E7BEC00F0690E20
:1033F0007BEC00F0670E7BEC00F0680E7BEC00F0DD
:10340000740E7BEC00F0200E7BEC00F0200E7BECC9
:1034100000F0200E7BEC00F0200E7BEC00F0200E84
:103420007BEC00F0200E7BEC00F0200E7BEC00F03B
:10343000200E7BEC00F0200E7BEC00F0200E7BECED
:1034400000F0200E7BEC00F0200E7BEC00F0200E54
:103450007BEC00F03BAE31EF1AF0010E8A6FC9EF42
:103460001AF0C8EF1AF08A510208D8A4C8EF1AF06F
:10347000FE0E7BEC00F0020E7BEC00F0200E7BECED
:1034800000F0410E7BEC00F0710E7BEC00F0750E4D
:103490007BEC00F0610E7BEC00F0720E7BEC00F038
:1034A000690E7BEC00F0750E7BEC00F06D0E7BEC92
:1034B00000F0200E7BEC00F06C0E7BEC00F0690E4F
:1034C0007BEC00F0670E7BEC00F0680E7BEC00F00C
:1034D000740E7BEC00F0200E7BEC00F0200E7BECF9
:1034E00000F0200E7BEC00F0200E7BEC00F0200EB4
:1034F0007BEC00F0FE0E7BEC00F0C00E7BEC00F0ED
:103500007E0E7BEC00F0520E7BEC00F06F0E7BEC3D
:1035100000F06F0E7BEC00F06D0E7BEC00F0200EE7
:103520007BEC00F06C0E7BEC00F0690E7BEC00F0A5
:10353000670E7BEC00F0680E7BEC00F0740E7BEC09
:1035400000F0200E7BEC00F0200E7BEC00F0200E53
:103550007BEC00F0200E7BEC00F0200E7BEC00F00A
:10356000200E7BEC00F0200E7BEC00F0200E7BECBC
:1035700000F0200E7BEC00F0200E7BEC00F03BAE68
:10358000C8EF1AF0010E8A6F040E586E93EF1CF00C
:10359000A5D6D9EC0AF062EC3AF03AA6DAEF1AF0C6
:1035A0008A510308D8A4D9EF1AF0030E8A6FDAEF14
:1035B0001AF08A2B3AA8E7EF1AF08A510108D8A42A
:1035C000E6EF1AF0010E8A6FE7EF1AF08A073AAABF
:1035D000EDEF1AF0010E8A6F81D68A510108D8A446
:1035E0007BEF1BF0FE0E7BEC00F0020E7BEC00F09C
:1035F0007E0E7BEC00F0430E7BEC00F0680E7BEC63
:1036000000F0610E7BEC00F06E0E7BEC00F06E0EB5
:103610007BEC00F0650E7BEC00F06C0E7BEC00F0B8
:10362000200E7BEC00F0230E7BEC00F0310E7BECE7
:1036300000F0200E7BEC00F0200E7BEC00F0200E62
:103640007BEC00F0200E7BEC00F0200E7BEC00F019
:10365000200E7BEC00F0200E7BEC00F0200E7BECCB
:1036600000F0FE0E7BEC00F0C00E7BEC00F0200EB4
:103670007BEC00F0430E7BEC00F0680E7BEC00F07E
:10368000610E7BEC00F06E0E7BEC00F06E0E7BECBE
:1036900000F0650E7BEC00F06C0E7BEC00F0200E71
:1036A0007BEC00F0230E7BEC00F0320E7BEC00F0A4
:1036B000200E7BEC00F0200E7BEC00F0200E7BEC6B
:1036C00000F0200E7BEC00F0200E7BEC00F0200ED2
:1036D0007BEC00F0200E7BEC00F0200E7BEC00F089
:1036E0003BAE79EF1BF0010E586E010E8A6F93EF1F
:1036F0001CF092EF1CF08A510208D8A409EF1CF0CC
:10370000FE0E7BEC00F0020E7BEC00F0200E7BEC5A
:1037100000F0430E7BEC00F0680E7BEC00F0610ED5
:103720007BEC00F06E0E7BEC00F06E0E7BEC00F09C
:10373000650E7BEC00F06C0E7BEC00F0200E7BEC59
:1037400000F0230E7BEC00F0310E7BEC00F0200E3D
:103750007BEC00F0200E7BEC00F0200E7BEC00F008
:10376000200E7BEC00F0200E7BEC00F0200E7BECBA
:1037700000F0200E7BEC00F0FE0E7BEC00F0C00EA3
:103780007BEC00F07E0E7BEC00F0430E7BEC00F057
:10379000680E7BEC00F0610E7BEC00F06E0E7BECB3
:1037A00000F06E0E7BEC00F0650E7BEC00F06C0E12
:1037B0007BEC00F0200E7BEC00F0230E7BEC00F0A5
:1037C000320E7BEC00F0200E7BEC00F0200E7BEC48
:1037D00000F0200E7BEC00F0200E7BEC00F0200EC1
:1037E0007BEC00F0200E7BEC00F0200E7BEC00F078
:1037F000200E7BEC00F0200E7BEC00F03BAE07EFE0
:103800001CF0020E586E010E8A6F93EF1CF092EFBF
:103810001CF08A510308D8A492EF1CF0FE0E7BEC3A
:1038200000F0020E7BEC00F07E0E7BEC00F0430E0D
:103830007BEC00F0680E7BEC00F0610E7BEC00F09E
:103840006E0E7BEC00F06E0E7BEC00F0650E7BECF8
:1038500000F06C0E7BEC00F0200E7BEC00F0230EF1
:103860007BEC00F0330E7BEC00F0200E7BEC00F0E4
:10387000200E7BEC00F0200E7BEC00F0200E7BECA9
:1038800000F0200E7BEC00F0200E7BEC00F0200E10
:103890007BEC00F0200E7BEC00F0200E7BEC00F0C7
:1038A000FE0E7BEC00F0C00E7BEC00F0200E7BECFB
:1038B00000F0200E7BEC00F0200E7BEC00F0200EE0
:1038C0007BEC00F0200E7BEC00F0200E7BEC00F097
:1038D000200E7BEC00F0200E7BEC00F0200E7BEC49
:1038E00000F0200E7BEC00F0200E7BEC00F0200EB0
:1038F0007BEC00F0200E7BEC00F0200E7BEC00F067
:10390000200E7BEC00F0200E7BEC00F0200E7BEC18
:1039100000F03BAE92EF1CF0030E586E010E8A6F62
:1039200093EF1CF036D6D9EC0AF062EC3AF03AA6E6
:10393000A4EF1CF08A510208D8A4A3EF1CF0020ED9
:103940008A6FA4EF1CF08A2B3AA8B1EF1CF08A51C1
:103950000108D8A4B0EF1CF0010E8A6FB1EF1CF083
:103960008A073AAAC2EF1CF058500408D8A4BFEF47
:103970001CF0020E8A6F6EEF19F0C2EF1CF058C0F7
:103980008AF007D68A510108D8A441EF1DF0FE0E37
:103990007BEC00F0020E7BEC00F07E0E7BEC00F086
:1039A000530E7BEC00F0750E7BEC00F06E0E7BECA2
:1039B00000F0720E7BEC00F0690E7BEC00F0730EF1
:1039C0007BEC00F0650E7BEC00F0200E7BEC00F051
:1039D000200E7BEC00F0200E7BEC00F0200E7BEC48
:1039E00000F0200E7BEC00F0200E7BEC00F0200EAF
:1039F0007BEC00F0200E7BEC00F0200E7BEC00F066
:103A0000200E7BEC00F0FE0E7BEC00F0C00E7BEC99
:103A100000F0200E7BEC00F0530E7BEC00F0750EF6
:103A20007BEC00F06E0E7BEC00F0730E7BEC00F094
:103A3000650E7BEC00F0740E7BEC00F0200E7BEC4E
:103A400000F0200E7BEC00F0200E7BEC00F0200E4E
:103A50007BEC00F0200E7BEC00F0200E7BEC00F005
:103A6000200E7BEC00F0200E7BEC00F0200E7BECB7
:103A700000F0200E7BEC00F0200E7BEC00F0DCEF81
:103A80001DF08A510208D8A4DCEF1DF0FE0E7BEC7D
:103A900000F0020E7BEC00F0200E7BEC00F0530EE9
:103AA0007BEC00F0750E7BEC00F06E0E7BEC00F012
:103AB000720E7BEC00F0690E7BEC00F0730E7BEC79
:103AC00000F0650E7BEC00F0200E7BEC00F0200E89
:103AD0007BEC00F0200E7BEC00F0200E7BEC00F085
:103AE000200E7BEC00F0200E7BEC00F0200E7BEC37
:103AF00000F0200E7BEC00F0200E7BEC00F0200E9E
:103B00007BEC00F0200E7BEC00F0200E7BEC00F054
:103B1000200E7BEC00F0200E7BEC00F0200E7BEC06
:103B200000F0200E7BEC00F0200E7BEC00F0200E6D
:103B30007BEC00F0FE0E7BEC00F0C00E7BEC00F0A6
:103B40007E0E7BEC00F0530E7BEC00F0750E7BECF0
:103B500000F06E0E7BEC00F0730E7BEC00F0650E57
:103B60007BEC00F0740E7BEC00F0200E7BEC00F0A0
:103B7000200E7BEC00F0200E7BEC00F0200E7BECA6
:103B800000F0200E7BEC00F0200E7BEC00F0200E0D
:103B90007BEC00F0200E7BEC00F0200E7BEC00F0C4
:103BA000200E7BEC00F0200E7BEC00F0200E7BEC76
:103BB00000F0200E7BEC00F03BAEAFEF1FF08A511F
:103BC0000108D8A4E5EF1DF03A9C8A510208D8A458
:103BD000EBEF1DF03A8C58500108D8A4E868FF0AB2
:103BE000226EE86A3AACE868266E22C012F02650CF
:103BF000B7EC01F0266E276E286E296E265027102E
:103C000028102910D8B423EF1EF0080EA96E2EEC50
:103C100001F05E6E090EA96E2EEC01F05A6E0A0ECE
:103C2000A96E2EEC01F06A6F0C0EA96E2EEC01F05D
:103C30005F6E0D0EA96E2EEC01F05B6E0E0EA96E7E
:103C40002EEC01F06B6F58500108D8A4E868FF0A09
:103C5000226EE86A3ABCE868266E22C012F026504E
:103C6000B7EC01F0266E276E286E296E26502710BD
:103C700028102910D8B45BEF1EF0100EA96E2EECA0
:103C800001F05E6E110EA96E2EEC01F05A6E120E4E
:103C9000A96E2EEC01F06A6F140EA96E2EEC01F0E5
:103CA0005F6E150EA96E2EEC01F05B6E160EA96EFE
:103CB0002EEC01F06B6F58500208D8A4E868FF0A98
:103CC000226EE86A3AACE868266E22C012F02650EE
:103CD000B7EC01F0266E276E286E296E265027104D
:103CE00028102910D8B493EF1EF0180EA96E2EECF0
:103CF00001F05E6E190EA96E2EEC01F05A6E1A0ECE
:103D0000A96E2EEC01F06A6F1C0EA96E2EEC01F06C
:103D10005F6E1D0EA96E2EEC01F05B6E1E0EA96E7D
:103D20002EEC01F06B6F58500208D8A4E868FF0A27
:103D3000226EE86A3ABCE868266E22C012F026506D
:103D4000B7EC01F0266E276E286E296E26502710DC
:103D500028102910D8B4CBEF1EF0200EA96E2EEC3F
:103D600001F05E6E210EA96E2EEC01F05A6E220E4D
:103D7000A96E2EEC01F06A6F240EA96E2EEC01F0F4
:103D80005F6E250EA96E2EEC01F05B6E260EA96EFD
:103D90002EEC01F06B6F58500308D8A4E868FF0AB6
:103DA000226EE86A3AACE868266E22C012F026500D
:103DB000B7EC01F0266E276E286E296E265027106C
:103DC00028102910D8B403EF1FF0280EA96E2EEC8E
:103DD00001F05E6E290EA96E2EEC01F05A6E2A0ECD
:103DE000A96E2EEC01F06A6F2C0EA96E2EEC01F07C
:103DF0005F6E2D0EA96E2EEC01F05B6E2E0EA96E7D
:103E00002EEC01F06B6F58500308D8A4E868FF0A45
:103E1000226EE86A3ABCE868266E22C012F026508C
:103E2000B7EC01F0266E276E286E296E26502710FB
:103E300028102910D8B43BEF1FF0300EA96E2EECDD
:103E400001F05E6E310EA96E2EEC01F05A6E320E4C
:103E5000A96E2EEC01F06A6F340EA96E2EEC01F003
:103E60005F6E350EA96E2EEC01F05B6E360EA96EFC
:103E70002EEC01F06B6F58500408D8A4E868FF0AD4
:103E8000226EE86A3AACE868266E22C012F026502C
:103E9000B7EC01F0266E276E286E296E265027108B
:103EA00028102910D8B473EF1FF0380EA96E2EEC2D
:103EB00001F05E6E390EA96E2EEC01F05A6E3A0ECC
:103EC000A96E2EEC01F06A6F3C0EA96E2EEC01F08B
:103ED0005F6E3D0EA96E2EEC01F05B6E3E0EA96E7C
:103EE0002EEC01F06B6F58500408D8A4E868FF0A64
:103EF000226EE86A3ABCE868266E22C012F02650AC
:103F0000B7EC01F0266E276E286E296E265027101A
:103F100028102910D8B4ABEF1FF0400EA96E2EEC7C
:103F200001F05E6E410EA96E2EEC01F05A6E420E4B
:103F3000A96E2EEC01F06A6F440EA96E2EEC01F012
:103F40005F6E450EA96E2EEC01F05B6E460EA96EFB
:103F50002EEC01F06B6F010E8A6FB1EF1FF093EF43
:103F60001CF0D9EC0AF062EC3AF03AA4C2EF1FF070
:103F70008A510608D8A4C1EF1FF0010E8A6FC2EF64
:103F80001FF08A2B8A510108D8A4D3EF1FF07E0EB0
:103F9000AE6F200EAF6F200EB06F200EB16F200EEF
:103FA000B26F200EB36F8A510208D8A4E4EF1FF05D
:103FB000200EAE6F7E0EAF6F200EB06F200EB16F71
:103FC000200EB26F200EB36F8A510308D8A4F5EF0C
:103FD0001FF0200EAE6F200EAF6F7E0EB06F200E62
:103FE000B16F200EB26F200EB36F8A510408D8A4AF
:103FF00006EF20F0200EAE6F200EAF6F200EB06FD8
:104000007E0EB16F200EB26F200EB36F8A5105087D
:10401000D8A417EF20F0200EAE6F200EAF6F200E49
:10402000B06F200EB16F7E0EB26F200EB36F8A514B
:104030000608D8A428EF20F0200EAE6F200EAF6F38
:10404000200EB06F200EB16F200EB26F7E0EB36FD8
:104050003AAA36EF20F03ABC32EF20F0010E8A6F18
:1040600034EF20F0020E8A6F93EF1CF081BC23EF37
:1040700021F08A510108D8A460EF20F05E2A5EC0CA
:1040800012F0010E8BEC01F0226E5EC012F0170EE2
:1040900085EC01F0266E22C012F02650BEEC01F035
:1040A000266E276E286E296E26502710281029109C
:1040B000D8B45DEF20F0170E5E6E6E0E43EC01F08B
:1040C0008A510208D8A487EF20F05A2A5AC012F069
:1040D000010E8BEC01F0226E5AC012F03B0E85EC03
:1040E00001F0266E22C012F02650BEEC01F0266EC2
:1040F000276E286E296E2650271028102910D8B454
:1041000084EF20F03B0E5A6E6E0E43EC01F08A51A4
:104110000308D8A4AEEF20F06A2B6AC012F0010E9B
:104120008BEC01F0226E6AC012F0640E85EC01F097
:10413000266E22C012F02650BEEC01F0266E276ECD
:10414000286E296E2650271028102910D8B4ABEFFE
:1041500020F0640E6A6F6E0E43EC01F08A51040881
:10416000D8A4D5EF20F05F2A5FC012F0010E8BECCF
:1041700001F0226E5FC012F0170E85EC01F0266E82
:1041800022C012F02650BEEC01F0266E276E286E7B
:10419000296E2650271028102910D8B4D2EF20F00D
:1041A000170E5F6E6E0E43EC01F08A510508D8A41D
:1041B000FCEF20F05B2A5BC012F0010E8BEC01F0EB
:1041C000226E5BC012F03B0E85EC01F0266E22C021
:1041D00012F02650BEEC01F0266E276E286E296E76
:1041E0002650271028102910D8B4F9EF20F03B0EE4
:1041F0005B6E6E0E43EC01F08A510608D8A423EFE3
:1042000021F06B2B6BC012F0010E8BEC01F0226ED3
:104210006BC012F0640E85EC01F0266E22C012F025
:104220002650BEEC01F0266E276E286E296E2650B1
:10423000271028102910D8B420EF21F0640E6B6FDE
:104240006E0E43EC01F081BA0AEF22F08A510108A8
:10425000D8A44CEF21F05E065EC012F0010E8BEC8C
:1042600001F0226E5EC012F0170E85EC01F0266E92
:1042700022C012F02650BEEC01F0266E276E286E8A
:10428000296E2650271028102910D8B449EF21F0A4
:104290005E6A6E0E43EC01F08A510208D8A472EFF8
:1042A00021F05A065AC012F0010E8BEC01F0226E7A
:1042B0005AC012F03B0E85EC01F0266E22C012F0BF
:1042C0002650BEEC01F0266E276E286E296E265011
:1042D000271028102910D8B46FEF21F05A6A6E0EFB
:1042E00043EC01F08A510308D8A498EF21F06A0743
:1042F0006AC012F0010E8BEC01F0226E6AC012F05F
:10430000640E85EC01F0266E22C012F02650BEEC41
:1043100001F0266E276E286E296E26502710281071
:104320002910D8B495EF21F06A6B6E0E43EC01F0C2
:104330008A510408D8A4BEEF21F05F065FC012F0D6
:10434000010E8BEC01F0226E5FC012F0170E85ECAF
:1043500001F0266E22C012F02650BEEC01F0266E4F
:10436000276E286E296E2650271028102910D8B4E1
:10437000BBEF21F05F6A6E0E43EC01F08A51050835
:10438000D8A4E4EF21F05B065BC012F0010E8BECC9
:1043900001F0226E5BC012F03B0E85EC01F0266E40
:1043A00022C012F02650BEEC01F0266E276E286E59
:1043B000296E2650271028102910D8B4E1EF21F0DB
:1043C0005B6A6E0E43EC01F08A510608D8A40AEF2E
:1043D00022F06B076BC012F0010E8BEC01F0226E25
:1043E0006BC012F0640E85EC01F0266E22C012F054
:1043F0002650BEEC01F0266E276E286E296E2650E0
:10440000271028102910D8B407EF22F06B6B6E0E1E
:1044100043EC01F03BAEDCEF23F058500108D8A488
:10442000E868FF0A226EE86A3AACE868266E22C0A5
:1044300012F02650B7EC01F0266E276E286E296E1A
:104440002650271028102910D8B445EF22F0080E66
:10445000A96E5E5035EC01F0090EA96E5A5035EC8C
:1044600001F00A0EA96E6A5135EC01F00C0EA96E2E
:104470005F5035EC01F00D0EA96E5B5035EC01F08C
:104480000E0EA96E6B5135EC01F058500108D8A4FE
:10449000E868FF0A226EE86A3ABCE868266E22C025
:1044A00012F02650B7EC01F0266E276E286E296EAA
:1044B0002650271028102910D8B47DEF22F0100EB6
:1044C000A96E5E5035EC01F0110EA96E5A5035EC14
:1044D00001F0120EA96E6A5135EC01F0140EA96EAE
:1044E0005F5035EC01F0150EA96E5B5035EC01F014
:1044F000160EA96E6B5135EC01F058500208D8A485
:10450000E868FF0A226EE86A3AACE868266E22C0C4
:1045100012F02650B7EC01F0266E276E286E296E39
:104520002650271028102910D8B4B5EF22F0180E05
:10453000A96E5E5035EC01F0190EA96E5A5035EC9B
:1045400001F01A0EA96E6A5135EC01F01C0EA96E2D
:104550005F5035EC01F01D0EA96E5B5035EC01F09B
:104560001E0EA96E6B5135EC01F058500208D8A40C
:10457000E868FF0A226EE86A3ABCE868266E22C044
:1045800012F02650B7EC01F0266E276E286E296EC9
:104590002650271028102910D8B4EDEF22F0200E55
:1045A000A96E5E5035EC01F0210EA96E5A5035EC23
:1045B00001F0220EA96E6A5135EC01F0240EA96EAD
:1045C0005F5035EC01F0250EA96E5B5035EC01F023
:1045D000260EA96E6B5135EC01F058500308D8A493
:1045E000E868FF0A226EE86A3AACE868266E22C0E4
:1045F00012F02650B7EC01F0266E276E286E296E59
:104600002650271028102910D8B425EF23F0280EA3
:10461000A96E5E5035EC01F0290EA96E5A5035ECAA
:1046200001F02A0EA96E6A5135EC01F02C0EA96E2C
:104630005F5035EC01F02D0EA96E5B5035EC01F0AA
:104640002E0EA96E6B5135EC01F058500308D8A41A
:10465000E868FF0A226EE86A3ABCE868266E22C063
:1046600012F02650B7EC01F0266E276E286E296EE8
:104670002650271028102910D8B45DEF23F0300EF3
:10468000A96E5E5035EC01F0310EA96E5A5035EC32
:1046900001F0320EA96E6A5135EC01F0340EA96EAC
:1046A0005F5035EC01F0350EA96E5B5035EC01F032
:1046B000360EA96E6B5135EC01F058500408D8A4A1
:1046C000E868FF0A226EE86A3AACE868266E22C003
:1046D00012F02650B7EC01F0266E276E286E296E78
:1046E0002650271028102910D8B495EF23F0380E43
:1046F000A96E5E5035EC01F0390EA96E5A5035ECBA
:1047000001F03A0EA96E6A5135EC01F03C0EA96E2B
:104710005F5035EC01F03D0EA96E5B5035EC01F0B9
:104720003E0EA96E6B5135EC01F058500408D8A428
:10473000E868FF0A226EE86A3ABCE868266E22C082
:1047400012F02650B7EC01F0266E276E286E296E07
:104750002650271028102910D8B4CDEF23F0400E92
:10476000A96E5E5035EC01F0410EA96E5A5035EC41
:1047700001F0420EA96E6A5135EC01F0440EA96EAB
:104780005F5035EC01F0450EA96E5B5035EC01F041
:10479000460EA96E6B5135EC01F013EC3AF0F3ECD8
:1047A00033F03ABCD8EF23F0010E8A6FDAEF23F032
:1047B000020E8A6F93EF1CF0FE0E7BEC00F0020EEF
:1047C0007BEC00F0530E7BEC00F03A0E7BEC00F03B
:1047D000AE517BEC00F0020E036E5EC01AF01B6A55
:1047E0001C6A1D6AF40E0A6E0B6ACFEC00F03A0EDA
:1047F0007BEC00F0AF517BEC00F0020E036E5AC070
:104800001AF01B6A1C6A1D6AF40E0A6E0B6ACFEC62
:1048100000F02D0E7BEC00F0B0517BEC00F0030EAD
:10482000036E6AC01AF01B6A1C6A1D6AF40E0A6ED7
:104830000B6ACFEC00F0250E7BEC00F0200E7BEC39
:1048400000F0200E7BEC00F0200E7BEC00F0200E40
:104850007BEC00F0FE0E7BEC00F0C00E7BEC00F079
:10486000450E7BEC00F03A0E7BEC00F0B1517BEC96
:1048700000F0020E036E5FC01AF01B6A1C6A1D6A0C
:10488000F40E0A6E0B6ACFEC00F03A0E7BEC00F0EF
:10489000B2517BEC00F0020E036E5BC01AF01B6A93
:1048A0001C6A1D6AF40E0A6E0B6ACFEC00F02D0E26
:1048B0007BEC00F0B3517BEC00F0030E036E6BC099
:1048C0001AF01B6A1C6A1D6AF40E0A6E0B6ACFECA2
:1048D00000F0250E7BEC00F0200E7BEC00F0200EAB
:1048E0007BEC00F0B1EF1FF0D9EC0AF062EC3AF08B
:1048F0003AA685EF24F08A510208D8A484EF24F068
:10490000020E8A6F85EF24F08A2B3AA892EF24F0EA
:104910008A510108D8A491EF24F0010E8A6F92EF1A
:1049200024F08A073AAA99EF24F0020E8A6F43EF27
:1049300016F08A510108D8A443EF25F0FE0E7BEC57
:1049400000F0020E7BEC00F07E0E7BEC00F0530ECC
:104950007BEC00F0770E7BEC00F0690E7BEC00F056
:10496000740E7BEC00F0630E7BEC00F0680E7BECC9
:1049700000F0200E7BEC00F0230E7BEC00F0310EFB
:104980007BEC00F0200E7BEC00F0200E7BEC00F0C6
:10499000200E7BEC00F0200E7BEC00F0200E7BEC78
:1049A00000F0200E7BEC00F0200E7BEC00F0200EDF
:1049B0007BEC00F0200E7BEC00F0200E7BEC00F096
:1049C000FE0E7BEC00F0C00E7BEC00F0200E7BECCA
:1049D00000F0530E7BEC00F0770E7BEC00F0690EDC
:1049E0007BEC00F0740E7BEC00F0630E7BEC00F0CF
:1049F000680E7BEC00F0200E7BEC00F0230E7BECCD
:104A000000F0320E7BEC00F0200E7BEC00F0200E6C
:104A10007BEC00F0200E7BEC00F0200E7BEC00F035
:104A2000200E7BEC00F0200E7BEC00F0200E7BECE7
:104A300000F0200E7BEC00F0200E7BEC00F0200E4E
:104A40007BEC00F0200E7BEC00F0200E7BEC00F005
:104A5000200E7BEC00F0200E7BEC00F0200E7BECB7
:104A600000F0200E7BEC00F0200E7BEC00F03BAE63
:104A700041EF25F03C90010E7C6F010E8A6FD1EF63
:104A800025F0D0EF25F08A510208D8A4D0EF25F008
:104A9000FE0E7BEC00F0020E7BEC00F0200E7BECB7
:104AA00000F0530E7BEC00F0770E7BEC00F0690E0B
:104AB0007BEC00F0740E7BEC00F0630E7BEC00F0FE
:104AC000680E7BEC00F0200E7BEC00F0230E7BECFC
:104AD00000F0310E7BEC00F0200E7BEC00F0200E9D
:104AE0007BEC00F0200E7BEC00F0200E7BEC00F065
:104AF000200E7BEC00F0200E7BEC00F0200E7BEC17
:104B000000F0200E7BEC00F0200E7BEC00F0FE0E9F
:104B10007BEC00F0C00E7BEC00F07E0E7BEC00F036
:104B2000530E7BEC00F0770E7BEC00F0690E7BEC13
:104B300000F0740E7BEC00F0630E7BEC00F0680E6E
:104B40007BEC00F0200E7BEC00F0230E7BEC00F001
:104B5000320E7BEC00F0200E7BEC00F0200E7BECA4
:104B600000F0200E7BEC00F0200E7BEC00F0200E1D
:104B70007BEC00F0200E7BEC00F0200E7BEC00F0D4
:104B8000200E7BEC00F0200E7BEC00F03BAED0EF73
:104B900025F03C80020E7C6F010E8A6FD1EF25F06C
:104BA000A3D6D9EC0AF062EC3AF03AA6E2EF25F08F
:104BB0008A510208D8A4E1EF25F0020E8A6FE2EFD5
:104BC00025F08A2B3AA8EFEF25F08A510108D8A4E6
:104BD000EEEF25F0010E8A6FEFEF25F08A073AAA73
:104BE000F5EF25F07CC08AF07FD68A510108D8A461
:104BF00095EF26F0FE0E7BEC00F0020E7BEC00F051
:104C00007E0E7BEC00F0540E7BEC00F0690E7BEC2A
:104C100000F06D0E7BEC00F0650E7BEC00F0200EDA
:104C20007BEC00F0310E7BEC00F0200E7BEC00F012
:104C3000200E7BEC00F0200E7BEC00F0200E7BECD5
:104C400000F0200E7BEC00F0200E7BEC00F0200E3C
:104C50007BEC00F0200E7BEC00F0200E7BEC00F0F3
:104C6000200E7BEC00F0200E7BEC00F0200E7BECA5
:104C700000F0200E7BEC00F0FE0E7BEC00F0C00E8E
:104C80007BEC00F0200E7BEC00F0540E7BEC00F08F
:104C9000690E7BEC00F06D0E7BEC00F0650E7BEC9A
:104CA00000F0200E7BEC00F0320E7BEC00F0200ECA
:104CB0007BEC00F0200E7BEC00F0200E7BEC00F093
:104CC000200E7BEC00F0200E7BEC00F0200E7BEC45
:104CD00000F0200E7BEC00F0200E7BEC00F0200EAC
:104CE0007BEC00F0200E7BEC00F0200E7BEC00F063
:104CF000200E7BEC00F0200E7BEC00F0200E7BEC15
:104D000000F0200E7BEC00F0200E7BEC00F0200E7B
:104D10007BEC00F0200E7BEC00F0200E7BEC00F032
:104D2000200E7BEC00F030EF27F08A510208D8A467
:104D300030EF27F0FE0E7BEC00F0020E7BEC00F073
:104D4000200E7BEC00F0540E7BEC00F0690E7BEC47
:104D500000F06D0E7BEC00F0650E7BEC00F0200E99
:104D60007BEC00F0310E7BEC00F0200E7BEC00F0D1
:104D7000200E7BEC00F0200E7BEC00F0200E7BEC94
:104D800000F0200E7BEC00F0200E7BEC00F0200EFB
:104D90007BEC00F0200E7BEC00F0200E7BEC00F0B2
:104DA000200E7BEC00F0200E7BEC00F0200E7BEC64
:104DB00000F0200E7BEC00F0200E7BEC00F0200ECB
:104DC0007BEC00F0200E7BEC00F0200E7BEC00F082
:104DD000200E7BEC00F0FE0E7BEC00F0C00E7BECB6
:104DE00000F07E0E7BEC00F0540E7BEC00F0690EC0
:104DF0007BEC00F06D0E7BEC00F0650E7BEC00F0C0
:104E0000200E7BEC00F0320E7BEC00F0200E7BECF1
:104E100000F0200E7BEC00F0200E7BEC00F0200E6A
:104E20007BEC00F0200E7BEC00F0200E7BEC00F021
:104E3000200E7BEC00F0200E7BEC00F0200E7BECD3
:104E400000F0200E7BEC00F0200E7BEC00F0200E3A
:104E50007BEC00F0200E7BEC00F0200E7BEC00F0F1
:104E60003BAEFAEF27F08A510108D8A439EF27F0BA
:104E70003D928A510208D8A43FEF27F03D82E86AAC
:104E80003CA0E868226EE86A3DA2E868266E22C06F
:104E900012F02650B7EC01F0266E276E286E296EB0
:104EA0002650271028102910D8B46BEF27F04A0E8F
:104EB000A96E2EEC01F05E6E4B0EA96E2EEC01F089
:104EC0005A6E4C0EA96E2EEC01F05F6E4D0EA96E5F
:104ED0002EEC01F05B6EE86A3CA0E868226EE86A9E
:104EE0003DB2E868266E22C012F02650B7EC01F001
:104EF000266E276E286E296E26502710281029103E
:104F0000D8B497EF27F04E0EA96E2EEC01F05E6E2E
:104F10004F0EA96E2EEC01F05A6E500EA96E2EECBB
:104F200001F05F6E510EA96E2EEC01F05B6EE86A27
:104F30003CB0E868226EE86A3DA2E868266E22C0AE
:104F400012F02650B7EC01F0266E276E286E296EFF
:104F50002650271028102910D8B4C3EF27F0520E7E
:104F6000A96E2EEC01F05E6E530EA96E2EEC01F0D0
:104F70005A6E540EA96E2EEC01F05F6E550EA96E9E
:104F80002EEC01F05B6EE86A3CB0E868226EE86ADD
:104F90003DB2E868266E22C012F02650B7EC01F050
:104FA000266E276E286E296E26502710281029108D
:104FB000D8B4EFEF27F0560EA96E2EEC01F05E6E1E
:104FC000570EA96E2EEC01F05A6E580EA96E2EECFB
:104FD00001F05F6E590EA96E2EEC01F05B6E3DB2D2
:104FE000F6EF27F0010E8A6FF8EF27F0010E8A6FB7
:104FF000FCEF27F0D1EF25F0D9EC0AF062EC3AF0A3
:105000003AA40DEF28F08A510408D8A40CEF28F038
:10501000010E8A6F0DEF28F08A2B8A510108D8A45F
:105020001AEF28F07E0EAE6F200EAF6F200EB06F1D
:10503000200EB16F8A510208D8A427EF28F0200E65
:10504000AE6F7E0EAF6F200EB06F200EB16F8A5123
:105050000308D8A434EF28F0200EAE6F200EAF6FF7
:105060007E0EB06F200EB16F8A510408D8A441EFB4
:1050700028F0200EAE6F200EAF6F200EB06F7E0EA8
:10508000B16F3AAA46EF28F0D1EF25F081BC89EF45
:1050900028F08A510108D8A459EF28F05E2A180E8A
:1050A0005E5CD8A056EF28F0170E5E6E6E0E43ECD5
:1050B00001F08A510208D8A469EF28F05A2A3C0E60
:1050C0005A5CD8A066EF28F03B0E5A6E6E0E43EC89
:1050D00001F08A510308D8A479EF28F05F2A180E4E
:1050E0005F5CD8A076EF28F0170E5F6E6E0E43EC73
:1050F00001F08A510408D8A489EF28F05B2A3C0EFD
:105100005B5CD8A086EF28F03B0E5B6E6E0E43EC26
:1051100001F081BA24EF29F08A510108D8A4B2EF36
:1051200028F05E065EC012F0010E8BEC01F0226EDC
:105130005EC012F0170E85EC01F0266E22C012F050
:105140002650BEEC01F0266E276E286E296E265082
:10515000271028102910D8B4AFEF28F05E6A6E0E21
:1051600043EC01F08A510208D8A4D8EF28F05A067F
:105170005AC012F0010E8BEC01F0226E5AC012F0F0
:105180003B0E85EC01F0266E22C012F02650BEECDC
:1051900001F0266E276E286E296E265027102810E3
:1051A0002910D8B4D5EF28F05A6A6E0E43EC01F0FE
:1051B0008A510308D8A4FEEF28F05F065FC012F002
:1051C000010E8BEC01F0226E5FC012F0170E85EC21
:1051D00001F0266E22C012F02650BEEC01F0266EC1
:1051E000276E286E296E2650271028102910D8B453
:1051F000FBEF28F05F6A6E0E43EC01F08A51040861
:10520000D8A424EF29F05B065BC012F0010E8BECF2
:1052100001F0226E5BC012F03B0E85EC01F0266EB1
:1052200022C012F02650BEEC01F0266E276E286ECA
:10523000296E2650271028102910D8B421EF29F004
:105240005B6A6E0E43EC01F03BAEE6EF29F0E86AD4
:105250003CA0E868226EE86A3DA2E868266E22C09B
:1052600012F02650B7EC01F0266E276E286E296EDC
:105270002650271028102910D8B453EF29F04A0ED1
:10528000A96E5E5035EC01F04B0EA96E5A5035EC0C
:1052900001F04C0EA96E5F5035EC01F04D0EA96E79
:1052A0005B5035EC01F0E86A3CA0E868226EE86AE1
:1052B0003DB2E868266E22C012F02650B7EC01F02D
:1052C000266E276E286E296E26502710281029106A
:1052D000D8B47FEF29F04E0EA96E5E5035EC01F088
:1052E0004F0EA96E5A5035EC01F0500EA96E5F506A
:1052F00035EC01F0510EA96E5B5035EC01F0E86A17
:105300003CB0E868226EE86A3DA2E868266E22C0DA
:1053100012F02650B7EC01F0266E276E286E296E2B
:105320002650271028102910D8B4ABEF29F0520EC0
:10533000A96E5E5035EC01F0530EA96E5A5035EC53
:1053400001F0540EA96E5F5035EC01F0550EA96EB8
:105350005B5035EC01F0E86A3CB0E868226EE86A20
:105360003DB2E868266E22C012F02650B7EC01F07C
:10537000266E276E286E296E2650271028102910B9
:10538000D8B4D7EF29F0560EA96E5E5035EC01F077
:10539000570EA96E5A5035EC01F0580EA96E5F50A9
:1053A00035EC01F0590EA96E5B5035EC01F03DB2C1
:1053B000DEEF29F0010E8A6FE0EF29F0020E8A6F0E
:1053C00013EC3AF0F3EC33F0D1EF25F0FE0E7BEC6A
:1053D00000F0020E7BEC00F04F0E7BEC00F04E0E66
:1053E0007BEC00F03A0E7BEC00F0200E7BEC00F042
:1053F000AE517BEC00F0020E036E5EC01AF01B6A29
:105400001C6A1D6AF40E0A6E0B6ACFEC00F03A0EAD
:105410007BEC00F0AF517BEC00F0020E036E5AC043
:105420001AF01B6A1C6A1D6AF40E0A6E0B6ACFEC36
:1054300000F0200E7BEC00F0200E7BEC00F0200E44
:105440007BEC00F0FE0E7BEC00F0C00E7BEC00F07D
:105450004F0E7BEC00F0460E7BEC00F0460E7BEC32
:1054600000F03A0E7BEC00F0B0517BEC00F0020E45
:10547000036E5FC01AF01B6A1C6A1D6AF40E0A6E86
:105480000B6ACFEC00F03A0E7BEC00F0B1517BECF4
:1054900000F0020E036E5BC01AF01B6A1C6A1D6AE4
:1054A000F40E0A6E0B6ACFEC00F0200E7BEC00F0DD
:1054B000200E7BEC00F0200E7BEC00F0FCEF27F0E0
:1054C000D9EC0AF062EC3AF03AA671EF2AF08A5170
:1054D0000208D8A470EF2AF0020E8A6F71EF2AF04A
:1054E0008A2B3AA87EEF2AF08A510108D8A47DEFD2
:1054F0002AF0010E8A6F7EEF2AF08A073AAA85EF1A
:105500002AF0020E8A6F20EF18F08A510108D8A401
:1055100033EF2BF0FE0E7BEC00F0020E7BEC00F084
:105520007E0E7BEC00F0410E7BEC00F0710E7BEC0C
:1055300000F0750E7BEC00F0610E7BEC00F0720E5B
:105540007BEC00F0690E7BEC00F0750E7BEC00F05C
:105550006D0E7BEC00F0200E7BEC00F06C0E7BEC13
:1055600000F0690E7BEC00F0670E7BEC00F0680E3B
:105570007BEC00F0740E7BEC00F0200E7BEC00F076
:10558000200E7BEC00F0200E7BEC00F0200E7BEC7C
:1055900000F0200E7BEC00F0200E7BEC00F0FE0E05
:1055A0007BEC00F0C00E7BEC00F0200E7BEC00F0FA
:1055B000520E7BEC00F06F0E7BEC00F06F0E7BEC7C
:1055C00000F06D0E7BEC00F0200E7BEC00F06C0E1A
:1055D0007BEC00F0690E7BEC00F0670E7BEC00F0DA
:1055E000680E7BEC00F0740E7BEC00F0200E7BEC80
:1055F00000F0200E7BEC00F0200E7BEC00F0200E83
:105600007BEC00F0200E7BEC00F0200E7BEC00F039
:10561000200E7BEC00F0200E7BEC00F0200E7BECEB
:1056200000F0200E7BEC00F0200E7BEC00F0200E52
:105630007BEC00F03BAE31EF2BF0010E8A6F3A901D
:10564000640EA96E2EEC01F07E6F650EA96E2EEC35
:1056500001F07F6F660EA96E2EEC01F0806FC2EF35
:105660002BF0C1EF2BF08A510208D8A4C1EF2BF028
:10567000FE0E7BEC00F0020E7BEC00F0200E7BECCB
:1056800000F0410E7BEC00F0710E7BEC00F0750E2B
:105690007BEC00F0610E7BEC00F0720E7BEC00F016
:1056A000690E7BEC00F0750E7BEC00F06D0E7BEC70
:1056B00000F0200E7BEC00F06C0E7BEC00F0690E2D
:1056C0007BEC00F0670E7BEC00F0680E7BEC00F0EA
:1056D000740E7BEC00F0200E7BEC00F0200E7BECD7
:1056E00000F0200E7BEC00F0200E7BEC00F0200E92
:1056F0007BEC00F0200E7BEC00F0FE0E7BEC00F06B
:10570000C00E7BEC00F07E0E7BEC00F0520E7BECCA
:1057100000F06F0E7BEC00F06F0E7BEC00F06D0E76
:105720007BEC00F0200E7BEC00F06C0E7BEC00F0CC
:10573000690E7BEC00F0670E7BEC00F0680E7BECF2
:1057400000F0740E7BEC00F0200E7BEC00F0200EDD
:105750007BEC00F0200E7BEC00F0200E7BEC00F0E8
:10576000200E7BEC00F0200E7BEC00F03BAEC1EF96
:105770002BF03A92670EA96E2EEC01F08A6FF6EFCD
:105780002DF09ED6D9EC0AF062EC3AF03AA4D3EFB1
:105790002BF08A510308D8A4D2EF2BF0010E8A6FA8
:1057A000D3EF2BF08A2B3AAAE1EF2BF0050EA96E6E
:1057B0002EEC01F0E8B03A80E8A03A90010E8A6F32
:1057C0007FD68A510108D8A4ECEF2BF07E0EAE6F85
:1057D000200EAF6F200EB06F8A510208D8A4F7EFE9
:1057E0002BF0200EAE6F7E0EAF6F200EB06F8A5181
:1057F0000308D8A402EF2CF0200EAE6F200EAF6F7E
:105800007E0EB06F81BC2FEF2CF08A510108D8A416
:1058100012EF2CF07E2B650E7E5DD8A012EF2CF0DF
:10582000640E7E6F8A510208D8A41FEF2CF07F2BE4
:10583000650E7F5DD8A01FEF2CF0640E7F6F8A513C
:105840000308D8A42CEF2CF0802B650E805DD8A027
:105850002CEF2CF0640E806F6E0E43EC01F081BAD9
:105860009EEF2CF08A510108D8A455EF2CF07E074A
:105870007EC012F0010E8BEC01F0226E7EC012F0A1
:10588000640E85EC01F0266E22C012F02650BEECAC
:1058900001F0266E276E286E296E265027102810DC
:1058A0002910D8B455EF2CF07E6B8A510208D8A489
:1058B00078EF2CF07F077FC012F0010E8BEC01F027
:1058C000226E7FC012F0640E85EC01F0266E22C0BD
:1058D00012F02650BEEC01F0266E276E286E296E5F
:1058E0002650271028102910D8B478EF2CF07F6BA1
:1058F0008A510308D8A49BEF2CF0800780C012F0D7
:10590000010E8BEC01F0226E80C012F0640E85EC6B
:1059100001F0266E22C012F02650BEEC01F0266E79
:10592000276E286E296E2650271028102910D8B40B
:105930009BEF2CF0806B6E0E43EC01F0FE0E7BECC7
:1059400000F0020E7BEC00F0AE517BEC00F0230E79
:105950007BEC00F0310E7BEC00F0200E7BEC00F0D5
:10596000030E036E7EC01AF01B6A1C6A1D6AF40ED9
:105970000A6E0B6ACFEC00F0250E7BEC00F0AF5105
:105980007BEC00F0320E7BEC00F0230E7BEC00F0A1
:10599000200E7BEC00F0030E036E7FC01AF01B6A32
:1059A0001C6A1D6AF40E0A6E0B6ACFEC00F0250E1D
:1059B0007BEC00F0200E7BEC00F0200E7BEC00F086
:1059C000200E7BEC00F0200E7BEC00F0200E7BEC38
:1059D00000F0200E7BEC00F0200E7BEC00F0200E9F
:1059E0007BEC00F0FE0E7BEC00F0C00E7BEC00F0D8
:1059F000B0517BEC00F0230E7BEC00F0330E7BEC1F
:105A000000F0200E7BEC00F0030E036E80C01AF055
:105A10001B6A1C6A1D6AF40E0A6E0B6ACFEC00F05A
:105A2000250E7BEC00F0200E7BEC00F0200E7BECD2
:105A300000F0200E7BEC00F0200E7BEC00F0200E3E
:105A40007BEC00F0200E7BEC00F0200E7BEC00F0F5
:105A5000200E7BEC00F0200E7BEC00F0200E7BECA7
:105A600000F0200E7BEC00F0200E7BEC00F03BAE53
:105A700055EF2DF0640EA96E7E5135EC01F0650EE8
:105A8000A96E7F5135EC01F0660EA96E805135ECA0
:105A900001F0050EA96E000E35EC01F03A90F3EC22
:105AA00033F0010E8A6F60EF2AF07EC01EF01F6A8D
:105AB000206A216A166A040E176E186A196A07ECC2
:105AC00002F0226E1BC023F01CC024F01DC025F084
:105AD00022C012F023C013F024C014F025C015F02A
