:020000040000FA
:10000000006AA4EF02F0008A00AA009A00B603D0AA
:10001000008644D827E2080E176E54D81636172EDD
:10002000FCD700AA2ED85CD855D800BA1BD821D846
:100030001650D890A1EF02F0008A00AA009A00B4EE
:1000400005D0FE0B016E0084D8900AD000B805D010
:100050001E6E008823D806E21E5027D803E200AAAD
:10006000A1EF02F00ED83CD800940098009601D879
:10007000F7D710C0EAFF0E3CE96EE9880C50EC128D
:1000800008D010C0EAFF0EC0E9FF0C1CEE16E9888C
:10009000EC16040E126E122EFED71200EADF20D8E4
:1000A000F0DF18D8015000B60109166E080E176E61
:1000B0001636D8B0DEDFD8A0E4DF12D80BD8172E62
:1000C000F7D7D7DF0DD810C0EAFF0EC0E9FF0C50FC
:1000D000EF14FF0F11C0EAFF0FC0E9FF0D1CD6D7C8
:1000E00011C0EAFF0FC0E9FF0D50EE12E9880D1CA8
:1000F000EC16CFD7E9501F6E8098809A809A92981C
:10010000929A929AF00E92161F5000B221D03A0E97
:10011000136EFC0E55EC01F0330E1E6E30D8100E2F
:10012000136E680E55EC01F02AD8640E54EC01F001
:1001300026D8220E1E6E23D8280E09D80C0E07D8FA
:10014000010E05D8060E03D800821F5001D0008092
:100150001E6E00A00BD0809A03080FE30ED8070E86
:10016000136ED00E55EC01F0D88012000080FE080E
:10017000D8B4A1EF02F0808A00D01E3A00A000900F
:100180008088F00E80161E500F0B801280981E3A49
:1001900000B0F5D7320E54EC01F0D8801200019E69
:1001A0000350D8B4018E0A0E026E3B0E196E9A0EE1
:1001B000186ECA0E176E000E35D8050E196EF50EA4
:1001C000186EE10E176E000E2DD8196A980E186E73
:1001D000960E176E800E26D8196A0F0E186E420EF4
:1001E000176E400E1FD8196A010E186E860E176E14
:1001F000A00E18D8196A186A270E176E100E12D89A
:10020000196A186A030E176EE80E0CD8196A186A74
:10021000176A640E07D8196A186A176A0A0E02D894
:100220001A500CD0166E1D50156E1C50146E1B50BB
:10023000136E1A50126ED5EC01F01250126E024E6F
:10024000019E035003E0025CD8B012001250D8A403
:10025000019E01BE1200300F9BEF02F0A66AA6803D
:10026000A850A92AA1EF02F0E86AA86EA66AA6849F
:10027000550EA76EAA0EA76EA682A6B2FED7A694AA
:10028000A92AA1EF02F0176A186A196A166EE86ABD
:100290001606175A185A195AD8A0A1EF02F0030EE1
:1002A000136EE50E02D8F3D7136AFB0F126E00D05F
:1002B000E86A01D01206135AFDE2000012001F6E18
:1002C0000A0E166E176A186A196AD5EC01F01F0635
:1002D000FCE21A501200D890123613361436153636
:1002E000FF0FF9E21250A1EF02F0D890153214324C
:1002F00013321232FF0FF9E21250A1EF02F0166E24
:10030000020E17D0166E030E14D0166E010E0FD00B
:10031000166E060E0ED0166E040E09D0166E040E62
:1003200008D0166E050E05D0166E050E04D0026EAE
:100330000FD0026E0AD0026E1950151815E619502A
:10034000155C08E11850145C05E11750135C02E1DC
:100350001650125C040ED8B0010ED8B4020E02146E
:10036000D8A4FF0EA1EF02F01550195CF3D7E86690
:10037000FF0E1214D8A4FF0EA1EF02F01210D8A4A1
:10038000FF0EA1EF02F0216A15AE06D0217EE86AC9
:10039000126C13561456155619AE08D0217EE86A11
:1003A000166C17561856195601D0216A1A6A1B6A1C
:1003B0001C6A1D6A200E1E6E15341A361B361C363A
:1003C0001D3616501A5E17501B5A18501C5A1950D9
:1003D0001D5A09E216501A2617501B2218501C22CB
:1003E00019501D22D89012361336143615361E2E8B
:1003F000E3D721AE09D0E86A126C1356145615568D
:100400001A6C1B561C561D561250A1EF02F01650C6
:100410001E02F3CF1AF0F4CF1BF017501F02F3CFD8
:100420001CF0F4CF1DF01E02F3501B26F4501C22CA
:10043000E86A1D2216501F02F3501B26F4501C229E
:10044000E86A1D2218501E02F3501C26F4501D228B
:1004500018501F02E86A126A1222F3501D26F45047
:10046000122216502002F3501C26F4501D22E86A76
:10047000136A1222132217502002F3501D26F45043
:100480001222E86A132218502002F3501226F45068
:10049000132219501F02F3501226F4501322195040
:1004A0002002E86A146A1422F3501326F45014222E
:1004B00019501E02F3501D26F4501222E86A13222E
:1004C000142219502102F4CF15F0F3501426E86AD3
:1004D000152216502102F3501D26F4501222E86A0C
:1004E00013221422152217502102F3501226F45021
:1004F0001322E86A1422152218502102F350132601
:10050000F4501422E86A152221AE08D01650125E6B
:100510001750135A1850145A1950155A19AE08D0BA
:100520001E50125E1F50135A2050145A2150155A53
:100530001A50A1EF02F0E96EFB6A0B50FA6E0A50F6
:10054000F96E00010000120072EF04F0090E126E45
:100550003D0E136E146A156A46C016F047C017F0B8
:10056000186A196A10DF486E13C049F048C012F0CB
:1005700049C013F0176A040ED1DED8A4D2EF02F0FE
:10058000D89665B3D886D8B6C7EF02F0658565837F
:10059000D89665B1D886D8B6CFEF02F0658565816B
:1005A000F6EF02F0D89665A3D886D8B6D9EF02F058
:1005B0006585659348C012F049C013F0176A000EB4
:1005C000A7DED8A4EEEF02F0D89665B1D886D8B6EB
:1005D000EBEF02F065856581F6EF02F0D89665A134
:1005E000D886D8B6F5EF02F065856591126A090ED6
:1005F000136E3D0E146E156A46C016F047C017F014
:10060000186A196AC0DE486E13C049F0D89665A111
:10061000D886D8B617EF03F048C012F049C013F0DF
:10062000146A156A020E66DE486E13C049F0D89649
:1006300065A3D886D8B628EF03F048C012F049C0A9
:1006400013F0146A156A020E55DE486E13C049F0A5
:100650004804666F6651BB5CD8B430EF03F0658721
:100660006629226E236A246A256A233622C012F084
:1006700023C013F0020E34DE486E13C049F048C0A8
:100680001EF049C01FF0206A216A44C016F045C020
:1006900017F0186A196ABBDE226E1BC023F01CC05B
:1006A00024F01DC025F022C012F023C013F024C096
:1006B00014F025C015F01668030E176E186A196A33
:1006C00062DE446E13C045F06451126E0508D8A076
:1006D0007CEF03F0FA6AFB6A1236FA36EC0E122649
:1006E000060EFA22000EFB221250F96E21D004D021
:1006F00009D00ED013D018D0BECF48F0BDCF49F0EE
:1007000098EF03F067CF48F066CF49F098EF03F019
:100710005ECF48F05DCF49F098EF03F058CF48F036
:1007200057CF49F098EF03F055CF48F054CF49F038
:1007300048C012F0136A146A156A020E70EC01F0D8
:10074000226E13C023F014C024F015C025F0300E23
:100750004914266E276A286A296A26C012F027C023
:1007600013F028C014F029C015F0040E7AEC01F043
:10077000266E13C027F014C028F015C029F02250AF
:100780002610486E23502710496E48C012F049C009
:1007900013F045C017F044507FEC01F0D8A436EFB9
:1007A00004F044C012F045C013F0146A156A020E3A
:1007B0007AEC01F0486E13C049F0030E4414226E27
:1007C000000E4514236E246A256A22C012F023C04D
:1007D00013F024C014F025C015F0040E70EC01F0E5
:1007E000226E13C023F014C024F015C025F00C0EA7
:1007F0002210496EBAA402EF04F09E929EB202EF5C
:1008000004F0FCD76451126E0508D8A01AEF04F06A
:10081000FA6AFB6A1236FA36280E1226080EFA22F7
:10082000000EFB221250F96E21D004D009D00ED058
:1008300013D018D048C0BEFF49C0BDFF36EF04F04A
:1008400048C067FF49C066FF36EF04F048C05EFF4E
:1008500049C05DFF36EF04F048C058FF49C057FF5C
:1008600036EF04F048C055FF49C054FFBAB43AEF20
:1008700004F0BA84E86A65B5010F65B70109226E14
:10088000236A246A256A22C012F023C013F024C010
:1008900014F025C015F0196A186A176A010E94EC55
:1008A00001F0D8A471EF04F09E929EB259EF04F0CB
:1008B000FCD7D89665A5D886D8B668EF04F06595BC
:1008C00065B1BA8065A1BA9065B3BA8265A3BA92E0
:1008D000D89665A7D886D8B671EF04F0659766C03C
:1008E000BBFF12000F01386B396BF19EF70E616E82
:1008F000780ED36ED26A800E9B6E070ECD6E386B6B
:10090000396B020E3A6F946892689368C80E0001C2
:1009100043EC01F08296949682989498829A949AE5
:10092000829C949C819693968190939082949494C7
:1009300093829388938A938C938E9384E968050EAF
:10094000EA6EED6AE950EA10FCE1EF6A300E426EA1
:10095000750E436E3C863C8C3C8A3C883D803C8EC8
:100960003B9C8286010EA96E2EEC01F0856F8551AD
:100970000108D8B4BEEF04F0C3EC33F083EC39F0D7
:100980003BAACAEF04F0070EA96E2EEC01F0846FAB
:100990006EEC32F0FE0E7BEC00F0020E7BEC00F011
:1009A000410E7BEC00F0510E7BEC00F0550E7BEC21
:1009B00000F0410E7BEC00F02D0E7BEC00F04C0EB5
:1009C0007BEC00F0450E7BEC00F0440E7BEC00F07D
:1009D000200E7BEC00F0200E7BEC00F0200E7BEC78
:1009E00000F0200E7BEC00F0200E7BEC00F0200EDF
:1009F0007BEC00F0200E7BEC00F0200E7BEC00F096
:100A0000200E7BEC00F0200E7BEC00F0200E7BEC47
:100A100000F0200E7BEC00F0FE0E7BEC00F0C00E30
:100A20007BEC00F0440E7BEC00F0410E7BEC00F020
:100A30004E0E7BEC00F0450E7BEC00F0520E7BEC92
:100A400000F0200E7BEC00F0460E7BEC00F0570E21
:100A50007BEC00F03A0E7BEC00F0330E7BEC00F008
:100A60002E0E7BEC00F0300E7BEC00F0200E7BECC9
:100A700000F0200E7BEC00F0200E7BEC00F0200E4E
:100A80007BEC00F0200E7BEC00F0200E7BEC00F005
:100A9000200E7BEC00F055EC38F034EC39F0050E0C
:100AA000A96E2EEC01F0E8B03A80E8A03A90060E6C
:100AB000A96E2EEC01F0E8B03A82E8A03A923AB082
:100AC00010EF06F0640EA96E2EEC01F06A6F650E51
:100AD000A96E2EEC01F06B6F660EA96E2EEC01F084
:100AE0006C6F6AC01EF01F6A206A216A166A040EC3
:100AF000176E186A196A07EC02F0226E1BC023F009
:100B00001CC024F01DC025F022C012F023C013F039
:100B100024C014F025C015F0640E166E176A186A0A
:100B2000196AC3EC01F0886F13C089F014C08AF011
:100B300015C08BF06BC01EF01F6A206A216A166A0E
:100B4000040E176E186A196A07EC02F0226E1BC0B9
:100B500023F01CC024F01DC025F022C012F023C0D9
:100B600013F024C014F025C015F0640E166E176A39
:100B7000186A196AC3EC01F08C6F13C08DF014C0B1
:100B80008EF015C08FF06CC01EF01F6A206A216ABB
:100B9000166A040E176E186A196A07EC02F0226EC4
:100BA0001BC023F01CC024F01DC025F022C012F091
:100BB00023C013F024C014F025C015F0640E166E87
:100BC000176A186A196AC3EC01F0906F13C091F0AC
:100BD00014C092F015C093F0040E646F88C044F006
:100BE00089C045F042C046F043C047F0A6EC02F091
:100BF000030E646F8CC044F08DC045F042C046F0D7
:100C000043C047F0A6EC02F0010E646F90C044F0C0
:100C100091C045F042C046F043C047F0A6EC02F058
:100C20003AB24DEF06F0670EA96E2EEC01F06D6F33
:100C30006DC01EF01F6A206A216A166A040E176EC4
:100C4000186A196A07EC02F0226E1BC023F01CC060
:100C500024F01DC025F022C012F023C013F024C0E0
:100C600014F025C015F0640E166E176A186A196A1A
:100C7000C3EC01F0946F13C095F014C096F015C04A
:100C800097F0020E646F94C044F095C045F042C0E6
:100C900046F043C047F0A6EC02F0050E176EDC0EDE
:100CA00044EC01F0010E856F56EF06F083EC39F04D
:100CB00085EC35F03BAE67EF06F082A666EF06F0F6
:100CC000010E856F86EF15F067EF06F082863AA871
:100CD000B1EF06F082A6B0EF06F03AA078EF06F08A
:100CE0003A90050EA96E000E35EC01F0AEEF06F05D
:100CF0003A8098C012F099C013F09AC014F09BC0CB
:100D000015F0640E166E176A186A196AC3EC01F0C2
:100D10006A6F9CC012F09DC013F09EC014F09FC07B
:100D200015F0640E166E176A186A196AC3EC01F0A2
:100D30006B6FA0C012F0A1C013F0A2C014F0A3C04A
:100D400015F0640E166E176A186A196AC3EC01F082
:100D50006C6F050EA96E010E35EC01F0B1EF06F0D7
:100D600082863AA6DBEF06F082A6DAEF06F03AA218
:100D7000C2EF06F03A92060EA96E000E35EC01F0B5
:100D8000D8EF06F03A82060EA96E010E35EC01F09E
:100D9000A4C012F0A5C013F0A6C014F0A7C015F0AF
:100DA000640E166E176A186A196AC3EC01F06D6F4B
:100DB000DBEF06F082863BAAECEF06F082A6EBEFB3
:100DC00006F03B8C020EA96E2EEC01F0756FC2EF9F
:100DD0002FF0ECEF06F0828681B2FAEF06F06E2B70
:100DE000330E6E5DD8A0F8EF06F0827894986E6BA3
:100DF000FBEF06F06E6B81B809EF07F0612B330E45
:100E0000615DD8A007EF07F0827A949A616B0AEFD0
:100E100007F0616B3AB0C0EF07F0640EA96E2EECDC
:100E200001F06A6F650EA96E2EEC01F06B6F660E15
:100E3000A96E2EEC01F06C6F6AC01EF01F6A206A6A
:100E4000216A166A040E176E186A196A07EC02F016
:100E5000226E1BC023F01CC024F01DC025F022C050
:100E600012F023C013F024C014F025C015F0640E56
:100E7000166E176A186A196AC3EC01F0886F13C0FE
:100E800089F014C08AF015C08BF06BC01EF01F6A89
:100E9000206A216A166A040E176E186A196A07EC2E
:100EA00002F0226E1BC023F01CC024F01DC025F0F0
:100EB00022C012F023C013F024C014F025C015F096
:100EC000640E166E176A186A196AC3EC01F08C6F0B
:100ED00013C08DF014C08EF015C08FF06CC01EF0E2
:100EE0001F6A206A216A166A040E176E186A196A48
:100EF00007EC02F0226E1BC023F01CC024F01DC0C2
:100F000025F022C012F023C013F024C014F025C035
:100F100015F0640E166E176A186A196AC3EC01F0B0
:100F2000906F13C091F014C092F015C093F0040EAE
:100F3000646F88C044F089C045F042C046F043C0A9
:100F400047F0A6EC02F0030E646F8CC044F08DC035
:100F500045F042C046F043C047F0A6EC02F0010E57
:100F6000646F90C044F091C045F042C046F043C069
:100F700047F0A6EC02F04D0E3E6E3F6AC3EF07F05D
:100F8000410E3E6E3F6A3AB205EF08F0670EA96E59
:100F90002EEC01F06D6F6DC01EF01F6A206A216A91
:100FA000166A040E176E186A196A07EC02F0226EB0
:100FB0001BC023F01CC024F01DC025F022C012F07D
:100FC00023C013F024C014F025C015F0640E166E73
:100FD000176A186A196AC3EC01F0946F13C095F090
:100FE00014C096F015C097F0020E646F94C044F0E0
:100FF00095C045F042C046F043C047F0A6EC02F071
:101000004D0E506E516A08EF08F0410E506E516A55
:10101000852B5A0E855DD8B010EF08F0200E626F58
:1010200085C012F05A0E85EC01F0226E85C012F0D8
:10103000AA0E8BEC01F0266E22C012F02650B7ECFF
:1010400001F0266E276E286E296E26502710281074
:101050002910D8B42EEF08F03A0E626FAB0E855D02
:10106000D8A034EF08F0856BE86A3AB8E868226ED9
:10107000E86A3AB6E868266E22C012F02650BEEC46
:1010800001F0266E276E286E296EE86A3ABAE86883
:101090002A6E2650271028102910126E2A50BEECF6
:1010A00001F02A6E2B6E2C6E2D6EE86A3AB4E86859
:1010B0002E6E2A502B102C102D10126E2E50BEECBE
:1010C00001F02E6E2F6E306E316EE86A3BBEE8681E
:1010D000326E2E502F1030103110126E3250BEEC86
:1010E00001F0326E336E346E356EE86A3BBAE868F2
:1010F000366E3250331034103510126E3650BEEC4E
:1011000001F0366E376E386E396E36503710381043
:101110003910D8B48EEF08F0406A416A40C012F02E
:1011200041C013F0060E176EA40E82EC01F0D8A495
:10113000A0EF08F0402A000E41228286A1EF08F0BD
:101140008296FE0E7BEC00F0020E7BEC00F0410E6E
:101150007BEC00F0510E7BEC00F0550E7BEC00F0C8
:10116000410E7BEC00F02D0E7BEC00F04C0E7BEC86
:1011700000F0450E7BEC00F0440E7BEC00F0200EFE
:101180007BEC00F0200E7BEC00F0200E7BEC00F0FE
:10119000020E036E5EC01AF01B6A1C6A1D6AF40E12
:1011A0000A6E0B6ACFEC00F062517BEC00F0020E8D
:1011B000036E5AC01AF01B6A1C6A1D6AF40E0A6E8E
:1011C0000B6ACFEC00F0E86A82B8E868226EE86A41
:1011D00082BAE868266E22C012F02650B7EC01F001
:1011E000266E276E286E296E26502710281029108B
:1011F000D8B431EF09F0FE0E7BEC00F0C00E7BECB2
:1012000000F0310E7BEC00F03D0E7BEC00F04F0E59
:101210007BEC00F04E0E7BEC00F0200E7BEC00F03F
:10122000320E7BEC00F03D0E7BEC00F04F0E7BECC1
:1012300000F04E0E7BEC00F0200E7BEC00F0200E58
:101240007BEC00F0200E7BEC00F0200E7BEC00F03D
:101250003E507BEC00F0230E7BEC00F050507BEC1A
:1012600000F0E86A82B8E868226EE86A82AAE86854
:10127000266E22C012F02650B7EC01F0266E276EC3
:10128000286E296E2650271028102910D8B47FEF19
:1012900009F0FE0E7BEC00F0C00E7BEC00F0310E8E
:1012A0007BEC00F03D0E7BEC00F04F0E7BEC00F091
:1012B0004E0E7BEC00F0200E7BEC00F0320E7BEC4F
:1012C00000F03D0E7BEC00F04F0E7BEC00F0460E84
:1012D0007BEC00F0460E7BEC00F0200E7BEC00F087
:1012E000200E7BEC00F0200E7BEC00F03E507BECFF
:1012F00000F0230E7BEC00F050507BEC00F0E86A2D
:1013000082A8E868226EE86A82AAE868266E22C08F
:1013100012F02650B7EC01F0266E276E286E296E6B
:101320002650271028102910D8B4CDEF09F0FE0E52
:101330007BEC00F0C00E7BEC00F0310E7BEC00F09B
:101340003D0E7BEC00F04F0E7BEC00F0460E7BEC8C
:1013500000F0460E7BEC00F0200E7BEC00F0320E2D
:101360007BEC00F03D0E7BEC00F04F0E7BEC00F0D0
:10137000460E7BEC00F0460E7BEC00F0200E7BEC82
:1013800000F0200E7BEC00F03E507BEC00F0230ED2
:101390007BEC00F050507BEC00F0E86A82A8E86833
:1013A000226EE86A82BAE868266E22C012F02650E1
:1013B000B7EC01F0266E276E286E296E2650271096
:1013C00028102910D8B41BEF0AF0FE0E7BEC00F0B9
:1013D000C00E7BEC00F0310E7BEC00F03D0E7BECA0
:1013E00000F04F0E7BEC00F0460E7BEC00F0460E5A
:1013F0007BEC00F0200E7BEC00F0320E7BEC00F07A
:101400003D0E7BEC00F04F0E7BEC00F04E0E7BECC3
:1014100000F0200E7BEC00F0200E7BEC00F0200EA4
:101420007BEC00F03E507BEC00F0230E7BEC00F0F8
:1014300050507BEC00F01FEC0AF056EF06F05AC05B
:1014400074F05EC01EF01F6A206A216A3C0E166EA0
:10145000176A186A196A07EC02F0226E1BC023F0A3
:101460001CC024F01DC025F05A502224546EE86A96
:101470002320556E7451825DD8B445EF0AF0010EF9
:10148000736F55EC38F046EF0AF0736BC8C080F00C
:10149000C9C071F0CAC078F0CCC07FF0CDC070F088
:1014A000CEC077F080C01EF01F6A206A216A3C0E11
:1014B000166E176A186A196A07EC02F0226E1BC0D2
:1014C00023F01CC024F01DC025F0715122244C6E65
:1014D000E86A23204D6E7FC01EF01F6A206A216AD1
:1014E0003C0E166E176A186A196A07EC02F0226E33
:1014F0001BC023F01CC024F01DC025F07051222415
:101500004A6EE86A23204B6E4CC012F04DC013F0B7
:1015100055C017F0545088EC01F0226E4AC012F00A
:101520004BC013F055C017F0545082EC01F0266EFA
:1015300022C012F02650B7EC01F0266E276E286EFE
:10154000296E2650271028102910D8B463EF0BF00D
:101550004CC012F04DC013F055C017F054507FEC42
:1015600001F0226E60510008D8A4E868FF0A266ED8
:1015700022C012F02650B7EC01F0266E276E286EBE
:10158000296E2650271028102910D8B4DFEF0AF052
:1015900078C06AF078C01EF01F6A206A216A640E63
:1015A000166E176A186A196A07EC02F0986F1BC06A
:1015B00099F01CC09AF01DC09BF063EF0BF04AC07D
:1015C00012F04BC013F055C017F054507FEC01F0EF
:1015D000226E60510008D8A4E868FF0A266E22C077
:1015E00012F02650B7EC01F0266E276E286E296E99
:1015F0002650271028102910D8B403EF0BF077C01D
:101600006AF063EF0BF073510108D8A463EF0BF09D
:101610007851775D226EE86AD8A0E804236E246EC4
:10162000256E22C01EF023C01FF024C020F025C06C
:1016300021F0640E166E176A186A196A07EC02F038
:10164000226E1BC023F01CC024F01DC025F04C509E
:101650004A5C266E4D504B58276EE86AD8A0E804C5
:10166000286E296E22C012F023C013F024C014F09B
:1016700025C015F026C016F027C017F028C018F0B6
:1016800029C019F0C3EC01F0266E13C027F014C076
:1016900028F015C029F02650982727509923285064
:1016A0009A2329509B2398C012F099C013F09AC036
:1016B00014F09BC015F0640E166E176A186A196A4A
:1016C000C3EC01F06A6FD0C080F0D1C071F0D2C01D
:1016D00078F0D4C07FF0D5C070F0D6C077F080C06D
:1016E0001EF01F6A206A216A3C0E166E176A186A7D
:1016F000196A07EC02F0226E1BC023F01CC024F014
:101700001DC025F0715122244C6EE86A23204D6ED5
:101710007FC01EF01F6A206A216A3C0E166E176A8F
:10172000186A196A07EC02F0226E1BC023F01CC075
:1017300024F01DC025F0705122244A6EE86A23204F
:101740004B6E4CC012F04DC013F055C017F0545002
:1017500088EC01F0226E4AC012F04BC013F055C065
:1017600017F0545082EC01F0266E22C012F0265081
:10177000B7EC01F0266E276E286E296E26502710D2
:1017800028102910D8B480EF0CF04CC012F04DC0D6
:1017900013F055C017F054507FEC01F0226E6051E9
:1017A0000008D8A4E868FF0A266E22C012F026506E
:1017B000B7EC01F0266E276E286E296E2650271092
:1017C00028102910D8B4FCEF0BF078C06AF078C06C
:1017D0001EF01F6A206A216A640E166E176A186A64
:1017E000196A07EC02F0986F1BC099F01CC09AF0C0
:1017F0001DC09BF080EF0CF04AC012F04BC013F0FC
:1018000055C017F054507FEC01F0226E6051000873
:10181000D8A4E868FF0A266E22C012F02650B7EC62
:1018200001F0266E276E286E296E2650271028108C
:101830002910D8B420EF0CF077C06AF080EF0CF0DC
:1018400073510108D8A480EF0CF07751785D226EB7
:10185000E86AD8A0E804236E246E256E22C01EF02C
:1018600023C01FF024C020F025C021F0640E166EA6
:10187000176A186A196A07EC02F0226E1BC023F07F
:101880001CC024F01DC025F04C504A5C266E4D5003
:101890004B58276EE86AD8A0E804286E296E22C04B
:1018A00012F023C013F024C014F025C015F026C098
:1018B00016F027C017F028C018F029C019F0C3ECA3
:1018C00001F0266E13C027F014C028F015C029F0CF
:1018D0002650985F2750995B28509A5B29509B5B54
:1018E00098C012F099C013F09AC014F09BC015F084
:1018F000640E166E176A186A196AC3EC01F06A6FF3
:10190000D8C080F0D9C071F0DAC078F0DCC07FF0C8
:10191000DDC070F0DEC077F080C01EF01F6A206A64
:10192000216A3C0E166E176A186A196A07EC02F0F3
:10193000226E1BC023F01CC024F01DC025F0715185
:1019400022244C6EE86A23204D6E7FC01EF01F6A71
:10195000206A216A3C0E166E176A186A196A07EC2B
:1019600002F0226E1BC023F01CC024F01DC025F025
:10197000705122244A6EE86A23204B6E4CC012F04C
:101980004DC013F055C017F0545088EC01F0226E92
:101990004AC012F04BC013F055C017F0545082ECFF
:1019A00001F0266E22C012F02650B7EC01F0266E30
:1019B000276E286E296E2650271028102910D8B4BB
:1019C0009DEF0DF04CC012F04DC013F055C017F054
:1019D00054507FEC01F0226E60510008D8A4E868F2
:1019E000FF0A266E22C012F02650B7EC01F0266ED8
:1019F000276E286E296E2650271028102910D8B47B
:101A000019EF0DF078C06BF078C01EF01F6A206AE5
:101A1000216A640E166E176A186A196A07EC02F0DA
:101A20009C6F1BC09DF01CC09EF01DC09FF09DEFE1
:101A30000DF04AC012F04BC013F055C017F05450CF
:101A40007FEC01F0226E60510008D8A4E868FF0A1C
:101A5000266E22C012F02650B7EC01F0266E276EDB
:101A6000286E296E2650271028102910D8B43DEF73
:101A70000DF077C06BF09DEF0DF073510108D8A405
:101A80009DEF0DF07851775D226EE86AD8A0E804EA
:101A9000236E246E256E22C01EF023C01FF024C0CA
:101AA00020F025C021F0640E166E176A186A196AB4
:101AB00007EC02F0226E1BC023F01CC024F01DC0F6
:101AC00025F04C504A5C266E4D504B58276EE86A04
:101AD000D8A0E804286E296E22C012F023C013F0AB
:101AE00024C014F025C015F026C016F027C017F04A
:101AF00028C018F029C019F0C3EC01F0266E13C0FD
:101B000027F014C028F015C029F026509C27275034
:101B10009D2328509E2329509F239CC012F09DC0D6
:101B200013F09EC014F09FC015F0640E166E176A75
:101B3000186A196AC3EC01F06B6FE0C080F0E1C075
:101B400071F0E2C078F0E4C07FF0E5C070F0E6C06C
:101B500077F080C01EF01F6A206A216A3C0E166E64
:101B6000176A186A196A07EC02F0226E1BC023F08C
:101B70001CC024F01DC025F0715122244C6EE86A6F
:101B800023204D6E7FC01EF01F6A206A216A3C0E22
:101B9000166E176A186A196A07EC02F0226E1BC0EB
:101BA00023F01CC024F01DC025F0705122244A6E81
:101BB000E86A23204B6E4CC012F04DC013F055C0A4
:101BC00017F0545088EC01F0226E4AC012F04BC05E
:101BD00013F055C017F0545082EC01F0266E22C06D
:101BE00012F02650B7EC01F0266E276E286E296E93
:101BF0002650271028102910D8B4BAEF0EF04CC088
:101C000012F04DC013F055C017F054507FEC01F0A6
:101C1000226E60510008D8A4E868FF0A266E22C030
:101C200012F02650B7EC01F0266E276E286E296E52
:101C30002650271028102910D8B436EF0EF078C09F
:101C40006BF078C01EF01F6A206A216A640E166E5F
:101C5000176A186A196A07EC02F09C6F1BC09DF0A6
:101C60001CC09EF01DC09FF0BAEF0EF04AC012F0EB
:101C70004BC013F055C017F054507FEC01F0226EAA
:101C800060510008D8A4E868FF0A266E22C012F04E
:101C90002650B7EC01F0266E276E286E296E26506E
:101CA000271028102910D8B45AEF0EF077C06BF027
:101CB000BAEF0EF073510108D8A4BAEF0EF07751C5
:101CC000785D226EE86AD8A0E804236E246E256E43
:101CD00022C01EF023C01FF024C020F025C021F038
:101CE000640E166E176A186A196A07EC02F0226E03
:101CF0001BC023F01CC024F01DC025F04C504A5CD2
:101D0000266E4D504B58276EE86AD8A0E804286E1E
:101D1000296E22C012F023C013F024C014F025C095
:101D200015F026C016F027C017F028C018F029C0FB
:101D300019F0C3EC01F0266E13C027F014C028F090
:101D400015C029F026509C5F27509D5B28509E5B54
:101D500029509F5B9CC012F09DC013F09EC014F0F0
:101D60009FC015F0640E166E176A186A196AC3ECE4
:101D700001F06B6FE8C080F0E9C071F0EAC078F064
:101D8000ECC07FF0EDC070F0EEC077F080C01EF0C8
:101D90001F6A206A216A3C0E166E176A186A196A51
:101DA00007EC02F0226E1BC023F01CC024F01DC003
:101DB00025F0715122244C6EE86A23204D6E7FC0BD
:101DC0001EF01F6A206A216A3C0E166E176A186A96
:101DD000196A07EC02F0226E1BC023F01CC024F02D
:101DE0001DC025F0705122244A6EE86A23204B6EF4
:101DF0004CC012F04DC013F055C017F0545088EC91
:101E000001F0226E4AC012F04BC013F055C017F01B
:101E1000545082EC01F0266E22C012F02650B7EC2E
:101E200001F0266E276E286E296E26502710281086
:101E30002910D8B4D7EF0FF04CC012F04DC013F0FA
:101E400055C017F054507FEC01F0226E605100082D
:101E5000D8A4E868FF0A266E22C012F02650B7EC1C
:101E600001F0266E276E286E296E26502710281046
:101E70002910D8B453EF0FF078C06CF078C01EF082
:101E80001F6A206A216A640E166E176A186A196A38
:101E900007EC02F0A06F1BC0A1F01CC0A2F01DC097
:101EA000A3F0D7EF0FF04AC012F04BC013F055C0AB
:101EB00017F054507FEC01F0226E60510008D8A456
:101EC000E868FF0A266E22C012F02650B7EC01F037
:101ED000266E276E286E296E26502710281029108E
:101EE000D8B477EF0FF077C06CF0D7EF0FF07351E5
:101EF0000108D8A4D7EF0FF07851775D226EE86A19
:101F0000D8A0E804236E246E256E22C01EF023C0E4
:101F10001FF024C020F025C021F0640E166E176A51
:101F2000186A196A07EC02F0226E1BC023F01CC06D
:101F300024F01DC025F04C504A5C266E4D504B5885
:101F4000276EE86AD8A0E804286E296E22C012F035
:101F500023C013F024C014F025C015F026C016F0DD
:101F600027C017F028C018F029C019F0C3EC01F001
:101F7000266E13C027F014C028F015C029F0265093
:101F8000A0272750A1232850A2232950A323A0C073
:101F900012F0A1C013F0A2C014F0A3C015F0640E9B
:101FA000166E176A186A196AC3EC01F06C6FF0C0FC
:101FB00080F0F1C071F0F2C078F0F4C07FF0F5C0AD
:101FC00070F0F6C077F080C01EF01F6A206A216AA8
:101FD0003C0E166E176A186A196A07EC02F0226E38
:101FE0001BC023F01CC024F01DC025F07151222419
:101FF0004C6EE86A23204D6E7FC01EF01F6A206A77
:10200000216A3C0E166E176A186A196A07EC02F00C
:10201000226E1BC023F01CC024F01DC025F070519F
:1020200022244A6EE86A23204B6E4CC012F04DC049
:1020300013F055C017F0545088EC01F0226E4AC0DE
:1020400012F04BC013F055C017F0545082EC01F061
:10205000266E22C012F02650B7EC01F0266E276ED5
:10206000286E296E2650271028102910D8B4F4EFB6
:1020700010F04CC012F04DC013F055C017F0545082
:102080007FEC01F0226E60510008D8A4E868FF0AD6
:10209000266E22C012F02650B7EC01F0266E276E95
:1020A000286E296E2650271028102910D8B470EFFA
:1020B00010F078C06CF078C01EF01F6A206A216AA8
:1020C000640E166E176A186A196A07EC02F0A06FA0
:1020D0001BC0A1F01CC0A2F01DC0A3F0F4EF10F0D3
:1020E0004AC012F04BC013F055C017F054507FECAB
:1020F00001F0226E60510008D8A4E868FF0A266E3D
:1021000022C012F02650B7EC01F0266E276E286E22
:10211000296E2650271028102910D8B494EF10F0FB
:1021200077C06CF0F4EF10F073510108D8A4F4EF0D
:1021300010F07751785D226EE86AD8A0E804236E2B
:10214000246E256E22C01EF023C01FF024C020F094
:1021500025C021F0640E166E176A186A196A07EC1A
:1021600002F0226E1BC023F01CC024F01DC025F01D
:102170004C504A5C266E4D504B58276EE86AD8A0EA
:10218000E804286E296E22C012F023C013F024C088
:1021900014F025C015F026C016F027C017F028C08F
:1021A00018F029C019F0C3EC01F0266E13C027F017
:1021B00014C028F015C029F02650A05F2750A15B5D
:1021C0002850A25B2950A35BA0C012F0A1C013F05D
:1021D000A2C014F0A3C015F0640E166E176A186A38
:1021E000196AC3EC01F06C6FF8C080F0F9C071F0AF
:1021F000FAC078F0FCC07FF0FDC070F0FEC077F050
:1022000080C01EF01F6A206A216A3C0E166E176A93
:10221000186A196A07EC02F0226E1BC023F01CC07A
:1022200024F01DC025F0715122244C6EE86A232051
:102230004D6E7FC01EF01F6A206A216A3C0E166E2A
:10224000176A186A196A07EC02F0226E1BC023F0A5
:102250001CC024F01DC025F0705122244A6EE86A8B
:1022600023204B6E4CC012F04DC013F055C017F038
:10227000545088EC01F0226E4AC012F04BC013F0AB
:1022800055C017F0545082EC01F0266E22C012F0B7
:102290002650B7EC01F0266E276E286E296E265068
:1022A000271028102910D8B411EF12F04CC012F0EA
:1022B0004DC013F055C017F054507FEC01F0226E62
:1022C00060510008D8A4E868FF0A266E22C012F008
:1022D0002650B7EC01F0266E276E286E296E265028
:1022E000271028102910D8B48DEF11F078C06DF0A8
:1022F00078C01EF01F6A206A216A640E166E176A83
:10230000186A196A07EC02F0A46F1BC0A5F01CC084
:10231000A6F01DC0A7F011EF12F04AC012F04BC09A
:1023200013F055C017F054507FEC01F0226E60514D
:102330000008D8A4E868FF0A266E22C012F02650D2
:10234000B7EC01F0266E276E286E296E26502710F6
:1023500028102910D8B4B1EF11F077C06DF011EF4B
:1023600012F073510108D8A411EF12F07851775D83
:10237000226EE86AD8A0E804236E246E256E22C07F
:102380001EF023C01FF024C020F025C021F0640EF1
:10239000166E176A186A196A07EC02F0226E1BC0E3
:1023A00023F01CC024F01DC025F04C504A5C266E62
:1023B0004D504B58276EE86AD8A0E804286E296E65
:1023C00022C012F023C013F024C014F025C015F071
:1023D00026C016F027C017F028C018F029C019F041
:1023E000C3EC01F0266E13C027F014C028F015C00E
:1023F00029F02650A4272750A5232850A62329508A
:10240000A723A4C012F0A5C013F0A6C014F0A7C063
:1024100015F0640E166E176A186A196AC3EC01F09B
:102420006D6F00C180F001C171F002C178F004C18C
:102430007FF005C170F006C177F080C01EF01F6A02
:10244000206A216A3C0E166E176A186A196A07EC30
:1024500002F0226E1BC023F01CC024F01DC025F02A
:10246000715122244C6EE86A23204D6E7FC01EF00D
:102470001F6A206A216A3C0E166E176A186A196A6A
:1024800007EC02F0226E1BC023F01CC024F01DC01C
:1024900025F0705122244A6EE86A23204B6E4CC00E
:1024A00012F04DC013F055C017F0545088EC01F0F5
:1024B000226E4AC012F04BC013F055C017F05450B2
:1024C00082EC01F0266E22C012F02650B7EC01F02B
:1024D000266E276E286E296E265027102810291088
:1024E000D8B42EEF13F04CC012F04DC013F055C00D
:1024F00017F054507FEC01F0226E60510008D8A410
:10250000E868FF0A266E22C012F02650B7EC01F0F0
:10251000266E276E286E296E265027102810291047
:10252000D8B4AAEF12F078C06DF078C01EF01F6A20
:10253000206A216A640E166E176A186A196A07EC17
:1025400002F0A46F1BC0A5F01CC0A6F01DC0A7F030
:102550002EEF13F04AC012F04BC013F055C017F025
:1025600054507FEC01F0226E60510008D8A4E86856
:10257000FF0A266E22C012F02650B7EC01F0266E3C
:10258000276E286E296E2650271028102910D8B4DF
:10259000CEEF12F077C06DF02EEF13F073510108FB
:1025A000D8A42EEF13F07751785D226EE86AD8A098
:1025B000E804236E246E256E22C01EF023C01FF097
:1025C00024C020F025C021F0640E166E176A186A28
:1025D000196A07EC02F0226E1BC023F01CC024F025
:1025E0001DC025F04C504A5C266E4D504B58276E4E
:1025F000E86AD8A0E804286E296E22C012F023C031
:1026000013F024C014F025C015F026C016F027C022
:1026100017F028C018F029C019F0C3EC01F0266E9D
:1026200013C027F014C028F015C029F02650A45F6D
:102630002750A55B2850A65B2950A75BA4C012F0C9
:10264000A5C013F0A6C014F0A7C015F0640E166E56
:10265000176A186A196AC3EC01F06D6F3BBC0BEF87
:1026600014F03AA0D3EF13F06AC01EF01F6A206A7C
:10267000216A166A040E176E186A196A07EC02F0CE
:10268000226E1BC023F01CC024F01DC025F022C008
:1026900012F023C013F024C014F025C015F0640E0E
:1026A000166E176A186A196AC3EC01F0886F13C0B6
:1026B00089F014C08AF015C08BF06BC01EF01F6A41
:1026C000206A216A166A040E176E186A196A07ECE6
:1026D00002F0226E1BC023F01CC024F01DC025F0A8
:1026E00022C012F023C013F024C014F025C015F04E
:1026F000640E166E176A186A196AC3EC01F08C6FC3
:1027000013C08DF014C08EF015C08FF06CC01EF099
:102710001F6A206A216A166A040E176E186A196AFF
:1027200007EC02F0226E1BC023F01CC024F01DC079
:1027300025F022C012F023C013F024C014F025C0ED
:1027400015F0640E166E176A186A196AC3EC01F068
:10275000906F13C091F014C092F015C093F0040E66
:10276000646F88C044F089C045F042C046F043C061
:1027700047F0A6EC02F0030E646F8CC044F08DC0ED
:1027800045F042C046F043C047F0A6EC02F0010E0F
:10279000646F90C044F091C045F042C046F043C021
:1027A00047F0A6EC02F03AA20BEF14F06DC01EF059
:1027B0001F6A206A216A166A040E176E186A196A5F
:1027C00007EC02F0226E1BC023F01CC024F01DC0D9
:1027D00025F022C012F023C013F024C014F025C04D
:1027E00015F0640E166E176A186A196AC3EC01F0C8
:1027F000946F13C095F014C096F015C097F0020EB8
:10280000646F94C044F095C045F042C046F043C0A8
:1028100047F0A6EC02F0B0515E5CD8A4E868FF0A6D
:10282000226EB1515A5CD8A4E868FF0A266E22C015
:1028300012F02650B7EC01F0266E276E286E296E36
:1028400060510008D8A4E868FF0A2A6E26502710B5
:1028500028102910126E2A50B7EC01F02A6E2B6E48
:102860002C6E2D6E2A502B102C102D10D8B43AEF50
:1028700014F08288B2515E5CD8A4E868FF0A226E28
:10288000B3515A5CD8A4E868FF0A266E22C012F041
:102890002650B7EC01F0266E276E286E296E605127
:1028A0000008D8A4E868FF0A2A6E265027102810CE
:1028B0002910126E2A50B7EC01F02A6E2B6E2C6E86
:1028C0002D6E2A502B102C102D10D8B469EF14F057
:1028D0008298B4515E5CD8A4E868FF0A226EB551B4
:1028E0005A5CD8A4E868FF0A266E22C012F026506F
:1028F000B7EC01F0266E276E286E296E6051000835
:10290000D8A4E868FF0A2A6E26502710281029103C
:10291000126E2A50B7EC01F02A6E2B6E2C6E2D6EC3
:102920002A502B102C102D10D8B498EF14F0828858
:10293000B6515E5CD8A4E868FF0A226EB7515A5CB3
:10294000D8A4E868FF0A266E22C012F02650B7EC21
:1029500001F0266E276E286E296E60510008D8A4FB
:10296000E868FF0A2A6E2650271028102910126ED8
:102970002A50B7EC01F02A6E2B6E2C6E2D6E2A5069
:102980002B102C102D10D8B4C7EF14F08298B8512A
:102990005E5CD8A4E868FF0A226EB9515A5CD8A4DC
:1029A000E868FF0A266E22C012F02650B7EC01F04C
:1029B000266E276E286E296E60510008D8A4E8683C
:1029C000FF0A2A6E2650271028102910126E2A504E
:1029D000B7EC01F02A6E2B6E2C6E2D6E2A502B1048
:1029E0002C102D10D8B4F6EF14F0828ABA515E5C28
:1029F000D8A4E868FF0A226EBB515A5CD8A4E868E4
:102A0000FF0A266E22C012F02650B7EC01F0266EA7
:102A1000276E286E296E60510008D8A4E868FF0A66
:102A20002A6E2650271028102910126E2A50B7EC53
:102A300001F02A6E2B6E2C6E2D6E2A502B102C104E
:102A40002D10D8B425EF15F0829ABC515E5CD8A445
:102A5000E868FF0A226EBD515A5CD8A4E868FF0AF4
:102A6000266E22C012F02650B7EC01F0266E276EBB
:102A7000286E296E60510008D8A4E868FF0A2A6E03
:102A80002650271028102910126E2A50B7EC01F09A
:102A90002A6E2B6E2C6E2D6E2A502B102C102D10A2
:102AA000D8B454EF15F0828ABE515E5CD8A4E868B1
:102AB000FF0A226EBF515A5CD8A4E868FF0A266E4E
:102AC00022C012F02650B7EC01F0266E276E286E59
:102AD000296E60510008D8A4E868FF0A2A6E2650C3
:102AE000271028102910126E2A50B7EC01F02A6E18
:102AF0002B6E2C6E2D6E2A502B102C102D10D8B44E
:102B000083EF15F0829A74C082F0120082861FEC67
:102B10000AF083EC39F03AA698EF15F085510308D6
:102B2000D8A497EF15F0030E856F98EF15F0852B5D
:102B30003AA8A5EF15F085510108D8A4A4EF15F027
:102B4000010E856FA5EF15F085073AAAAEEF15F0D7
:102B5000406A416A010E856F56EF06F08551010803
:102B6000D8A452EF16F0FE0E7BEC00F0020E7BECC8
:102B700000F07E0E7BEC00F04C0E7BEC00F0450E7E
:102B80007BEC00F0440E7BEC00F02D0E7BEC00F0B3
:102B90006C0E7BEC00F0690E7BEC00F0670E7BECBA
:102BA00000F0680E7BEC00F0740E7BEC00F0200E61
:102BB0007BEC00F0200E7BEC00F0200E7BEC00F0B4
:102BC000200E7BEC00F0200E7BEC00F0200E7BEC66
:102BD00000F0200E7BEC00F0200E7BEC00F0200ECD
:102BE0007BEC00F0FE0E7BEC00F0C00E7BEC00F006
:102BF000200E7BEC00F0490E7BEC00F06E0E7BECBF
:102C000000F0740E7BEC00F0650E7BEC00F0720EB1
:102C10007BEC00F06E0E7BEC00F0610E7BEC00F0C4
:102C20006C0E7BEC00F0200E7BEC00F0730E7BEC66
:102C300000F0770E7BEC00F0690E7BEC00F0740E78
:102C40007BEC00F0630E7BEC00F0680E7BEC00F098
:102C5000200E7BEC00F0200E7BEC00F0200E7BECD5
:102C600000F0200E7BEC00F0200E7BEC00F0200E3C
:102C70007BEC00F0200E7BEC00F0200E7BEC00F0F3
:102C8000200E7BEC00F0200E7BEC00F0200E7BECA5
:102C900000F03BAE50EF16F0010E856F63EF17F0BA
:102CA00062EF17F085510208D8A4DBEF16F0FE0E94
:102CB0007BEC00F0020E7BEC00F0200E7BEC00F0D1
:102CC0004C0E7BEC00F0450E7BEC00F0440E7BECF0
:102CD00000F02D0E7BEC00F06C0E7BEC00F0690E2A
:102CE0007BEC00F0670E7BEC00F0680E7BEC00F0F4
:102CF000740E7BEC00F0200E7BEC00F0200E7BECE1
:102D000000F0200E7BEC00F0200E7BEC00F0200E9B
:102D10007BEC00F0200E7BEC00F0200E7BEC00F052
:102D2000200E7BEC00F0FE0E7BEC00F0C00E7BEC86
:102D300000F07E0E7BEC00F0490E7BEC00F06E0E96
:102D40007BEC00F0740E7BEC00F0650E7BEC00F089
:102D5000720E7BEC00F06E0E7BEC00F0610E7BECF3
:102D600000F06C0E7BEC00F0200E7BEC00F0730E9C
:102D70007BEC00F0770E7BEC00F0690E7BEC00F052
:102D8000740E7BEC00F0630E7BEC00F0680E7BECC5
:102D900000F0200E7BEC00F0200E7BEC00F0200E0B
:102DA0007BEC00F03BAED9EF16F0010E856FB7EF6C
:102DB00023F062EF17F085510308D8A462EF17F0F3
:102DC000FE0E7BEC00F0020E7BEC00F07E0E7BEC46
:102DD00000F0540E7BEC00F06F0E7BEC00F06F0EF9
:102DE0007BEC00F06C0E7BEC00F0730E7BEC00F0E3
:102DF000200E7BEC00F0200E7BEC00F0200E7BEC34
:102E000000F0200E7BEC00F0200E7BEC00F0200E9A
:102E10007BEC00F0200E7BEC00F0200E7BEC00F051
:102E2000200E7BEC00F0200E7BEC00F0200E7BEC03
:102E300000F0200E7BEC00F0200E7BEC00F0FE0E8C
:102E40007BEC00F0C00E7BEC00F0200E7BEC00F081
:102E5000200E7BEC00F0200E7BEC00F0200E7BECD3
:102E600000F0200E7BEC00F0200E7BEC00F0200E3A
:102E70007BEC00F0200E7BEC00F0200E7BEC00F0F1
:102E8000200E7BEC00F0200E7BEC00F0200E7BECA3
:102E900000F0200E7BEC00F0200E7BEC00F0200E0A
:102EA0007BEC00F0200E7BEC00F0200E7BEC00F0C1
:102EB000200E7BEC00F03BAE62EF17F0010E856F49
:102EC00050EF2EF023D61FEC0AF083EC39F03AA62F
:102ED00074EF17F085510208D8A473EF17F0020EB3
:102EE000856F74EF17F0852B3AA881EF17F08551A5
:102EF0000108D8A480EF17F0010E856F81EF17F05D
:102F000085073AAA88EF17F0010E856F86EF15F056
:102F100085510108D8A41DEF18F0FE0E7BEC00F0DF
:102F2000020E7BEC00F07E0E7BEC00F0410E7BECA1
:102F300000F0750E7BEC00F0740E7BEC00F06F0E71
:102F40007BEC00F06D0E7BEC00F0610E7BEC00F092
:102F5000740E7BEC00F0690E7BEC00F0630E7BECF2
:102F600000F0200E7BEC00F0200E7BEC00F0200E39
:102F70007BEC00F0200E7BEC00F0200E7BEC00F0F0
:102F8000200E7BEC00F0200E7BEC00F0200E7BECA2
:102F900000F0200E7BEC00F0200E7BEC00F0FE0E2B
:102FA0007BEC00F0C00E7BEC00F0200E7BEC00F020
:102FB0004D0E7BEC00F0610E7BEC00F06E0E7BECB6
:102FC00000F0750E7BEC00F0610E7BEC00F06C0EF7
:102FD0007BEC00F0200E7BEC00F0200E7BEC00F090
:102FE000200E7BEC00F0200E7BEC00F0200E7BEC42
:102FF00000F0200E7BEC00F0200E7BEC00F0200EA9
:103000007BEC00F0200E7BEC00F0200E7BEC00F05F
:10301000200E7BEC00F0200E7BEC00F0200E7BEC11
:1030200000F0200E7BEC00F03BAE1BEF18F0010E21
:10303000856FB1EF18F0B0EF18F085510208D8A4F1
:10304000B0EF18F0FE0E7BEC00F0020E7BEC00F00F
:10305000200E7BEC00F0410E7BEC00F0750E7BEC5B
:1030600000F0740E7BEC00F06F0E7BEC00F06D0E48
:103070007BEC00F0610E7BEC00F0740E7BEC00F05A
:10308000690E7BEC00F0630E7BEC00F0200E7BEC15
:1030900000F0200E7BEC00F0200E7BEC00F0200E08
:1030A0007BEC00F0200E7BEC00F0200E7BEC00F0BF
:1030B000200E7BEC00F0200E7BEC00F0200E7BEC71
:1030C00000F0200E7BEC00F0200E7BEC00F0FE0EFA
:1030D0007BEC00F0C00E7BEC00F07E0E7BEC00F091
:1030E0004D0E7BEC00F0610E7BEC00F06E0E7BEC85
:1030F00000F0750E7BEC00F0610E7BEC00F06C0EC6
:103100007BEC00F0200E7BEC00F0200E7BEC00F05E
:10311000200E7BEC00F0200E7BEC00F0200E7BEC10
:1031200000F0200E7BEC00F0200E7BEC00F0200E77
:103130007BEC00F0200E7BEC00F0200E7BEC00F02E
:10314000200E7BEC00F0200E7BEC00F0200E7BECE0
:1031500000F03BAEB0EF18F0010E856FA3EF29F041
:10316000B2D61FEC0AF083EC39F03AA6C2EF18F0A1
:1031700085510208D8A4C1EF18F0020E856FC2EF86
:1031800018F0852B3AA8CFEF18F085510108D8A484
:10319000CEEF18F0010E856FCFEF18F085073AAA31
:1031A000D5EF18F0010E856F8ED685510108D8A491
:1031B00076EF19F0FE0E7BEC00F0020E7BEC00F0D7
:1031C0007E0E7BEC00F0410E7BEC00F0710E7BEC90
:1031D00000F0750E7BEC00F0610E7BEC00F0720EDF
:1031E0007BEC00F0690E7BEC00F0750E7BEC00F0E0
:1031F0006D0E7BEC00F0200E7BEC00F06C0E7BEC97
:1032000000F0690E7BEC00F0670E7BEC00F0680EBE
:103210007BEC00F0740E7BEC00F0200E7BEC00F0F9
:10322000200E7BEC00F0200E7BEC00F0200E7BECFF
:1032300000F0200E7BEC00F0200E7BEC00F0FE0E88
:103240007BEC00F0C00E7BEC00F0200E7BEC00F07D
:10325000520E7BEC00F06F0E7BEC00F06F0E7BECFF
:1032600000F06D0E7BEC00F0200E7BEC00F06C0E9D
:103270007BEC00F0690E7BEC00F0670E7BEC00F05D
:10328000680E7BEC00F0740E7BEC00F0200E7BEC03
:1032900000F0200E7BEC00F0200E7BEC00F0200E06
:1032A0007BEC00F0200E7BEC00F0200E7BEC00F0BD
:1032B000200E7BEC00F0200E7BEC00F0200E7BEC6F
:1032C00000F0200E7BEC00F0200E7BEC00F0200ED6
:1032D0007BEC00F0200E7BEC00F03BAE74EF19F0BD
:1032E000010E856F0CEF1AF00BEF1AF085510208F2
:1032F000D8A40BEF1AF0FE0E7BEC00F0020E7BEC74
:1033000000F0200E7BEC00F0410E7BEC00F0710E23
:103310007BEC00F0750E7BEC00F0610E7BEC00F0B6
:10332000720E7BEC00F0690E7BEC00F0750E7BEC0E
:1033300000F06D0E7BEC00F0200E7BEC00F06C0ECC
:103340007BEC00F0690E7BEC00F0670E7BEC00F08C
:10335000680E7BEC00F0740E7BEC00F0200E7BEC32
:1033600000F0200E7BEC00F0200E7BEC00F0200E35
:103370007BEC00F0200E7BEC00F0FE0E7BEC00F00E
:10338000C00E7BEC00F07E0E7BEC00F0520E7BEC6E
:1033900000F06F0E7BEC00F06F0E7BEC00F06D0E1A
:1033A0007BEC00F0200E7BEC00F06C0E7BEC00F070
:1033B000690E7BEC00F0670E7BEC00F0680E7BEC96
:1033C00000F0740E7BEC00F0200E7BEC00F0200E81
:1033D0007BEC00F0200E7BEC00F0200E7BEC00F08C
:1033E000200E7BEC00F0200E7BEC00F0200E7BEC3E
:1033F00000F0200E7BEC00F0200E7BEC00F0200EA5
:103400007BEC00F03BAE0BEF1AF0010E856F040E63
:10341000566ED6EF1BF0A5D61FEC0AF083EC39F000
:103420003AA61DEF1AF085510308D8A41CEF1AF034
:10343000030E856F1DEF1AF0852B3AA82AEF1AF0BC
:1034400085510108D8A429EF1AF0010E856F2AEFE3
:103450001AF085073AAA30EF1AF0010E856F81D66F
:1034600085510108D8A4BEEF1AF0FE0E7BEC00F0E7
:10347000020E7BEC00F07E0E7BEC00F0430E7BEC4A
:1034800000F0680E7BEC00F0610E7BEC00F06E0E3D
:103490007BEC00F06E0E7BEC00F0650E7BEC00F038
:1034A0006C0E7BEC00F0200E7BEC00F0230E7BEC2E
:1034B00000F0310E7BEC00F0200E7BEC00F0200ED3
:1034C0007BEC00F0200E7BEC00F0200E7BEC00F09B
:1034D000200E7BEC00F0200E7BEC00F0200E7BEC4D
:1034E00000F0200E7BEC00F0FE0E7BEC00F0C00E36
:1034F0007BEC00F0200E7BEC00F0430E7BEC00F048
:10350000680E7BEC00F0610E7BEC00F06E0E7BEC45
:1035100000F06E0E7BEC00F0650E7BEC00F06C0EA4
:103520007BEC00F0200E7BEC00F0230E7BEC00F037
:10353000320E7BEC00F0200E7BEC00F0200E7BECDA
:1035400000F0200E7BEC00F0200E7BEC00F0200E53
:103550007BEC00F0200E7BEC00F0200E7BEC00F00A
:10356000200E7BEC00F03BAEBCEF1AF0010E566E65
:10357000010E856FD6EF1BF0D5EF1BF085510208C9
:10358000D8A44CEF1BF0FE0E7BEC00F0020E7BEC9F
:1035900000F0200E7BEC00F0430E7BEC00F0680E98
:1035A0007BEC00F0610E7BEC00F06E0E7BEC00F02B
:1035B0006E0E7BEC00F0650E7BEC00F06C0E7BEC8D
:1035C00000F0200E7BEC00F0230E7BEC00F0310EBF
:1035D0007BEC00F0200E7BEC00F0200E7BEC00F08A
:1035E000200E7BEC00F0200E7BEC00F0200E7BEC3C
:1035F00000F0200E7BEC00F0200E7BEC00F0FE0EC5
:103600007BEC00F0C00E7BEC00F07E0E7BEC00F05B
:10361000430E7BEC00F0680E7BEC00F0610E7BEC5F
:1036200000F06E0E7BEC00F06E0E7BEC00F0650E91
:103630007BEC00F06C0E7BEC00F0200E7BEC00F0DD
:10364000230E7BEC00F0320E7BEC00F0200E7BECC6
:1036500000F0200E7BEC00F0200E7BEC00F0200E42
:103660007BEC00F0200E7BEC00F0200E7BEC00F0F9
:10367000200E7BEC00F0200E7BEC00F0200E7BECAB
:1036800000F03BAE4AEF1BF0020E566E010E856F46
:10369000D6EF1BF0D5EF1BF085510308D8A4D5EF6A
:1036A0001BF0FE0E7BEC00F0020E7BEC00F07E0EB9
:1036B0007BEC00F0430E7BEC00F0680E7BEC00F03E
:1036C000610E7BEC00F06E0E7BEC00F06E0E7BEC7E
:1036D00000F0650E7BEC00F06C0E7BEC00F0200E31
:1036E0007BEC00F0230E7BEC00F0330E7BEC00F063
:1036F000200E7BEC00F0200E7BEC00F0200E7BEC2B
:1037000000F0200E7BEC00F0200E7BEC00F0200E91
:103710007BEC00F0200E7BEC00F0200E7BEC00F048
:10372000200E7BEC00F0FE0E7BEC00F0C00E7BEC7C
:1037300000F0200E7BEC00F0200E7BEC00F0200E61
:103740007BEC00F0200E7BEC00F0200E7BEC00F018
:10375000200E7BEC00F0200E7BEC00F0200E7BECCA
:1037600000F0200E7BEC00F0200E7BEC00F0200E31
:103770007BEC00F0200E7BEC00F0200E7BEC00F0E8
:10378000200E7BEC00F0200E7BEC00F0200E7BEC9A
:1037900000F0200E7BEC00F03BAED5EF1BF0030EEB
:1037A000566E010E856FD6EF1BF036D61FEC0AF071
:1037B00083EC39F03AA6E7EF1BF085510208D8A454
:1037C000E6EF1BF0020E856FE7EF1BF0852B3AA8A2
:1037D000F4EF1BF085510108D8A4F3EF1BF0010EA4
:1037E000856FF4EF1BF085073AAA05EF1CF05650E1
:1037F0000408D8A402EF1CF0020E856FB1EF18F098
:1038000005EF1CF056C085F007D685510108D8A4F5
:1038100084EF1CF0FE0E7BEC00F0020E7BEC00F05F
:103820007E0E7BEC00F0530E7BEC00F0750E7BEC13
:1038300000F06E0E7BEC00F0720E7BEC00F0690E77
:103840007BEC00F0730E7BEC00F0650E7BEC00F07F
:10385000200E7BEC00F0200E7BEC00F0200E7BECC9
:1038600000F0200E7BEC00F0200E7BEC00F0200E30
:103870007BEC00F0200E7BEC00F0200E7BEC00F0E7
:10388000200E7BEC00F0200E7BEC00F0FE0E7BECBB
:1038900000F0C00E7BEC00F0200E7BEC00F0530E2D
:1038A0007BEC00F0750E7BEC00F06E0E7BEC00F014
:1038B000730E7BEC00F0650E7BEC00F0740E7BEC7D
:1038C00000F0200E7BEC00F0200E7BEC00F0200ED0
:1038D0007BEC00F0200E7BEC00F0200E7BEC00F087
:1038E000200E7BEC00F0200E7BEC00F0200E7BEC39
:1038F00000F0200E7BEC00F0200E7BEC00F0200EA0
:103900007BEC00F01FEF1DF085510208D8A41FEFDB
:103910001DF0FE0E7BEC00F0020E7BEC00F0200EA2
:103920007BEC00F0530E7BEC00F0750E7BEC00F0AE
:103930006E0E7BEC00F0720E7BEC00F0690E7BECFF
:1039400000F0730E7BEC00F0650E7BEC00F0200EB7
:103950007BEC00F0200E7BEC00F0200E7BEC00F006
:10396000200E7BEC00F0200E7BEC00F0200E7BECB8
:1039700000F0200E7BEC00F0200E7BEC00F0200E1F
:103980007BEC00F0200E7BEC00F0200E7BEC00F0D6
:10399000200E7BEC00F0200E7BEC00F0200E7BEC88
:1039A00000F0200E7BEC00F0200E7BEC00F0200EEF
:1039B0007BEC00F0200E7BEC00F0FE0E7BEC00F0C8
:1039C000C00E7BEC00F07E0E7BEC00F0530E7BEC27
:1039D00000F0750E7BEC00F06E0E7BEC00F0730EC9
:1039E0007BEC00F0650E7BEC00F0740E7BEC00F0DD
:1039F000200E7BEC00F0200E7BEC00F0200E7BEC28
:103A000000F0200E7BEC00F0200E7BEC00F0200E8E
:103A10007BEC00F0200E7BEC00F0200E7BEC00F045
:103A2000200E7BEC00F0200E7BEC00F0200E7BECF7
:103A300000F0200E7BEC00F0200E7BEC00F03BAEA3
:103A4000F2EF1EF085510108D8A428EF1DF03A9C32
:103A500085510208D8A42EEF1DF03A8C565001086B
:103A6000D8A4E868FF0A226EE86A3AACE868266ED5
:103A700022C012F02650B7EC01F0266E276E286E99
:103A8000296E2650271028102910D8B466EF1DF093
:103A9000080EA96E2EEC01F05C6E090EA96E2EECDC
:103AA00001F0586E0A0EA96E2EEC01F0686F0C0E34
:103AB000A96E2EEC01F05D6E0D0EA96E2EEC01F0DC
:103AC000596E0E0EA96E2EEC01F0696F565001086A
:103AD000D8A4E868FF0A226EE86A3ABCE868266E55
:103AE00022C012F02650B7EC01F0266E276E286E29
:103AF000296E2650271028102910D8B49EEF1DF0EB
:103B0000100EA96E2EEC01F05C6E110EA96E2EEC5B
:103B100001F0586E120EA96E2EEC01F0686F140EB3
:103B2000A96E2EEC01F05D6E150EA96E2EEC01F063
:103B3000596E160EA96E2EEC01F0696F56500208F0
:103B4000D8A4E868FF0A226EE86A3AACE868266EF4
:103B500022C012F02650B7EC01F0266E276E286EB8
:103B6000296E2650271028102910D8B4D6EF1DF042
:103B7000180EA96E2EEC01F05C6E190EA96E2EECDB
:103B800001F0586E1A0EA96E2EEC01F0686F1C0E33
:103B9000A96E2EEC01F05D6E1D0EA96E2EEC01F0EB
:103BA000596E1E0EA96E2EEC01F0696F5650020878
:103BB000D8A4E868FF0A226EE86A3ABCE868266E74
:103BC00022C012F02650B7EC01F0266E276E286E48
:103BD000296E2650271028102910D8B40EEF1EF099
:103BE000200EA96E2EEC01F05C6E210EA96E2EEC5B
:103BF00001F0586E220EA96E2EEC01F0686F240EB3
:103C0000A96E2EEC01F05D6E250EA96E2EEC01F072
:103C1000596E260EA96E2EEC01F0696F56500308FE
:103C2000D8A4E868FF0A226EE86A3AACE868266E13
:103C300022C012F02650B7EC01F0266E276E286ED7
:103C4000296E2650271028102910D8B446EF1EF0F0
:103C5000280EA96E2EEC01F05C6E290EA96E2EECDA
:103C600001F0586E2A0EA96E2EEC01F0686F2C0E32
:103C7000A96E2EEC01F05D6E2D0EA96E2EEC01F0FA
:103C8000596E2E0EA96E2EEC01F0696F5650030886
:103C9000D8A4E868FF0A226EE86A3ABCE868266E93
:103CA00022C012F02650B7EC01F0266E276E286E67
:103CB000296E2650271028102910D8B47EEF1EF048
:103CC000300EA96E2EEC01F05C6E310EA96E2EEC5A
:103CD00001F0586E320EA96E2EEC01F0686F340EB2
:103CE000A96E2EEC01F05D6E350EA96E2EEC01F082
:103CF000596E360EA96E2EEC01F0696F565004080D
:103D0000D8A4E868FF0A226EE86A3AACE868266E32
:103D100022C012F02650B7EC01F0266E276E286EF6
:103D2000296E2650271028102910D8B4B6EF1EF09F
:103D3000380EA96E2EEC01F05C6E390EA96E2EECD9
:103D400001F0586E3A0EA96E2EEC01F0686F3C0E31
:103D5000A96E2EEC01F05D6E3D0EA96E2EEC01F009
:103D6000596E3E0EA96E2EEC01F0696F5650040894
:103D7000D8A4E868FF0A226EE86A3ABCE868266EB2
:103D800022C012F02650B7EC01F0266E276E286E86
:103D9000296E2650271028102910D8B4EEEF1EF0F7
:103DA000400EA96E2EEC01F05C6E410EA96E2EEC59
:103DB00001F0586E420EA96E2EEC01F0686F440EB1
:103DC000A96E2EEC01F05D6E450EA96E2EEC01F091
:103DD000596E460EA96E2EEC01F0696F010E856FCB
:103DE000F4EF1EF0D6EF1BF01FEC0AF083EC39F075
:103DF0003AA405EF1FF085510608D8A404EF1FF080
:103E0000010E856F05EF1FF0852B85510108D8A4A1
:103E100016EF1FF07E0EA96F200EAA6F200EAB6F5B
:103E2000200EAC6F200EAD6F200EAE6F85510208D4
:103E3000D8A427EF1FF0200EA96F7E0EAA6F200EC8
:103E4000AB6F200EAC6F200EAD6F200EAE6F8551A4
:103E50000308D8A438EF1FF0200EA96F200EAA6F18
:103E60007E0EAB6F200EAC6F200EAD6F200EAE6FCE
:103E700085510408D8A449EF1FF0200EA96F200E29
:103E8000AA6F200EAB6F7E0EAC6F200EAD6F200EB2
:103E9000AE6F85510508D8A45AEF1FF0200EA96F08
:103EA000200EAA6F200EAB6F200EAC6F7E0EAD6F92
:103EB000200EAE6F85510608D8A46BEF1FF0200EC0
:103EC000A96F200EAA6F200EAB6F200EAC6F200ED4
:103ED000AD6F7E0EAE6F3AAA79EF1FF03ABC75EF68
:103EE0001FF0010E856F77EF1FF0020E856FD6EF82
:103EF0001BF081BC66EF20F085510108D8A4A3EF28
:103F00001FF05C2A5CC012F0010E8BEC01F0226EF7
:103F10005CC012F0170E85EC01F0266E22C012F084
:103F20002650BEEC01F0266E276E286E296E2650B4
:103F3000271028102910D8B4A0EF1FF0170E5C6EC0
:103F4000640E43EC01F085510208D8A4CAEF1FF0BB
:103F5000582A58C012F0010E8BEC01F0226E58C0A6
:103F600012F03B0E85EC01F0266E22C012F02650B6
:103F7000BEEC01F0266E276E286E296E26502710A3
:103F800028102910D8B4C7EF1FF03B0E586E640EEE
:103F900043EC01F085510308D8A4F1EF1FF0682B22
:103FA00068C012F0010E8BEC01F0226E68C012F0B6
:103FB000640E85EC01F0266E22C012F02650BEEC95
:103FC00001F0266E276E286E296E265027102810C5
:103FD0002910D8B4EEEF1FF0640E686F640E43EC46
:103FE00001F085510408D8A418EF20F05D2A5DC0C7
:103FF00012F0010E8BEC01F0226E5DC012F0170E74
:1040000085EC01F0266E22C012F02650BEEC01F0C5
:10401000266E276E286E296E26502710281029102C
:10402000D8B415EF20F0170E5D6E640E43EC01F06E
:1040300085510508D8A43FEF20F0592A59C012F045
:10404000010E8BEC01F0226E59C012F03B0E85EC94
:1040500001F0266E22C012F02650BEEC01F0266E52
:10406000276E286E296E2650271028102910D8B4E4
:104070003CEF20F03B0E596E640E43EC01F085518D
:104080000608D8A466EF20F0692B69C012F0010E73
:104090008BEC01F0226E69C012F0640E85EC01F029
:1040A000266E22C012F02650BEEC01F0266E276E5E
:1040B000286E296E2650271028102910D8B463EFD7
:1040C00020F0640E696F640E43EC01F081BA4DEF8D
:1040D00021F085510108D8A48FEF20F05C065CC068
:1040E00012F0010E8BEC01F0226E5CC012F0170E84
:1040F00085EC01F0266E22C012F02650BEEC01F0D5
:10410000266E276E286E296E26502710281029103B
:10411000D8B48CEF20F05C6A640E43EC01F085515A
:104120000208D8A4B5EF20F0580658C012F0010ECE
:104130008BEC01F0226E58C012F03B0E85EC01F0C2
:10414000266E22C012F02650BEEC01F0266E276EBD
:10415000286E296E2650271028102910D8B4B2EFE7
:1041600020F0586A640E43EC01F085510308D8A48E
:10417000DBEF20F0680768C012F0010E8BEC01F055
:10418000226E68C012F0640E85EC01F0266E22C02B
:1041900012F02650BEEC01F0266E276E286E296EB6
:1041A0002650271028102910D8B4D8EF20F0686BBB
:1041B000640E43EC01F085510408D8A401EF21F00E
:1041C0005D065DC012F0010E8BEC01F0226E5DC049
:1041D00012F0170E85EC01F0266E22C012F0265068
:1041E000BEEC01F0266E276E286E296E2650271031
:1041F00028102910D8B4FEEF20F05D6A640E43EC5D
:1042000001F085510508D8A427EF21F0590659C0BF
:1042100012F0010E8BEC01F0226E59C012F03B0E31
:1042200085EC01F0266E22C012F02650BEEC01F0A3
:10423000266E276E286E296E26502710281029100A
:10424000D8B424EF21F0596A640E43EC01F0855193
:104250000608D8A44DEF21F0690769C012F0010EDD
:104260008BEC01F0226E69C012F0640E85EC01F057
:10427000266E22C012F02650BEEC01F0266E276E8C
:10428000286E296E2650271028102910D8B44AEF1E
:1042900021F0696B640E43EC01F03BAE1FEF23F09D
:1042A00056500108D8A4E868FF0A226EE86A3AACC2
:1042B000E868266E22C012F02650B7EC01F0266E98
:1042C000276E286E296E2650271028102910D8B482
:1042D00088EF21F0080EA96E5C5035EC01F0090E54
:1042E000A96E585035EC01F00A0EA96E685135ECF4
:1042F00001F00C0EA96E5D5035EC01F00D0EA96EAB
:10430000595035EC01F00E0EA96E695135EC01F0F3
:1043100056500108D8A4E868FF0A226EE86A3ABC41
:10432000E868266E22C012F02650B7EC01F0266E27
:10433000276E286E296E2650271028102910D8B411
:10434000C0EF21F0100EA96E5C5035EC01F0110E9B
:10435000A96E585035EC01F0120EA96E685135EC7B
:1043600001F0140EA96E5D5035EC01F0150EA96E2A
:10437000595035EC01F0160EA96E695135EC01F07B
:1043800056500208D8A4E868FF0A226EE86A3AACE0
:10439000E868266E22C012F02650B7EC01F0266EB7
:1043A000276E286E296E2650271028102910D8B4A1
:1043B000F8EF21F0180EA96E5C5035EC01F0190EE3
:1043C000A96E585035EC01F01A0EA96E685135EC03
:1043D00001F01C0EA96E5D5035EC01F01D0EA96EAA
:1043E000595035EC01F01E0EA96E695135EC01F003
:1043F00056500208D8A4E868FF0A226EE86A3ABC60
:10440000E868266E22C012F02650B7EC01F0266E46
:10441000276E286E296E2650271028102910D8B430
:1044200030EF22F0200EA96E5C5035EC01F0210E29
:10443000A96E585035EC01F0220EA96E685135EC8A
:1044400001F0240EA96E5D5035EC01F0250EA96E29
:10445000595035EC01F0260EA96E695135EC01F08A
:1044600056500308D8A4E868FF0A226EE86A3AACFE
:10447000E868266E22C012F02650B7EC01F0266ED6
:10448000276E286E296E2650271028102910D8B4C0
:1044900068EF22F0280EA96E5C5035EC01F0290E71
:1044A000A96E585035EC01F02A0EA96E685135EC12
:1044B00001F02C0EA96E5D5035EC01F02D0EA96EA9
:1044C000595035EC01F02E0EA96E695135EC01F012
:1044D00056500308D8A4E868FF0A226EE86A3ABC7E
:1044E000E868266E22C012F02650B7EC01F0266E66
:1044F000276E286E296E2650271028102910D8B450
:10450000A0EF22F0300EA96E5C5035EC01F0310EB8
:10451000A96E585035EC01F0320EA96E685135EC99
:1045200001F0340EA96E5D5035EC01F0350EA96E28
:10453000595035EC01F0360EA96E695135EC01F099
:1045400056500408D8A4E868FF0A226EE86A3AAC1C
:10455000E868266E22C012F02650B7EC01F0266EF5
:10456000276E286E296E2650271028102910D8B4DF
:10457000D8EF22F0380EA96E5C5035EC01F0390E00
:10458000A96E585035EC01F03A0EA96E685135EC21
:1045900001F03C0EA96E5D5035EC01F03D0EA96EA8
:1045A000595035EC01F03E0EA96E695135EC01F021
:1045B00056500408D8A4E868FF0A226EE86A3ABC9C
:1045C000E868266E22C012F02650B7EC01F0266E85
:1045D000276E286E296E2650271028102910D8B46F
:1045E00010EF23F0400EA96E5C5035EC01F0410E47
:1045F000A96E585035EC01F0420EA96E685135ECA9
:1046000001F0440EA96E5D5035EC01F0450EA96E27
:10461000595035EC01F0460EA96E695135EC01F0A8
:1046200034EC39F02DEC33F03ABC1BEF23F0010EE3
:10463000856F1DEF23F0020E856FD6EF1BF0FE0E87
:104640007BEC00F0020E7BEC00F0530E7BEC00F0F4
:104650003A0E7BEC00F0A9517BEC00F0020E036EE9
:104660005CC01AF01B6A1C6A1D6AF40E0A6E0B6AA3
:10467000CFEC00F03A0E7BEC00F0AA517BEC00F09E
:10468000020E036E58C01AF01B6A1C6A1D6AF40EF3
:104690000A6E0B6ACFEC00F02D0E7BEC00F0AB51F4
:1046A0007BEC00F0030E036E68C01AF01B6A1C6AF4
:1046B0001D6AF40E0A6E0B6ACFEC00F0250E7BEC3F
:1046C00000F0200E7BEC00F0200E7BEC00F0200EC2
:1046D0007BEC00F0200E7BEC00F0FE0E7BEC00F09B
:1046E000C00E7BEC00F0450E7BEC00F03A0E7BEC4C
:1046F00000F0AC517BEC00F0020E036E5DC01AF0CE
:104700001B6A1C6A1D6AF40E0A6E0B6ACFEC00F07D
:104710003A0E7BEC00F0AD517BEC00F0020E036E24
:1047200059C01AF01B6A1C6A1D6AF40E0A6E0B6AE5
:10473000CFEC00F02D0E7BEC00F0AE517BEC00F0E6
:10474000030E036E69C01AF01B6A1C6A1D6AF40E20
:104750000A6E0B6ACFEC00F0250E7BEC00F0200E09
:104760007BEC00F0200E7BEC00F0F4EF1EF01FEC71
:104770000AF083EC39F03AA6C8EF23F0855102081D
:10478000D8A4C7EF23F0020E856FC8EF23F0852B66
:104790003AA8D5EF23F085510108D8A4D4EF23F02F
:1047A000010E856FD5EF23F085073AAADCEF23F0E1
:1047B000020E856F86EF15F085510108D8A486EFAB
:1047C00024F0FE0E7BEC00F0020E7BEC00F07E0E7F
:1047D0007BEC00F0530E7BEC00F0770E7BEC00F0EE
:1047E000690E7BEC00F0740E7BEC00F0630E7BEC4A
:1047F00000F0680E7BEC00F0200E7BEC00F0230E46
:104800007BEC00F0310E7BEC00F0200E7BEC00F036
:10481000200E7BEC00F0200E7BEC00F0200E7BECF9
:1048200000F0200E7BEC00F0200E7BEC00F0200E60
:104830007BEC00F0200E7BEC00F0200E7BEC00F017
:10484000200E7BEC00F0FE0E7BEC00F0C00E7BEC4B
:1048500000F0200E7BEC00F0530E7BEC00F0770EA6
:104860007BEC00F0690E7BEC00F0740E7BEC00F04A
:10487000630E7BEC00F0680E7BEC00F0200E7BEC0E
:1048800000F0230E7BEC00F0320E7BEC00F0200EEB
:104890007BEC00F0200E7BEC00F0200E7BEC00F0B7
:1048A000200E7BEC00F0200E7BEC00F0200E7BEC69
:1048B00000F0200E7BEC00F0200E7BEC00F0200ED0
:1048C0007BEC00F0200E7BEC00F0200E7BEC00F087
:1048D000200E7BEC00F0200E7BEC00F0200E7BEC39
:1048E00000F0200E7BEC00F0200E7BEC00F0200EA0
:1048F0007BEC00F03BAE84EF24F03C90010E796F2E
:10490000010E856F14EF25F013EF25F08551020895
:10491000D8A413EF25F0FE0E7BEC00F0020E7BEC2A
:1049200000F0200E7BEC00F0530E7BEC00F0770ED5
:104930007BEC00F0690E7BEC00F0740E7BEC00F079
:10494000630E7BEC00F0680E7BEC00F0200E7BEC3D
:1049500000F0230E7BEC00F0310E7BEC00F0200E1B
:104960007BEC00F0200E7BEC00F0200E7BEC00F0E6
:10497000200E7BEC00F0200E7BEC00F0200E7BEC98
:1049800000F0200E7BEC00F0200E7BEC00F0200EFF
:104990007BEC00F0FE0E7BEC00F0C00E7BEC00F038
:1049A0007E0E7BEC00F0530E7BEC00F0770E7BEC80
:1049B00000F0690E7BEC00F0740E7BEC00F0630EEF
:1049C0007BEC00F0680E7BEC00F0200E7BEC00F03E
:1049D000230E7BEC00F0320E7BEC00F0200E7BEC23
:1049E00000F0200E7BEC00F0200E7BEC00F0200E9F
:1049F0007BEC00F0200E7BEC00F0200E7BEC00F056
:104A0000200E7BEC00F0200E7BEC00F0200E7BEC07
:104A100000F03BAE13EF25F03C80020E796F010EE3
:104A2000856F14EF25F0A3D61FEC0AF083EC39F064
:104A30003AA625EF25F085510208D8A424EF25F0E9
:104A4000020E856F25EF25F0852B3AA832EF25F071
:104A500085510108D8A431EF25F0010E856F32EFA2
:104A600025F085073AAA38EF25F079C085F07FD682
:104A700085510108D8A4D8EF25F0FE0E7BEC00F09C
:104A8000020E7BEC00F07E0E7BEC00F0540E7BEC13
:104A900000F0690E7BEC00F06D0E7BEC00F0650E13
:104AA0007BEC00F0200E7BEC00F0310E7BEC00F094
:104AB000200E7BEC00F0200E7BEC00F0200E7BEC57
:104AC00000F0200E7BEC00F0200E7BEC00F0200EBE
:104AD0007BEC00F0200E7BEC00F0200E7BEC00F075
:104AE000200E7BEC00F0200E7BEC00F0200E7BEC27
:104AF00000F0200E7BEC00F0200E7BEC00F0FE0EB0
:104B00007BEC00F0C00E7BEC00F0200E7BEC00F0A4
:104B1000540E7BEC00F0690E7BEC00F06D0E7BEC2C
:104B200000F0650E7BEC00F0200E7BEC00F0320E06
:104B30007BEC00F0200E7BEC00F0200E7BEC00F014
:104B4000200E7BEC00F0200E7BEC00F0200E7BECC6
:104B500000F0200E7BEC00F0200E7BEC00F0200E2D
:104B60007BEC00F0200E7BEC00F0200E7BEC00F0E4
:104B7000200E7BEC00F0200E7BEC00F0200E7BEC96
:104B800000F0200E7BEC00F0200E7BEC00F0200EFD
:104B90007BEC00F0200E7BEC00F0200E7BEC00F0B4
:104BA000200E7BEC00F0200E7BEC00F073EF26F083
:104BB00085510208D8A473EF26F0FE0E7BEC00F0BE
:104BC000020E7BEC00F0200E7BEC00F0540E7BEC30
:104BD00000F0690E7BEC00F06D0E7BEC00F0650ED2
:104BE0007BEC00F0200E7BEC00F0310E7BEC00F053
:104BF000200E7BEC00F0200E7BEC00F0200E7BEC16
:104C000000F0200E7BEC00F0200E7BEC00F0200E7C
:104C10007BEC00F0200E7BEC00F0200E7BEC00F033
:104C2000200E7BEC00F0200E7BEC00F0200E7BECE5
:104C300000F0200E7BEC00F0200E7BEC00F0200E4C
:104C40007BEC00F0200E7BEC00F0200E7BEC00F003
:104C5000200E7BEC00F0200E7BEC00F0FE0E7BECD7
:104C600000F0C00E7BEC00F07E0E7BEC00F0540EEA
:104C70007BEC00F0690E7BEC00F06D0E7BEC00F03D
:104C8000650E7BEC00F0200E7BEC00F0320E7BEC2E
:104C900000F0200E7BEC00F0200E7BEC00F0200EEC
:104CA0007BEC00F0200E7BEC00F0200E7BEC00F0A3
:104CB000200E7BEC00F0200E7BEC00F0200E7BEC55
:104CC00000F0200E7BEC00F0200E7BEC00F0200EBC
:104CD0007BEC00F0200E7BEC00F0200E7BEC00F073
:104CE000200E7BEC00F03BAE3DEF27F08551010834
:104CF000D8A47CEF26F03D9285510208D8A482EF1B
:104D000026F03D82E86A3CA0E868226EE86A3DA28F
:104D1000E868266E22C012F02650B7EC01F0266E2D
:104D2000276E286E296E2650271028102910D8B417
:104D3000AEEF26F04A0EA96E2EEC01F05C6E4B0E23
:104D4000A96E2EEC01F0586E4C0EA96E2EEC01F0FF
:104D50005D6E4D0EA96E2EEC01F0596EE86A3CA016
:104D6000E868226EE86A3DB2E868266E22C012F05A
:104D70002650B7EC01F0266E276E286E296E26505D
:104D8000271028102910D8B4DAEF26F04E0EA96E9D
:104D90002EEC01F05C6E4F0EA96E2EEC01F0586EF9
:104DA000500EA96E2EEC01F05D6E510EA96E2EEC28
:104DB00001F0596EE86A3CB0E868226EE86A3DA2EC
:104DC000E868266E22C012F02650B7EC01F0266E7D
:104DD000276E286E296E2650271028102910D8B467
:104DE00006EF27F0520EA96E2EEC01F05C6E530E0A
:104DF000A96E2EEC01F0586E540EA96E2EEC01F047
:104E00005D6E550EA96E2EEC01F0596EE86A3CB04D
:104E1000E868226EE86A3DB2E868266E22C012F0A9
:104E20002650B7EC01F0266E276E286E296E2650AC
:104E3000271028102910D8B432EF27F0560EA96E8B
:104E40002EEC01F05C6E570EA96E2EEC01F0586E40
:104E5000580EA96E2EEC01F05D6E590EA96E2EEC67
:104E600001F0596E3DB239EF27F0010E856F3BEF2F
:104E700027F0010E856F3FEF27F014EF25F01FECB0
:104E80000AF083EC39F03AA450EF27F0855104087A
:104E9000D8A44FEF27F0010E856F50EF27F0852B38
:104EA00085510108D8A45DEF27F07E0EA96F200E72
:104EB000AA6F200EAB6F200EAC6F85510208D8A4EC
:104EC0006AEF27F0200EA96F7E0EAA6F200EAB6F3F
:104ED000200EAC6F85510308D8A477EF27F0200E81
:104EE000A96F200EAA6F7E0EAB6F200EAC6F85519E
:104EF0000408D8A484EF27F0200EA96F200EAA6F13
:104F0000200EAB6F7E0EAC6F3AAA89EF27F014EF3C
:104F100025F081BCCCEF27F085510108D8A49CEF87
:104F200027F05C2A180E5C5CD8A099EF27F0170ECA
:104F30005C6E640E43EC01F085510208D8A4ACEF1E
:104F400027F0582A3C0E585CD8A0A9EF27F03B0E5A
:104F5000586E640E43EC01F085510308D8A4BCEFF1
:104F600027F05D2A180E5D5CD8A0B9EF27F0170E68
:104F70005D6E640E43EC01F085510408D8A4CCEFBB
:104F800027F0592A3C0E595CD8A0C9EF27F03B0EF8
:104F9000596E640E43EC01F081BA67EF28F0855139
:104FA0000108D8A4F5EF27F05C065CC012F0010EF2
:104FB0008BEC01F0226E5CC012F0170E85EC01F054
:104FC000266E22C012F02650BEEC01F0266E276E2F
:104FD000286E296E2650271028102910D8B4F2EF19
:104FE00027F05C6A640E43EC01F085510208D8A4F6
:104FF0001BEF28F0580658C012F0010E8BEC01F0A0
:10500000226E58C012F03B0E85EC01F0266E22C0D5
:1050100012F02650BEEC01F0266E276E286E296E27
:105020002650271028102910D8B418EF28F0586AF5
:10503000640E43EC01F085510308D8A441EF28F039
:105040005D065DC012F0010E8BEC01F0226E5DC0BA
:1050500012F0170E85EC01F0266E22C012F02650D9
:10506000BEEC01F0266E276E286E296E26502710A2
:1050700028102910D8B43EEF28F05D6A640E43EC86
:1050800001F085510408D8A467EF28F0590659C0EB
:1050900012F0010E8BEC01F0226E59C012F03B0EA3
:1050A00085EC01F0266E22C012F02650BEEC01F015
:1050B000266E276E286E296E26502710281029107C
:1050C000D8B464EF28F0596A640E43EC01F03BAEAB
:1050D00029EF29F0E86A3CA0E868226EE86A3DA260
:1050E000E868266E22C012F02650B7EC01F0266E5A
:1050F000276E286E296E2650271028102910D8B444
:1051000096EF28F04A0EA96E5C5035EC01F04B0E7C
:10511000A96E585035EC01F04C0EA96E5D5035EC7F
:1051200001F04D0EA96E595035EC01F0E86A3CA033
:10513000E868226EE86A3DB2E868266E22C012F086
:105140002650B7EC01F0266E276E286E296E265089
:10515000271028102910D8B4C2EF28F04E0EA96EDF
:105160005C5035EC01F04F0EA96E585035EC01F053
:10517000500EA96E5D5035EC01F0510EA96E5950DC
:1051800035EC01F0E86A3CB0E868226EE86A3DA2BE
:10519000E868266E22C012F02650B7EC01F0266EA9
:1051A000276E286E296E2650271028102910D8B493
:1051B000EEEF28F0520EA96E5C5035EC01F0530E64
:1051C000A96E585035EC01F0540EA96E5D5035ECC7
:1051D00001F0550EA96E595035EC01F0E86A3CB06B
:1051E000E868226EE86A3DB2E868266E22C012F0D6
:1051F0002650B7EC01F0266E276E286E296E2650D9
:10520000271028102910D8B41AEF29F0560EA96ECD
:105210005C5035EC01F0570EA96E585035EC01F09A
:10522000580EA96E5D5035EC01F0590EA96E59501B
:1052300035EC01F03DB221EF29F0010E856F23EF2F
:1052400029F0020E856F34EC39F02DEC33F014EFB9
:1052500025F0FE0E7BEC00F0020E7BEC00F04F0E12
:105260007BEC00F04E0E7BEC00F03A0E7BEC00F095
:10527000200E7BEC00F0A9517BEC00F0020E036ED7
:105280005CC01AF01B6A1C6A1D6AF40E0A6E0B6A77
:10529000CFEC00F03A0E7BEC00F0AA517BEC00F072
:1052A000020E036E58C01AF01B6A1C6A1D6AF40EC7
:1052B0000A6E0B6ACFEC00F0200E7BEC00F0200EA3
:1052C0007BEC00F0200E7BEC00F0FE0E7BEC00F09F
:1052D000C00E7BEC00F04F0E7BEC00F0460E7BEC3A
:1052E00000F0460E7BEC00F03A0E7BEC00F0AB5188
:1052F0007BEC00F0020E036E5DC01AF01B6A1C6AA4
:105300001D6AF40E0A6E0B6ACFEC00F03A0E7BECCD
:1053100000F0AC517BEC00F0020E036E59C01AF0A5
:105320001B6A1C6A1D6AF40E0A6E0B6ACFEC00F051
:10533000200E7BEC00F0200E7BEC00F0200E7BECCE
:1053400000F03FEF27F01FEC0AF083EC39F03AA6AB
:10535000B4EF29F085510208D8A4B3EF29F0020E6A
:10536000856FB4EF29F0852B3AA8C1EF29F085515C
:105370000108D8A4C0EF29F0010E856FC1EF29F014
:1053800085073AAAC8EF29F0020E856F63EF17F080
:1053900085510108D8A476EF2AF0FE0E7BEC00F0D0
:1053A000020E7BEC00F07E0E7BEC00F0410E7BECFD
:1053B00000F0710E7BEC00F0750E7BEC00F0610EDE
:1053C0007BEC00F0720E7BEC00F0690E7BEC00F0E1
:1053D000750E7BEC00F06D0E7BEC00F0200E7BEC8C
:1053E00000F06C0E7BEC00F0690E7BEC00F0670EB9
:1053F0007BEC00F0680E7BEC00F0740E7BEC00F0B0
:10540000200E7BEC00F0200E7BEC00F0200E7BECFD
:1054100000F0200E7BEC00F0200E7BEC00F0200E64
:105420007BEC00F0FE0E7BEC00F0C00E7BEC00F09D
:10543000200E7BEC00F0520E7BEC00F06F0E7BEC4C
:1054400000F06F0E7BEC00F06D0E7BEC00F0200E98
:105450007BEC00F06C0E7BEC00F0690E7BEC00F056
:10546000670E7BEC00F0680E7BEC00F0740E7BECBA
:1054700000F0200E7BEC00F0200E7BEC00F0200E04
:105480007BEC00F0200E7BEC00F0200E7BEC00F0BB
:10549000200E7BEC00F0200E7BEC00F0200E7BEC6D
:1054A00000F0200E7BEC00F0200E7BEC00F0200ED4
:1054B0007BEC00F0200E7BEC00F03BAE74EF2AF0AA
:1054C000010E856F3A90640EA96E2EEC01F07A6F92
:1054D000650EA96E2EEC01F07B6F660EA96E2EECA8
:1054E00001F07C6F05EF2BF004EF2BF085510208E3
:1054F000D8A404EF2BF0FE0E7BEC00F0020E7BEC48
:1055000000F0200E7BEC00F0410E7BEC00F0710E01
:105510007BEC00F0750E7BEC00F0610E7BEC00F094
:10552000720E7BEC00F0690E7BEC00F0750E7BECEC
:1055300000F06D0E7BEC00F0200E7BEC00F06C0EAA
:105540007BEC00F0690E7BEC00F0670E7BEC00F06A
:10555000680E7BEC00F0740E7BEC00F0200E7BEC10
:1055600000F0200E7BEC00F0200E7BEC00F0200E13
:105570007BEC00F0200E7BEC00F0200E7BEC00F0CA
:10558000FE0E7BEC00F0C00E7BEC00F07E0E7BECA0
:1055900000F0520E7BEC00F06F0E7BEC00F06F0E13
:1055A0007BEC00F06D0E7BEC00F0200E7BEC00F04D
:1055B0006C0E7BEC00F0690E7BEC00F0670E7BEC70
:1055C00000F0680E7BEC00F0740E7BEC00F0200E17
:1055D0007BEC00F0200E7BEC00F0200E7BEC00F06A
:1055E000200E7BEC00F0200E7BEC00F0200E7BEC1C
:1055F00000F03BAE04EF2BF03A92670EA96E2EEC52
:1056000001F0856F39EF2DF09ED61FEC0AF083EC88
:1056100039F03AA416EF2BF085510308D8A415EF02
:105620002BF0010E856F16EF2BF0852B3AAA24EF95
:105630002BF0050EA96E2EEC01F0E8B03A80E8A040
:105640003A90010E856F7FD685510108D8A42FEFBF
:105650002BF07E0EA96F200EAA6F200EAB6F855126
:105660000208D8A43AEF2BF0200EA96F7E0EAA6F85
:10567000200EAB6F85510308D8A445EF2BF0200E08
:10568000A96F200EAA6F7E0EAB6F81BC72EF2BF05C
:1056900085510108D8A455EF2BF07A2B650E7A5D61
:1056A000D8A055EF2BF0640E7A6F85510208D8A46C
:1056B00062EF2BF07B2B650E7B5DD8A062EF2BF0A9
:1056C000640E7B6F85510308D8A46FEF2BF07C2B01
:1056D000650E7C5DD8A06FEF2BF0640E7C6F640EBE
:1056E00043EC01F081BAE1EF2BF085510108D8A419
:1056F00098EF2BF07A077AC012F0010E8BEC01F0D4
:10570000226E7AC012F0640E85EC01F0266E22C083
:1057100012F02650BEEC01F0266E276E286E296E20
:105720002650271028102910D8B498EF2BF07A6B48
:1057300085510208D8A4BBEF2BF07B077BC012F089
:10574000010E8BEC01F0226E7BC012F0640E85EC32
:1057500001F0266E22C012F02650BEEC01F0266E3B
:10576000276E286E296E2650271028102910D8B4CD
:10577000BBEF2BF07B6B85510308D8A4DEEF2BF039
:105780007C077CC012F0010E8BEC01F0226E7CC015
:1057900012F0640E85EC01F0266E22C012F0265045
:1057A000BEEC01F0266E276E286E296E265027105B
:1057B00028102910D8B4DEEF2BF07C6B640E43EC7C
:1057C00001F0FE0E7BEC00F0020E7BEC00F0A95124
:1057D0007BEC00F0230E7BEC00F0310E7BEC00F054
:1057E000200E7BEC00F0030E036E7AC01AF01B6AE9
:1057F0001C6A1D6AF40E0A6E0B6ACFEC00F0250ECF
:105800007BEC00F0AA517BEC00F0320E7BEC00F058
:10581000230E7BEC00F0200E7BEC00F0030E036EF9
:105820007BC01AF01B6A1C6A1D6AF40E0A6E0B6AB2
:10583000CFEC00F0250E7BEC00F0200E7BEC00F0AE
:10584000200E7BEC00F0200E7BEC00F0200E7BECB9
:1058500000F0200E7BEC00F0200E7BEC00F0200E20
:105860007BEC00F0200E7BEC00F0FE0E7BEC00F0F9
:10587000C00E7BEC00F0AB517BEC00F0230E7BEC18
:1058800000F0330E7BEC00F0200E7BEC00F0030EFA
:10589000036E7CC01AF01B6A1C6A1D6AF40E0A6E45
:1058A0000B6ACFEC00F0250E7BEC00F0200E7BECB9
:1058B00000F0200E7BEC00F0200E7BEC00F0200EC0
:1058C0007BEC00F0200E7BEC00F0200E7BEC00F077
:1058D000200E7BEC00F0200E7BEC00F0200E7BEC29
:1058E00000F0200E7BEC00F0200E7BEC00F0200E90
:1058F0007BEC00F03BAE98EF2CF0640EA96E7A5171
:1059000035EC01F0650EA96E7B5135EC01F0660EA9
:10591000A96E7C5135EC01F0050EA96E000E35EC38
:1059200001F03A902DEC33F0010E856FA3EF29F0D2
:105930007AC01EF01F6A206A216A166A040E176E6A
:10594000186A196A07EC02F0226E1BC023F01CC013
:1059500024F01DC025F022C012F023C013F024C093
:1059600014F025C015F0640E166E176A186A196ACD
:10597000C3EC01F0886F13C089F014C08AF015C021
:105980008BF07BC01EF01F6A206A216A166A040E23
:10599000176E186A196A07EC02F0226E1BC023F01A
:1059A0001CC024F01DC025F022C012F023C013F04B
:1059B00024C014F025C015F0640E166E176A186A1C
:1059C000196AC3EC01F08C6F13C08DF014C08EF017
:1059D00015C08FF07CC01EF01F6A206A216A166A0B
:1059E000040E176E186A196A07EC02F0226E1BC0CB
:1059F00023F01CC024F01DC025F022C012F023C0EB
:105A000013F024C014F025C015F0640E166E176A4A
:105A1000186A196AC3EC01F0906F13C091F014C0BA
:105A200092F015C093F0040E646F88C044F089C0F2
:105A300045F042C046F043C047F0A6EC02F0030E2A
:105A4000646F8CC044F08DC045F042C046F043C046
:105A500047F0A6EC02F0010E646F90C044F091C0D4
:105A600045F042C046F043C047F0A6EC02F005EF17
:105A70002BF01FEC0AF083EC39F03C9481BC4CEF26
:105A80002DF0852B650E855DD8A049EF2DF0640EB5
:105A9000856F640E43EC01F081BA70EF2DF085073D
:105AA00085C012F0010E8BEC01F0226E85C012F061
:105AB000640E85EC01F0266E22C012F02650BEEC7A
:105AC00001F0266E276E286E296E265027102810AA
:105AD0002910D8B46DEF2DF0856B640E43EC01F006
