:020000040000FA
:06000000006AB9EF02F0F6
:040008002CEF03F0E6
:08001800BCEF02F0008A00AA0F
:10002000009A00B603D0008640D827E2080E1F6E63
:1000300050D81E361F2EFCD700AA2ED858D851D81B
:1000400000BA1BD821D81E50D890B6EF02F0008A13
:1000500000AA009A00B405D0FE0B016E0084D8906F
:100060000AD000B805D0266E00881FD806E22650B8
:1000700023D803E200AAB6EF02F00ED838D80094D5
:100080000098009601D8F7D711C0EAFF0F3CE96E3F
:10009000E9880D50EC1208D011C0EAFF0FC0E9FF4B
:1000A0000D1CEE16E988EC161200EEDF20D8F4DF06
:1000B00018D8015000B601091E6E080E1F6E1E36BC
:1000C000D8B0E2DFD8A0E8DF12D80BD81F2EF7D7C0
:1000D000DBDF0DD811C0EAFF0FC0E9FF0D50EF14B0
:1000E000FF0F12C0EAFF10C0E9FF0E1CDAD712C0E2
:1000F000EAFF103CE96EE9880E50CCD7236A226EE5
:10010000018E270E1F6E100E0CD8030E1F6EE80E08
:1001100008D81F6A640E05D81F6A0A0E02D822503A
:100120000FD01E6E23501B6E22501A6E1C6A1D6A61
:10013000206A216AEAEC01F0E866019E01BE120025
:10014000300F01D0E950276E819A81988198939A57
:1001500093989398F00E9316275000B221D03A0E40
:100160001B6EFC0E7DEC01F0330E266E30D8100EA7
:100170001B6E680E7DEC01F02AD8640E7CEC01F059
:1001800026D8220E266E23D8280E09D80C0E07D8A2
:10019000010E05D8060E03D80082275001D000803A
:1001A000266E00A00BD0819803080FE30ED8070E2F
:1001B0001B6ED00E7DEC01F0D88012000080FE088E
:1001C000D8B4B6EF02F0818800D0263A00A00090A3
:1001D000818AF00E811626500F0B8112819A263AE1
:1001E00000B0F5D7280E7CEC01F0D8801200019EFB
:1001F0000350D8B4018E0A0E026E3B0E216E9A0E89
:10020000206ECA0E1F6E000E35D8050E216EF50E3B
:10021000206EE10E1F6E000E2DD8216A980E206E02
:10022000960E1F6E800E26D8216A0F0E206E420E8B
:100230001F6E400E1FD8216A010E206E860E1F6EA3
:10024000A00E18D8216A206A270E1F6E100E12D831
:10025000216A206A030E1F6EE80E0CD8216A206AFC
:100260001F6A640E07D8216A206A1F6A0A0E02D824
:1002700022500CD01E6E25501D6E24501C6E235033
:100280001B6E22501A6EEAEC01F01A501A6E024EE2
:10029000019E035003E0025CD8B012001A50D8A4AB
:1002A000019E01BE1200300FB0EF02F0A66AA680D8
:1002B000A850A92AB6EF02F0E86AA86EA66AA6843A
:1002C000550EA76EAA0EA76EA682A6B2FED7A6945A
:1002D000A92AB6EF02F01F6A206A216A1E6EE86A38
:1002E0001E061F5A205A215AD8A0B6EF02F0030E5C
:1002F0001B6EE60E02D8F3D71B6AFC0F1A6E0000C5
:10030000E86A01D01A0604001B5AFCE21200276EAC
:100310000A0E1E6E1F6A206A216AEAEC01F02706A7
:10032000FCE222501200D8901D321C321B321A32CD
:10033000FF0FF9E21A50B6EF02F01E6E020E0ED059
:100340001E6E030E0BD01E6E010E06D01E6E060E24
:1003500005D01E6E040E00D0026E0FD0026E0AD0C1
:10036000026E21501D1815E621501D5C08E1205039
:100370001C5C05E11F501B5C02E11E501A5C040E60
:10038000D8B0010ED8B4020E0214D8A4FF0EB6EFF6
:1003900002F01D50215CF3D7E866FF0E1A14D8A4B2
:1003A000FF0EB6EF02F01A10D8A4FF0EB6EF02F05F
:1003B000296A1DAE06D0297EE86A1A6C1B561C56A7
:1003C0001D5621AE08D0297EE86A1E6C1F562056A5
:1003D000215601D0296A226A236A246A256A200EDE
:1003E000266E1D3422362336243625361E50225ED4
:1003F0001F50235A2050245A2150255A09E21E50DA
:1004000022261F5023222050242221502522D8901A
:100410001A361B361C361D36262EE3D729AE09D0D8
:10042000E86A1A6C1B561C561D56226C235624561D
:1004300025561A50B6EF02F01E502602F3CF22F0D6
:10044000F4CF23F01F502702F3CF24F0F4CF25F090
:100450002602F3502326F4502422E86A25221E5057
:100460002702F3502326F4502422E86A2522205044
:100470002602F3502426F450252220502702E86A51
:100480001A6A1A22F3502526F4501A221E50280206
:10049000F3502426F4502522E86A1B6A1A221B22F4
:1004A0001F502802F3502526F4501A22E86A1B2216
:1004B00020502802F3501A26F4501B222150270204
:1004C000F3501A26F4501B2221502802E86A1C6AB5
:1004D0001C22F3501B26F4501C2221502602F350FC
:1004E0002526F4501A22E86A1B221C2221502902D8
:1004F000F4CF1DF0F3501C26E86A1D221E5029027D
:10050000F3502526F4501A22E86A1B221C221D22D1
:100510001F502902F3501A26F4501B22E86A1C22AD
:100520001D2220502902F3501B26F4501C22E86A99
:100530001D2229AE08D01E501A5E1F501B5A205093
:100540001C5A21501D5A21AE08D026501A5E275041
:100550001B5A28501C5A29501D5A2250B6EF02F03F
:10056000E96EFB6A0B50FA6E0A50F96E0001040046
:1005700012000C6ABDEF02F01000939C9488948CDA
:10058000948E948A94800F0EC16E070EB46E6F869F
:10059000806A816A826A030E926E89949B9489961E
:1005A0009B9689989B98899A9B9ACD802AEF03F015
:1005B000CD90E10ECE26D8B0CF2AFE0ECF26CD802C
:1005C0007251D8A4E7EF02F08994EDEF02F03E50AB
:1005D000725DD8B08984D8A089947351D8A4F4EFFF
:1005E00002F08996FAEF02F03E50735DD8B089862A
:1005F000D8A089967451D8A401EF03F0899807EF29
:1006000003F03E50745DD8B08988D8A089987551A0
:10061000D8A40EEF03F0899A14EF03F03E50755DF5
:10062000D8B0898AD8A0899A3E2A640E3E5CD8B494
:100630003E6A0CB423EF03F019C0FBFF18C0FAFFA9
:100640001750E06AF96E16C0FBFF15C0FAFF145090
:10065000E06AF96E65EF03F0FBCF6FF0FACF6DF053
:10066000E9CF60F0EACF61F0E1CF64F0E2CF65F06E
:10067000D9CF68F0DACF69F00C840C90E06A9DA0C5
:100680004FEF03F09EA04FEF03F00C8004009C0E90
:10069000146E060E156E000E166E8AD79E90E06AD6
:1006A0000CB03DEF03F00C9460C0E9FF61C0EAFFBD
:1006B00064C0E1FF65C0E2FF68C0D9FF69C0DAFF2E
:1006C0006DC0FAFF6FC0FBFF1100F28EF28C9F80AD
:1006D0009D80E968070EEA6EED6AE950EA10FCE1D8
:1006E000EF6A3288328E328C328A446AE4EC27F028
:1006F000C1EC27F0FE0EA3EC00F0010EA3EC00F01D
:10070000440EA3EC00F0200EA3EC00F0410EA3EC8D
:1007100000F0200EA3EC00F04E0EA3EC00F0200E33
:10072000A3EC00F0450EA3EC00F0200EA3EC00F0CB
:10073000520EA3EC00F0200EA3EC00F0200EA3EC70
:1007400000F04C0EA3EC00F0200EA3EC00F0450EE0
:10075000A3EC00F0200EA3EC00F0440EA3EC00F09C
:10076000FE0EA3EC00F0C00EA3EC00F0430EA3ECD1
:1007700000F04F0EA3EC00F04E0EA3EC00F0540E70
:10078000A3EC00F0520EA3EC00F04F0EA3EC00F02F
:100790004C0EA3EC00F0200EA3EC00F0460EA3ECF0
:1007A00000F0570EA3EC00F03A0EA3EC00F0310E6F
:1007B000A3EC00F02E0EA3EC00F0310EA3EC00F041
:1007C000818C726B736B746B756B010E436E030ED1
:1007D0001F6EE80E6CEC01F0030EA96E56EC01F0F2
:1007E0005F6E04005F500108D8A45AEF04F0540E65
:1007F000A96E72515DEC01F0550EA96E73515DEC5E
:1008000001F0560EA96E74515DEC01F0570EA96E01
:1008100075515DEC01F072C026F0276A286A296ADA
:10082000640E1E6E1F6A206A216A06DE766F23C080
:1008300077F024C078F025C079F073C026F0276ADD
:10084000286A296A640E1E6E1F6A206A216A1CECDF
:1008500002F07A6F23C07BF024C07CF025C07DF0CD
:1008600074C026F0276A286A296A640E1E6E1F6A01
:10087000206A216A1CEC02F07E6F23C07FF024C046
:1008800080F025C081F075C026F0276A286A296AA1
:10089000640E1E6E1F6A206A216A1CEC02F0826FD1
:1008A00023C083F024C084F025C085F078EF04F0E5
:1008B00078EF04F004005F500208D8A478EF04F049
:1008C000010E436E500EA96E56EC01F0726F510E80
:1008D000A96E56EC01F0736F520EA96E56EC01F042
:1008E000746F530EA96E56EC01F0756F93EF06F01E
:1008F00082BC328082AC329082B8328682A8329634
:1009000082BE328482AE329482BA328282AA32921B
:100910005F2A33C01AF034C01BF00B0E1F6EB80EE6
:10092000A0EC01F0D8A49BEF04F0332A000E34228F
:10093000818C9CEF04F0819C040032B4B4EF04F08D
:1009400032ACB4EF04F0336A346A040081ACB4EF23
:1009500004F0412A0400010E415CD8A0B4EF04F079
:10096000416A446A1AEF12F0040032B2CDEF04F08B
:1009700032AACDEF04F0336A346A040081ACCDEFC3
:1009800004F0412A0400010E415CD8A0CDEF04F030
:10099000416A440E446E1AEF12F0040032B6D6EFEC
:1009A00004F032AED6EF04F0336A346A040032B099
:1009B000DFEF04F032A8DFEF04F0336A346A04009A
:1009C00082B0F2EF04F072C059F073C05AF074C0F4
:1009D0005BF075C05CF0020EA96E56EC01F04B6E38
:1009E0009BEF26F004005A0E5F5CD8B0FAEF04F0DB
:1009F000200E3F6E5FC01AF05A0EA3EC01F02A6E73
:100A00005FC01AF0B40EA9EC01F02E6E2AC01AF0E5
:100A10002E50CCEC01F02E6E2F6E306E316E040035
:100A20002E502F1030103110D8B419EF05F03A0EB7
:100A30003F6E0400B50E5F5CD8A020EF05F05F6A42
:100A4000800E0F6E0F0E116E020E0D6E800E106E68
:100A50000F0E126E010E0E6ED00E29EC00F0000E7D
:100A600029EC00F010EC00F0546E10EC00F0526E27
:100A700010EC00F0516E10EC00F0506E10EC00F035
:100A80004F6E10EC00F0536E0EEC00F0556EF00E51
:100A900052142A6E2B6A2C6A2D6A2AC01AF02BC0B7
:100AA0001BF02CC01CF02DC01DF0040E98EC01F0C2
:100AB0002A6E1BC02BF01CC02CF01DC02DF02AC0CC
:100AC00026F02BC027F02CC028F02DC029F00A0EEC
:100AD0001E6E1F6A206A216A1CEC02F02A6E23C077
:100AE0002BF024C02CF025C02DF00F0E52142E6ECA
:100AF0002F6A306A316A2A502E243B6EF00E511450
:100B00002A6E2B6A2C6A2D6A2AC01AF02BC01BF0A1
:100B10002CC01CF02DC01DF0040E98EC01F02A6EC4
:100B20001BC02BF01CC02CF01DC02DF02AC026F0DD
:100B30002BC027F02CC028F02DC029F00A0E1E6E05
:100B40001F6A206A216A1CEC02F02A6E23C02BF077
:100B500024C02CF025C02DF00F0E51142E6E2F6ADC
:100B6000306A316A2A502E243C6EF00E54142A6EDC
:100B70002B6A2C6A2D6A2AC01AF02BC01BF02CC0DD
:100B80001CF02DC01DF0040E98EC01F02A6E1BC065
:100B90002BF01CC02CF01DC02DF02AC026F02BC05D
:100BA00027F02CC028F02DC029F00A0E1E6E1F6AF7
:100BB000206A216A1CEC02F02A6E23C02BF024C0AC
:100BC0002CF025C02DF00F0E54142E6E2F6A306AB3
:100BD000316A2A502E243D6EFE0EA3EC00F0020E68
:100BE000A3EC00F0440EA3EC00F0200EA3EC00F008
:100BF000410EA3EC00F0200EA3EC00F04E0EA3EC8F
:100C000000F0200EA3EC00F0450EA3EC00F0200E47
:100C1000A3EC00F0520EA3EC00F0200EA3EC00F0C9
:100C2000200EA3EC00F04C0EA3EC00F0200EA3EC81
:100C300000F0450EA3EC00F0200EA3EC00F0440EF3
:100C4000A3EC00F0FE0EA3EC00F0C00EA3EC00F04D
:100C5000020E036E3CC022F0236A246A256A440E09
:100C60000A6E010E0B6EF7EC00F03F50A3EC00F0A3
:100C7000020E036E3BC022F0236A246A256A440EEA
:100C80000A6E010E0B6EF7EC00F03F50A3EC00F083
:100C9000020E036E3DC022F0236A246A256A440EC8
:100CA0000A6E010E0B6EF7EC00F0200EA3EC00F0C4
:100CB000200EA3EC00F0200EA3EC00F0200EA3EC1D
:100CC00000F0200EA3EC00F0200EA3EC00F0200EAC
:100CD000A3EC00F0200EA3EC00F0200EA3EC00F03B
:100CE000200EA3EC00F0200EA3EC00F0200EA3ECED
:100CF00000F0200EA3EC00F0200EA3EC00F0D5ECE9
:100D000008F032B4328C32A4329C32B0328832A035
:100D1000329832B2328A32A2329A32B6328E32A649
:100D2000329E78EF04F082B8328682A8329682BC76
:100D3000328082AC329082BE328482AE329482BAE9
:100D4000328282AA329233C01AF034C01BF00B0EEA
:100D50001F6EB80EA0EC01F0D8A4B5EF06F0332A50
:100D6000000E3422818CB6EF06F0819C040082B024
:100D7000C9EF06F072C059F073C05AF074C05BF04E
:100D800075C05CF0020EA96E56EC01F04B6E9BEF45
:100D900026F0040043500108D8A4D7EF06F03E0E19
:100DA000876F200E886F200E896F200E8A6F0400D7
:100DB00043500208D8A4E5EF06F0200E876F3E0EE0
:100DC000886F200E896F200E8A6F0400435003083D
:100DD000D8A4F3EF06F0200E876F200E886F3E0E2A
:100DE000896F200E8A6F040043500408D8A401EFD5
:100DF00007F0200E876F200E886F200E896F3E0E41
:100E00008A6F040032B017EF07F032A817EF07F02F
:100E1000336A346A040081AC17EF07F0432A0400F8
:100E2000050E435CD8A017EF07F0010E436E0400D7
:100E300032B62FEF07F032AE2FEF07F0336A346A85
:100E4000040081AC2FEF07F0412A0400020E415C40
:100E5000D8A02FEF07F0416A446A1AEF12F004009D
:100E600082BE8CEF07F0336A346A040081AC8CEFE9
:100E700007F0040043500108D8A44DEF07F0722B8F
:100E80000400650E725DD8A048EF07F0640E726F23
:100E9000500EA96E72515DEC01F00400435002083F
:100EA000D8A461EF07F0732B0400650E735DD8A022
:100EB0005CEF07F0640E736F510EA96E73515DEC19
:100EC00001F0040043500308D8A475EF07F0742B19
:100ED0000400650E745DD8A070EF07F0640E746FA7
:100EE000520EA96E74515DEC01F0040043500408E9
:100EF000D8A489EF07F0752B0400650E755DD8A0A6
:100F000084EF07F0640E756F530EA96E75515DEC9A
:100F100001F03C0E6BEC01F0040082BA41EF08F0E6
:100F2000336A346A040081AC41EF08F00400435096
:100F30000108D8A4C0EF07F0720772C01AF0010EC2
:100F4000A9EC01F02A6E72C01AF0640EA3EC01F055
:100F50002E6E2AC01AF02E50D3EC01F02E6E2F6E9A
:100F6000306E316E04002E502F1030103110D8B476
:100F7000BBEF07F0726B500EA96E72515DEC01F081
:100F8000040043500208D8A4EAEF07F0730773C0C7
:100F90001AF0010EA9EC01F02A6E73C01AF0640E6B
:100FA000A3EC01F02E6E2AC01AF02E50D3EC01F003
:100FB0002E6E2F6E306E316E04002E502F103010BA
:100FC0003110D8B4E5EF07F0736B510EA96E735171
:100FD0005DEC01F0040043500308D8A414EF08F0BE
:100FE000740774C01AF0010EA9EC01F02A6E74C0E7
:100FF0001AF0640EA3EC01F02E6E2AC01AF02E50E7
:10100000D3EC01F02E6E2F6E306E316E04002E5038
:101010002F1030103110D8B40FEF08F0746B520E4F
:10102000A96E74515DEC01F0040043500408D8A48B
:101030003EEF08F0750775C01AF0010EA9EC01F03B
:101040002A6E75C01AF0640EA3EC01F02E6E2AC051
:101050001AF02E50D3EC01F02E6E2F6E306E316EE2
:1010600004002E502F1030103110D8B439EF08F092
:10107000756B530EA96E75515DEC01F03C0E6BEC77
:1010800001F0FE0EA3EC00F0020EA3EC00F087517D
:10109000A3EC00F0230EA3EC00F0310EA3EC00F063
:1010A000200EA3EC00F0030E036E72C022F0236A40
:1010B000246A256A440E0A6E010E0B6EF7EC00F0EE
:1010C000250EA3EC00F08851A3EC00F0320EA3EC47
:1010D00000F0230EA3EC00F0200EA3EC00F0030EB2
:1010E000036E73C022F0236A246A256A440E0A6ED6
:1010F000010E0B6EF7EC00F0250EA3EC00F0200EB5
:10110000A3EC00F0FE0EA3EC00F0C00EA3EC00F088
:101110008951A3EC00F0230EA3EC00F0330EA3ECF6
:1011200000F0200EA3EC00F0030E036E74C022F05A
:10113000236A246A256A440E0A6E010E0B6EF7ECD0
:1011400000F0250EA3EC00F08A51A3EC00F0340E61
:10115000A3EC00F0230EA3EC00F0200EA3EC00F0B3
:10116000030E036E75C022F0236A246A256A440EBA
:101170000A6E010E0B6EF7EC00F0250EA3EC00F0EA
:10118000200EA3EC00F032B6328E32A6329E32B47C
:10119000328C32A4329C32B0328832A0329832B2D1
:1011A000328A32A2329A93EF06F03BC049F03CC03B
:1011B00026F0276A286A296A3C0E1E6E1F6A206A7A
:1011C000216A1CEC02F02A6E23C02BF024C02CF004
:1011D00025C02DF03B502A24396EE86A2B203A6E48
:1011E000040049505D5CD8B4FAEF08F0010E486E77
:1011F000FBEF08F0486A98C058F099C047F09AC0D1
:101200004DF09CC057F09DC046F09EC04CF058C0B9
:1012100026F0276A286A296A3C0E1E6E1F6A206A19
:10122000216A1CEC02F02A6E23C02BF024C02CF0A3
:1012300025C02DF047502A24376EE86A2B20386EDF
:1012400057C026F0276A286A296A3C0E1E6E1F6A5C
:10125000206A216A1CEC02F02A6E23C02BF024C005
:101260002CF025C02DF046502A24356EE86A2B203C
:10127000366E37C01AF038C01BF03AC01FF0395034
:10128000A6EC01F02A6E35C01AF036C01BF03AC049
:101290001FF03950A0EC01F02E6E2AC01AF02E502B
:1012A000CCEC01F02E6E2F6E306E316E04002E509D
:1012B0002F1030103110D8B41CEF0AF037C01AF0DC
:1012C00038C01BF03AC01FF039509DEC01F02A6E77
:1012D0003D500008D8A4E868FF0A2E6E2AC01AF014
:1012E0002E50CCEC01F02E6E2F6E306E316E04005D
:1012F0002E502F1030103110D8B496EF09F04DC099
:1013000072F04DC026F0276A286A296A640E1E6EA4
:101310001F6A206A216A1CEC02F0766F23C077F006
:1013200024C078F025C079F01CEF0AF035C01AF01F
:1013300036C01BF03AC01FF039509DEC01F02A6E08
:101340003D500008D8A4E868FF0A2E6E2AC01AF0A3
:101350002E50CCEC01F02E6E2F6E306E316E0400EC
:101360002E502F1030103110D8B4BBEF09F04CC004
:1013700072F01CEF0AF0040048500108D8A41CEFDA
:101380000AF04D504C5C2A6EE86AD8A0E8042B6E37
:101390002C6E2D6E2AC026F02BC027F02CC028F012
:1013A0002DC029F0640E1E6E1F6A206A216A1CEC93
:1013B00002F02A6E23C02BF024C02CF025C02DF0A3
:1013C0003750355C2E6E385036582F6EE86AD8A0EC
:1013D000E804306E316E2AC01AF02BC01BF02CC00E
:1013E0001CF02DC01DF02EC01EF02FC01FF030C00D
:1013F00020F031C021F0D8EC01F02E6E1BC02FF090
:101400001CC030F01DC031F02E5076272F507723AE
:10141000305078233150792376C01AF077C01BF012
:1014200078C01CF079C01DF0640E1E6E1F6A206A21
:10143000216AD8EC01F0726FA0C058F0A1C047F04B
:10144000A2C04DF0A4C057F0A5C046F0A6C04CF015
:1014500058C026F0276A286A296A3C0E1E6E1F6A49
:10146000206A216A1CEC02F02A6E23C02BF024C0F3
:101470002CF025C02DF047502A24376EE86A2B2027
:10148000386E57C026F0276A286A296A3C0E1E6EFD
:101490001F6A206A216A1CEC02F02A6E23C02BF01E
:1014A00024C02CF025C02DF046502A24356EE86A61
:1014B0002B20366E37C01AF038C01BF03AC01FF030
:1014C0003950A6EC01F02A6E35C01AF036C01BF078
:1014D0003AC01FF03950A0EC01F02E6E2AC01AF06D
:1014E0002E50CCEC01F02E6E2F6E306E316E04005B
:1014F0002E502F1030103110D8B43DEF0BF037C004
:101500001AF038C01BF03AC01FF039509DEC01F0C2
:101510002A6E3D500008D8A4E868FF0A2E6E2AC043
:101520001AF02E50CCEC01F02E6E2F6E306E316E14
:1015300004002E502F1030103110D8B4B7EF0AF03D
:101540004DC072F04DC026F0276A286A296A640EE1
:101550001E6E1F6A206A216A1CEC02F0766F23C09F
:1015600077F024C078F025C079F03DEF0BF035C05E
:101570001AF036C01BF03AC01FF039509DEC01F054
:101580002A6E3D500008D8A4E868FF0A2E6E2AC0D3
:101590001AF02E50CCEC01F02E6E2F6E306E316EA4
:1015A00004002E502F1030103110D8B4DCEF0AF0A8
:1015B0004CC072F03DEF0BF0040048500108D8A475
:1015C0003DEF0BF04C504D5C2A6EE86AD8A0E80461
:1015D0002B6E2C6E2D6E2AC026F02BC027F02CC04F
:1015E00028F02DC029F0640E1E6E1F6A206A216A41
:1015F0001CEC02F02A6E23C02BF024C02CF025C076
:101600002DF03750355C2E6E385036582F6EE86A04
:10161000D8A0E804306E316E2AC01AF02BC01BF03F
:101620002CC01CF02DC01DF02EC01EF02FC01FF0CE
:1016300030C020F031C021F0D8EC01F02E6E1BC07C
:101640002FF01CC030F01DC031F02E50765F2F50AF
:10165000775B3050785B3150795B76C01AF077C099
:101660001BF078C01CF079C01DF0640E1E6E1F6A5E
:10167000206A216AD8EC01F0726FA8C058F0A9C0A6
:1016800047F0AAC04DF0ACC057F0ADC046F0AEC0B8
:101690004CF058C026F0276A286A296A3C0E1E6E54
:1016A0001F6A206A216A1CEC02F02A6E23C02BF00C
:1016B00024C02CF025C02DF047502A24376EE86A4C
:1016C0002B20386E57C026F0276A286A296A3C0EFC
:1016D0001E6E1F6A206A216A1CEC02F02A6E23C06B
:1016E0002BF024C02CF025C02DF046502A24356E56
:1016F000E86A2B20366E37C01AF038C01BF03AC0AB
:101700001FF03950A6EC01F02A6E35C01AF036C031
:101710001BF03AC01FF03950A0EC01F02E6E2AC029
:101720001AF02E50CCEC01F02E6E2F6E306E316E12
:1017300004002E502F1030103110D8B45EEF0CF092
:1017400037C01AF038C01BF03AC01FF039509DEC7A
:1017500001F02A6E3D500008D8A4E868FF0A2E6EFA
:101760002AC01AF02E50CCEC01F02E6E2F6E306E87
:10177000316E04002E502F1030103110D8B4D8EF35
:101780000BF04DC073F04DC026F0276A286A296A15
:10179000640E1E6E1F6A206A216A1CEC02F07A6FCA
:1017A00023C07BF024C07CF025C07DF05EEF0CF000
:1017B00035C01AF036C01BF03AC01FF039509DEC0E
:1017C00001F02A6E3D500008D8A4E868FF0A2E6E8A
:1017D0002AC01AF02E50CCEC01F02E6E2F6E306E17
:1017E000316E04002E502F1030103110D8B4FDEFA0
:1017F0000BF04CC073F05EEF0CF004004850010891
:10180000D8A45EEF0CF04D504C5C2A6EE86AD8A06C
:10181000E8042B6E2C6E2D6E2AC026F02BC027F00C
:101820002CC028F02DC029F0640E1E6E1F6A206A9D
:10183000216A1CEC02F02A6E23C02BF024C02CF08D
:1018400025C02DF03750355C2E6E385036582F6E2F
:10185000E86AD8A0E804306E316E2AC01AF02BC0B6
:101860001BF02CC01CF02DC01DF02EC01EF02FC090
:101870001FF030C020F031C021F0D8EC01F02E6E06
:101880001BC02FF01CC030F01DC031F02E507A2745
:101890002F507B2330507C2331507D237AC01AF0A7
:1018A0007BC01BF07CC01CF07DC01DF0640E1E6E62
:1018B0001F6A206A216AD8EC01F0736FB0C058F03B
:1018C000B1C047F0B2C04DF0B4C057F0B5C046F05B
:1018D000B6C04CF058C026F0276A286A296A3C0E28
:1018E0001E6E1F6A206A216A1CEC02F02A6E23C059
:1018F0002BF024C02CF025C02DF047502A24376E41
:10190000E86A2B20386E57C026F0276A286A296AB1
:101910003C0E1E6E1F6A206A216A1CEC02F02A6EC1
:1019200023C02BF024C02CF025C02DF046502A24D3
:10193000356EE86A2B20366E37C01AF038C01BF0BF
:101940003AC01FF03950A6EC01F02A6E35C01AF0EB
:1019500036C01BF03AC01FF03950A0EC01F02E6EDB
:101960002AC01AF02E50CCEC01F02E6E2F6E306E85
:10197000316E04002E502F1030103110D8B47FEF8C
:101980000DF037C01AF038C01BF03AC01FF03950C4
:101990009DEC01F02A6E3D500008D8A4E868FF0ACB
:1019A0002E6E2AC01AF02E50CCEC01F02E6E2F6E47
:1019B000306E316E04002E502F1030103110D8B41C
:1019C000F9EF0CF04DC073F04DC026F0276A286A7D
:1019D000296A640E1E6E1F6A206A216A1CEC02F0DE
:1019E0007A6F23C07BF024C07CF025C07DF07FEFB0
:1019F0000DF035C01AF036C01BF03AC01FF0395058
:101A00009DEC01F02A6E3D500008D8A4E868FF0A5A
:101A10002E6E2AC01AF02E50CCEC01F02E6E2F6ED6
:101A2000306E316E04002E502F1030103110D8B4AB
:101A30001EEF0DF04CC073F07FEF0DF00400485026
:101A40000108D8A47FEF0DF04C504D5C2A6EE86A77
:101A5000D8A0E8042B6E2C6E2D6E2AC026F02BC069
:101A600027F02CC028F02DC029F0640E1E6E1F6ACE
:101A7000206A216A1CEC02F02A6E23C02BF024C0DD
:101A80002CF025C02DF03750355C2E6E385036586E
:101A90002F6EE86AD8A0E804306E316E2AC01AF0C2
:101AA0002BC01BF02CC01CF02DC01DF02EC01EF052
:101AB0002FC01FF030C020F031C021F0D8EC01F071
:101AC0002E6E1BC02FF01CC030F01DC031F02E5008
:101AD0007A5F2F507B5B30507C5B31507D5B7AC0EE
:101AE0001AF07BC01BF07CC01CF07DC01DF0640EA2
:101AF0001E6E1F6A206A216AD8EC01F0736FB8C0AD
:101B000058F0B9C047F0BAC04DF0BCC057F0BDC0E6
:101B100046F0BEC04CF058C026F0276A286A296AF1
:101B20003C0E1E6E1F6A206A216A1CEC02F02A6EAF
:101B300023C02BF024C02CF025C02DF047502A24C0
:101B4000376EE86A2B20386E57C026F0276A286A5D
:101B5000296A3C0E1E6E1F6A206A216A1CEC02F084
:101B60002A6E23C02BF024C02CF025C02DF0465047
:101B70002A24356EE86A2B20366E37C01AF038C03A
:101B80001BF03AC01FF03950A6EC01F02A6E35C0A8
:101B90001AF036C01BF03AC01FF03950A0EC01F02B
:101BA0002E6E2AC01AF02E50CCEC01F02E6E2F6E45
:101BB000306E316E04002E502F1030103110D8B41A
:101BC000A0EF0EF037C01AF038C01BF03AC01FF07B
:101BD00039509DEC01F02A6E3D500008D8A4E86809
:101BE000FF0A2E6E2AC01AF02E50CCEC01F02E6E99
:101BF0002F6E306E316E04002E502F1030103110C9
:101C0000D8B41AEF0EF04DC074F04DC026F0276A1C
:101C1000286A296A640E1E6E1F6A206A216A1CECFB
:101C200002F07E6F23C07FF024C080F025C081F0D9
:101C3000A0EF0EF035C01AF036C01BF03AC01FF00E
:101C400039509DEC01F02A6E3D500008D8A4E86898
:101C5000FF0A2E6E2AC01AF02E50CCEC01F02E6E28
:101C60002F6E306E316E04002E502F103010311058
:101C7000D8B43FEF0EF04CC074F0A0EF0EF00400AB
:101C800048500108D8A4A0EF0EF04D504C5C2A6ECD
:101C9000E86AD8A0E8042B6E2C6E2D6E2AC026F0C0
:101CA0002BC027F02CC028F02DC029F0640E1E6E2A
:101CB0001F6A206A216A1CEC02F02A6E23C02BF0F6
:101CC00024C02CF025C02DF03750355C2E6E3850D6
:101CD00036582F6EE86AD8A0E804306E316E2AC0FC
:101CE0001AF02BC01BF02CC01CF02DC01DF02EC014
:101CF0001EF02FC01FF030C020F031C021F0D8EC12
:101D000001F02E6E1BC02FF01CC030F01DC031F052
:101D10002E507E272F507F23305080233150812337
:101D20007EC01AF07FC01BF080C01CF081C01DF087
:101D3000640E1E6E1F6A206A216AD8EC01F0746F6F
:101D4000C0C058F0C1C047F0C2C04DF0C4C057F089
:101D5000C5C046F0C6C04CF058C026F0276A286AB5
:101D6000296A3C0E1E6E1F6A206A216A1CEC02F072
:101D70002A6E23C02BF024C02CF025C02DF0475034
:101D80002A24376EE86A2B20386E57C026F0276A5F
:101D9000286A296A3C0E1E6E1F6A206A216A1CECA2
:101DA00002F02A6E23C02BF024C02CF025C02DF0A9
:101DB00046502A24356EE86A2B20366E37C01AF05A
:101DC00038C01BF03AC01FF03950A6EC01F02A6E63
:101DD00035C01AF036C01BF03AC01FF03950A0ECE5
:101DE00001F02E6E2AC01AF02E50CCEC01F02E6EAF
:101DF0002F6E306E316E04002E502F1030103110C7
:101E0000D8B4C1EF0FF037C01AF038C01BF03AC099
:101E10001FF039509DEC01F02A6E3D500008D8A407
:101E2000E868FF0A2E6E2AC01AF02E50CCEC01F0A2
:101E30002E6E2F6E306E316E04002E502F1030102B
:101E40003110D8B43BEF0FF04DC074F04DC026F008
:101E5000276A286A296A640E1E6E1F6A206A216A30
:101E60001CEC02F07E6F23C07FF024C080F025C000
:101E700081F0C1EF0FF035C01AF036C01BF03AC048
:101E80001FF039509DEC01F02A6E3D500008D8A497
:101E9000E868FF0A2E6E2AC01AF02E50CCEC01F032
:101EA0002E6E2F6E306E316E04002E502F103010BB
:101EB0003110D8B460EF0FF04CC074F0C1EF0FF0E8
:101EC000040048500108D8A4C1EF0FF04C504D5CFD
:101ED0002A6EE86AD8A0E8042B6E2C6E2D6E2AC0FC
:101EE00026F02BC027F02CC028F02DC029F0640E5E
:101EF0001E6E1F6A206A216A1CEC02F02A6E23C043
:101F00002BF024C02CF025C02DF03750355C2E6E00
:101F1000385036582F6EE86AD8A0E804306E316E1B
:101F20002AC01AF02BC01BF02CC01CF02DC01DF0D5
:101F30002EC01EF02FC01FF030C020F031C021F0A5
:101F4000D8EC01F02E6E1BC02FF01CC030F01DC06D
:101F500031F02E507E5F2F507F5B3050805B3150D0
:101F6000815B7EC01AF07FC01BF080C01CF081C076
:101F70001DF0640E1E6E1F6A206A216AD8EC01F003
:101F8000746FC8C058F0C9C047F0CAC04DF0CCC08B
:101F900057F0CDC046F0CEC04CF058C026F0276AAE
:101FA000286A296A3C0E1E6E1F6A206A216A1CEC90
:101FB00002F02A6E23C02BF024C02CF025C02DF097
:101FC00047502A24376EE86A2B20386E57C026F017
:101FD000276A286A296A3C0E1E6E1F6A206A216AD7
:101FE0001CEC02F02A6E23C02BF024C02CF025C07C
:101FF0002DF046502A24356EE86A2B20366E37C005
:102000001AF038C01BF03AC01FF03950A6EC01F0AE
:102010002A6E35C01AF036C01BF03AC01FF0395096
:10202000A0EC01F02E6E2AC01AF02E50CCEC01F07C
:102030002E6E2F6E306E316E04002E502F10301029
:102040003110D8B4E2EF10F037C01AF038C01BF0EE
:102050003AC01FF039509DEC01F02A6E3D50000847
:10206000D8A4E868FF0A2E6E2AC01AF02E50CCECD5
:1020700001F02E6E2F6E306E316E04002E502F1038
:1020800030103110D8B45CEF10F04DC075F04DC079
:1020900026F0276A286A296A640E1E6E1F6A206A63
:1020A000216A1CEC02F0826F23C083F024C084F00C
:1020B00025C085F0E2EF10F035C01AF036C01BF0F5
:1020C0003AC01FF039509DEC01F02A6E3D500008D7
:1020D000D8A4E868FF0A2E6E2AC01AF02E50CCEC65
:1020E00001F02E6E2F6E306E316E04002E502F10C8
:1020F00030103110D8B481EF10F04CC075F0E2EF21
:1021000010F0040048500108D8A4E2EF10F04D5040
:102110004C5C2A6EE86AD8A0E8042B6E2C6E2D6EFB
:102120002AC026F02BC027F02CC028F02DC029F0A3
:10213000640E1E6E1F6A206A216A1CEC02F02A6E71
:1021400023C02BF024C02CF025C02DF03750355C77
:102150002E6E385036582F6EE86AD8A0E804306EDC
:10216000316E2AC01AF02BC01BF02CC01CF02DC001
:102170001DF02EC01EF02FC01FF030C020F031C067
:1021800021F0D8EC01F02E6E1BC02FF01CC030F0F7
:102190001DC031F02E5082272F50832330508423CE
:1021A0003150852382C01AF083C01BF084C01CF01C
:1021B00085C01DF0640E1E6E1F6A206A216AD8EC6D
:1021C00001F0756FD0C058F0D1C047F0D2C04DF0CB
:1021D000D4C057F0D5C046F0D6C04CF058C026F059
:1021E000276A286A296A3C0E1E6E1F6A206A216AC5
:1021F0001CEC02F02A6E23C02BF024C02CF025C06A
:102200002DF047502A24376EE86A2B20386E57C0CD
:1022100026F0276A286A296A3C0E1E6E1F6A206A09
:10222000216A1CEC02F02A6E23C02BF024C02CF093
:1022300025C02DF046502A24356EE86A2B20366ED4
:1022400037C01AF038C01BF03AC01FF03950A6EC66
:1022500001F02A6E35C01AF036C01BF03AC01FF0EC
:102260003950A0EC01F02E6E2AC01AF02E50CCECA2
:1022700001F02E6E2F6E306E316E04002E502F1036
:1022800030103110D8B403EF12F037C01AF038C054
:102290001BF03AC01FF039509DEC01F02A6E3D5002
:1022A0000008D8A4E868FF0A2E6E2AC01AF02E5043
:1022B000CCEC01F02E6E2F6E306E316E04002E507D
:1022C0002F1030103110D8B47DEF11F04DC075F0E3
:1022D0004DC026F0276A286A296A640E1E6E1F6A9E
:1022E000206A216A1CEC02F0826F23C083F024C0B4
:1022F00084F025C085F003EF12F035C01AF036C027
:102300001BF03AC01FF039509DEC01F02A6E3D5091
:102310000008D8A4E868FF0A2E6E2AC01AF02E50D2
:10232000CCEC01F02E6E2F6E306E316E04002E500C
:102330002F1030103110D8B4A2EF11F04CC075F04E
:1023400003EF12F0040048500108D8A403EF12F084
:102350004C504D5C2A6EE86AD8A0E8042B6E2C6EB7
:102360002D6E2AC026F02BC027F02CC028F02DC0DF
:1023700029F0640E1E6E1F6A206A216A1CEC02F0AE
:102380002A6E23C02BF024C02CF025C02DF037502E
:10239000355C2E6E385036582F6EE86AD8A0E804A7
:1023A000306E316E2AC01AF02BC01BF02CC01CF00E
:1023B0002DC01DF02EC01EF02FC01FF030C020F029
:1023C00031C021F0D8EC01F02E6E1BC02FF01CC0E4
:1023D00030F01DC031F02E50825F2F50835B3050A3
:1023E000845B3150855B82C01AF083C01BF084C0CF
:1023F0001CF085C01DF0640E1E6E1F6A206A216AE3
:10240000D8EC01F0756F540EA96E72515DEC01F0BD
:10241000550EA96E73515DEC01F0560EA96E745104
:102420005DEC01F0570EA96E75515DEC01F049C0ED
:102430005DF0120082BC328082AC329082B832866B
:1024400082A8329682BE328482AE329482BA3282BE
:1024500082AA329233C01AF034C01BF00B0E1F6EEA
:10246000B80EA0EC01F0D8A43CEF12F0332A000E15
:102470003422818C3DEF12F0819C040082B050EF39
:1024800012F072C059F073C05AF074C05BF075C09E
:102490005CF0020EA96E56EC01F04B6E9BEF26F03D
:1024A000040032B46DEF12F032AC6DEF12F0336A0B
:1024B000346A040081AC6DEF12F0412A0400020E70
:1024C000415CD8A06DEF12F0040E44260400490EC2
:1024D000445CD8A06DEF12F0446A040032B28DEF74
:1024E00012F032AA8DEF12F0336A346A040081AC24
:1024F0008DEF12F0412A0400020E415CD8A08DEF4E
:1025000012F0040044500008D8A48BEF12F0480EDB
:10251000446E8DEF12F0040E445E040032B6A4EF58
:1025200012F032AEA4EF12F0336A346A040081ACC8
:10253000A4EF12F0412A0400020E415CD8A0A4EFDF
:1025400012F0480E446E416A040044500008D8A4BA
:102550001EEF13F0FE0EA3EC00F0020EA3EC00F051
:102560003E0EA3EC00F0520EA3EC00F0540EA3ECD0
:1025700000F0430EA3EC00F0200EA3EC00F0740E6C
:10258000A3EC00F0690EA3EC00F06D0EA3EC00F0DC
:10259000650EA3EC00F0200EA3EC00F0200EA3ECDF
:1025A00000F0200EA3EC00F0200EA3EC00F0200EB3
:1025B000A3EC00F0200EA3EC00F0200EA3EC00F042
:1025C000FE0EA3EC00F0C00EA3EC00F0200EA3EC76
:1025D00000F04D0EA3EC00F06F0EA3EC00F0640EC3
:1025E000A3EC00F0650EA3EC00F0200EA3EC00F0CD
:1025F000200EA3EC00F0200EA3EC00F0200EA3ECC4
:1026000000F0200EA3EC00F0200EA3EC00F0200E52
:10261000A3EC00F0200EA3EC00F0200EA3EC00F0E1
:10262000200EA3EC00F0200EA3EC00F0200EA3EC93
:1026300000F0200EA3EC00F033EF1CF00400445037
:102640000408D8A49BEF13F0FE0EA3EC00F0020EDA
:10265000A3EC00F0200EA3EC00F0520EA3EC00F06F
:10266000540EA3EC00F0430EA3EC00F0200EA3ECFC
:1026700000F0740EA3EC00F0690EA3EC00F06D0EF8
:10268000A3EC00F0650EA3EC00F0200EA3EC00F02C
:10269000200EA3EC00F0200EA3EC00F0200EA3EC23
:1026A00000F0200EA3EC00F0200EA3EC00F0200EB2
:1026B000A3EC00F0200EA3EC00F0FE0EA3EC00F063
:1026C000C00EA3EC00F03E0EA3EC00F04D0EA3EC08
:1026D00000F06F0EA3EC00F0640EA3EC00F0650EAA
:1026E000A3EC00F0200EA3EC00F0200EA3EC00F011
:1026F000200EA3EC00F0200EA3EC00F0200EA3ECC3
:1027000000F0200EA3EC00F0200EA3EC00F0200E51
:10271000A3EC00F0200EA3EC00F0200EA3EC00F0E0
:10272000200EA3EC00F0200EA3EC00F0200EA3EC92
:1027300000F033EF1CF0040044500808D8A42AEF3E
:1027400014F0FE0EA3EC00F0020EA3EC00F03E0E1F
:10275000A3EC00F0230EA3EC00F0310EA3EC00F08C
:10276000200EA3EC00F0530EA3EC00F0750EA3ECCA
:1027700000F06E0EA3EC00F0720EA3EC00F0690EF8
:10278000A3EC00F0730EA3EC00F0650EA3EC00F0D8
:10279000200EA3EC00F04F0EA3EC00F04E0EA3ECC5
:1027A00000F0200EA3EC00F0200EA3EC00F0200EB1
:1027B000A3EC00F0200EA3EC00F0200EA3EC00F040
:1027C000200EA3EC00F0FE0EA3EC00F0C00EA3EC74
:1027D00000F0200EA3EC00F0230EA3EC00F0310E6D
:1027E000A3EC00F0200EA3EC00F0530EA3EC00F0DD
:1027F000750EA3EC00F06E0EA3EC00F0720EA3ECCD
:1028000000F0690EA3EC00F0730EA3EC00F0650E6F
:10281000A3EC00F0200EA3EC00F04F0EA3EC00F0B0
:10282000460EA3EC00F0460EA3EC00F0200EA3EC45
:1028300000F0200EA3EC00F0200EA3EC00F0200E20
:10284000A3EC00F0200EA3EC00F0200EA3EC00F0AF
:1028500033EF1CF0040044500C08D8A4B3EF14F07C
:10286000FE0EA3EC00F0020EA3EC00F0200EA3EC91
:1028700000F0230EA3EC00F0310EA3EC00F0200ECC
:10288000A3EC00F0530EA3EC00F0750EA3EC00F0E7
:102890006E0EA3EC00F0720EA3EC00F0690EA3EC38
:1028A00000F0730EA3EC00F0650EA3EC00F0200E18
:1028B000A3EC00F04F0EA3EC00F04E0EA3EC00F0E2
:1028C000200EA3EC00F0200EA3EC00F0200EA3ECF1
:1028D00000F0200EA3EC00F0200EA3EC00F0FE0EA2
:1028E000A3EC00F0C00EA3EC00F03E0EA3EC00F051
:1028F000230EA3EC00F0310EA3EC00F0200EA3ECAD
:1029000000F0530EA3EC00F0750EA3EC00F06E0E79
:10291000A3EC00F0720EA3EC00F0690EA3EC00F043
:10292000730EA3EC00F0650EA3EC00F0200EA3ECF8
:1029300000F04F0EA3EC00F0460EA3EC00F0460EA4
:10294000A3EC00F0200EA3EC00F0200EA3EC00F0AE
:10295000200EA3EC00F0200EA3EC00F0200EA3EC60
:1029600000F033EF1CF0040044501008D8A436EFF8
:1029700015F0FE0EA3EC00F0020EA3EC00F03E0EEC
:10298000A3EC00F0230EA3EC00F0310EA3EC00F05A
:10299000200EA3EC00F0530EA3EC00F0750EA3EC98
:1029A00000F06E0EA3EC00F0730EA3EC00F0650EC9
:1029B000A3EC00F0740EA3EC00F0200EA3EC00F0EA
:1029C0004F0EA3EC00F04E0EA3EC00F0200EA3EC93
:1029D00000F0200EA3EC00F0200EA3EC00F0200E7F
:1029E000A3EC00F0200EA3EC00F0FE0EA3EC00F030
:1029F000C00EA3EC00F0200EA3EC00F0230EA3EC1D
:102A000000F0310EA3EC00F0200EA3EC00F0530E0A
:102A1000A3EC00F0750EA3EC00F06E0EA3EC00F03A
:102A2000730EA3EC00F0650EA3EC00F0740EA3ECA3
:102A300000F0200EA3EC00F04F0EA3EC00F0460EC9
:102A4000A3EC00F0460EA3EC00F0200EA3EC00F087
:102A5000200EA3EC00F0200EA3EC00F0200EA3EC5F
:102A600000F0200EA3EC00F033EF1CF00400445003
:102A70001408D8A4B9EF15F0FE0EA3EC00F0020E76
:102A8000A3EC00F0200EA3EC00F0230EA3EC00F06A
:102A9000310EA3EC00F0200EA3EC00F0530EA3ECDB
:102AA00000F0750EA3EC00F06E0EA3EC00F0730EB8
:102AB000A3EC00F0650EA3EC00F0740EA3EC00F0A4
:102AC000200EA3EC00F04F0EA3EC00F04E0EA3EC92
:102AD00000F0200EA3EC00F0200EA3EC00F0200E7E
:102AE000A3EC00F0200EA3EC00F0200EA3EC00F00D
:102AF000FE0EA3EC00F0C00EA3EC00F03E0EA3EC23
:102B000000F0230EA3EC00F0310EA3EC00F0200E39
:102B1000A3EC00F0530EA3EC00F0750EA3EC00F054
:102B20006E0EA3EC00F0730EA3EC00F0650EA3ECA8
:102B300000F0740EA3EC00F0200EA3EC00F04F0E9A
:102B4000A3EC00F0460EA3EC00F0460EA3EC00F060
:102B5000200EA3EC00F0200EA3EC00F0200EA3EC5E
:102B600000F0200EA3EC00F0200EA3EC00F033EFF9
:102B70001CF0040044501808D8A442EF16F0FE0ED2
:102B8000A3EC00F0020EA3EC00F03E0EA3EC00F06C
:102B9000230EA3EC00F0320EA3EC00F0200EA3EC09
:102BA00000F0530EA3EC00F0750EA3EC00F06E0ED7
:102BB000A3EC00F0720EA3EC00F0690EA3EC00F0A1
:102BC000730EA3EC00F0650EA3EC00F0200EA3EC56
:102BD00000F04F0EA3EC00F04E0EA3EC00F0200E20
:102BE000A3EC00F0200EA3EC00F0200EA3EC00F00C
:102BF000200EA3EC00F0200EA3EC00F0FE0EA3ECE0
:102C000000F0C00EA3EC00F0200EA3EC00F0230EA9
:102C1000A3EC00F0320EA3EC00F0200EA3EC00F0C9
:102C2000530EA3EC00F0750EA3EC00F06E0EA3ECB7
:102C300000F0720EA3EC00F0690EA3EC00F0730E2E
:102C4000A3EC00F0650EA3EC00F0200EA3EC00F066
:102C50004F0EA3EC00F0460EA3EC00F0460EA3ECE2
:102C600000F0200EA3EC00F0200EA3EC00F0200EEC
:102C7000A3EC00F0200EA3EC00F0200EA3EC00F07B
:102C800033EF1CF0040044501C08D8A4CBEF16F01E
:102C9000FE0EA3EC00F0020EA3EC00F0200EA3EC5D
:102CA00000F0230EA3EC00F0320EA3EC00F0200E97
:102CB000A3EC00F0530EA3EC00F0750EA3EC00F0B3
:102CC0006E0EA3EC00F0720EA3EC00F0690EA3EC04
:102CD00000F0730EA3EC00F0650EA3EC00F0200EE4
:102CE000A3EC00F04F0EA3EC00F04E0EA3EC00F0AE
:102CF000200EA3EC00F0200EA3EC00F0200EA3ECBD
:102D000000F0200EA3EC00F0200EA3EC00F0FE0E6D
:102D1000A3EC00F0C00EA3EC00F03E0EA3EC00F01C
:102D2000230EA3EC00F0320EA3EC00F0200EA3EC77
:102D300000F0530EA3EC00F0750EA3EC00F06E0E45
:102D4000A3EC00F0720EA3EC00F0690EA3EC00F00F
:102D5000730EA3EC00F0650EA3EC00F0200EA3ECC4
:102D600000F04F0EA3EC00F0460EA3EC00F0460E70
:102D7000A3EC00F0200EA3EC00F0200EA3EC00F07A
:102D8000200EA3EC00F0200EA3EC00F0200EA3EC2C
:102D900000F033EF1CF0040044502008D8A44EEF9C
:102DA00017F0FE0EA3EC00F0020EA3EC00F03E0EB6
:102DB000A3EC00F0230EA3EC00F0320EA3EC00F025
:102DC000200EA3EC00F0530EA3EC00F0750EA3EC64
:102DD00000F06E0EA3EC00F0730EA3EC00F0650E95
:102DE000A3EC00F0740EA3EC00F0200EA3EC00F0B6
:102DF0004F0EA3EC00F04E0EA3EC00F0200EA3EC5F
:102E000000F0200EA3EC00F0200EA3EC00F0200E4A
:102E1000A3EC00F0200EA3EC00F0FE0EA3EC00F0FB
:102E2000C00EA3EC00F0200EA3EC00F0230EA3ECE8
:102E300000F0320EA3EC00F0200EA3EC00F0530ED5
:102E4000A3EC00F0750EA3EC00F06E0EA3EC00F006
:102E5000730EA3EC00F0650EA3EC00F0740EA3EC6F
:102E600000F0200EA3EC00F04F0EA3EC00F0460E95
:102E7000A3EC00F0460EA3EC00F0200EA3EC00F053
:102E8000200EA3EC00F0200EA3EC00F0200EA3EC2B
:102E900000F0200EA3EC00F033EF1CF004004450CF
:102EA0002408D8A4D1EF17F0FE0EA3EC00F0020E18
:102EB000A3EC00F0200EA3EC00F0230EA3EC00F036
:102EC000320EA3EC00F0200EA3EC00F0530EA3ECA6
:102ED00000F0750EA3EC00F06E0EA3EC00F0730E84
:102EE000A3EC00F0650EA3EC00F0740EA3EC00F070
:102EF000200EA3EC00F04F0EA3EC00F04E0EA3EC5E
:102F000000F0200EA3EC00F0200EA3EC00F0200E49
:102F1000A3EC00F0200EA3EC00F0200EA3EC00F0D8
:102F2000FE0EA3EC00F0C00EA3EC00F03E0EA3ECEE
:102F300000F0230EA3EC00F0320EA3EC00F0200E04
:102F4000A3EC00F0530EA3EC00F0750EA3EC00F020
:102F50006E0EA3EC00F0730EA3EC00F0650EA3EC74
:102F600000F0740EA3EC00F0200EA3EC00F04F0E66
:102F7000A3EC00F0460EA3EC00F0460EA3EC00F02C
:102F8000200EA3EC00F0200EA3EC00F0200EA3EC2A
:102F900000F0200EA3EC00F0200EA3EC00F033EFC5
:102FA0001CF0040044502808D8A45AEF18F0FE0E74
:102FB000A3EC00F0020EA3EC00F03E0EA3EC00F038
:102FC000230EA3EC00F0330EA3EC00F0200EA3ECD4
:102FD00000F0530EA3EC00F0750EA3EC00F06E0EA3
:102FE000A3EC00F0720EA3EC00F0690EA3EC00F06D
:102FF000730EA3EC00F0650EA3EC00F0200EA3EC22
:1030000000F04F0EA3EC00F04E0EA3EC00F0200EEB
:10301000A3EC00F0200EA3EC00F0200EA3EC00F0D7
:10302000200EA3EC00F0200EA3EC00F0FE0EA3ECAB
:1030300000F0C00EA3EC00F0200EA3EC00F0230E75
:10304000A3EC00F0330EA3EC00F0200EA3EC00F094
:10305000530EA3EC00F0750EA3EC00F06E0EA3EC83
:1030600000F0720EA3EC00F0690EA3EC00F0730EFA
:10307000A3EC00F0650EA3EC00F0200EA3EC00F032
:103080004F0EA3EC00F0460EA3EC00F0460EA3ECAE
:1030900000F0200EA3EC00F0200EA3EC00F0200EB8
:1030A000A3EC00F0200EA3EC00F0200EA3EC00F047
:1030B00033EF1CF0040044502C08D8A4E3EF18F0C0
:1030C000FE0EA3EC00F0020EA3EC00F0200EA3EC29
:1030D00000F0230EA3EC00F0330EA3EC00F0200E62
:1030E000A3EC00F0530EA3EC00F0750EA3EC00F07F
:1030F0006E0EA3EC00F0720EA3EC00F0690EA3ECD0
:1031000000F0730EA3EC00F0650EA3EC00F0200EAF
:10311000A3EC00F04F0EA3EC00F04E0EA3EC00F079
:10312000200EA3EC00F0200EA3EC00F0200EA3EC88
:1031300000F0200EA3EC00F0200EA3EC00F0FE0E39
:10314000A3EC00F0C00EA3EC00F03E0EA3EC00F0E8
:10315000230EA3EC00F0330EA3EC00F0200EA3EC42
:1031600000F0530EA3EC00F0750EA3EC00F06E0E11
:10317000A3EC00F0720EA3EC00F0690EA3EC00F0DB
:10318000730EA3EC00F0650EA3EC00F0200EA3EC90
:1031900000F04F0EA3EC00F0460EA3EC00F0460E3C
:1031A000A3EC00F0200EA3EC00F0200EA3EC00F046
:1031B000200EA3EC00F0200EA3EC00F0200EA3ECF8
:1031C00000F033EF1CF0040044503008D8A466EF40
:1031D00019F0FE0EA3EC00F0020EA3EC00F03E0E80
:1031E000A3EC00F0230EA3EC00F0330EA3EC00F0F0
:1031F000200EA3EC00F0530EA3EC00F0750EA3EC30
:1032000000F06E0EA3EC00F0730EA3EC00F0650E60
:10321000A3EC00F0740EA3EC00F0200EA3EC00F081
:103220004F0EA3EC00F04E0EA3EC00F0200EA3EC2A
:1032300000F0200EA3EC00F0200EA3EC00F0200E16
:10324000A3EC00F0200EA3EC00F0FE0EA3EC00F0C7
:10325000C00EA3EC00F0200EA3EC00F0230EA3ECB4
:1032600000F0330EA3EC00F0200EA3EC00F0530EA0
:10327000A3EC00F0750EA3EC00F06E0EA3EC00F0D2
:10328000730EA3EC00F0650EA3EC00F0740EA3EC3B
:1032900000F0200EA3EC00F04F0EA3EC00F0460E61
:1032A000A3EC00F0460EA3EC00F0200EA3EC00F01F
:1032B000200EA3EC00F0200EA3EC00F0200EA3ECF7
:1032C00000F0200EA3EC00F033EF1CF0040044509B
:1032D0003408D8A4E9EF19F0FE0EA3EC00F0020EBA
:1032E000A3EC00F0200EA3EC00F0230EA3EC00F002
:1032F000330EA3EC00F0200EA3EC00F0530EA3EC71
:1033000000F0750EA3EC00F06E0EA3EC00F0730E4F
:10331000A3EC00F0650EA3EC00F0740EA3EC00F03B
:10332000200EA3EC00F04F0EA3EC00F04E0EA3EC29
:1033300000F0200EA3EC00F0200EA3EC00F0200E15
:10334000A3EC00F0200EA3EC00F0200EA3EC00F0A4
:10335000FE0EA3EC00F0C00EA3EC00F03E0EA3ECBA
:1033600000F0230EA3EC00F0330EA3EC00F0200ECF
:10337000A3EC00F0530EA3EC00F0750EA3EC00F0EC
:103380006E0EA3EC00F0730EA3EC00F0650EA3EC40
:1033900000F0740EA3EC00F0200EA3EC00F04F0E32
:1033A000A3EC00F0460EA3EC00F0460EA3EC00F0F8
:1033B000200EA3EC00F0200EA3EC00F0200EA3ECF6
:1033C00000F0200EA3EC00F0200EA3EC00F033EF91
:1033D0001CF0040044503808D8A472EF1AF0FE0E16
:1033E000A3EC00F0020EA3EC00F03E0EA3EC00F004
:1033F000230EA3EC00F0340EA3EC00F0200EA3EC9F
:1034000000F0530EA3EC00F0750EA3EC00F06E0E6E
:10341000A3EC00F0720EA3EC00F0690EA3EC00F038
:10342000730EA3EC00F0650EA3EC00F0200EA3ECED
:1034300000F04F0EA3EC00F04E0EA3EC00F0200EB7
:10344000A3EC00F0200EA3EC00F0200EA3EC00F0A3
:10345000200EA3EC00F0200EA3EC00F0FE0EA3EC77
:1034600000F0C00EA3EC00F0200EA3EC00F0230E41
:10347000A3EC00F0340EA3EC00F0200EA3EC00F05F
:10348000530EA3EC00F0750EA3EC00F06E0EA3EC4F
:1034900000F0720EA3EC00F0690EA3EC00F0730EC6
:1034A000A3EC00F0650EA3EC00F0200EA3EC00F0FE
:1034B0004F0EA3EC00F0460EA3EC00F0460EA3EC7A
:1034C00000F0200EA3EC00F0200EA3EC00F0200E84
:1034D000A3EC00F0200EA3EC00F0200EA3EC00F013
:1034E00033EF1CF0040044503C08D8A4FBEF1AF062
:1034F000FE0EA3EC00F0020EA3EC00F0200EA3ECF5
:1035000000F0230EA3EC00F0340EA3EC00F0200E2C
:10351000A3EC00F0530EA3EC00F0750EA3EC00F04A
:103520006E0EA3EC00F0720EA3EC00F0690EA3EC9B
:1035300000F0730EA3EC00F0650EA3EC00F0200E7B
:10354000A3EC00F04F0EA3EC00F04E0EA3EC00F045
:10355000200EA3EC00F0200EA3EC00F0200EA3EC54
:1035600000F0200EA3EC00F0200EA3EC00F0FE0E05
:10357000A3EC00F0C00EA3EC00F03E0EA3EC00F0B4
:10358000230EA3EC00F0340EA3EC00F0200EA3EC0D
:1035900000F0530EA3EC00F0750EA3EC00F06E0EDD
:1035A000A3EC00F0720EA3EC00F0690EA3EC00F0A7
:1035B000730EA3EC00F0650EA3EC00F0200EA3EC5C
:1035C00000F04F0EA3EC00F0460EA3EC00F0460E08
:1035D000A3EC00F0200EA3EC00F0200EA3EC00F012
:1035E000200EA3EC00F0200EA3EC00F0200EA3ECC4
:1035F00000F033EF1CF0040044504008D8A47EEFE4
:103600001BF0FE0EA3EC00F0020EA3EC00F03E0E49
:10361000A3EC00F0230EA3EC00F0340EA3EC00F0BA
:10362000200EA3EC00F0530EA3EC00F0750EA3ECFB
:1036300000F06E0EA3EC00F0730EA3EC00F0650E2C
:10364000A3EC00F0740EA3EC00F0200EA3EC00F04D
:103650004F0EA3EC00F04E0EA3EC00F0200EA3ECF6
:1036600000F0200EA3EC00F0200EA3EC00F0200EE2
:10367000A3EC00F0200EA3EC00F0FE0EA3EC00F093
:10368000C00EA3EC00F0200EA3EC00F0230EA3EC80
:1036900000F0340EA3EC00F0200EA3EC00F0530E6B
:1036A000A3EC00F0750EA3EC00F06E0EA3EC00F09E
:1036B000730EA3EC00F0650EA3EC00F0740EA3EC07
:1036C00000F0200EA3EC00F04F0EA3EC00F0460E2D
:1036D000A3EC00F0460EA3EC00F0200EA3EC00F0EB
:1036E000200EA3EC00F0200EA3EC00F0200EA3ECC3
:1036F00000F0200EA3EC00F033EF1CF00400445067
:103700004408D8A401EF1CF0FE0EA3EC00F0020E5A
:10371000A3EC00F0200EA3EC00F0230EA3EC00F0CD
:10372000340EA3EC00F0200EA3EC00F0530EA3EC3B
:1037300000F0750EA3EC00F06E0EA3EC00F0730E1B
:10374000A3EC00F0650EA3EC00F0740EA3EC00F007
:10375000200EA3EC00F04F0EA3EC00F04E0EA3ECF5
:1037600000F0200EA3EC00F0200EA3EC00F0200EE1
:10377000A3EC00F0200EA3EC00F0200EA3EC00F070
:10378000FE0EA3EC00F0C00EA3EC00F03E0EA3EC86
:1037900000F0230EA3EC00F0340EA3EC00F0200E9A
:1037A000A3EC00F0530EA3EC00F0750EA3EC00F0B8
:1037B0006E0EA3EC00F0730EA3EC00F0650EA3EC0C
:1037C00000F0740EA3EC00F0200EA3EC00F04F0EFE
:1037D000A3EC00F0460EA3EC00F0460EA3EC00F0C4
:1037E000200EA3EC00F0200EA3EC00F0200EA3ECC2
:1037F00000F0200EA3EC00F0200EA3EC00F033EF5D
:103800001CF0040044504808D8A433EF1CF0030E09
:10381000A96E56EC01F05F6E04005F500108D8A459
:1038200014EF1CF078EF04F004005F500208D8A4F5
:1038300033EF1CF0416A010E436E500EA96E56EC38
:1038400001F0726F510EA96E56EC01F0736F520EBB
:10385000A96E56EC01F0746F530EA96E56EC01F090
:10386000756F93EF06F0040032B02EEF20F032A80F
:103870002EEF20F05F6A336A346A72C059F073C069
:103880005AF074C05BF075C05CF0040081AC2EEFA0
:1038900020F0436A040044500008D8A420EF1DF033
:1038A000CD90800E0F6E0F0E116E020E0D6E800EFB
:1038B000106E0F0E126E010E0E6ED00E29EC00F07F
:1038C000000E29EC00F010EC00F0546E10EC00F04B
:1038D000526E10EC00F0516E10EC00F0506E10ECD7
:1038E00000F04F6E10EC00F0536E0EEC00F0556ED1
:1038F000CD80F00E52142A6E2B6A2C6A2D6A2AC0D3
:103900001AF02BC01BF02CC01CF02DC01DF0040EB3
:1039100098EC01F02A6E1BC02BF01CC02CF01DC0CF
:103920002DF02AC026F02BC027F02CC028F02DC087
:1039300029F00A0E1E6E1F6A206A216A1CEC02F032
:103940002A6E23C02BF024C02CF025C02DF00F0EC2
:1039500052142E6E2F6A306A316A2A502E243B6E22
:10396000F00E51142A6E2B6A2C6A2D6A2AC01AF0A6
:103970002BC01BF02CC01CF02DC01DF0040E98ECC9
:1039800001F02A6E1BC02BF01CC02CF01DC02DF0C6
:103990002AC026F02BC027F02CC028F02DC029F01B
:1039A0000A0E1E6E1F6A206A216A1CEC02F02A6E43
:1039B00023C02BF024C02CF025C02DF00F0E511485
:1039C0002E6E2F6A306A316A2A502E243C6EF00E19
:1039D00054142A6E2B6A2C6A2D6A2AC01AF02BC046
:1039E0001BF02CC01CF02DC01DF0040E98EC01F053
:1039F0002A6E1BC02BF01CC02CF01DC02DF02AC05D
:103A000026F02BC027F02CC028F02DC029F00A0E7C
:103A10001E6E1F6A206A216A1CEC02F02A6E23C007
:103A20002BF024C02CF025C02DF00F0E54142E6E58
:103A30002F6A306A316A2A502E243D6EA6EF24F098
:103A4000040044500408D8A42DEF1DF0030EA96E05
:103A500056EC01F05F6E42EF20F00400445008087D
:103A6000D8A45FEF1DF0010E426E010E5E6E010ED6
:103A70004E6E010E436E726B44C0A9FF56EC01F00E
:103A8000566E44282A6E2B6A2C6A2D6A2B362AC061
:103A9000A9FF56EC01F0456E020E44242A6E2B6AF3
:103AA0002C6A2D6A000E2B22000E2C22000E2D22D5
:103AB0002AC0A9FF56EC01F04A6E50EF21F0040035
:103AC00044500C08D8A48FEF1DF0010E426E010E79
:103AD0005E6E4E6A010E436E44C0A9FF56EC01F0C3
:103AE000566E44282A6E2B6A2C6A2D6A2B362AC001
:103AF000A9FF56EC01F0456E020E44242A6E2B6A93
:103B00002C6A2D6A000E2B22000E2C22000E2D2274
:103B10002AC0A9FF56EC01F04A6E50EF21F00400D4
:103B200044501008D8A4BFEF1DF0010E426E5E6A2B
:103B3000010E4E6E010E436E44C0A9FF56EC01F01B
:103B4000566E44282A6E2B6A2C6A2D6A2B362AC0A0
:103B5000A9FF56EC01F0456E020E44242A6E2B6A32
:103B60002C6A2D6A000E2B22000E2C22000E2D2214
:103B70002AC0A9FF56EC01F04A6E50EF21F0040074
:103B800044501408D8A4EEEF1DF0010E426E5E6A98
:103B90004E6A010E436E44C0A9FF56EC01F0566E0A
:103BA00044282A6E2B6A2C6A2D6A2B362AC0A9FF5C
:103BB00056EC01F0456E020E44242A6E2B6A2C6AE4
:103BC0002D6A000E2B22000E2C22000E2D222AC060
:103BD000A9FF56EC01F04A6E50EF21F0040044506A
:103BE0001808D8A41FEF1EF0020E426E010E5E6E82
:103BF000010E4E6E010E436E44C0A9FF56EC01F05B
:103C0000566E44282A6E2B6A2C6A2D6A2B362AC0DF
:103C1000A9FF56EC01F0456E020E44242A6E2B6A71
:103C20002C6A2D6A000E2B22000E2C22000E2D2253
:103C30002AC0A9FF56EC01F04A6E50EF21F00400B3
:103C400044501C08D8A44FEF1EF0020E426E010E25
:103C50005E6E4E6A010E436E44C0A9FF56EC01F041
:103C6000566E44282A6E2B6A2C6A2D6A2B362AC07F
:103C7000A9FF56EC01F0456E020E44242A6E2B6A11
:103C80002C6A2D6A000E2B22000E2C22000E2D22F3
:103C90002AC0A9FF56EC01F04A6E50EF21F0040053
:103CA00044502008D8A47FEF1EF0020E426E5E6AD8
:103CB000010E4E6E010E436E44C0A9FF56EC01F09A
:103CC000566E44282A6E2B6A2C6A2D6A2B362AC01F
:103CD000A9FF56EC01F0456E020E44242A6E2B6AB1
:103CE0002C6A2D6A000E2B22000E2C22000E2D2293
:103CF0002AC0A9FF56EC01F04A6E50EF21F00400F3
:103D000044502408D8A4AEEF1EF0020E426E5E6A44
:103D10004E6A010E436E44C0A9FF56EC01F0566E88
:103D200044282A6E2B6A2C6A2D6A2B362AC0A9FFDA
:103D300056EC01F0456E020E44242A6E2B6A2C6A62
:103D40002D6A000E2B22000E2C22000E2D222AC0DE
:103D5000A9FF56EC01F04A6E50EF21F004004450E8
:103D60002808D8A4DFEF1EF0030E426E010E5E6E2F
:103D7000010E4E6E010E436E44C0A9FF56EC01F0D9
:103D8000566E44282A6E2B6A2C6A2D6A2B362AC05E
:103D9000A9FF56EC01F0456E020E44242A6E2B6AF0
:103DA0002C6A2D6A000E2B22000E2C22000E2D22D2
:103DB0002AC0A9FF56EC01F04A6E50EF21F0040032
:103DC00044502C08D8A40FEF1FF0030E426E010ED2
:103DD0005E6E4E6A010E436E44C0A9FF56EC01F0C0
:103DE000566E44282A6E2B6A2C6A2D6A2B362AC0FE
:103DF000A9FF56EC01F0456E020E44242A6E2B6A90
:103E00002C6A2D6A000E2B22000E2C22000E2D2271
:103E10002AC0A9FF56EC01F04A6E50EF21F00400D1
:103E200044503008D8A43FEF1FF0030E426E5E6A84
:103E3000010E4E6E010E436E44C0A9FF56EC01F018
:103E4000566E44282A6E2B6A2C6A2D6A2B362AC09D
:103E5000A9FF56EC01F0456E020E44242A6E2B6A2F
:103E60002C6A2D6A000E2B22000E2C22000E2D2211
:103E70002AC0A9FF56EC01F04A6E50EF21F0040071
:103E800044503408D8A46EEF1FF0030E426E5E6AF1
:103E90004E6A010E436E44C0A9FF56EC01F0566E07
:103EA00044282A6E2B6A2C6A2D6A2B362AC0A9FF59
:103EB00056EC01F0456E020E44242A6E2B6A2C6AE1
:103EC0002D6A000E2B22000E2C22000E2D222AC05D
:103ED000A9FF56EC01F04A6E50EF21F00400445067
:103EE0003808D8A49FEF1FF0040E426E010E5E6EDC
:103EF000010E4E6E010E436E44C0A9FF56EC01F058
:103F0000566E44282A6E2B6A2C6A2D6A2B362AC0DC
:103F1000A9FF56EC01F0456E020E44242A6E2B6A6E
:103F20002C6A2D6A000E2B22000E2C22000E2D2250
:103F30002AC0A9FF56EC01F04A6E50EF21F00400B0
:103F400044503C08D8A4CFEF1FF0040E426E010E7F
:103F50005E6E4E6A010E436E44C0A9FF56EC01F03E
:103F6000566E44282A6E2B6A2C6A2D6A2B362AC07C
:103F7000A9FF56EC01F0456E020E44242A6E2B6A0E
:103F80002C6A2D6A000E2B22000E2C22000E2D22F0
:103F90002AC0A9FF56EC01F04A6E50EF21F0040050
:103FA00044504008D8A4FFEF1FF0040E426E5E6A32
:103FB000010E4E6E010E436E44C0A9FF56EC01F097
:103FC000566E44282A6E2B6A2C6A2D6A2B362AC01C
:103FD000A9FF56EC01F0456E020E44242A6E2B6AAE
:103FE0002C6A2D6A000E2B22000E2C22000E2D2290
:103FF0002AC0A9FF56EC01F04A6E50EF21F00400F0
:1040000044504408D8A42EEF20F0040E426E5E6A9D
:104010004E6A010E436E44C0A9FF56EC01F0566E85
:1040200044282A6E2B6A2C6A2D6A2B362AC0A9FFD7
:1040300056EC01F0456E020E44242A6E2B6A2C6A5F
:104040002D6A000E2B22000E2C22000E2D222AC0DB
:10405000A9FF56EC01F04A6E50EF21F0D5EC08F0C4
:1040600032B4328C32A4329C32B0328832A03298D0
:1040700032B2328A32A2329A32B6328E32A6329EB0
:104080001AEF12F0818C82B8328682A8329682BEF4
:10409000328482AE329482BA328282AA3292040090
:1040A00032B659EF20F032AE59EF20F0416A1AEFE4
:1040B00012F0040032B471EF20F032AC71EF20F056
:1040C00004005F500108D8A46AEF20F0020E5F6E72
:1040D0006CEF20F0010E5F6E030EA96E5F505DEC79
:1040E00001F0040032B289EF20F032AA89EF20F00B
:1040F00004005F500108D8A482EF20F0020E5F6E2A
:1041000084EF20F0010E5F6E030EA96E5F505DEC30
:1041100001F0FE0EA3EC00F0020EA3EC00F04D0E39
:10412000A3EC00F06F0EA3EC00F0640EA3EC00F023
:10413000650EA3EC00F0200EA3EC00F0200EA3EC23
:1041400000F0200EA3EC00F0200EA3EC00F0200EF7
:10415000A3EC00F0200EA3EC00F0200EA3EC00F086
:10416000200EA3EC00F0200EA3EC00F0200EA3EC38
:1041700000F004005F500108D8A4FBEF20F0FE0E11
:10418000A3EC00F0C00EA3EC00F03E0EA3EC00F098
:10419000410EA3EC00F0750EA3EC00F0740EA3EC3E
:1041A00000F06F0EA3EC00F06D0EA3EC00F0610EBA
:1041B000A3EC00F0740EA3EC00F0690EA3EC00F089
:1041C000630EA3EC00F0200EA3EC00F0200EA3EC95
:1041D00000F0200EA3EC00F0200EA3EC00F0200E67
:1041E000A3EC00F0200EA3EC00F0200EA3EC00F0F6
:1041F000200EA3EC00F004005F500208D8A443EFA7
:1042000021F0FE0EA3EC00F0C00EA3EC00F03E0E79
:10421000A3EC00F04D0EA3EC00F0610EA3EC00F057
:104220006E0EA3EC00F0750EA3EC00F0610EA3EC93
:1042300000F06C0EA3EC00F0200EA3EC00F0200EBA
:10424000A3EC00F0200EA3EC00F0200EA3EC00F095
:10425000200EA3EC00F0200EA3EC00F0200EA3EC47
:1042600000F0200EA3EC00F0200EA3EC00F0200ED6
:10427000A3EC00F0200EA3EC00F0200EA3EC00F065
:10428000200EA3EC00F032B6328E32A6329E32B44B
:10429000328C32A4329C32B2328A32A2329AF2D6B4
:1042A000818C82B8328682A8329682BC328082ACFF
:1042B000329082BE328482AE329482BA328282AA34
:1042C0003292040032B079EF21F032A879EF21F078
:1042D0005F2A0400020E5F5CD8A079EF21F05F6ACC
:1042E000432A0400040E435CD8A079EF21F0010EAC
:1042F000436E040043500108D8A485EF21F03E0E20
:10430000876F200E886F200E896F040043500208CB
:10431000D8A491EF21F0200E876F3E0E886F200EFB
:10432000896F040043500308D8A49DEF21F0200EAC
:10433000876F200E886F3E0E896F040082BEF2EFF9
:1043400021F0040043500108D8A4B5EF21F0562A0B
:104350000400180E565CD8A0B0EF21F0170E566E70
:1043600044C0A9FF56505DEC01F004004350020820
:10437000D8A4CFEF21F0452A04003C0E455CD8A01C
:10438000C4EF21F03B0E456E44282A6E2B6A2C6A3E
:104390002D6A2B362AC0A9FF45505DEC01F00400C0
:1043A00043500308D8A4EFEF21F04A2A0400650E19
:1043B0004A5CD8A0DEEF21F0640E4A6E020E44245F
:1043C0002A6E2B6A2C6A2D6A000E2B22000E2C22DC
:1043D000000E2D222AC0A9FF4A505DEC01F03C0ED0
:1043E0006BEC01F0040082BA89EF22F00400435024
:1043F0000108D8A420EF22F0560656C01AF0010E8C
:10440000A9EC01F02A6E56C01AF0170EA3EC01F0C9
:104410002E6E2AC01AF02E50D3EC01F02E6E2F6EA5
:10442000306E316E04002E502F1030103110D8B481
:104430001BEF22F0566A44C0A9FF56505DEC01F014
:10444000040043500208D8A450EF22F0450645C0AE
:104450001AF0010EA9EC01F02A6E45C01AF03B0ECD
:10446000A3EC01F02E6E2AC01AF02E50D3EC01F00E
:104470002E6E2F6E306E316E04002E502F103010C5
:104480003110D8B445EF22F0456A44282A6E2B6AD1
:104490002C6A2D6A2B362AC0A9FF45505DEC01F02D
:1044A000040043500308D8A486EF22F04A064AC00D
:1044B0001AF0010EA9EC01F02A6E4AC01AF0640E3F
:1044C000A3EC01F02E6E2AC01AF02E50D3EC01F0AE
:1044D0002E6E2F6E306E316E04002E502F10301065
:1044E0003110D8B475EF22F04A6A020E44242A6EC5
:1044F0002B6A2C6A2D6A000E2B22000E2C22000E35
:104500002D222AC0A9FF4A505DEC01F03C0E6BEC55
:1045100001F00400180E565CD8A090EF22F0566A05
:1045200004003C0E455CD8A097EF22F0456A0400D9
:10453000650E4A5CD8A09EEF22F04A6A04005E50E5
:104540000108D8A447EF23F004004E500108D8A476
:10455000FAEF22F0FE0EA3EC00F0020EA3EC00F046
:10456000530EA3EC00F0750EA3EC00F06E0EA3EC5E
:1045700000F0720EA3EC00F0690EA3EC00F0730ED5
:10458000A3EC00F0650EA3EC00F0200EA3EC00F00D
:10459000230EA3EC00F042507EEC00F0200EA3ECC2
:1045A00000F0200EA3EC00F04F0EA3EC00F04E0E36
:1045B000A3EC00F0200EA3EC00F0200EA3EC00F022
:1045C000200EA3EC00F0200EA3EC00F0200EA3ECD4
:1045D00000F0200EA3EC00F0200EA3EC00F0200E63
:1045E000A3EC00F0200EA3EC00F0200EA3EC00F0F2
:1045F00045EF23F0FE0EA3EC00F0020EA3EC00F05A
:10460000530EA3EC00F0750EA3EC00F06E0EA3ECBD
:1046100000F0720EA3EC00F0690EA3EC00F0730E34
:10462000A3EC00F0650EA3EC00F0200EA3EC00F06C
:10463000230EA3EC00F042507EEC00F0200EA3EC21
:1046400000F0200EA3EC00F04F0EA3EC00F0460E9D
:10465000A3EC00F0460EA3EC00F0200EA3EC00F05B
:10466000200EA3EC00F0200EA3EC00F0200EA3EC33
:1046700000F0200EA3EC00F0200EA3EC00F0200EC2
:10468000A3EC00F0200EA3EC00F0E2EF23F0040016
:104690004E500108D8A49AEF23F0FE0EA3EC00F0D0
:1046A000020EA3EC00F0530EA3EC00F0750EA3EC89
:1046B00000F06E0EA3EC00F0730EA3EC00F0650E9C
:1046C000A3EC00F0740EA3EC00F0200EA3EC00F0BD
:1046D000230EA3EC00F042507EEC00F0200EA3EC81
:1046E00000F0200EA3EC00F04F0EA3EC00F04E0EF5
:1046F000A3EC00F0200EA3EC00F0200EA3EC00F0E1
:10470000200EA3EC00F0200EA3EC00F0200EA3EC92
:1047100000F0200EA3EC00F0200EA3EC00F0200E21
:10472000A3EC00F0200EA3EC00F0200EA3EC00F0B0
:10473000E2EF23F0FE0EA3EC00F0020EA3EC00F07B
:10474000530EA3EC00F0750EA3EC00F06E0EA3EC7C
:1047500000F0730EA3EC00F0650EA3EC00F0740EF5
:10476000A3EC00F0200EA3EC00F0230EA3EC00F06D
:1047700042507EEC00F0200EA3EC00F0200EA3ECE3
:1047800000F04F0EA3EC00F0460EA3EC00F0460E36
:10479000A3EC00F0200EA3EC00F0200EA3EC00F040
:1047A000200EA3EC00F0200EA3EC00F0200EA3ECF2
:1047B00000F0200EA3EC00F0200EA3EC00F0200E81
:1047C000A3EC00F0040043500308D8A414EF24F035
:1047D000040042500108D8A4F3EF23F04AC072F05D
:1047E000736B746B756B040042500208D8A4FEEF23
:1047F00023F0726B4AC073F0746B756B0400425007
:104800000308D8A409EF24F0726B736B4AC074F0EC
:10481000756B040042500408D8A414EF24F0726BA6
:10482000736B746B4AC075F0FE0EA3EC00F0C00E03
:10483000A3EC00F08751A3EC00F0020E036E56C00B
:1048400022F0236A246A256A440E0A6E010E0B6E5A
:10485000F7EC00F03A0EA3EC00F08851A3EC00F066
:10486000020E036E45C022F0236A246A256A440EB4
:104870000A6E010E0B6EF7EC00F0200EA3EC00F0B8
:104880002A0EA3EC00F0200EA3EC00F08951A3EC5B
:1048900000F0030E036E4AC022F0236A246A256AE0
:1048A000440E0A6E010E0B6EF7EC00F0250EA3EC21
:1048B00000F0200EA3EC00F0200EA3EC00F0200E80
:1048C000A3EC00F0200EA3EC00F0200EA3EC00F00F
:1048D000200EA3EC00F0200EA3EC00F0200EA3ECC1
:1048E00000F0200EA3EC00F0200EA3EC00F0200E50
:1048F000A3EC00F0200EA3EC00F0200EA3EC00F0DF
:10490000040032B694EF24F032AE94EF24F0C1EC00
:1049100027F059C072F05AC073F05BC074F05CC0ED
:1049200075F0416A1AEF12F032B6328E32A6329E1C
:1049300032B4328C32A4329C32B0328832A03298F7
:1049400032B2328A32A2329A50EF21F0818C82B890
:10495000328682A8329682BC328082AC329082BE8D
:10496000328482AE329482BA328282AA32920400B7
:1049700032B0C7EF24F032A8C7EF24F0432A040076
:10498000030E435CD8A0C7EF24F0010E436E040071
:1049900032B660EF25F032AE60EF25F03BC01AF082
:1049A0001B6A1C6A1D6A010E87EC01F02A6E2B6AD5
:1049B0002C6A2D6A2AC026F02BC027F02CC028F0C4
:1049C0002DC029F0100E1E6E1F6A206A216A1CEC91
:1049D00002F02A6E23C02BF024C02CF025C02DF04D
:1049E0003BC01AF01B6A1C6A1D6A000E87EC01F0BE
:1049F0002E6E2F6A306A316A2A502E24526E3CC0C5
:104A00001AF01B6A1C6A1D6A010E87EC01F02A6EFF
:104A10002B6A2C6A2D6A2AC026F02BC027F02CC0E6
:104A200028F02DC029F0100E1E6E1F6A206A216A20
:104A30001CEC02F02A6E23C02BF024C02CF025C001
:104A40002DF03CC01AF01B6A1C6A1D6A000E87EC30
:104A500001F02E6E2F6A306A316A2A502E24516E70
:104A6000546ACD90800E0F6E0F0E116E020E0D6EF9
:104A7000800E106E0F0E126E010E0E6ED00E29EC0F
:104A800000F0000E29EC00F0545029EC00F05250D8
:104A900029EC00F0515029EC00F0505029EC00F0C6
:104AA0004F5029EC00F0535029EC00F0555027EC02
:104AB00000F0CD80140E6BEC01F0416A1AEF12F099
:104AC000040043500108D8A46CEF25F03E0E876F18
:104AD000200E886F76EF25F0040043500208D8A41A
:104AE00076EF25F0200E876F3E0E886F040082BEA1
:104AF0009EEF25F0040043500108D8A48CEF25F068
:104B00003C2A0400180E3C5CD8A089EF25F0170E53
:104B10003C6E3C0E6BEC01F0040043500208D8A43C
:104B20009EEF25F03B2A04003C0E3B5CD8A09BEF97
:104B300025F03B0E3B6E3C0E6BEC01F0040082BA9C
:104B4000F2EF25F0040043500108D8A4CAEF25F085
:104B50003C063CC01AF0010EA9EC01F02A6E3CC0E4
:104B60001AF0170EA3EC01F02E6E2AC01AF02E5088
:104B7000D3EC01F02E6E2F6E306E316E04002E508D
:104B80002F1030103110D8B4C7EF25F03C6A3C0E1E
:104B90006BEC01F0040043500208D8A4F2EF25F0BA
:104BA0003B063BC01AF0010EA9EC01F02A6E3BC097
:104BB0001AF03B0EA3EC01F02E6E2AC01AF02E5014
:104BC000D3EC01F02E6E2F6E306E316E04002E503D
:104BD0002F1030103110D8B4EFEF25F03B6A3C0EA7
:104BE0006BEC01F0FE0EA3EC00F0020EA3EC00F063
:104BF000520EA3EC00F0540EA3EC00F0430EA3EC15
:104C000000F0200EA3EC00F0200EA3EC00F0540EF8
:104C1000A3EC00F0690EA3EC00F06D0EA3EC00F025
:104C2000650EA3EC00F0200EA3EC00F0200EA3EC28
:104C300000F0200EA3EC00F0200EA3EC00F0200EFC
:104C4000A3EC00F0200EA3EC00F0200EA3EC00F08B
:104C5000200EA3EC00F0200EA3EC00F0200EA3EC3D
:104C600000F0200EA3EC00F0200EA3EC00F0FE0EEE
:104C7000A3EC00F0C00EA3EC00F08751A3EC00F011
:104C8000020E036E3CC022F0236A246A256A440E99
:104C90000A6E010E0B6EF7EC00F03A0EA3EC00F07A
:104CA0008851A3EC00F0020E036E3BC022F0236A91
:104CB000246A256A440E0A6E010E0B6EF7EC00F0B2
:104CC000200EA3EC00F0200EA3EC00F0200EA3ECCD
:104CD00000F0200EA3EC00F0200EA3EC00F0200E5C
:104CE000A3EC00F0200EA3EC00F0200EA3EC00F0EB
:104CF000200EA3EC00F0200EA3EC00F0200EA3EC9D
:104D000000F0200EA3EC00F0200EA3EC00F0200E2B
:104D1000A3EC00F032B6328E32A6329E32B4328C20
:104D200032A4329C32B0328832A0329832B2328A07
:104D300032A2329A0BD6818C82BE328482AE3294F9
:104D400082BA328282AA3292040082A0C7EF26F091
:104D500059C072F05AC073F05BC074F05CC075F05B
:104D6000030EA96E56EC01F05F6E04005F5001085F
:104D7000D8A4BDEF26F078EF04F004005F500208DD
:104D8000D8A4C7EF26F0010E436E93EF06F004009F
:104D900082BEDCEF26F04B2A0400650E4B5CD8A0E7
:104DA000D4EF26F0640E4B6E020EA96E4B505DECF4
:104DB00001F03C0E6BEC01F0040082BA07EF27F023
:104DC0004B064BC01AF0010EA9EC01F02A6E4BC045
:104DD0001AF0640EA3EC01F02E6E2AC01AF02E50C9
:104DE000D3EC01F02E6E2F6E306E316E04002E501B
:104DF0002F1030103110D8B4FFEF26F04B6A020E9E
:104E0000A96E4B505DEC01F03C0E6BEC01F0FE0E18
:104E1000A3EC00F0020EA3EC00F04D0EA3EC00F0AA
:104E2000610EA3EC00F0690EA3EC00F06E0EA3EC93
:104E300000F0740EA3EC00F0650EA3EC00F06E0E13
:104E4000A3EC00F0610EA3EC00F06E0EA3EC00F0FA
:104E5000630EA3EC00F0650EA3EC00F0200EA3ECB3
:104E600000F0250EA3EC00F0200EA3EC00F0200EC5
:104E7000A3EC00F0200EA3EC00F0200EA3EC00F059
:104E8000200EA3EC00F0200EA3EC00F0200EA3EC0B
:104E900000F0200EA3EC00F0200EA3EC00F0200E9A
:104EA000A3EC00F0FE0EA3EC00F0C00EA3EC00F0AB
:104EB000430EA3EC00F0680EA3EC00F0610EA3EC2F
:104EC00000F06E0EA3EC00F06E0EA3EC00F0650E89
:104ED000A3EC00F06C0EA3EC00F0200EA3EC00F0AD
:104EE000230EA3EC00F0310EA3EC00F0200EA3EC97
:104EF00000F02D0EA3EC00F0200EA3EC00F0030E4A
:104F0000036E4BC022F0236A246A256A440E0A6E9F
:104F1000010E0B6EF7EC00F0200EA3EC00F0250E56
:104F2000A3EC00F0200EA3EC00F0200EA3EC00F0A8
:104F3000200EA3EC00F0200EA3EC00F0200EA3EC5A
:104F400000F0200EA3EC00F0200EA3EC00F0200EE9
:104F5000A3EC00F0200EA3EC00F0200EA3EC00F078
:104F6000200EA3EC00F04BC072F0736B746B756B8A
:104F700032B4328C32A4329C32B2328A32A2329AA9
:104F8000DAD6080E416E0400490E415CD8B0E3EF5A
:104F900027F04150900FE96E000EEA6AEA22EF6AAC
:104FA00041C0A9FF56EC01F02A6E2B6A2C6A2D6ACB
:104FB0004150900FE96E000EEA6AEA222AC0EFFF24
:104FC000412AD8A0E0D71200010EA96E56EC01F0DC
:104FD000406E04004050FF08D8A490EF28F0080E5F
:104FE000416E0400490E415CD8B02DEF28F041C05D
:104FF000A9FF000E5DEC01F041282A6E2B6A2C6A95
:105000002D6A2B362AC0A9FF000E5DEC01F0020EBE
:1050100041242A6E2B6A2C6A2D6A000E2B22000E68
:105020002C22000E2D222AC0A9FF000E5DEC01F0FB
:10503000030E41242A6E2B6A2C6A2D6A000E2B2245
:10504000000E2C22000E2D222AC0A9FF000E5DECBE
:1050500001F0040E4126D8A0C4D7010EA96E010E9E
:105060005DEC01F0020EA96E0A0E5DEC01F0030E7C
:10507000A96E010E5DEC01F0500EA96E000E5DEC04
:1050800001F0510EA96E000E5DEC01F0520EA96EFA
:10509000000E5DEC01F0530EA96E000E5DEC01F008
:1050A000540EA96E000E5DEC01F0550EA96E000EB7
:1050B0005DEC01F0560EA96E000E5DEC01F0570E8E
:1050C000A96E000E5DEC01F0CD90800E0F6E0F0EFC
:1050D000116E020E0D6E800E106E0F0E126E010E0E
:1050E0000E6ED00E29EC00F0000E29EC00F0000E40
:1050F00029EC00F0000E29EC00F0000E29EC00F085
:10510000000E29EC00F0000E29EC00F0000E29EC56
:1051100000F0000E29EC00F0000E27EC00F0CD802E
:0651200012000300FED79F
:020000040030CA
:0A000000E03CFEFFFF79BBFFFC3F70
:00000001FF
