:020000040000FA
:10000000006AA4EF02F0008A00AA009A00B603D0AA
:10001000008644D827E2080E176E54D81636172EDD
:10002000FCD700AA2ED85CD855D800BA1BD821D846
:100030001650D890A1EF02F0008A00AA009A00B4EE
:1000400005D0FE0B016E0084D8900AD000B805D010
:100050001E6E008823D806E21E5027D803E200AAAD
:10006000A1EF02F00ED83CD800940098009601D879
:10007000F7D710C0EAFF0E3CE96EE9880C50EC128D
:1000800008D010C0EAFF0EC0E9FF0C1CEE16E9888C
:10009000EC16040E126E122EFED71200EADF20D8E4
:1000A000F0DF18D8015000B60109166E080E176E61
:1000B0001636D8B0DEDFD8A0E4DF12D80BD8172E62
:1000C000F7D7D7DF0DD810C0EAFF0EC0E9FF0C50FC
:1000D000EF14FF0F11C0EAFF0FC0E9FF0D1CD6D7C8
:1000E00011C0EAFF0FC0E9FF0D50EE12E9880D1CA8
:1000F000EC16CFD7E9501F6E8098809A809A92981C
:10010000929A929AF00E92161F5000B221D03A0E97
:10011000136EFC0E55EC01F0330E1E6E30D8100E2F
:10012000136E680E55EC01F02AD8640E54EC01F001
:1001300026D8220E1E6E23D8280E09D80C0E07D8FA
:10014000010E05D8060E03D800821F5001D0008092
:100150001E6E00A00BD0809A03080FE30ED8070E86
:10016000136ED00E55EC01F0D88012000080FE080E
:10017000D8B4A1EF02F0808A00D01E3A00A000900F
:100180008088F00E80161E500F0B801280981E3A49
:1001900000B0F5D7320E54EC01F0D8801200019E69
:1001A0000350D8B4018E0A0E026E3B0E196E9A0EE1
:1001B000186ECA0E176E000E35D8050E196EF50EA4
:1001C000186EE10E176E000E2DD8196A980E186E73
:1001D000960E176E800E26D8196A0F0E186E420EF4
:1001E000176E400E1FD8196A010E186E860E176E14
:1001F000A00E18D8196A186A270E176E100E12D89A
:10020000196A186A030E176EE80E0CD8196A186A74
:10021000176A640E07D8196A186A176A0A0E02D894
:100220001A500CD0166E1D50156E1C50146E1B50BB
:10023000136E1A50126ED5EC01F01250126E024E6F
:10024000019E035003E0025CD8B012001250D8A403
:10025000019E01BE1200300F9BEF02F0A66AA6803D
:10026000A850A92AA1EF02F0E86AA86EA66AA6849F
:10027000550EA76EAA0EA76EA682A6B2FED7A694AA
:10028000A92AA1EF02F0176A186A196A166EE86ABD
:100290001606175A185A195AD8A0A1EF02F0030EE1
:1002A000136EE50E02D8F3D7136AFB0F126E00D05F
:1002B000E86A01D01206135AFDE2000012001F6E18
:1002C0000A0E166E176A186A196AD5EC01F01F0635
:1002D000FCE21A501200D890123613361436153636
:1002E000FF0FF9E21250A1EF02F0D890153214324C
:1002F00013321232FF0FF9E21250A1EF02F0166E24
:10030000020E17D0166E030E14D0166E010E0FD00B
:10031000166E060E0ED0166E040E09D0166E040E62
:1003200008D0166E050E05D0166E050E04D0026EAE
:100330000FD0026E0AD0026E1950151815E619502A
:10034000155C08E11850145C05E11750135C02E1DC
:100350001650125C040ED8B0010ED8B4020E02146E
:10036000D8A4FF0EA1EF02F01550195CF3D7E86690
:10037000FF0E1214D8A4FF0EA1EF02F01210D8A4A1
:10038000FF0EA1EF02F0216A15AE06D0217EE86AC9
:10039000126C13561456155619AE08D0217EE86A11
:1003A000166C17561856195601D0216A1A6A1B6A1C
:1003B0001C6A1D6A200E1E6E15341A361B361C363A
:1003C0001D3616501A5E17501B5A18501C5A1950D9
:1003D0001D5A09E216501A2617501B2218501C22CB
:1003E00019501D22D89012361336143615361E2E8B
:1003F000E3D721AE09D0E86A126C1356145615568D
:100400001A6C1B561C561D561250A1EF02F01650C6
:100410001E02F3CF1AF0F4CF1BF017501F02F3CFD8
:100420001CF0F4CF1DF01E02F3501B26F4501C22CA
:10043000E86A1D2216501F02F3501B26F4501C229E
:10044000E86A1D2218501E02F3501C26F4501D228B
:1004500018501F02E86A126A1222F3501D26F45047
:10046000122216502002F3501C26F4501D22E86A76
:10047000136A1222132217502002F3501D26F45043
:100480001222E86A132218502002F3501226F45068
:10049000132219501F02F3501226F4501322195040
:1004A0002002E86A146A1422F3501326F45014222E
:1004B00019501E02F3501D26F4501222E86A13222E
:1004C000142219502102F4CF15F0F3501426E86AD3
:1004D000152216502102F3501D26F4501222E86A0C
:1004E00013221422152217502102F3501226F45021
:1004F0001322E86A1422152218502102F350132601
:10050000F4501422E86A152221AE08D01650125E6B
:100510001750135A1850145A1950155A19AE08D0BA
:100520001E50125E1F50135A2050145A2150155A53
:100530001A50A1EF02F0E96EFB6A0B50FA6E0A50F6
:10054000F96E00010000120072EF04F0090E126E45
:100550003D0E136E146A156A46C016F047C017F0B8
:10056000186A196A10DF486E13C049F048C012F0CB
:1005700049C013F0176A040ED1DED8A4D2EF02F0FE
:10058000D89667B3D886D8B6C7EF02F06785678379
:10059000D89667B1D886D8B6CFEF02F06785678165
:1005A000F6EF02F0D89667A3D886D8B6D9EF02F056
:1005B0006785679348C012F049C013F0176A000EB0
:1005C000A7DED8A4EEEF02F0D89667B1D886D8B6E9
:1005D000EBEF02F067856781F6EF02F0D89667A12E
:1005E000D886D8B6F5EF02F067856791126A090ED2
:1005F000136E3D0E146E156A46C016F047C017F014
:10060000186A196AC0DE486E13C049F0D89667A10F
:10061000D886D8B617EF03F048C012F049C013F0DF
:10062000146A156A020E66DE486E13C049F0D89649
:1006300067A3D886D8B628EF03F048C012F049C0A7
:1006400013F0146A156A020E55DE486E13C049F0A5
:100650004804686F6851BB5CD8B430EF03F067871B
:100660006829226E236A246A256A233622C012F082
:1006700023C013F0020E34DE486E13C049F048C0A8
:100680001EF049C01FF0206A216A44C016F045C020
:1006900017F0186A196ABBDE226E1BC023F01CC05B
:1006A00024F01DC025F022C012F023C013F024C096
:1006B00014F025C015F01668030E176E186A196A33
:1006C00062DE446E13C045F06651126E0508D8A074
:1006D0007CEF03F0FA6AFB6A1236FA36EC0E122649
:1006E000060EFA22000EFB221250F96E21D004D021
:1006F00009D00ED013D018D0BECF48F0BDCF49F0EE
:1007000098EF03F067CF48F066CF49F098EF03F019
:100710005ECF48F05DCF49F098EF03F058CF48F036
:1007200057CF49F098EF03F055CF48F054CF49F038
:1007300048C012F0136A146A156A020E70EC01F0D8
:10074000226E13C023F014C024F015C025F0300E23
:100750004914266E276A286A296A26C012F027C023
:1007600013F028C014F029C015F0040E7AEC01F043
:10077000266E13C027F014C028F015C029F02250AF
:100780002610486E23502710496E48C012F049C009
:1007900013F045C017F044507FEC01F0D8A436EFB9
:1007A00004F044C012F045C013F0146A156A020E3A
:1007B0007AEC01F0486E13C049F0030E4414226E27
:1007C000000E4514236E246A256A22C012F023C04D
:1007D00013F024C014F025C015F0040E70EC01F0E5
:1007E000226E13C023F014C024F015C025F00C0EA7
:1007F0002210496EBAA402EF04F09E929EB202EF5C
:1008000004F0FCD76651126E0508D8A01AEF04F068
:10081000FA6AFB6A1236FA36280E1226080EFA22F7
:10082000000EFB221250F96E21D004D009D00ED058
:1008300013D018D048C0BEFF49C0BDFF36EF04F04A
:1008400048C067FF49C066FF36EF04F048C05EFF4E
:1008500049C05DFF36EF04F048C058FF49C057FF5C
:1008600036EF04F048C055FF49C054FFBAB43AEF20
:1008700004F0BA84E86A67B5010F67B70109226E10
:10088000236A246A256A22C012F023C013F024C010
:1008900014F025C015F0196A186A176A010E94EC55
:1008A00001F0D8A471EF04F09E929EB259EF04F0CB
:1008B000FCD7D89667A5D886D8B668EF04F06795B8
:1008C00067B1BA8067A1BA9067B3BA8267A3BA92D8
:1008D000D89667A7D886D8B671EF04F0679768C036
:1008E000BBFF12000F01386B396BF19EF70E616E82
:1008F000780ED36ED26A800E9B6E070ECD6E386B6B
:10090000396B020E3A6F946892689368C80E0001C2
:1009100043EC01F08296949682989498829A949AE5
:10092000829C949C819693968190939082949494C7
:1009300093829388938A938C938E9384E968050EAF
:10094000EA6EED6AE950EA10FCE1EF6A300E426EA1
:10095000750E436E3C863C8C3C8A3C883D803C8EC8
:100960003B9C8286820E0E6E0F0E106E010E0C6E78
:10097000820E0F6E0F0E116E020E0D6E900E1EEC9B
:1009800000F0010E1EEC00F0000E1CEC00F0140E46
:1009900043EC01F0010EA96E2EEC01F08A6F8A5132
:1009A0000108D8B4D6EF04F090EC34F069EC3AF0DA
:1009B0003BAAE2EF04F0070EA96E2EEC01F0896F5E
:1009C00035EC33F01AEC3AF0050EA96E2EEC01F07E
:1009D000E8B03A80E8A03A90060EA96E2EEC01F03D
:1009E000E8B03A82E8A03A923AB0A5EF05F0640E7A
:1009F000A96E2EEC01F06C6F650EA96E2EEC01F065
:100A00006D6F660EA96E2EEC01F06E6F6CC01EF05D
:100A10001F6A206A216A166A040E176E186A196A1C
:100A200007EC02F0226E1BC023F01CC024F01DC096
:100A300025F022C012F023C013F024C014F025C00A
:100A400015F0640E166E176A186A196AC3EC01F085
:100A50008D6F13C08EF014C08FF015C090F06DC074
:100A60001EF01F6A206A216A166A040E176E186A41
:100A7000196A07EC02F0226E1BC023F01CC024F0A0
:100A80001DC025F022C012F023C013F024C014F0C2
:100A900025C015F0640E166E176A186A196AC3EC41
:100AA00001F0916F13C092F014C093F015C094F050
:100AB0006EC01EF01F6A206A216A166A040E176E45
:100AC000186A196A07EC02F0226E1BC023F01CC0E2
:100AD00024F01DC025F022C012F023C013F024C062
:100AE00014F025C015F0640E166E176A186A196A9C
:100AF000C3EC01F0956F13C096F014C097F015C0C9
:100B000098F0040E666F8DC044F08EC045F042C070
:100B100046F043C047F0A6EC02F0030E666F91C0AA
:100B200044F092C045F042C046F043C047F0A6EC06
:100B300002F0010E666F95C044F096C045F042C0C9
:100B400046F043C047F0A6EC02F03AB2E2EF05F0FF
:100B5000670EA96E2EEC01F06F6F6FC01EF01F6A5A
:100B6000206A216A166A040E176E186A196A07EC61
:100B700002F0226E1BC023F01CC024F01DC025F023
:100B800022C012F023C013F024C014F025C015F0C9
:100B9000640E166E176A186A196AC3EC01F0996F31
:100BA00013C09AF014C09BF015C09CF0020E666F43
:100BB00099C044F09AC045F042C046F043C047F0A7
:100BC000A6EC02F0FE0E7BEC00F0020E7BEC00F0D7
:100BD000410E7BEC00F0510E7BEC00F0550E7BECEF
:100BE00000F0410E7BEC00F02D0E7BEC00F04C0E83
:100BF0007BEC00F0450E7BEC00F0440E7BEC00F04B
:100C0000200E7BEC00F0200E7BEC00F0200E7BEC45
:100C100000F0200E7BEC00F0200E7BEC00F0200EAC
:100C20007BEC00F0200E7BEC00F0200E7BEC00F063
:100C3000200E7BEC00F0200E7BEC00F0200E7BEC15
:100C400000F0200E7BEC00F0FE0E7BEC00F0C00EFE
:100C50007BEC00F0440E7BEC00F0410E7BEC00F0EE
:100C60004E0E7BEC00F0450E7BEC00F0520E7BEC60
:100C700000F0200E7BEC00F0460E7BEC00F0570EEF
:100C80007BEC00F03A0E7BEC00F0330E7BEC00F0D6
:100C90002E0E7BEC00F0300E7BEC00F0200E7BEC97
:100CA00000F0200E7BEC00F0200E7BEC00F0200E1C
:100CB0007BEC00F0200E7BEC00F0200E7BEC00F0D3
:100CC000200E7BEC00F0050E176EDC0E44EC01F0FC
:100CD000010E8A6F6CEF06F069EC3AF04EEC36F0DC
:100CE0001EEC39F03BAE7FEF06F082A67EEF06F0F9
:100CF000010E8A6F7BEF16F07FEF06F082863AA82E
:100D0000C9EF06F082A6C8EF06F03AA090EF06F011
:100D10003A90050EA96E000E35EC01F0C6EF06F014
:100D20003A809DC012F09EC013F09FC014F0A0C086
:100D300015F0640E166E176A186A196AC3EC01F092
:100D40006C6FA1C012F0A2C013F0A3C014F0A4C035
:100D500015F0640E166E176A186A196AC3EC01F072
:100D60006D6FA5C012F0A6C013F0A7C014F0A8C004
:100D700015F0640E166E176A186A196AC3EC01F052
:100D80006E6F050EA96E010E35EC01F0C9EF06F08D
:100D900082863AA6F3EF06F082A6F2EF06F03AA2B8
:100DA000DAEF06F03A92060EA96E000E35EC01F06D
:100DB000F0EF06F03A82060EA96E010E35EC01F056
:100DC000A9C012F0AAC013F0ABC014F0ACC015F06B
:100DD000640E166E176A186A196AC3EC01F06F6F19
:100DE000F3EF06F082863BAA04EF07F082A603EF3A
:100DF00007F03B8C020EA96E2EEC01F0786FB7EF76
:100E000030F004EF07F0828681B212EF07F0702B0A
:100E1000330E705DD8A010EF07F082789498706B55
:100E200013EF07F0706B81B821EF07F0632B330EDF
:100E3000635DD8A01FEF07F0827A949A636B22EF6C
:100E400007F0636B3AB0D8EF07F0640EA96E2EEC92
:100E500001F06C6F650EA96E2EEC01F06D6F660EE1
:100E6000A96E2EEC01F06E6F6CC01EF01F6A206A36
:100E7000216A166A040E176E186A196A07EC02F0E6
:100E8000226E1BC023F01CC024F01DC025F022C020
:100E900012F023C013F024C014F025C015F0640E26
:100EA000166E176A186A196AC3EC01F08D6F13C0C9
:100EB0008EF014C08FF015C090F06DC01EF01F6A48
:100EC000206A216A166A040E176E186A196A07ECFE
:100ED00002F0226E1BC023F01CC024F01DC025F0C0
:100EE00022C012F023C013F024C014F025C015F066
:100EF000640E166E176A186A196AC3EC01F0916FD6
:100F000013C092F014C093F015C094F06EC01EF0A0
:100F10001F6A206A216A166A040E176E186A196A17
:100F200007EC02F0226E1BC023F01CC024F01DC091
:100F300025F022C012F023C013F024C014F025C005
:100F400015F0640E166E176A186A196AC3EC01F080
:100F5000956F13C096F014C097F015C098F0040E6A
:100F6000666F8DC044F08EC045F042C046F043C06D
:100F700047F0A6EC02F0030E666F91C044F092C0F9
:100F800045F042C046F043C047F0A6EC02F0010E27
:100F9000666F95C044F096C045F042C046F043C02D
:100FA00047F0A6EC02F04D0E3E6E3F6ADBEF07F015
:100FB000410E3E6E3F6A3AB21DEF08F0670EA96E11
:100FC0002EEC01F06F6F6FC01EF01F6A206A216A5D
:100FD000166A040E176E186A196A07EC02F0226E80
:100FE0001BC023F01CC024F01DC025F022C012F04D
:100FF00023C013F024C014F025C015F0640E166E43
:10100000176A186A196AC3EC01F0996F13C09AF055
:1010100014C09BF015C09CF0020E666F99C044F09E
:101020009AC045F042C046F043C047F0A6EC02F03B
:101030004D0E526E536A20EF08F0410E526E536A05
:101040008A2B5A0E8A5DD8B028EF08F0200E646F04
:101050008AC012F05A0E85EC01F0226E8AC012F09E
:10106000AA0E8BEC01F0266E22C012F02650B7ECCF
:1010700001F0266E276E286E296E26502710281044
:101080002910D8B446EF08F03A0E646FAB0E8A5DB3
:10109000D8A04CEF08F08A6BE86A3AB8E868226E8C
:1010A000E86A3AB6E868266E22C012F02650BEEC16
:1010B00001F0266E276E286E296EE86A3ABAE86853
:1010C0002A6E2650271028102910126E2A50BEECC6
:1010D00001F02A6E2B6E2C6E2D6EE86A3AB4E86829
:1010E0002E6E2A502B102C102D10126E2E50BEEC8E
:1010F00001F02E6E2F6E306E316EE86A3BBEE868EE
:10110000326E2E502F1030103110126E3250BEEC55
:1011100001F0326E336E346E356EE86A3BBAE868C1
:10112000366E3250331034103510126E3650BEEC1D
:1011300001F0366E376E386E396E36503710381013
:101140003910D8B4A6EF08F0406A416A40C012F0E6
:1011500041C013F0060E176EA40E82EC01F0D8A465
:10116000B8EF08F0402A000E41228286B9EF08F05D
:10117000829662C012F00A0E85EC01F0226E62C007
:1011800012F00F0E8BEC01F0266E22C012F02650EA
:10119000B7EC01F0266E276E286E296E62C012F041
:1011A000190E85EC01F02A6E265027102810291000
:1011B000126E2A50BEEC01F02A6E2B6E2C6E2D6E34
:1011C00062C012F01E0E8BEC01F02E6E2A502B1016
:1011D0002C102D10126E2E50B7EC01F02E6E2F6ECB
:1011E000306E316E62C012F02D0E85EC01F0326E61
:1011F0002E502F1030103110126E3250BEEC01F014
:10120000326E336E346E356E62C012F0320E8BEC7D
:1012100001F0366E3250331034103510126E3650E5
:10122000B7EC01F0366E376E386E396E36503710C7
:1012300038103910D8B45BEF09F0FE0E7BEC00F0EB
:10124000020E7BEC00F0410E7BEC00F0510E7BECCB
:1012500000F0550E7BEC00F0410E7BEC00F02D0E03
:101260007BEC00F04C0E7BEC00F0450E7BEC00F0CC
:10127000440E7BEC00F0200E7BEC00F0200E7BECAB
:1012800000F0540E7BEC00F03D0E7BEC00F0020E03
:10129000036E88C01AF01B6A1C6A1D6AF40E0A6E7F
:1012A0000B6ACFEC00F0DF0E7BEC00F0430E7BEC22
:1012B00000F09DEF09F0FE0E7BEC00F0020E7BECDF
:1012C00000F0410E7BEC00F0510E7BEC00F0550E6F
:1012D0007BEC00F0410E7BEC00F02D0E7BEC00F07F
:1012E0004C0E7BEC00F0450E7BEC00F0440E7BECEA
:1012F00000F0200E7BEC00F0200E7BEC00F0200EC6
:101300007BEC00F0020E036E60C01AF01B6A1C6AD0
:101310001D6AF40E0A6E0B6ACFEC00F064517BEC90
:1013200000F0020E036E5CC01AF01B6A1C6A1D6A94
:10133000F40E0A6E0B6ACFEC00F0E86A82B8E86837
:10134000226EE86A82BAE868266E22C012F0265041
:10135000B7EC01F0266E276E286E296E26502710F6
:1013600028102910D8B4EBEF09F0FE0E7BEC00F04A
:10137000C00E7BEC00F0310E7BEC00F03D0E7BEC00
:1013800000F04F0E7BEC00F04E0E7BEC00F0200ED8
:101390007BEC00F0320E7BEC00F03D0E7BEC00F0BD
:1013A0004F0E7BEC00F04E0E7BEC00F0200E7BEC41
:1013B00000F0200E7BEC00F0200E7BEC00F0200E05
:1013C0007BEC00F03E507BEC00F0230E7BEC00F059
:1013D00052507BEC00F0E86A82B8E868226EE86A56
:1013E00082AAE868266E22C012F02650B7EC01F0FF
:1013F000266E276E286E296E265027102810291079
:10140000D8B439EF0AF0FE0E7BEC00F0C00E7BEC96
:1014100000F0310E7BEC00F03D0E7BEC00F04F0E47
:101420007BEC00F04E0E7BEC00F0200E7BEC00F02D
:10143000320E7BEC00F03D0E7BEC00F04F0E7BECAF
:1014400000F0460E7BEC00F0460E7BEC00F0200E28
:101450007BEC00F0200E7BEC00F0200E7BEC00F02B
:101460003E507BEC00F0230E7BEC00F052507BEC06
:1014700000F0E86A82A8E868226EE86A82AAE86852
:10148000266E22C012F02650B7EC01F0266E276EB1
:10149000286E296E2650271028102910D8B487EFFF
:1014A0000AF0FE0E7BEC00F0C00E7BEC00F0310E7B
:1014B0007BEC00F03D0E7BEC00F04F0E7BEC00F07F
:1014C000460E7BEC00F0460E7BEC00F0200E7BEC31
:1014D00000F0320E7BEC00F03D0E7BEC00F04F0E86
:1014E0007BEC00F0460E7BEC00F0460E7BEC00F04F
:1014F000200E7BEC00F0200E7BEC00F03E507BECED
:1015000000F0230E7BEC00F052507BEC00F0E86A18
:1015100082A8E868226EE86A82BAE868266E22C06D
:1015200012F02650B7EC01F0266E276E286E296E59
:101530002650271028102910D8B4D5EF0AF0FE0E37
:101540007BEC00F0C00E7BEC00F0310E7BEC00F089
:101550003D0E7BEC00F04F0E7BEC00F0460E7BEC7A
:1015600000F0460E7BEC00F0200E7BEC00F0320E1B
:101570007BEC00F03D0E7BEC00F04F0E7BEC00F0BE
:101580004E0E7BEC00F0200E7BEC00F0200E7BEC8E
:1015900000F0200E7BEC00F03E507BEC00F0230EC0
:1015A0007BEC00F052507BEC00F0D9EC0AF06CEFD1
:1015B00006F05CC077F060C01EF01F6A206A216AE6
:1015C0003C0E166E176A186A196A07EC02F0226E52
:1015D0001BC023F01CC024F01DC025F05C50222449
:1015E000566EE86A2320576E7751875DD8B4FDEFB9
:1015F0000AF0010E766FFEEF0AF0766BCDC085F033
:10160000CEC074F0CFC07BF0D1C084F0D2C073F0F4
:10161000D3C07AF085C01EF01F6A206A216A3C0E92
:10162000166E176A186A196A07EC02F0226E1BC060
:1016300023F01CC024F01DC025F0745122244C6EF0
:10164000E86A23204D6E84C01EF01F6A206A216A5A
:101650003C0E166E176A186A196A07EC02F0226EC1
:101660001BC023F01CC024F01DC025F073512224A0
:101670004A6EE86A23204B6E4CC012F04DC013F046
:1016800057C017F0565088EC01F0226E4AC012F095
:101690004BC013F057C017F0565082EC01F0266E85
:1016A00022C012F02650B7EC01F0266E276E286E8D
:1016B000296E2650271028102910D8B41AEF0CF0E4
:1016C0004CC012F04DC013F057C017F056507FECCD
:1016D00001F0226E62510008D8A4E868FF0A266E65
:1016E00022C012F02650B7EC01F0266E276E286E4D
:1016F000296E2650271028102910D8B495EF0BF02A
:101700007BC01EF01F6A206A216A640E166E176A7B
:10171000186A196A07EC02F09D6F1BC09EF01CC08E
:101720009FF01DC0A0F01AEF0CF04AC012F04BC0A1
:1017300013F057C017F056507FEC01F0226E625143
:101740000008D8A4E868FF0A266E22C012F02650CE
:10175000B7EC01F0266E276E286E296E26502710F2
:1017600028102910D8B4CAEF0BF07AC01EF01F6AF7
:10177000206A216A640E166E176A186A196A07ECE5
:1017800002F09D6F1BC09EF01CC09FF01DC0A0F01A
:101790001AEF0CF076510108D8A41AEF0CF07B5127
:1017A0007A5D226EE86AD8A0E804236E246E256E66
:1017B00022C01EF023C01FF024C020F025C021F05D
:1017C000640E166E176A186A196A07EC02F0226E28
:1017D0001BC023F01CC024F01DC025F04C504A5CF7
:1017E000266E4D504B58276EE86AD8A0E804286E44
:1017F000296E22C012F023C013F024C014F025C0BB
:1018000015F026C016F027C017F028C018F029C020
:1018100019F0C3EC01F0266E13C027F014C028F0B5
:1018200015C029F026509D2727509E2328509F231E
:101830002950A023D5C085F0D6C074F0D7C07BF066
:10184000D9C084F0DAC073F0DBC07AF085C01EF036
:101850001F6A206A216A3C0E166E176A186A196A96
:1018600007EC02F0226E1BC023F01CC024F01DC048
:1018700025F0745122244C6EE86A23204D6E84C0FA
:101880001EF01F6A206A216A3C0E166E176A186ADB
:10189000196A07EC02F0226E1BC023F01CC024F072
:1018A0001DC025F0735122244A6EE86A23204B6E36
:1018B0004CC012F04DC013F057C017F0565088ECD2
:1018C00001F0226E4AC012F04BC013F057C017F05F
:1018D000565082EC01F0266E22C012F02650B7EC72
:1018E00001F0266E276E286E296E265027102810CC
:1018F0002910D8B436EF0DF04CC012F04DC013F0E3
:1019000057C017F056507FEC01F0226E625100086C
:10191000D8A4E868FF0A266E22C012F02650B7EC61
:1019200001F0266E276E286E296E2650271028108B
:101930002910D8B4B1EF0CF07BC01EF01F6A206AEA
:10194000216A640E166E176A186A196A07EC02F0AB
:101950009D6F1BC09EF01CC09FF01DC0A0F036EF15
:101960000DF04AC012F04BC013F057C017F056509C
:101970007FEC01F0226E62510008D8A4E868FF0AEB
:10198000266E22C012F02650B7EC01F0266E276EAC
:10199000286E296E2650271028102910D8B4E6EF9B
:1019A0000CF07AC01EF01F6A206A216A640E166E5F
:1019B000176A186A196A07EC02F09D6F1BC09EF047
:1019C0001CC09FF01DC0A0F036EF0DF0765101084D
:1019D000D8A436EF0DF07A517B5D226EE86AD8A06C
:1019E000E804236E246E256E22C01EF023C01FF073
:1019F00024C020F025C021F0640E166E176A186A04
:101A0000196A07EC02F0226E1BC023F01CC024F000
:101A10001DC025F04C504A5C266E4D504B58276E29
:101A2000E86AD8A0E804286E296E22C012F023C00C
:101A300013F024C014F025C015F026C016F027C0FE
:101A400017F028C018F029C019F0C3EC01F0266E79
:101A500013C027F014C028F015C029F026509D5F50
:101A600027509E5B28509F5B2950A05B9DC012F0C1
:101A70009EC013F09FC014F0A0C015F0640E166E47
:101A8000176A186A196AC3EC01F06C6FDDC085F043
:101A9000DEC074F0DFC07BF0E1C084F0E2C073F020
:101AA000E3C07AF085C01EF01F6A206A216A3C0EEE
:101AB000166E176A186A196A07EC02F0226E1BC0CC
:101AC00023F01CC024F01DC025F0745122244C6E5C
:101AD000E86A23204D6E84C01EF01F6A206A216AC6
:101AE0003C0E166E176A186A196A07EC02F0226E2D
:101AF0001BC023F01CC024F01DC025F0735122240C
:101B00004A6EE86A23204B6E4CC012F04DC013F0B1
:101B100057C017F0565088EC01F0226E4AC012F000
:101B20004BC013F057C017F0565082EC01F0266EF0
:101B300022C012F02650B7EC01F0266E276E286EF8
:101B4000296E2650271028102910D8B462EF0EF005
:101B50004CC012F04DC013F057C017F056507FEC38
:101B600001F0226E62510008D8A4E868FF0A266ED0
:101B700022C012F02650B7EC01F0266E276E286EB8
:101B8000296E2650271028102910D8B4DDEF0DF04B
:101B90007BC01EF01F6A206A216A640E166E176AE7
:101BA000186A196A07EC02F0A16F1BC0A2F01CC0F2
:101BB000A3F01DC0A4F062EF0EF04AC012F04BC0BB
:101BC00013F057C017F056507FEC01F0226E6251AF
:101BD0000008D8A4E868FF0A266E22C012F026503A
:101BE000B7EC01F0266E276E286E296E265027105E
:101BF00028102910D8B412EF0EF07AC01EF01F6A18
:101C0000206A216A640E166E176A186A196A07EC50
:101C100002F0A16F1BC0A2F01CC0A3F01DC0A4F075
:101C200062EF0EF076510108D8A462EF0EF07B51FE
:101C30007A5D226EE86AD8A0E804236E246E256ED1
:101C400022C01EF023C01FF024C020F025C021F0C8
:101C5000640E166E176A186A196A07EC02F0226E93
:101C60001BC023F01CC024F01DC025F04C504A5C62
:101C7000266E4D504B58276EE86AD8A0E804286EAF
:101C8000296E22C012F023C013F024C014F025C026
:101C900015F026C016F027C017F028C018F029C08C
:101CA00019F0C3EC01F0266E13C027F014C028F021
:101CB00015C029F02650A1272750A2232850A3237E
:101CC0002950A423E5C085F0E6C074F0E7C07BF09E
:101CD000E9C084F0EAC073F0EBC07AF085C01EF072
:101CE0001F6A206A216A3C0E166E176A186A196A02
:101CF00007EC02F0226E1BC023F01CC024F01DC0B4
:101D000025F0745122244C6EE86A23204D6E84C065
:101D10001EF01F6A206A216A3C0E166E176A186A46
:101D2000196A07EC02F0226E1BC023F01CC024F0DD
:101D30001DC025F0735122244A6EE86A23204B6EA1
:101D40004CC012F04DC013F057C017F0565088EC3D
:101D500001F0226E4AC012F04BC013F057C017F0CA
:101D6000565082EC01F0266E22C012F02650B7ECDD
:101D700001F0266E276E286E296E26502710281037
:101D80002910D8B47EEF0FF04CC012F04DC013F004
:101D900057C017F056507FEC01F0226E62510008D8
:101DA000D8A4E868FF0A266E22C012F02650B7ECCD
:101DB00001F0266E276E286E296E265027102810F7
:101DC0002910D8B4F9EF0EF07BC01EF01F6A206A0C
:101DD000216A640E166E176A186A196A07EC02F017
:101DE000A16F1BC0A2F01CC0A3F01DC0A4F07EEF29
:101DF0000FF04AC012F04BC013F057C017F0565006
:101E00007FEC01F0226E62510008D8A4E868FF0A56
:101E1000266E22C012F02650B7EC01F0266E276E17
:101E2000286E296E2650271028102910D8B42EEFBE
:101E30000FF07AC01EF01F6A206A216A640E166EC7
:101E4000176A186A196A07EC02F0A16F1BC0A2F0AA
:101E50001CC0A3F01DC0A4F07EEF0FF07651010866
:101E6000D8A47EEF0FF07A517B5D226EE86AD8A08D
:101E7000E804236E246E256E22C01EF023C01FF0DE
:101E800024C020F025C021F0640E166E176A186A6F
:101E9000196A07EC02F0226E1BC023F01CC024F06C
:101EA0001DC025F04C504A5C266E4D504B58276E95
:101EB000E86AD8A0E804286E296E22C012F023C078
:101EC00013F024C014F025C015F026C016F027C06A
:101ED00017F028C018F029C019F0C3EC01F0266EE5
:101EE00013C027F014C028F015C029F02650A15FB8
:101EF0002750A25B2850A35B2950A45BA1C012F01D
:101F0000A2C013F0A3C014F0A4C015F0640E166EA6
:101F1000176A186A196AC3EC01F06D6FEDC085F09D
:101F2000EEC074F0EFC07BF0F1C084F0F2C073F04B
:101F3000F3C07AF085C01EF01F6A206A216A3C0E49
:101F4000166E176A186A196A07EC02F0226E1BC037
:101F500023F01CC024F01DC025F0745122244C6EC7
:101F6000E86A23204D6E84C01EF01F6A206A216A31
:101F70003C0E166E176A186A196A07EC02F0226E98
:101F80001BC023F01CC024F01DC025F07351222477
:101F90004A6EE86A23204B6E4CC012F04DC013F01D
:101FA00057C017F0565088EC01F0226E4AC012F06C
:101FB0004BC013F057C017F0565082EC01F0266E5C
:101FC00022C012F02650B7EC01F0266E276E286E64
:101FD000296E2650271028102910D8B4AAEF10F027
:101FE0004CC012F04DC013F057C017F056507FECA4
:101FF00001F0226E62510008D8A4E868FF0A266E3C
:1020000022C012F02650B7EC01F0266E276E286E23
:10201000296E2650271028102910D8B425EF10F06B
:102020007BC01EF01F6A206A216A640E166E176A52
:10203000186A196A07EC02F0A56F1BC0A6F01CC055
:10204000A7F01DC0A8F0AAEF10F04AC012F04BC0D4
:1020500013F057C017F056507FEC01F0226E62511A
:102060000008D8A4E868FF0A266E22C012F02650A5
:10207000B7EC01F0266E276E286E296E26502710C9
:1020800028102910D8B45AEF10F07AC01EF01F6A39
:10209000206A216A640E166E176A186A196A07ECBC
:1020A00002F0A56F1BC0A6F01CC0A7F01DC0A8F0D1
:1020B000AAEF10F076510108D8A4AAEF10F07B51D6
:1020C0007A5D226EE86AD8A0E804236E246E256E3D
:1020D00022C01EF023C01FF024C020F025C021F034
:1020E000640E166E176A186A196A07EC02F0226EFF
:1020F0001BC023F01CC024F01DC025F04C504A5CCE
:10210000266E4D504B58276EE86AD8A0E804286E1A
:10211000296E22C012F023C013F024C014F025C091
:1021200015F026C016F027C017F028C018F029C0F7
:1021300019F0C3EC01F0266E13C027F014C028F08C
:1021400015C029F02650A5272750A6232850A723DD
:102150002950A823F5C085F0F6C074F0F7C07BF0D5
:10216000F9C084F0FAC073F0FBC07AF085C01EF0AD
:102170001F6A206A216A3C0E166E176A186A196A6D
:1021800007EC02F0226E1BC023F01CC024F01DC01F
:1021900025F0745122244C6EE86A23204D6E84C0D1
:1021A0001EF01F6A206A216A3C0E166E176A186AB2
:1021B000196A07EC02F0226E1BC023F01CC024F049
:1021C0001DC025F0735122244A6EE86A23204B6E0D
:1021D0004CC012F04DC013F057C017F0565088ECA9
:1021E00001F0226E4AC012F04BC013F057C017F036
:1021F000565082EC01F0266E22C012F02650B7EC49
:1022000001F0266E276E286E296E265027102810A2
:102210002910D8B4C6EF11F04CC012F04DC013F025
:1022200057C017F056507FEC01F0226E6251000843
:10223000D8A4E868FF0A266E22C012F02650B7EC38
:1022400001F0266E276E286E296E26502710281062
:102250002910D8B441EF11F07BC01EF01F6A206A2C
:10226000216A640E166E176A186A196A07EC02F082
:10227000A56F1BC0A6F01CC0A7F01DC0A8F0C6EF3C
:1022800011F04AC012F04BC013F057C017F056506F
:102290007FEC01F0226E62510008D8A4E868FF0AC2
:1022A000266E22C012F02650B7EC01F0266E276E83
:1022B000286E296E2650271028102910D8B476EFE2
:1022C00011F07AC01EF01F6A206A216A640E166E31
:1022D000176A186A196A07EC02F0A56F1BC0A6F00E
:1022E0001CC0A7F01DC0A8F0C6EF11F07651010880
:1022F000D8A4C6EF11F07A517B5D226EE86AD8A0AF
:10230000E804236E246E256E22C01EF023C01FF049
:1023100024C020F025C021F0640E166E176A186ADA
:10232000196A07EC02F0226E1BC023F01CC024F0D7
:102330001DC025F04C504A5C266E4D504B58276E00
:10234000E86AD8A0E804286E296E22C012F023C0E3
:1023500013F024C014F025C015F026C016F027C0D5
:1023600017F028C018F029C019F0C3EC01F0266E50
:1023700013C027F014C028F015C029F02650A55F1F
:102380002750A65B2850A75B2950A85BA5C012F078
:10239000A6C013F0A7C014F0A8C015F0640E166E06
:1023A000176A186A196AC3EC01F06E6FFDC085F0F8
:1023B000FEC074F0FFC07BF001C184F002C173F075
:1023C00003C17AF085C01EF01F6A206A216A3C0EA4
:1023D000166E176A186A196A07EC02F0226E1BC0A3
:1023E00023F01CC024F01DC025F0745122244C6E33
:1023F000E86A23204D6E84C01EF01F6A206A216A9D
:102400003C0E166E176A186A196A07EC02F0226E03
:102410001BC023F01CC024F01DC025F073512224E2
:102420004A6EE86A23204B6E4CC012F04DC013F088
:1024300057C017F0565088EC01F0226E4AC012F0D7
:102440004BC013F057C017F0565082EC01F0266EC7
:1024500022C012F02650B7EC01F0266E276E286ECF
:10246000296E2650271028102910D8B4F2EF12F048
:102470004CC012F04DC013F057C017F056507FEC0F
:1024800001F0226E62510008D8A4E868FF0A266EA7
:1024900022C012F02650B7EC01F0266E276E286E8F
:1024A000296E2650271028102910D8B46DEF12F08D
:1024B0007BC01EF01F6A206A216A640E166E176ABE
:1024C000186A196A07EC02F0A96F1BC0AAF01CC0B9
:1024D000ABF01DC0ACF0F2EF12F04AC012F04BC0EE
:1024E00013F057C017F056507FEC01F0226E625186
:1024F0000008D8A4E868FF0A266E22C012F0265011
:10250000B7EC01F0266E276E286E296E2650271034
:1025100028102910D8B4A2EF12F07AC01EF01F6A5A
:10252000206A216A640E166E176A186A196A07EC27
:1025300002F0A96F1BC0AAF01CC0ABF01DC0ACF02C
:10254000F2EF12F076510108D8A4F2EF12F07B51AD
:102550007A5D226EE86AD8A0E804236E246E256EA8
:1025600022C01EF023C01FF024C020F025C021F09F
:10257000640E166E176A186A196A07EC02F0226E6A
:102580001BC023F01CC024F01DC025F04C504A5C39
:10259000266E4D504B58276EE86AD8A0E804286E86
:1025A000296E22C012F023C013F024C014F025C0FD
:1025B00015F026C016F027C017F028C018F029C063
:1025C00019F0C3EC01F0266E13C027F014C028F0F8
:1025D00015C029F02650A9272750AA232850AB233D
:1025E0002950AC2305C185F006C174F007C17BF00A
:1025F00009C184F00AC173F00BC17AF085C01EF0E6
:102600001F6A206A216A3C0E166E176A186A196AD8
:1026100007EC02F0226E1BC023F01CC024F01DC08A
:1026200025F0745122244C6EE86A23204D6E84C03C
:102630001EF01F6A206A216A3C0E166E176A186A1D
:10264000196A07EC02F0226E1BC023F01CC024F0B4
:102650001DC025F0735122244A6EE86A23204B6E78
:102660004CC012F04DC013F057C017F0565088EC14
:1026700001F0226E4AC012F04BC013F057C017F0A1
:10268000565082EC01F0266E22C012F02650B7ECB4
:1026900001F0266E276E286E296E2650271028100E
:1026A0002910D8B40EEF14F04CC012F04DC013F046
:1026B00057C017F056507FEC01F0226E62510008AF
:1026C000D8A4E868FF0A266E22C012F02650B7ECA4
:1026D00001F0266E276E286E296E265027102810CE
:1026E0002910D8B489EF13F07BC01EF01F6A206A4E
:1026F000216A640E166E176A186A196A07EC02F0EE
:10270000A96F1BC0AAF01CC0ABF01DC0ACF00EEF4F
:1027100014F04AC012F04BC013F057C017F05650D7
:102720007FEC01F0226E62510008D8A4E868FF0A2D
:10273000266E22C012F02650B7EC01F0266E276EEE
:10274000286E296E2650271028102910D8B4BEEF05
:1027500013F07AC01EF01F6A206A216A640E166E9A
:10276000176A186A196A07EC02F0A96F1BC0AAF071
:102770001CC0ABF01DC0ACF00EEF14F07651010898
:10278000D8A40EEF14F07A517B5D226EE86AD8A0CF
:10279000E804236E246E256E22C01EF023C01FF0B5
:1027A00024C020F025C021F0640E166E176A186A46
:1027B000196A07EC02F0226E1BC023F01CC024F043
:1027C0001DC025F04C504A5C266E4D504B58276E6C
:1027D000E86AD8A0E804286E296E22C012F023C04F
:1027E00013F024C014F025C015F026C016F027C041
:1027F00017F028C018F029C019F0C3EC01F0266EBC
:1028000013C027F014C028F015C029F02650A95F86
:102810002750AA5B2850AB5B2950AC5BA9C012F0D3
:10282000AAC013F0ABC014F0ACC015F0640E166E65
:10283000176A186A196AC3EC01F06F6F7D510008BE
:10284000D8A400EF15F03BBC00EF15F03AA0C8EF9C
:1028500014F06CC01EF01F6A206A216A166A040E0A
:10286000176E186A196A07EC02F0226E1BC023F07B
:102870001CC024F01DC025F022C012F023C013F0AC
:1028800024C014F025C015F0640E166E176A186A7D
:10289000196AC3EC01F08D6F13C08EF014C08FF075
:1028A00015C090F06DC01EF01F6A206A216A166A7A
:1028B000040E176E186A196A07EC02F0226E1BC02C
:1028C00023F01CC024F01DC025F022C012F023C04C
:1028D00013F024C014F025C015F0640E166E176AAC
:1028E000186A196AC3EC01F0916F13C092F014C01A
:1028F00093F015C094F06EC01EF01F6A206A216A22
:10290000166A040E176E186A196A07EC02F0226E36
:102910001BC023F01CC024F01DC025F022C012F003
:1029200023C013F024C014F025C015F0640E166EF9
:10293000176A186A196AC3EC01F0956F13C096F014
:1029400014C097F015C098F0040E666F8DC044F067
:102950008EC045F042C046F043C047F0A6EC02F0FE
:10296000030E666F91C044F092C045F042C046F03D
:1029700043C047F0A6EC02F0010E666F95C044F02C
:1029800096C045F042C046F043C047F0A6EC02F0C6
:102990003AA200EF15F06FC01EF01F6A206A216A8C
:1029A000166A040E176E186A196A07EC02F0226E96
:1029B0001BC023F01CC024F01DC025F022C012F063
:1029C00023C013F024C014F025C015F0640E166E59
:1029D000176A186A196AC3EC01F0996F13C09AF06C
:1029E00014C09BF015C09CF0020E666F99C044F0B5
:1029F0009AC045F042C046F043C047F0A6EC02F052
:102A0000B551605DD8A4E868FF0A226EB6515C5CDF
:102A1000D8A4E868FF0A266E22C012F02650B7EC50
:102A200001F0266E276E286E296E62510008D8A428
:102A3000E868FF0A2A6E2650271028102910126E07
:102A40002A50B7EC01F02A6E2B6E2C6E2D6E2A5098
:102A50002B102C102D10D8B42FEF15F08288B75101
:102A6000605DD8A4E868FF0A226EB8515C5CD8A407
:102A7000E868FF0A266E22C012F02650B7EC01F07B
:102A8000266E276E286E296E62510008D8A4E86869
:102A9000FF0A2A6E2650271028102910126E2A507D
:102AA000B7EC01F02A6E2B6E2C6E2D6E2A502B1077
:102AB0002C102D10D8B45EEF15F08298B951605DDE
:102AC000D8A4E868FF0A226EBA515C5CD8A4E86812
:102AD000FF0A266E22C012F02650B7EC01F0266ED7
:102AE000276E286E296E62510008D8A4E868FF0A94
:102AF0002A6E2650271028102910126E2A50B7EC83
:102B000001F02A6E2B6E2C6E2D6E2A502B102C107D
:102B10002D10D8B48DEF15F08288BB51605DD8A41C
:102B2000E868FF0A226EBC515C5CD8A4E868FF0A22
:102B3000266E22C012F02650B7EC01F0266E276EEA
:102B4000286E296E62510008D8A4E868FF0A2A6E30
:102B50002650271028102910126E2A50B7EC01F0C9
:102B60002A6E2B6E2C6E2D6E2A502B102C102D10D1
:102B7000D8B4BCEF15F08298BD51605DD8A4E86868
:102B8000FF0A226EBE515C5CD8A4E868FF0A266E7C
:102B900022C012F02650B7EC01F0266E276E286E88
:102BA000296E62510008D8A4E868FF0A2A6E2650F0
:102BB000271028102910126E2A50B7EC01F02A6E47
:102BC0002B6E2C6E2D6E2A502B102C102D10D8B47D
:102BD000EBEF15F0828ABF51605DD8A4E868FF0A68
:102BE000226EC0515C5CD8A4E868FF0A266E22C041
:102BF00012F02650B7EC01F0266E276E286E296E73
:102C000062510008D8A4E868FF0A2A6E26502710EF
:102C100028102910126E2A50B7EC01F02A6E2B6E84
:102C20002C6E2D6E2A502B102C102D10D8B41AEFAC
:102C300016F0829AC151605DD8A4E868FF0A226E3E
:102C4000C2515C5CD8A4E868FF0A266E22C012F06C
:102C50002650B7EC01F0266E276E286E296E625161
:102C60000008D8A4E868FF0A2A6E2650271028100A
:102C70002910126E2A50B7EC01F02A6E2B6E2C6EC2
:102C80002D6E2A502B102C102D10D8B449EF16F0B1
:102C9000828AC351605DD8A4E868FF0A226EC451DD
:102CA0005C5CD8A4E868FF0A266E22C012F02650A9
:102CB000B7EC01F0266E276E286E296E625100086F
:102CC000D8A4E868FF0A2A6E265027102810291079
:102CD000126E2A50B7EC01F02A6E2B6E2C6E2D6E00
:102CE0002A502B102C102D10D8B478EF16F0829AA1
:102CF00077C087F012008286D9EC0AF03AA68BEFF3
:102D000016F08A510308D8A48AEF16F0030E8A6FD2
:102D10008BEF16F08A2B3AA898EF16F08A5101082B
:102D2000D8A497EF16F0010E8A6F98EF16F08A0775
:102D30003AAAA1EF16F0406A416A010E8A6F6CEF61
:102D400006F069EC3AF08A510108D8A447EF17F071
:102D5000FE0E7BEC00F0020E7BEC00F07E0E7BECB6
:102D600000F04C0E7BEC00F0450E7BEC00F0440EC6
:102D70007BEC00F02D0E7BEC00F06C0E7BEC00F099
:102D8000690E7BEC00F0670E7BEC00F0680E7BECCC
:102D900000F0740E7BEC00F0200E7BEC00F0200EB7
:102DA0007BEC00F0200E7BEC00F0200E7BEC00F0C2
:102DB000200E7BEC00F0200E7BEC00F0200E7BEC74
:102DC00000F0200E7BEC00F0200E7BEC00F0FE0EFD
:102DD0007BEC00F0C00E7BEC00F0200E7BEC00F0F2
:102DE000490E7BEC00F06E0E7BEC00F0740E7BEC79
:102DF00000F0650E7BEC00F0720E7BEC00F06E0EC6
:102E00007BEC00F0610E7BEC00F06C0E7BEC00F0D4
:102E1000200E7BEC00F0730E7BEC00F0770E7BEC69
:102E200000F0690E7BEC00F0740E7BEC00F0630E9A
:102E30007BEC00F0680E7BEC00F0200E7BEC00F0E9
:102E4000200E7BEC00F0200E7BEC00F0200E7BECE3
:102E500000F0200E7BEC00F0200E7BEC00F0200E4A
:102E60007BEC00F0200E7BEC00F0200E7BEC00F001
:102E7000200E7BEC00F0200E7BEC00F03BAE45EF2B
:102E800017F0010E8A6F58EF18F057EF18F08A51BB
:102E90000208D8A4D0EF17F0FE0E7BEC00F0020E73
:102EA0007BEC00F0200E7BEC00F04C0E7BEC00F095
:102EB000450E7BEC00F0440E7BEC00F02D0E7BEC1D
:102EC00000F06C0E7BEC00F0690E7BEC00F0670EFE
:102ED0007BEC00F0680E7BEC00F0740E7BEC00F0F5
:102EE000200E7BEC00F0200E7BEC00F0200E7BEC43
:102EF00000F0200E7BEC00F0200E7BEC00F0200EAA
:102F00007BEC00F0200E7BEC00F0200E7BEC00F060
:102F1000FE0E7BEC00F0C00E7BEC00F07E0E7BEC36
:102F200000F0490E7BEC00F06E0E7BEC00F0740EAE
:102F30007BEC00F0650E7BEC00F0720E7BEC00F099
:102F40006E0E7BEC00F0610E7BEC00F06C0E7BEC07
:102F500000F0200E7BEC00F0730E7BEC00F0770E9F
:102F60007BEC00F0690E7BEC00F0740E7BEC00F063
:102F7000630E7BEC00F0680E7BEC00F0200E7BEC27
:102F800000F0200E7BEC00F0200E7BEC00F03BAE5E
:102F9000CEEF17F0010E8A6FACEF24F057EF18F068
:102FA0008A510308D8A457EF18F0FE0E7BEC00F00E
:102FB000020E7BEC00F07E0E7BEC00F0540E7BECFE
:102FC00000F06F0E7BEC00F06F0E7BEC00F06C0EEF
:102FD0007BEC00F0730E7BEC00F0200E7BEC00F03D
:102FE000200E7BEC00F0200E7BEC00F0200E7BEC42
:102FF00000F0200E7BEC00F0200E7BEC00F0200EA9
:103000007BEC00F0200E7BEC00F0200E7BEC00F05F
:10301000200E7BEC00F0200E7BEC00F0200E7BEC11
:1030200000F0200E7BEC00F0FE0E7BEC00F0C00EFA
:103030007BEC00F0200E7BEC00F0200E7BEC00F02F
:10304000200E7BEC00F0200E7BEC00F0200E7BECE1
:1030500000F0200E7BEC00F0200E7BEC00F0200E48
:103060007BEC00F0200E7BEC00F0200E7BEC00F0FF
:10307000200E7BEC00F0200E7BEC00F0200E7BECB1
:1030800000F0200E7BEC00F0200E7BEC00F0200E18
:103090007BEC00F0200E7BEC00F0200E7BEC00F0CF
:1030A0003BAE57EF18F0010E8A6F45EF2FF023D695
:1030B000D9EC0AF069EC3AF03AA669EF18F08A51B7
:1030C0000208D8A468EF18F0020E8A6F69EF18F0B2
:1030D0008A2B3AA876EF18F08A510108D8A475EF28
:1030E00018F0010E8A6F76EF18F08A073AAA7DEF82
:1030F00018F0010E8A6F7BEF16F08A510108D8A4F0
:1031000012EF19F0FE0E7BEC00F0020E7BEC00F0EB
:103110007E0E7BEC00F0410E7BEC00F0750E7BEC3C
:1031200000F0740E7BEC00F06F0E7BEC00F06D0E87
:103130007BEC00F0610E7BEC00F0740E7BEC00F099
:10314000690E7BEC00F0630E7BEC00F0200E7BEC54
:1031500000F0200E7BEC00F0200E7BEC00F0200E47
:103160007BEC00F0200E7BEC00F0200E7BEC00F0FE
:10317000200E7BEC00F0200E7BEC00F0200E7BECB0
:1031800000F0200E7BEC00F0FE0E7BEC00F0C00E99
:103190007BEC00F0200E7BEC00F04D0E7BEC00F0A1
:1031A000610E7BEC00F06E0E7BEC00F0750E7BEC9C
:1031B00000F0610E7BEC00F06C0E7BEC00F0200E5A
:1031C0007BEC00F0200E7BEC00F0200E7BEC00F09E
:1031D000200E7BEC00F0200E7BEC00F0200E7BEC50
:1031E00000F0200E7BEC00F0200E7BEC00F0200EB7
:1031F0007BEC00F0200E7BEC00F0200E7BEC00F06E
:10320000200E7BEC00F0200E7BEC00F0200E7BEC1F
:1032100000F03BAE10EF19F0010E8A6FA6EF19F027
:10322000A5EF19F08A510208D8A4A5EF19F0FE0EF7
:103230007BEC00F0020E7BEC00F0200E7BEC00F04B
:10324000410E7BEC00F0750E7BEC00F0740E7BEC15
:1032500000F06F0E7BEC00F06D0E7BEC00F0610E69
:103260007BEC00F0740E7BEC00F0690E7BEC00F060
:10327000630E7BEC00F0200E7BEC00F0200E7BEC6C
:1032800000F0200E7BEC00F0200E7BEC00F0200E16
:103290007BEC00F0200E7BEC00F0200E7BEC00F0CD
:1032A000200E7BEC00F0200E7BEC00F0200E7BEC7F
:1032B00000F0200E7BEC00F0FE0E7BEC00F0C00E68
:1032C0007BEC00F07E0E7BEC00F04D0E7BEC00F012
:1032D000610E7BEC00F06E0E7BEC00F0750E7BEC6B
:1032E00000F0610E7BEC00F06C0E7BEC00F0200E29
:1032F0007BEC00F0200E7BEC00F0200E7BEC00F06D
:10330000200E7BEC00F0200E7BEC00F0200E7BEC1E
:1033100000F0200E7BEC00F0200E7BEC00F0200E85
:103320007BEC00F0200E7BEC00F0200E7BEC00F03C
:10333000200E7BEC00F0200E7BEC00F03BAEA5EF06
:1033400019F0010E8A6F98EF2AF0B2D6D9EC0AF084
:1033500069EC3AF03AA6B7EF19F08A510208D8A4FE
:10336000B6EF19F0020E8A6FB7EF19F08A2B3AA860
:10337000C4EF19F08A510108D8A4C3EF19F0010E67
:103380008A6FC4EF19F08A073AAACAEF19F0010E42
:103390008A6F8ED68A510108D8A46BEF1AF0FE0E00
:1033A0007BEC00F0020E7BEC00F07E0E7BEC00F07C
:1033B000410E7BEC00F0710E7BEC00F0750E7BECA7
:1033C00000F0610E7BEC00F0720E7BEC00F0690EF9
:1033D0007BEC00F0750E7BEC00F06D0E7BEC00F0EA
:1033E000200E7BEC00F06C0E7BEC00F0690E7BECA9
:1033F00000F0670E7BEC00F0680E7BEC00F0740EC2
:103400007BEC00F0200E7BEC00F0200E7BEC00F05B
:10341000200E7BEC00F0200E7BEC00F0200E7BEC0D
:1034200000F0200E7BEC00F0FE0E7BEC00F0C00EF6
:103430007BEC00F0200E7BEC00F0520E7BEC00F0F9
:103440006F0E7BEC00F06F0E7BEC00F06D0E7BECF2
:1034500000F0200E7BEC00F06C0E7BEC00F0690EAF
:103460007BEC00F0670E7BEC00F0680E7BEC00F06C
:10347000740E7BEC00F0200E7BEC00F0200E7BEC59
:1034800000F0200E7BEC00F0200E7BEC00F0200E14
:103490007BEC00F0200E7BEC00F0200E7BEC00F0CB
:1034A000200E7BEC00F0200E7BEC00F0200E7BEC7D
:1034B00000F0200E7BEC00F0200E7BEC00F0200EE4
:1034C0007BEC00F03BAE69EF1AF0010E8A6F01EF62
:1034D0001BF000EF1BF08A510208D8A400EF1BF08C
:1034E000FE0E7BEC00F0020E7BEC00F0200E7BEC7D
:1034F00000F0410E7BEC00F0710E7BEC00F0750EDD
:103500007BEC00F0610E7BEC00F0720E7BEC00F0C7
:10351000690E7BEC00F0750E7BEC00F06D0E7BEC21
:1035200000F0200E7BEC00F06C0E7BEC00F0690EDE
:103530007BEC00F0670E7BEC00F0680E7BEC00F09B
:10354000740E7BEC00F0200E7BEC00F0200E7BEC88
:1035500000F0200E7BEC00F0200E7BEC00F0200E43
:103560007BEC00F0FE0E7BEC00F0C00E7BEC00F07C
:103570007E0E7BEC00F0520E7BEC00F06F0E7BECCD
:1035800000F06F0E7BEC00F06D0E7BEC00F0200E77
:103590007BEC00F06C0E7BEC00F0690E7BEC00F035
:1035A000670E7BEC00F0680E7BEC00F0740E7BEC99
:1035B00000F0200E7BEC00F0200E7BEC00F0200EE3
:1035C0007BEC00F0200E7BEC00F0200E7BEC00F09A
:1035D000200E7BEC00F0200E7BEC00F0200E7BEC4C
:1035E00000F0200E7BEC00F0200E7BEC00F03BAEF8
:1035F00000EF1BF0010E8A6F040E586ECBEF1CF02B
:10360000A5D6D9EC0AF069EC3AF03AA612EF1BF015
:103610008A510308D8A411EF1BF0030E8A6F12EF32
:103620001BF08A2B3AA81FEF1BF08A510108D8A47F
:103630001EEF1BF0010E8A6F1FEF1BF08A073AAADC
:1036400025EF1BF0010E8A6F81D68A510108D8A49C
:10365000B3EF1BF0FE0E7BEC00F0020E7BEC00F0F3
:103660007E0E7BEC00F0430E7BEC00F0680E7BECF2
:1036700000F0610E7BEC00F06E0E7BEC00F06E0E45
:103680007BEC00F0650E7BEC00F06C0E7BEC00F048
:10369000200E7BEC00F0230E7BEC00F0310E7BEC77
:1036A00000F0200E7BEC00F0200E7BEC00F0200EF2
:1036B0007BEC00F0200E7BEC00F0200E7BEC00F0A9
:1036C000200E7BEC00F0200E7BEC00F0200E7BEC5B
:1036D00000F0FE0E7BEC00F0C00E7BEC00F0200E44
:1036E0007BEC00F0430E7BEC00F0680E7BEC00F00E
:1036F000610E7BEC00F06E0E7BEC00F06E0E7BEC4E
:1037000000F0650E7BEC00F06C0E7BEC00F0200E00
:103710007BEC00F0230E7BEC00F0320E7BEC00F033
:10372000200E7BEC00F0200E7BEC00F0200E7BECFA
:1037300000F0200E7BEC00F0200E7BEC00F0200E61
:103740007BEC00F0200E7BEC00F0200E7BEC00F018
:103750003BAEB1EF1BF0010E586E010E8A6FCBEF3E
:103760001CF0CAEF1CF08A510208D8A441EF1CF0EB
:10377000FE0E7BEC00F0020E7BEC00F0200E7BECEA
:1037800000F0430E7BEC00F0680E7BEC00F0610E65
:103790007BEC00F06E0E7BEC00F06E0E7BEC00F02C
:1037A000650E7BEC00F06C0E7BEC00F0200E7BECE9
:1037B00000F0230E7BEC00F0310E7BEC00F0200ECD
:1037C0007BEC00F0200E7BEC00F0200E7BEC00F098
:1037D000200E7BEC00F0200E7BEC00F0200E7BEC4A
:1037E00000F0200E7BEC00F0FE0E7BEC00F0C00E33
:1037F0007BEC00F07E0E7BEC00F0430E7BEC00F0E7
:10380000680E7BEC00F0610E7BEC00F06E0E7BEC42
:1038100000F06E0E7BEC00F0650E7BEC00F06C0EA1
:103820007BEC00F0200E7BEC00F0230E7BEC00F034
:10383000320E7BEC00F0200E7BEC00F0200E7BECD7
:1038400000F0200E7BEC00F0200E7BEC00F0200E50
:103850007BEC00F0200E7BEC00F0200E7BEC00F007
:10386000200E7BEC00F0200E7BEC00F03BAE3FEF37
:103870001CF0020E586E010E8A6FCBEF1CF0CAEFDF
:103880001CF08A510308D8A4CAEF1CF0FE0E7BEC92
:1038900000F0020E7BEC00F07E0E7BEC00F0430E9D
:1038A0007BEC00F0680E7BEC00F0610E7BEC00F02E
:1038B0006E0E7BEC00F06E0E7BEC00F0650E7BEC88
:1038C00000F06C0E7BEC00F0200E7BEC00F0230E81
:1038D0007BEC00F0330E7BEC00F0200E7BEC00F074
:1038E000200E7BEC00F0200E7BEC00F0200E7BEC39
:1038F00000F0200E7BEC00F0200E7BEC00F0200EA0
:103900007BEC00F0200E7BEC00F0200E7BEC00F056
:10391000FE0E7BEC00F0C00E7BEC00F0200E7BEC8A
:1039200000F0200E7BEC00F0200E7BEC00F0200E6F
:103930007BEC00F0200E7BEC00F0200E7BEC00F026
:10394000200E7BEC00F0200E7BEC00F0200E7BECD8
:1039500000F0200E7BEC00F0200E7BEC00F0200E3F
:103960007BEC00F0200E7BEC00F0200E7BEC00F0F6
:10397000200E7BEC00F0200E7BEC00F0200E7BECA8
:1039800000F03BAECAEF1CF0030E586E010E8A6FBA
:10399000CBEF1CF036D6D9EC0AF069EC3AF03AA637
:1039A000DCEF1CF08A510208D8A4DBEF1CF0020EF9
:1039B0008A6FDCEF1CF08A2B3AA8E9EF1CF08A51E1
:1039C0000108D8A4E8EF1CF0010E8A6FE9EF1CF0A3
:1039D0008A073AAAFAEF1CF058500408D8A4F7EF67
:1039E0001CF0020E8A6FA6EF19F0FAEF1CF058C017
:1039F0008AF007D68A510108D8A479EF1DF0FE0E8F
:103A00007BEC00F0020E7BEC00F07E0E7BEC00F015
:103A1000530E7BEC00F0750E7BEC00F06E0E7BEC31
:103A200000F0720E7BEC00F0690E7BEC00F0730E80
:103A30007BEC00F0650E7BEC00F0200E7BEC00F0E0
:103A4000200E7BEC00F0200E7BEC00F0200E7BECD7
:103A500000F0200E7BEC00F0200E7BEC00F0200E3E
:103A60007BEC00F0200E7BEC00F0200E7BEC00F0F5
:103A7000200E7BEC00F0FE0E7BEC00F0C00E7BEC29
:103A800000F0200E7BEC00F0530E7BEC00F0750E86
:103A90007BEC00F06E0E7BEC00F0730E7BEC00F024
:103AA000650E7BEC00F0740E7BEC00F0200E7BECDE
:103AB00000F0200E7BEC00F0200E7BEC00F0200EDE
:103AC0007BEC00F0200E7BEC00F0200E7BEC00F095
:103AD000200E7BEC00F0200E7BEC00F0200E7BEC47
:103AE00000F0200E7BEC00F0200E7BEC00F014EFD9
:103AF0001EF08A510208D8A414EF1EF0FE0E7BECD3
:103B000000F0020E7BEC00F0200E7BEC00F0530E78
:103B10007BEC00F0750E7BEC00F06E0E7BEC00F0A1
:103B2000720E7BEC00F0690E7BEC00F0730E7BEC08
:103B300000F0650E7BEC00F0200E7BEC00F0200E18
:103B40007BEC00F0200E7BEC00F0200E7BEC00F014
:103B5000200E7BEC00F0200E7BEC00F0200E7BECC6
:103B600000F0200E7BEC00F0200E7BEC00F0200E2D
:103B70007BEC00F0200E7BEC00F0200E7BEC00F0E4
:103B8000200E7BEC00F0200E7BEC00F0200E7BEC96
:103B900000F0200E7BEC00F0200E7BEC00F0200EFD
:103BA0007BEC00F0FE0E7BEC00F0C00E7BEC00F036
:103BB0007E0E7BEC00F0530E7BEC00F0750E7BEC80
:103BC00000F06E0E7BEC00F0730E7BEC00F0650EE7
:103BD0007BEC00F0740E7BEC00F0200E7BEC00F030
:103BE000200E7BEC00F0200E7BEC00F0200E7BEC36
:103BF00000F0200E7BEC00F0200E7BEC00F0200E9D
:103C00007BEC00F0200E7BEC00F0200E7BEC00F053
:103C1000200E7BEC00F0200E7BEC00F0200E7BEC05
:103C200000F0200E7BEC00F03BAEE7EF1FF08A5176
:103C30000108D8A41DEF1EF03A9C8A510208D8A4AE
:103C400023EF1EF03A8C58500108D8A4E868FF0A08
:103C5000226EE86A3AACE868266E22C012F026505E
:103C6000B7EC01F0266E276E286E296E26502710BD
:103C700028102910D8B45BEF1EF0080EA96E2EECA8
:103C800001F05E6E090EA96E2EEC01F05A6E0A0E5E
:103C9000A96E2EEC01F06A6F0C0EA96E2EEC01F0ED
:103CA0005F6E0D0EA96E2EEC01F05B6E0E0EA96E0E
:103CB0002EEC01F06B6F58500108D8A4E868FF0A99
:103CC000226EE86A3ABCE868266E22C012F02650DE
:103CD000B7EC01F0266E276E286E296E265027104D
:103CE00028102910D8B493EF1EF0100EA96E2EECF8
:103CF00001F05E6E110EA96E2EEC01F05A6E120EDE
:103D0000A96E2EEC01F06A6F140EA96E2EEC01F074
:103D10005F6E150EA96E2EEC01F05B6E160EA96E8D
:103D20002EEC01F06B6F58500208D8A4E868FF0A27
:103D3000226EE86A3AACE868266E22C012F026507D
:103D4000B7EC01F0266E276E286E296E26502710DC
:103D500028102910D8B4CBEF1EF0180EA96E2EEC47
:103D600001F05E6E190EA96E2EEC01F05A6E1A0E5D
:103D7000A96E2EEC01F06A6F1C0EA96E2EEC01F0FC
:103D80005F6E1D0EA96E2EEC01F05B6E1E0EA96E0D
:103D90002EEC01F06B6F58500208D8A4E868FF0AB7
:103DA000226EE86A3ABCE868266E22C012F02650FD
:103DB000B7EC01F0266E276E286E296E265027106C
:103DC00028102910D8B403EF1FF0200EA96E2EEC96
:103DD00001F05E6E210EA96E2EEC01F05A6E220EDD
:103DE000A96E2EEC01F06A6F240EA96E2EEC01F084
:103DF0005F6E250EA96E2EEC01F05B6E260EA96E8D
:103E00002EEC01F06B6F58500308D8A4E868FF0A45
:103E1000226EE86A3AACE868266E22C012F026509C
:103E2000B7EC01F0266E276E286E296E26502710FB
:103E300028102910D8B43BEF1FF0280EA96E2EECE5
:103E400001F05E6E290EA96E2EEC01F05A6E2A0E5C
:103E5000A96E2EEC01F06A6F2C0EA96E2EEC01F00B
:103E60005F6E2D0EA96E2EEC01F05B6E2E0EA96E0C
:103E70002EEC01F06B6F58500308D8A4E868FF0AD5
:103E8000226EE86A3ABCE868266E22C012F026501C
:103E9000B7EC01F0266E276E286E296E265027108B
:103EA00028102910D8B473EF1FF0300EA96E2EEC35
:103EB00001F05E6E310EA96E2EEC01F05A6E320EDC
:103EC000A96E2EEC01F06A6F340EA96E2EEC01F093
:103ED0005F6E350EA96E2EEC01F05B6E360EA96E8C
:103EE0002EEC01F06B6F58500408D8A4E868FF0A64
:103EF000226EE86A3AACE868266E22C012F02650BC
:103F0000B7EC01F0266E276E286E296E265027101A
:103F100028102910D8B4ABEF1FF0380EA96E2EEC84
:103F200001F05E6E390EA96E2EEC01F05A6E3A0E5B
:103F3000A96E2EEC01F06A6F3C0EA96E2EEC01F01A
:103F40005F6E3D0EA96E2EEC01F05B6E3E0EA96E0B
:103F50002EEC01F06B6F58500408D8A4E868FF0AF3
:103F6000226EE86A3ABCE868266E22C012F026503B
:103F7000B7EC01F0266E276E286E296E26502710AA
:103F800028102910D8B4E3EF1FF0400EA96E2EECD4
:103F900001F05E6E410EA96E2EEC01F05A6E420EDB
:103FA000A96E2EEC01F06A6F440EA96E2EEC01F0A2
:103FB0005F6E450EA96E2EEC01F05B6E460EA96E8B
:103FC0002EEC01F06B6F010E8A6FE9EF1FF0CBEF63
:103FD0001CF0D9EC0AF069EC3AF03AA4FAEF1FF0C1
:103FE0008A510608D8A4F9EF1FF0010E8A6FFAEF84
:103FF0001FF08A2B8A510108D8A40BEF20F07E0E07
:10400000AE6F200EAF6F200EB06F200EB16F200E7E
:10401000B26F200EB36F8A510208D8A41CEF20F0B3
:10402000200EAE6F7E0EAF6F200EB06F200EB16F00
:10403000200EB26F200EB36F8A510308D8A42DEF63
:1040400020F0200EAE6F200EAF6F7E0EB06F200EF0
:10405000B16F200EB26F200EB36F8A510408D8A43E
:104060003EEF20F0200EAE6F200EAF6F200EB06F2F
:104070007E0EB16F200EB26F200EB36F8A5105080D
:10408000D8A44FEF20F0200EAE6F200EAF6F200EA1
:10409000B06F200EB16F7E0EB26F200EB36F8A51DB
:1040A0000608D8A460EF20F0200EAE6F200EAF6F90
:1040B000200EB06F200EB16F200EB26F7E0EB36F68
:1040C0003AAA6EEF20F03ABC6AEF20F0010E8A6F38
:1040D0006CEF20F0020E8A6FCBEF1CF081BC5BEF1F
:1040E00021F08A510108D8A498EF20F05E2A5EC022
:1040F00012F0010E8BEC01F0226E5EC012F0170E72
:1041000085EC01F0266E22C012F02650BEEC01F0C4
:10411000266E276E286E296E26502710281029102B
:10412000D8B495EF20F0170E5E6E6E0E43EC01F0E2
:104130008A510208D8A4BFEF20F05A2A5AC012F0C0
:10414000010E8BEC01F0226E5AC012F03B0E85EC92
:1041500001F0266E22C012F02650BEEC01F0266E51
:10416000276E286E296E2650271028102910D8B4E3
:10417000BCEF20F03B0E5A6E6E0E43EC01F08A51FC
:104180000308D8A4E6EF20F06A2B6AC012F0010EF3
:104190008BEC01F0226E6AC012F0640E85EC01F027
:1041A000266E22C012F02650BEEC01F0266E276E5D
:1041B000286E296E2650271028102910D8B4E3EF56
:1041C00020F0640E6A6F6E0E43EC01F08A51040811
:1041D000D8A40DEF21F05F2A5FC012F0010E8BEC26
:1041E00001F0226E5FC012F0170E85EC01F0266E12
:1041F00022C012F02650BEEC01F0266E276E286E0B
:10420000296E2650271028102910D8B40AEF21F063
:10421000170E5F6E6E0E43EC01F08A510508D8A4AC
:1042200034EF21F05B2A5BC012F0010E8BEC01F041
:10423000226E5BC012F03B0E85EC01F0266E22C0B0
:1042400012F02650BEEC01F0266E276E286E296E05
:104250002650271028102910D8B431EF21F03B0E3A
:104260005B6E6E0E43EC01F08A510608D8A45BEF3A
:1042700021F06B2B6BC012F0010E8BEC01F0226E63
:104280006BC012F0640E85EC01F0266E22C012F0B5
:104290002650BEEC01F0266E276E286E296E265041
:1042A000271028102910D8B458EF21F0640E6B6F36
:1042B0006E0E43EC01F081BA42EF22F08A51010800
:1042C000D8A484EF21F05E065EC012F0010E8BECE4
:1042D00001F0226E5EC012F0170E85EC01F0266E22
:1042E00022C012F02650BEEC01F0266E276E286E1A
:1042F000296E2650271028102910D8B481EF21F0FC
:104300005E6A6E0E43EC01F08A510208D8A4AAEF4F
:1043100021F05A065AC012F0010E8BEC01F0226E09
:104320005AC012F03B0E85EC01F0266E22C012F04E
:104330002650BEEC01F0266E276E286E296E2650A0
:10434000271028102910D8B4A7EF21F05A6A6E0E52
:1043500043EC01F08A510308D8A4D0EF21F06A079A
:104360006AC012F0010E8BEC01F0226E6AC012F0EE
:10437000640E85EC01F0266E22C012F02650BEECD1
:1043800001F0266E276E286E296E26502710281001
:104390002910D8B4CDEF21F06A6B6E0E43EC01F01A
:1043A0008A510408D8A4F6EF21F05F065FC012F02E
:1043B000010E8BEC01F0226E5FC012F0170E85EC3F
:1043C00001F0266E22C012F02650BEEC01F0266EDF
:1043D000276E286E296E2650271028102910D8B471
:1043E000F3EF21F05F6A6E0E43EC01F08A5105088D
:1043F000D8A41CEF22F05B065BC012F0010E8BEC20
:1044000001F0226E5BC012F03B0E85EC01F0266ECF
:1044100022C012F02650BEEC01F0266E276E286EE8
:10442000296E2650271028102910D8B419EF22F031
:104430005B6A6E0E43EC01F08A510608D8A442EF85
:1044400022F06B076BC012F0010E8BEC01F0226EB4
:104450006BC012F0640E85EC01F0266E22C012F0E3
:104460002650BEEC01F0266E276E286E296E26506F
:10447000271028102910D8B43FEF22F06B6B6E0E76
:1044800043EC01F03BAE14EF24F058500108D8A4DF
:10449000E868FF0A226EE86A3AACE868266E22C035
:1044A00012F02650B7EC01F0266E276E286E296EAA
:1044B0002650271028102910D8B47DEF22F0080EBE
:1044C000A96E5E5035EC01F0090EA96E5A5035EC1C
:1044D00001F00A0EA96E6A5135EC01F00C0EA96EBE
:1044E0005F5035EC01F00D0EA96E5B5035EC01F01C
:1044F0000E0EA96E6B5135EC01F058500108D8A48E
:10450000E868FF0A226EE86A3ABCE868266E22C0B4
:1045100012F02650B7EC01F0266E276E286E296E39
:104520002650271028102910D8B4B5EF22F0100E0D
:10453000A96E5E5035EC01F0110EA96E5A5035ECA3
:1045400001F0120EA96E6A5135EC01F0140EA96E3D
:104550005F5035EC01F0150EA96E5B5035EC01F0A3
:10456000160EA96E6B5135EC01F058500208D8A414
:10457000E868FF0A226EE86A3AACE868266E22C054
:1045800012F02650B7EC01F0266E276E286E296EC9
:104590002650271028102910D8B4EDEF22F0180E5D
:1045A000A96E5E5035EC01F0190EA96E5A5035EC2B
:1045B00001F01A0EA96E6A5135EC01F01C0EA96EBD
:1045C0005F5035EC01F01D0EA96E5B5035EC01F02B
:1045D0001E0EA96E6B5135EC01F058500208D8A49C
:1045E000E868FF0A226EE86A3ABCE868266E22C0D4
:1045F00012F02650B7EC01F0266E276E286E296E59
:104600002650271028102910D8B425EF23F0200EAB
:10461000A96E5E5035EC01F0210EA96E5A5035ECB2
:1046200001F0220EA96E6A5135EC01F0240EA96E3C
:104630005F5035EC01F0250EA96E5B5035EC01F0B2
:10464000260EA96E6B5135EC01F058500308D8A422
:10465000E868FF0A226EE86A3AACE868266E22C073
:1046600012F02650B7EC01F0266E276E286E296EE8
:104670002650271028102910D8B45DEF23F0280EFB
:10468000A96E5E5035EC01F0290EA96E5A5035EC3A
:1046900001F02A0EA96E6A5135EC01F02C0EA96EBC
:1046A0005F5035EC01F02D0EA96E5B5035EC01F03A
:1046B0002E0EA96E6B5135EC01F058500308D8A4AA
:1046C000E868FF0A226EE86A3ABCE868266E22C0F3
:1046D00012F02650B7EC01F0266E276E286E296E78
:1046E0002650271028102910D8B495EF23F0300E4B
:1046F000A96E5E5035EC01F0310EA96E5A5035ECC2
:1047000001F0320EA96E6A5135EC01F0340EA96E3B
:104710005F5035EC01F0350EA96E5B5035EC01F0C1
:10472000360EA96E6B5135EC01F058500408D8A430
:10473000E868FF0A226EE86A3AACE868266E22C092
:1047400012F02650B7EC01F0266E276E286E296E07
:104750002650271028102910D8B4CDEF23F0380E9A
:10476000A96E5E5035EC01F0390EA96E5A5035EC49
:1047700001F03A0EA96E6A5135EC01F03C0EA96EBB
:104780005F5035EC01F03D0EA96E5B5035EC01F049
:104790003E0EA96E6B5135EC01F058500408D8A4B8
:1047A000E868FF0A226EE86A3ABCE868266E22C012
:1047B00012F02650B7EC01F0266E276E286E296E97
:1047C0002650271028102910D8B405EF24F0400EE9
:1047D000A96E5E5035EC01F0410EA96E5A5035ECD1
:1047E00001F0420EA96E6A5135EC01F0440EA96E3B
:1047F0005F5035EC01F0450EA96E5B5035EC01F0D1
:10480000460EA96E6B5135EC01F01AEC3AF0FAEC59
:1048100033F03ABC10EF24F0010E8A6F12EF24F04F
:10482000020E8A6FCBEF1CF0FE0E7BEC00F0020E46
:104830007BEC00F0530E7BEC00F03A0E7BEC00F0CA
:10484000AE517BEC00F0020E036E5EC01AF01B6AE4
:104850001C6A1D6AF40E0A6E0B6ACFEC00F03A0E69
:104860007BEC00F0AF517BEC00F0020E036E5AC0FF
:104870001AF01B6A1C6A1D6AF40E0A6E0B6ACFECF2
:1048800000F02D0E7BEC00F0B0517BEC00F0030E3D
:10489000036E6AC01AF01B6A1C6A1D6AF40E0A6E67
:1048A0000B6ACFEC00F0250E7BEC00F0200E7BECC9
:1048B00000F0200E7BEC00F0200E7BEC00F0200ED0
:1048C0007BEC00F0FE0E7BEC00F0C00E7BEC00F009
:1048D000450E7BEC00F03A0E7BEC00F0B1517BEC26
:1048E00000F0020E036E5FC01AF01B6A1C6A1D6A9C
:1048F000F40E0A6E0B6ACFEC00F03A0E7BEC00F07F
:10490000B2517BEC00F0020E036E5BC01AF01B6A22
:104910001C6A1D6AF40E0A6E0B6ACFEC00F02D0EB5
:104920007BEC00F0B3517BEC00F0030E036E6BC028
:104930001AF01B6A1C6A1D6AF40E0A6E0B6ACFEC31
:1049400000F0250E7BEC00F0200E7BEC00F0200E3A
:104950007BEC00F0E9EF1FF0D9EC0AF069EC3AF0DB
:104960003AA6BDEF24F08A510208D8A4BCEF24F087
:10497000020E8A6FBDEF24F08A2B3AA8CAEF24F00A
:104980008A510108D8A4C9EF24F0010E8A6FCAEF3A
:1049900024F08A073AAAD1EF24F0020E8A6F7BEF47
:1049A00016F08A510108D8A47BEF25F0FE0E7BECAF
:1049B00000F0020E7BEC00F07E0E7BEC00F0530E5C
:1049C0007BEC00F0770E7BEC00F0690E7BEC00F0E6
:1049D000740E7BEC00F0630E7BEC00F0680E7BEC59
:1049E00000F0200E7BEC00F0230E7BEC00F0310E8B
:1049F0007BEC00F0200E7BEC00F0200E7BEC00F056
:104A0000200E7BEC00F0200E7BEC00F0200E7BEC07
:104A100000F0200E7BEC00F0200E7BEC00F0200E6E
:104A20007BEC00F0200E7BEC00F0200E7BEC00F025
:104A3000FE0E7BEC00F0C00E7BEC00F0200E7BEC59
:104A400000F0530E7BEC00F0770E7BEC00F0690E6B
:104A50007BEC00F0740E7BEC00F0630E7BEC00F05E
:104A6000680E7BEC00F0200E7BEC00F0230E7BEC5C
:104A700000F0320E7BEC00F0200E7BEC00F0200EFC
:104A80007BEC00F0200E7BEC00F0200E7BEC00F0C5
:104A9000200E7BEC00F0200E7BEC00F0200E7BEC77
:104AA00000F0200E7BEC00F0200E7BEC00F0200EDE
:104AB0007BEC00F0200E7BEC00F0200E7BEC00F095
:104AC000200E7BEC00F0200E7BEC00F0200E7BEC47
:104AD00000F0200E7BEC00F0200E7BEC00F03BAEF3
:104AE00079EF25F03C90010E7C6F010E8A6F09EF83
:104AF00026F008EF26F08A510208D8A408EF26F025
:104B0000FE0E7BEC00F0020E7BEC00F0200E7BEC46
:104B100000F0530E7BEC00F0770E7BEC00F0690E9A
:104B20007BEC00F0740E7BEC00F0630E7BEC00F08D
:104B3000680E7BEC00F0200E7BEC00F0230E7BEC8B
:104B400000F0310E7BEC00F0200E7BEC00F0200E2C
:104B50007BEC00F0200E7BEC00F0200E7BEC00F0F4
:104B6000200E7BEC00F0200E7BEC00F0200E7BECA6
:104B700000F0200E7BEC00F0200E7BEC00F0FE0E2F
:104B80007BEC00F0C00E7BEC00F07E0E7BEC00F0C6
:104B9000530E7BEC00F0770E7BEC00F0690E7BECA3
:104BA00000F0740E7BEC00F0630E7BEC00F0680EFE
:104BB0007BEC00F0200E7BEC00F0230E7BEC00F091
:104BC000320E7BEC00F0200E7BEC00F0200E7BEC34
:104BD00000F0200E7BEC00F0200E7BEC00F0200EAD
:104BE0007BEC00F0200E7BEC00F0200E7BEC00F064
:104BF000200E7BEC00F0200E7BEC00F03BAE08EFCB
:104C000026F03C80020E7C6F010E8A6F09EF26F0C1
:104C1000A3D6D9EC0AF069EC3AF03AA61AEF26F0DE
:104C20008A510208D8A419EF26F0020E8A6F1AEFF3
:104C300026F08A2B3AA827EF26F08A510108D8A43B
:104C400026EF26F0010E8A6F27EF26F08A073AAA90
:104C50002DEF26F07CC08AF07FD68A510108D8A4B7
:104C6000CDEF26F0FE0E7BEC00F0020E7BEC00F0A8
:104C70007E0E7BEC00F0540E7BEC00F0690E7BECBA
:104C800000F06D0E7BEC00F0650E7BEC00F0200E6A
:104C90007BEC00F0310E7BEC00F0200E7BEC00F0A2
:104CA000200E7BEC00F0200E7BEC00F0200E7BEC65
:104CB00000F0200E7BEC00F0200E7BEC00F0200ECC
:104CC0007BEC00F0200E7BEC00F0200E7BEC00F083
:104CD000200E7BEC00F0200E7BEC00F0200E7BEC35
:104CE00000F0200E7BEC00F0FE0E7BEC00F0C00E1E
:104CF0007BEC00F0200E7BEC00F0540E7BEC00F01F
:104D0000690E7BEC00F06D0E7BEC00F0650E7BEC29
:104D100000F0200E7BEC00F0320E7BEC00F0200E59
:104D20007BEC00F0200E7BEC00F0200E7BEC00F022
:104D3000200E7BEC00F0200E7BEC00F0200E7BECD4
:104D400000F0200E7BEC00F0200E7BEC00F0200E3B
:104D50007BEC00F0200E7BEC00F0200E7BEC00F0F2
:104D6000200E7BEC00F0200E7BEC00F0200E7BECA4
:104D700000F0200E7BEC00F0200E7BEC00F0200E0B
:104D80007BEC00F0200E7BEC00F0200E7BEC00F0C2
:104D9000200E7BEC00F068EF27F08A510208D8A4BF
:104DA00068EF27F0FE0E7BEC00F0020E7BEC00F0CB
:104DB000200E7BEC00F0540E7BEC00F0690E7BECD7
:104DC00000F06D0E7BEC00F0650E7BEC00F0200E29
:104DD0007BEC00F0310E7BEC00F0200E7BEC00F061
:104DE000200E7BEC00F0200E7BEC00F0200E7BEC24
:104DF00000F0200E7BEC00F0200E7BEC00F0200E8B
:104E00007BEC00F0200E7BEC00F0200E7BEC00F041
:104E1000200E7BEC00F0200E7BEC00F0200E7BECF3
:104E200000F0200E7BEC00F0200E7BEC00F0200E5A
:104E30007BEC00F0200E7BEC00F0200E7BEC00F011
:104E4000200E7BEC00F0FE0E7BEC00F0C00E7BEC45
:104E500000F07E0E7BEC00F0540E7BEC00F0690E4F
:104E60007BEC00F06D0E7BEC00F0650E7BEC00F04F
:104E7000200E7BEC00F0320E7BEC00F0200E7BEC81
:104E800000F0200E7BEC00F0200E7BEC00F0200EFA
:104E90007BEC00F0200E7BEC00F0200E7BEC00F0B1
:104EA000200E7BEC00F0200E7BEC00F0200E7BEC63
:104EB00000F0200E7BEC00F0200E7BEC00F0200ECA
:104EC0007BEC00F0200E7BEC00F0200E7BEC00F081
:104ED0003BAE32EF28F08A510108D8A471EF27F0D9
:104EE0003D928A510208D8A477EF27F03D82E86A04
:104EF0003CA0E868226EE86A3DA2E868266E22C0FF
:104F000012F02650B7EC01F0266E276E286E296E3F
:104F10002650271028102910D8B4A3EF27F04A0EE6
:104F2000A96E2EEC01F05E6E4B0EA96E2EEC01F018
:104F30005A6E4C0EA96E2EEC01F05F6E4D0EA96EEE
:104F40002EEC01F05B6EE86A3CA0E868226EE86A2D
:104F50003DB2E868266E22C012F02650B7EC01F090
:104F6000266E276E286E296E2650271028102910CD
:104F7000D8B4CFEF27F04E0EA96E2EEC01F05E6E86
:104F80004F0EA96E2EEC01F05A6E500EA96E2EEC4B
:104F900001F05F6E510EA96E2EEC01F05B6EE86AB7
:104FA0003CB0E868226EE86A3DA2E868266E22C03E
:104FB00012F02650B7EC01F0266E276E286E296E8F
:104FC0002650271028102910D8B4FBEF27F0520ED6
:104FD000A96E2EEC01F05E6E530EA96E2EEC01F060
:104FE0005A6E540EA96E2EEC01F05F6E550EA96E2E
:104FF0002EEC01F05B6EE86A3CB0E868226EE86A6D
:105000003DB2E868266E22C012F02650B7EC01F0DF
:10501000266E276E286E296E26502710281029101C
:10502000D8B427EF28F0560EA96E2EEC01F05E6E74
:10503000570EA96E2EEC01F05A6E580EA96E2EEC8A
:1050400001F05F6E590EA96E2EEC01F05B6E3DB261
:105050002EEF28F0010E8A6F30EF28F0010E8A6FD4
:1050600034EF28F009EF26F0D9EC0AF069EC3AF0B9
:105070003AA445EF28F08A510408D8A444EF28F058
:10508000010E8A6F45EF28F08A2B8A510108D8A4B7
:1050900052EF28F07E0EAE6F200EAF6F200EB06F75
:1050A000200EB16F8A510208D8A45FEF28F0200EBD
:1050B000AE6F7E0EAF6F200EB06F200EB16F8A51B3
:1050C0000308D8A46CEF28F0200EAE6F200EAF6F4F
:1050D0007E0EB06F200EB16F8A510408D8A479EF0C
:1050E00028F0200EAE6F200EAF6F200EB06F7E0E38
:1050F000B16F3AAA7EEF28F009EF26F081BCC1EF2C
:1051000028F08A510108D8A491EF28F05E2A180EE1
:105110005E5CD8A08EEF28F0170E5E6E6E0E43EC2C
:1051200001F08A510208D8A4A1EF28F05A2A3C0EB7
:105130005A5CD8A09EEF28F03B0E5A6E6E0E43ECE0
:1051400001F08A510308D8A4B1EF28F05F2A180EA5
:105150005F5CD8A0AEEF28F0170E5F6E6E0E43ECCA
:1051600001F08A510408D8A4C1EF28F05B2A3C0E54
:105170005B5CD8A0BEEF28F03B0E5B6E6E0E43EC7E
:1051800001F081BA5CEF29F08A510108D8A4EAEF56
:1051900028F05E065EC012F0010E8BEC01F0226E6C
:1051A0005EC012F0170E85EC01F0266E22C012F0E0
:1051B0002650BEEC01F0266E276E286E296E265012
:1051C000271028102910D8B4E7EF28F05E6A6E0E79
:1051D00043EC01F08A510208D8A410EF29F05A06D6
:1051E0005AC012F0010E8BEC01F0226E5AC012F080
:1051F0003B0E85EC01F0266E22C012F02650BEEC6C
:1052000001F0266E276E286E296E26502710281072
:105210002910D8B40DEF29F05A6A6E0E43EC01F054
:105220008A510308D8A436EF29F05F065FC012F058
:10523000010E8BEC01F0226E5FC012F0170E85ECB0
:1052400001F0266E22C012F02650BEEC01F0266E50
:10525000276E286E296E2650271028102910D8B4E2
:1052600033EF29F05F6A6E0E43EC01F08A510408B7
:10527000D8A45CEF29F05B065BC012F0010E8BEC4A
:1052800001F0226E5BC012F03B0E85EC01F0266E41
:1052900022C012F02650BEEC01F0266E276E286E5A
:1052A000296E2650271028102910D8B459EF29F05C
:1052B0005B6A6E0E43EC01F03BAE1EEF2AF0E86A2B
:1052C0003CA0E868226EE86A3DA2E868266E22C02B
:1052D00012F02650B7EC01F0266E276E286E296E6C
:1052E0002650271028102910D8B48BEF29F04A0E29
:1052F000A96E5E5035EC01F04B0EA96E5A5035EC9C
:1053000001F04C0EA96E5F5035EC01F04D0EA96E08
:105310005B5035EC01F0E86A3CA0E868226EE86A70
:105320003DB2E868266E22C012F02650B7EC01F0BC
:10533000266E276E286E296E2650271028102910F9
:10534000D8B4B7EF29F04E0EA96E5E5035EC01F0DF
:105350004F0EA96E5A5035EC01F0500EA96E5F50F9
:1053600035EC01F0510EA96E5B5035EC01F0E86AA6
:105370003CB0E868226EE86A3DA2E868266E22C06A
:1053800012F02650B7EC01F0266E276E286E296EBB
:105390002650271028102910D8B4E3EF29F0520E18
:1053A000A96E5E5035EC01F0530EA96E5A5035ECE3
:1053B00001F0540EA96E5F5035EC01F0550EA96E48
:1053C0005B5035EC01F0E86A3CB0E868226EE86AB0
:1053D0003DB2E868266E22C012F02650B7EC01F00C
:1053E000266E276E286E296E265027102810291049
:1053F000D8B40FEF2AF0560EA96E5E5035EC01F0CE
:10540000570EA96E5A5035EC01F0580EA96E5F5038
:1054100035EC01F0590EA96E5B5035EC01F03DB250
:1054200016EF2AF0010E8A6F18EF2AF0020E8A6F2B
:105430001AEC3AF0FAEC33F009EF26F0FE0E7BECB2
:1054400000F0020E7BEC00F04F0E7BEC00F04E0EF5
:105450007BEC00F03A0E7BEC00F0200E7BEC00F0D1
:10546000AE517BEC00F0020E036E5EC01AF01B6AB8
:105470001C6A1D6AF40E0A6E0B6ACFEC00F03A0E3D
:105480007BEC00F0AF517BEC00F0020E036E5AC0D3
:105490001AF01B6A1C6A1D6AF40E0A6E0B6ACFECC6
:1054A00000F0200E7BEC00F0200E7BEC00F0200ED4
:1054B0007BEC00F0FE0E7BEC00F0C00E7BEC00F00D
:1054C0004F0E7BEC00F0460E7BEC00F0460E7BECC2
:1054D00000F03A0E7BEC00F0B0517BEC00F0020ED5
:1054E000036E5FC01AF01B6A1C6A1D6AF40E0A6E16
:1054F0000B6ACFEC00F03A0E7BEC00F0B1517BEC84
:1055000000F0020E036E5BC01AF01B6A1C6A1D6A73
:10551000F40E0A6E0B6ACFEC00F0200E7BEC00F06C
:10552000200E7BEC00F0200E7BEC00F034EF28F036
:10553000D9EC0AF069EC3AF03AA6A9EF2AF08A51C0
:105540000208D8A4A8EF2AF0020E8A6FA9EF2AF069
:105550008A2B3AA8B6EF2AF08A510108D8A4B5EFF1
:105560002AF0010E8A6FB6EF2AF08A073AAABDEF39
:105570002AF0020E8A6F58EF18F08A510108D8A459
:105580006BEF2BF0FE0E7BEC00F0020E7BEC00F0DC
:105590007E0E7BEC00F0410E7BEC00F0710E7BEC9C
:1055A00000F0750E7BEC00F0610E7BEC00F0720EEB
:1055B0007BEC00F0690E7BEC00F0750E7BEC00F0EC
:1055C0006D0E7BEC00F0200E7BEC00F06C0E7BECA3
:1055D00000F0690E7BEC00F0670E7BEC00F0680ECB
:1055E0007BEC00F0740E7BEC00F0200E7BEC00F006
:1055F000200E7BEC00F0200E7BEC00F0200E7BEC0C
:1056000000F0200E7BEC00F0200E7BEC00F0FE0E94
:105610007BEC00F0C00E7BEC00F0200E7BEC00F089
:10562000520E7BEC00F06F0E7BEC00F06F0E7BEC0B
:1056300000F06D0E7BEC00F0200E7BEC00F06C0EA9
:105640007BEC00F0690E7BEC00F0670E7BEC00F069
:10565000680E7BEC00F0740E7BEC00F0200E7BEC0F
:1056600000F0200E7BEC00F0200E7BEC00F0200E12
:105670007BEC00F0200E7BEC00F0200E7BEC00F0C9
:10568000200E7BEC00F0200E7BEC00F0200E7BEC7B
:1056900000F0200E7BEC00F0200E7BEC00F0200EE2
:1056A0007BEC00F03BAE69EF2BF0010E8A6F3A9075
:1056B000640EA96E2EEC01F07E6F650EA96E2EECC5
:1056C00001F07F6F660EA96E2EEC01F0806FFAEF8D
:1056D0002BF0F9EF2BF08A510208D8A4F9EF2BF048
:1056E000FE0E7BEC00F0020E7BEC00F0200E7BEC5B
:1056F00000F0410E7BEC00F0710E7BEC00F0750EBB
:105700007BEC00F0610E7BEC00F0720E7BEC00F0A5
:10571000690E7BEC00F0750E7BEC00F06D0E7BECFF
:1057200000F0200E7BEC00F06C0E7BEC00F0690EBC
:105730007BEC00F0670E7BEC00F0680E7BEC00F079
:10574000740E7BEC00F0200E7BEC00F0200E7BEC66
:1057500000F0200E7BEC00F0200E7BEC00F0200E21
:105760007BEC00F0200E7BEC00F0FE0E7BEC00F0FA
:10577000C00E7BEC00F07E0E7BEC00F0520E7BEC5A
:1057800000F06F0E7BEC00F06F0E7BEC00F06D0E06
:105790007BEC00F0200E7BEC00F06C0E7BEC00F05C
:1057A000690E7BEC00F0670E7BEC00F0680E7BEC82
:1057B00000F0740E7BEC00F0200E7BEC00F0200E6D
:1057C0007BEC00F0200E7BEC00F0200E7BEC00F078
:1057D000200E7BEC00F0200E7BEC00F03BAEF9EFEE
:1057E0002BF03A92670EA96E2EEC01F08A6F2EEF25
:1057F0002EF09ED6D9EC0AF069EC3AF03AA40BEF01
:105800002CF08A510308D8A40AEF2CF0010E8A6FFD
:105810000BEF2CF08A2B3AAA19EF2CF0050EA96E8B
:105820002EEC01F0E8B03A80E8A03A90010E8A6FC1
:105830007FD68A510108D8A424EF2CF07E0EAE6FDB
:10584000200EAF6F200EB06F8A510208D8A42FEF40
:105850002CF0200EAE6F7E0EAF6F200EB06F8A510F
:105860000308D8A43AEF2CF0200EAE6F200EAF6FD5
:105870007E0EB06F81BC67EF2CF08A510108D8A46E
:105880004AEF2CF07E2B650E7E5DD8A04AEF2CF0FF
:10589000640E7E6F8A510208D8A457EF2CF07F2B3C
:1058A000650E7F5DD8A057EF2CF0640E7F6F8A5194
:1058B0000308D8A464EF2CF0802B650E805DD8A07F
:1058C00064EF2CF0640E806F6E0E43EC01F081BA31
:1058D000D6EF2CF08A510108D8A48DEF2CF07E076A
:1058E0007EC012F0010E8BEC01F0226E7EC012F031
:1058F000640E85EC01F0266E22C012F02650BEEC3C
:1059000001F0266E276E286E296E2650271028106B
:105910002910D8B48DEF2CF07E6B8A510208D8A4E0
:10592000B0EF2CF07F077FC012F0010E8BEC01F07E
:10593000226E7FC012F0640E85EC01F0266E22C04C
:1059400012F02650BEEC01F0266E276E286E296EEE
:105950002650271028102910D8B4B0EF2CF07F6BF8
:105960008A510308D8A4D3EF2CF0800780C012F02E
:10597000010E8BEC01F0226E80C012F0640E85ECFB
:1059800001F0266E22C012F02650BEEC01F0266E09
:10599000276E286E296E2650271028102910D8B49B
:1059A000D3EF2CF0806B6E0E43EC01F0FE0E7BEC1F
:1059B00000F0020E7BEC00F0AE517BEC00F0230E09
:1059C0007BEC00F0310E7BEC00F0200E7BEC00F065
:1059D000030E036E7EC01AF01B6A1C6A1D6AF40E69
:1059E0000A6E0B6ACFEC00F0250E7BEC00F0AF5195
:1059F0007BEC00F0320E7BEC00F0230E7BEC00F031
:105A0000200E7BEC00F0030E036E7FC01AF01B6AC1
:105A10001C6A1D6AF40E0A6E0B6ACFEC00F0250EAC
:105A20007BEC00F0200E7BEC00F0200E7BEC00F015
:105A3000200E7BEC00F0200E7BEC00F0200E7BECC7
:105A400000F0200E7BEC00F0200E7BEC00F0200E2E
:105A50007BEC00F0FE0E7BEC00F0C00E7BEC00F067
:105A6000B0517BEC00F0230E7BEC00F0330E7BECAE
:105A700000F0200E7BEC00F0030E036E80C01AF0E5
:105A80001B6A1C6A1D6AF40E0A6E0B6ACFEC00F0EA
:105A9000250E7BEC00F0200E7BEC00F0200E7BEC62
:105AA00000F0200E7BEC00F0200E7BEC00F0200ECE
:105AB0007BEC00F0200E7BEC00F0200E7BEC00F085
:105AC000200E7BEC00F0200E7BEC00F0200E7BEC37
:105AD00000F0200E7BEC00F0200E7BEC00F03BAEE3
