:020000040000FA
:10000000006A02EF02F0008A00AA009A00B603D04C
:10001000008640D827E2080E176E50D81636172EE5
:10002000FCD700AA2ED858D851D800BA1BD821D84E
:100030001650D890FFEF01F0008A00AA009A00B491
:1000400005D0FE0B016E0084D8900AD000B805D010
:100050001E6E00881FD806E21E5023D803E200AAB5
:10006000FFEF01F00ED838D800940098009601D820
:10007000F7D710C0EAFF0E3CE96EE9880C50EC128D
:1000800008D010C0EAFF0EC0E9FF0C1CEE16E9888C
:10009000EC161200EEDF20D8F4DF18D8015000B6BD
:1000A0000109166E080E176E1636D8B0E2DFD8A01A
:1000B000E8DF12D80BD8172EF7D7DBDF0DD810C02A
:1000C000EAFF0EC0E9FF0C50EF14FF0F11C0EAFF6A
:1000D0000FC0E9FF0D1CDAD711C0EAFF0FC0E9FF1E
:1000E0000D50EE12E9880D1CEC16D3D7080E1E6ECB
:1000F00011C0EAFF0FC0E9FF0D5001B4A9EC00F0F8
:1001000001A4ABEC00F011C0E2FF0FC0E1FF0E5004
:10011000120FE96E0C1CEF161E5011E001B0D0EC6E
:1001200000F00EC0E9FF1532143213321232EF50D4
:100130000C10D8A00C18EF6E04D81E2EF4D7FFEFC9
:1001400001F00D50E71A000000D000D000D0E71AEF
:100150001200EF1203D0FF0AEF1601D0FF0AE98860
:10016000E92AEC16FFEF01F0176A186A196A166E91
:10017000E86A1606175A185A195AD8A0FFEF01F064
:10018000030E136EE50E02D8F3D7136AFB0F126E3F
:1001900000D0E86A01D01206135AFDE204001200F2
:1001A000166A176A186A196A08D01532143213329F
:1001B00012321636173618361936FF0FF6E2195076
:1001C000156E1850146E1750136E1650126EFFEF06
:1001D00001F0D8901236133614361536FF0FF9E2B7
:1001E0001250FFEF01F0D890153214321332123250
:1001F000FF0FF9E21250FFEF01F0166E020E09D068
:10020000166E060E06D0166E040E03D0166E050E80
:1002100002D0026E0AD0026E1950151815E6195058
:10022000155C08E11850145C05E11750135C02E1FD
:100230001650125C040ED8B0010ED8B4020E02148F
:10024000D8A4FF0EFFEF01F01550195CF3D7216A17
:1002500015AE06D0217EE86A126C13561456155658
:1002600019AE08D0217EE86A166C17561856195632
:1002700001D0216A1A6A1B6A1C6A1D6A200E1E6E52
:1002800015341A361B361C361D3616501A5E17509A
:100290001B5A18501C5A19501D5A09E216501A269A
:1002A00017501B2218501C2219501D22D8901236AC
:1002B0001336143615361E2EE3D721AE09D0E86A60
:1002C000126C1356145615561A6C1B561C561D5696
:1002D0001250FFEF01F016501E02F3CF1AF0F4CFC8
:1002E0001BF017501F02F3CF1CF0F4CF1DF01E02BD
:1002F000F3501B26F4501C22E86A1D2216501F02E0
:10030000F3501B26F4501C22E86A1D2218501E02CE
:10031000F3501C26F4501D2218501F02E86A126A7E
:100320001222F3501D26F450122216502002F350D0
:100330001C26F4501D22E86A136A12221322175059
:100340002002F3501D26F4501222E86A132218509E
:100350002002F3501226F450132219501F02F350BA
:100360001226F450132219502002E86A146A14224B
:10037000F3501326F450142219501E02F3501D2678
:10038000F4501222E86A1322142219502102F4CFE9
:1003900015F0F3501426E86A152216502102F35086
:1003A0001D26F4501222E86A132214221522175037
:1003B0002102F3501226F4501322E86A1422152267
:1003C00018502102F3501326F4501422E86A152223
:1003D00021AE08D01650125E1750135A1850145AF6
:1003E0001950155A19AE08D01E50125E1F50135ADC
:1003F0002050145A2150155A1A50FFEF01F00001F5
:1004000004001200C3EF03F0090E126E3D0E136ECE
:10041000146A156A32C016F033C017F0186A196AE8
:1004200016DF346E13C035F034C012F035C013F04F
:10043000176A040EE8DED8A42CEF02F004003DB2E7
:1004400023EF02F03D843D8204003DB029EF02F02D
:100450003D843D804AEF02F004003DA231EF02F0FE
:100460003D843D9234C012F035C013F0176A000E7F
:10047000C7DED8A444EF02F004003DB041EF02F023
:100480003D843D804AEF02F004003DA049EF02F0B8
:100490003D843D90126A090E136E3D0E146E156A6E
:1004A00032C016F033C017F0186A196AD0DE346E05
:1004B00013C035F004003DA069EF02F034C012F023
:1004C00035C013F0146A156A020E92DE346E13C042
:1004D00035F004003DA278EF02F034C012F035C0D0
:1004E00013F0146A156A020E83DE346E13C035F001
:1004F00034043E6E04003E50BB5CD8B481EF02F081
:100500003D863E28226E236A246A256A233622C04D
:1005100012F023C013F0020E61DE346E13C035F00A
:1005200034C01EF035C01FF0206A216A30C016F0BA
:1005300031C017F0186A196ACEDE226E1BC023F094
:100540001CC024F01DC025F022C012F023C013F0FF
:1005500024C014F025C015F01668030E176E186A33
:10056000196A75DE306E13C031F03C50126E05080A
:10057000D8A0CDEF02F0FA6AFB6A1236FA368E0E78
:100580001226050EFA22000EFB221250F96E21D01F
:1005900004D009D00ED013D018D0BECF34F0BDCFC8
:1005A00035F0E9EF02F067CF34F066CF35F0E9EFD0
:1005B00002F05ECF34F05DCF35F0E9EF02F058CFB6
:1005C00034F057CF35F0E9EF02F055CF34F054CF87
:1005D00035F034C012F0136A146A156A020EEEEC9C
:1005E00000F0226E13C023F014C024F015C025F0D3
:1005F000300E3514266E276A286A296A26C012F042
:1006000027C013F028C014F029C015F0040EF8EC30
:1006100000F0266E13C027F014C028F015C029F092
:1006200022502610346E23502710356E34C012F03D
:1006300035C013F031C017F03050FDEC00F0D8A4F5
:1006400089EF03F030C012F031C013F0146A156A5C
:10065000020EF8EC00F0346E13C035F0030E3014C7
:10066000226E000E3114236E246A256A22C012F015
:1006700023C013F024C014F025C015F0040EEEECD6
:1006800000F0226E13C023F014C024F015C025F032
:100690000C0E2210356E0400BAA455EF03F09E92A2
:1006A00004009EB255EF03F0FBD73C50126E0508D4
:1006B000D8A06DEF03F0FA6AFB6A1236FA36CE0E56
:1006C0001226060EFA22000EFB221250F96E21D0DD
:1006D00004D009D00ED013D018D034C0BEFF35C01E
:1006E000BDFF89EF03F034C067FF35C066FF89EFB7
:1006F00003F034C05EFF35C05DFF89EF03F034C006
:1007000058FF35C057FF89EF03F034C055FF35C09F
:1007100054FF0400BAB48EEF03F0BA84E86A3DB423
:10072000010F3DB60109226E236A246A256A22C0A0
:1007300012F023C013F024C014F025C015F0196A7C
:10074000186A176A010E06EC01F0D8A4C2EF03F094
:100750009E9204009EB2AEEF03F0FBD704003DA4CE
:10076000BBEF03F03D943DB0BA803DA0BA903DB2DE
:10077000BA823DA2BA9204003DA6C2EF03F03D96B4
:100780003EC0BBFF1200780ED36ED26A800E9B6E05
:10079000070ECD6E0F01386B396B020E3A6F080EE3
:1007A000946E926A928C928E969694869498949A6D
:1007B00093929394939E939C9398949C949E936A03
:1007C000300E2E6E750E2F6E426A00013EEC04F064
:1007D000820E0E6E0F0E106E010E0C6E820E0F6EDC
:1007E0000F0E116E020E0D6E900E1EEC00F0010E3B
:1007F0001EEC00F0000E1EEC00F0000E1EEC00F0EF
:10080000000E1CEC00F02C6A020E2D6E040E3C6EE5
:100810002CC030F02DC031F02EC032F02FC033F09C
:1008200004EC02F0030E3C6E2CC030F02DC031F011
:100830002EC032F02FC033F004EC02F0020E3C6EFA
:100840002CC030F02DC031F02EC032F02FC033F06C
:1008500004EC02F0010E3C6E2CC030F02DC031F0E3
:100860002EC032F02FC033F004EC02F02C6A020EDE
:100870002D6E8E0E386EB9EC04F0F8D7436A406ADC
:100880003B6A010E3A6E010E476E010E416E820EFA
:100890000E6E0F0E106E010E0C6E820E0F6E0F0E8E
:1008A000116E020E0D6EA20E1EEC00F0020E1EEC7A
:1008B00000F043501EEC00F040501EEC00F03B50A6
:1008C0001EEC00F03A501EEC00F0020E1EEC00F0A0
:1008D00041501EEC00F047501CEC00F00A0EB4EC46
:1008E00000F01200820E0E6E0F0E106E010E0C6ED6
:1008F000820E0F6E0F0E116E020E0D6EA20E1EEC0A
:1009000000F0020E1EEC00F005EC00F0436E05EC6A
:1009100000F0406E05EC00F03B6E05EC00F03A6E26
:1009200005EC00F0446E05EC00F0416E03EC00F0C5
:10093000476E409E3B9E3B9C3A9E3A9C419E419C0A
:10094000419A12003F2A820E0E6E0F0E106E010E9B
:100950000C6E820E0F6E0F0E116E020E0D6E900E4B
:100960001EEC00F0000E1EEC00F003EC00F0456EF3
:100970001200819E939E640EC5EC00F03992810EA8
:100980000E6E0F0E106E400E0C6E810E0F6E0F0E5F
:10099000116E100E0D6E010E016E38C012F039C0CE
:1009A00013F0146A156A090E77EC00F03982810E93
:1009B0000E6E0F0E106E400E0C6E810E0F6E0F0E2F
:1009C000116E100E0D6E010E016E38C012F039C09E
:1009D00013F0146A156A090E77EC00F0818E939E6D
:0609E00012000300FED727
:020000040030CA
:0300010028193C7F
:020005002C8548
:060008000FC00FE00F40E5
:00000001FF
