:020000040000FA
:06000000006AB7EF02F0F8
:040008002AEF03F0E8
:08001800BAEF02F0008A00AA11
:10002000009A00B603D0008640D827E2080E1F6E63
:1000300050D81E361F2EFCD700AA2ED858D851D81B
:1000400000BA1BD821D81E50D890B4EF02F0008A15
:1000500000AA009A00B405D0FE0B016E0084D8906F
:100060000AD000B805D0266E00881FD806E22650B8
:1000700023D803E200AAB4EF02F00ED838D80094D7
:100080000098009601D8F7D711C0EAFF0F3CE96E3F
:10009000E9880D50EC1208D011C0EAFF0FC0E9FF4B
:1000A0000D1CEE16E988EC161200EEDF20D8F4DF06
:1000B00018D8015000B601091E6E080E1F6E1E36BC
:1000C000D8B0E2DFD8A0E8DF12D80BD81F2EF7D7C0
:1000D000DBDF0DD811C0EAFF0FC0E9FF0D50EF14B0
:1000E000FF0F12C0EAFF10C0E9FF0E1CDAD712C0E2
:1000F000EAFF103CE96EE9880E50CCD7236A226EE5
:10010000018E270E1F6E100E0CD8030E1F6EE80E08
:1001100008D81F6A640E05D81F6A0A0E02D822503A
:100120000FD01E6E23501B6E22501A6E1C6A1D6A61
:10013000206A216AE8EC01F0E866019E01BE120027
:10014000300F01D0E950276E819A81988198939A57
:1001500093989398F00E9316275000B220D03A0E41
:100160001B6EFC0E7BEC01F0330E266E2ED8100EAB
:100170001B6E680E7BEC01F028D8640E7AEC01F05F
:10018000220E266E22D8280E09D80C0E07D8010E92
:1001900005D8060E03D80082275001D00080266EB5
:1001A00000A00BD0819803080EE30DD8070E1B6E3C
:1001B000D00E7BEC01F0D88012000080FE08D8B48D
:1001C000B4EF02F08188263A00A00090818AF00EF8
:1001D000811626500F0B8112819A263A00B0F5D76E
:1001E000280E7AEC01F0D8801200019E0350D8B49A
:1001F000018E0A0E026E3B0E216E9A0E206ECA0E02
:100200001F6E000E35D8050E216EF50E206EE10E24
:100210001F6E000E2DD8216A980E206E960E1F6E4E
:10022000800E26D8216A0F0E206E420E1F6E400EE1
:100230001FD8216A010E206E860E1F6EA00E18D8E0
:10024000216A206A270E1F6E100E12D8216A206ABA
:10025000030E1F6EE80E0CD8216A206A1F6A640E16
:1002600007D8216A206A1F6A0A0E02D822500CD0D1
:100270001E6E25501D6E24501C6E23501B6E225086
:100280001A6EE8EC01F01A501A6E024E019E0350ED
:1002900003E0025CD8B012001A50D8A4019E01BE3F
:1002A0001200300FAEEF02F0A66AA680A850A92A6D
:1002B000B4EF02F0E86AA86EA66AA684550EA76E8F
:1002C000AA0EA76EA682A6B2FED7A694A92AB4EF5C
:1002D00002F01F6A206A216A1E6EE86A1E061F5A13
:1002E000205A215AD8A0B4EF02F0030E1B6EE60E7E
:1002F00002D8F3D71B6AFC0F1A6E0000E86A01D01F
:100300001A0604001B5AFCE21200276E0A0E1E6E2B
:100310001F6A206A216AE8EC01F02706FCE22250FD
:100320001200D8901D321C321B321A32FF0FF9E234
:100330001A50B4EF02F01E6E020E0ED01E6E030EA7
:100340000BD01E6E010E06D01E6E060E05D01E6E60
:10035000040E00D0026E0FD0026E0AD0026E215041
:100360001D1815E621501D5C08E120501C5C05E1BC
:100370001F501B5C02E11E501A5C040ED8B0010E27
:10038000D8B4020E0214D8A4FF0EB4EF02F01D5030
:10039000215CF3D7E866FF0E1A14D8A4FF0EB4EF61
:1003A00002F01A10D8A4FF0EB4EF02F0296A1DAEB5
:1003B00006D0297EE86A1A6C1B561C561D5621AEC3
:1003C00008D0297EE86A1E6C1F562056215601D09F
:1003D000296A226A236A246A256A200E266E1D3441
:1003E00022362336243625361E50225E1F50235ACD
:1003F0002050245A2150255A09E21E5022261F500F
:1004000023222050242221502522D8901A361B3630
:100410001C361D36262EE3D729AE09D0E86A1A6CA1
:100420001B561C561D56226C2356245625561A5010
:10043000B4EF02F01E502602F3CF22F0F4CF23F0E7
:100440001F502702F3CF24F0F4CF25F02602F350FB
:100450002326F4502422E86A25221E502702F35056
:100460002326F4502422E86A252220502602F35045
:100470002426F450252220502702E86A1A6A1A22FC
:10048000F3502526F4501A221E502802F350242639
:10049000F4502522E86A1B6A1A221B221F502802E8
:1004A000F3502526F4501A22E86A1B222050280215
:1004B000F3501A26F4501B2221502702F3501A261B
:1004C000F4501B2221502802E86A1C6A1C22F350B7
:1004D0001B26F4501C2221502602F3502526F450EE
:1004E0001A22E86A1B221C2221502902F4CF1DF097
:1004F000F3501C26E86A1D221E502902F3502526BF
:10050000F4501A22E86A1B221C221D221F502902C5
:10051000F3501A26F4501B22E86A1C221D22205098
:100520002902F3501B26F4501C22E86A1D2229AE32
:1005300008D01E501A5E1F501B5A20501C5A2150C2
:100540001D5A21AE08D026501A5E27501B5A28503B
:100550001C5A29501D5A2250B4EF02F0E96EFB6A72
:100560000B50FA6E0A50F96E0001040012000C6A7A
:10057000BBEF02F01000939C9488948C948E948A24
:1005800094800F0EC16E070EB46E6F86806A816A0A
:10059000826A030E926E89949B9489969B968998A1
:1005A0009B98899A9B9ACD8028EF03F0CD90E10E1D
:1005B000CE26D8B0CF2AFE0ECF26CD807351D8A438
:1005C000E5EF02F08994EBEF02F03F50735DD8B095
:1005D0008984D8A089947451D8A4F2EF02F0899646
:1005E000F8EF02F03F50745DD8B08986D8A08996A4
:1005F0007551D8A4FFEF02F0899805EF03F03F5042
:10060000755DD8B08988D8A089987651D8A40CEFA8
:1006100003F0899A12EF03F03F50765DD8B0898AD3
:10062000D8A0899A3F2A640E3F5CD8B43F6A0CB4C4
:1006300021EF03F019C0FBFF18C0FAFF1750E06A62
:10064000F96E16C0FBFF15C0FAFF1450E06AF96E90
:1006500063EF03F0FBCF6FF0FACF6DF0E9CF60F0FE
:10066000EACF61F0E1CF64F0E2CF65F0D9CF68F076
:10067000DACF69F00C840C90E06A9DA04DEF03F096
:100680009EA04DEF03F00C800400980E146E060E31
:10069000156E000E166E8AD79E90E06A0CB03BEF86
:1006A00003F00C9460C0E9FF61C0EAFF64C0E1FFA1
:1006B00065C0E2FF68C0D9FF69C0DAFF6DC0FAFF0C
:1006C0006FC0FBFF1100F28EF28C9F809D80E96865
:1006D000070EEA6EED6AE950EA10FCE1EF6A328A31
:1006E0003380328E328C456AF4EC26F0D1EC26F061
:1006F000FE0EA3EC00F0010EA3EC00F0440EA3EC00
:1007000000F0200EA3EC00F0410EA3EC00F0200E50
:10071000A3EC00F04E0EA3EC00F0200EA3EC00F0D2
:10072000450EA3EC00F0200EA3EC00F0520EA3EC5B
:1007300000F0200EA3EC00F0200EA3EC00F04C0E15
:10074000A3EC00F0200EA3EC00F0450EA3EC00F0AB
:10075000200EA3EC00F0440EA3EC00F0FE0EA3EC80
:1007600000F0C00EA3EC00F0430EA3EC00F04F0E1F
:10077000A3EC00F04E0EA3EC00F0540EA3EC00F03E
:10078000520EA3EC00F04F0EA3EC00F04C0EA3ECC5
:1007900000F0200EA3EC00F0460EA3EC00F0570E84
:1007A000A3EC00F03A0EA3EC00F0310EA3EC00F045
:1007B0002E0EA3EC00F0310EA3EC00F0818C736BD5
:1007C000746B756B766B010E446E030E1F6EE80E34
:1007D0006AEC01F0030EA96E54EC01F0726F040094
:1007E00072510108D8A4F9EF03F017EF04F017EFE6
:1007F00004F0040072510208D8A417EF04F0010EAF
:10080000446E500EA96E54EC01F0736F510EA96E38
:1008100054EC01F0746F520EA96E54EC01F0756F38
:10082000530EA96E54EC01F0766F67EF05F082BCB1
:10083000328082AC329082B8328682A8329682BEF2
:10084000328482AE329482BA328282AA3292A1EC8F
:1008500027F0722B34C01AF035C01BF00B0E1F6E40
:10086000B80E9EEC01F0D8A43CEF04F0342A000E40
:100870003522818C3DEF04F0819C040032B455EFA9
:1008800004F032AE55EF04F0346A356A040081ACEE
:1008900055EF04F0422A0400010E425CD8A055EF47
:1008A00004F0426A456A1EEF11F0040032B26EEFA6
:1008B00004F032AC6EEF04F0346A356A040081ACA7
:1008C0006EEF04F0422A0400010E425CD8A06EEFE5
:1008D00004F0426A440E456E1EEF11F0040032B679
:1008E00077EF04F033A077EF04F0346A356A040040
:1008F00032B080EF04F032AA80EF04F0346A356A37
:10090000040082B093EF04F073C05AF074C05BF03F
:1009100075C05CF076C05DF0020EA96E54EC01F07B
:100920004C6EADEF25F004005A0E725DD8B09BEF0F
:1009300004F0200E406E72C01AF05A0EA1EC01F0C5
:100940002A6E72C01AF0B40EA7EC01F02E6E2AC007
:100950001AF02E50CAEC01F02E6E2F6E306E316EF2
:1009600004002E502F1030103110D8B4BAEF04F01C
:100970003A0E406E0400B50E725DD8A0C1EF04F0CF
:10098000726BFE0EA3EC00F0020EA3EC00F0440E1E
:10099000A3EC00F0200EA3EC00F0410EA3EC00F05D
:1009A000200EA3EC00F04E0EA3EC00F0200EA3EC02
:1009B00000F0450EA3EC00F0200EA3EC00F0520E68
:1009C000A3EC00F0200EA3EC00F0200EA3EC00F04E
:1009D0004C0EA3EC00F0200EA3EC00F0450EA3ECAF
:1009E00000F0200EA3EC00F0440EA3EC00F0FE0E8D
:1009F000A3EC00F0C00EA3EC00F0020E036E3DC0AD
:100A000022F0236A246A256A440E0A6E010E0B6ED8
:100A1000F5EC00F04050A3EC00F0020E036E3CC079
:100A200022F0236A246A256A440E0A6E010E0B6EB8
:100A3000F5EC00F04050A3EC00F0020E036E3EC057
:100A400022F0236A246A256A440E0A6E010E0B6E98
:100A5000F5EC00F0200EA3EC00F0200EA3EC00F06B
:100A6000200EA3EC00F0200EA3EC00F0200EA3EC6F
:100A700000F0200EA3EC00F0200EA3EC00F0200EFE
:100A8000A3EC00F0200EA3EC00F0200EA3EC00F08D
:100A9000200EA3EC00F0200EA3EC00F0200EA3EC3F
:100AA00000F0200EA3EC00F0AFEC07F032B4328E71
:100AB00032A4329E32B0328A32A0329A32B2328CB2
:100AC00032A2329C32B6338032A63390B0D632880E
:100AD000A1EC27F0AFEC07F082B8328682A83296FC
:100AE00082BC328082AC329082BE328482AE32943A
:100AF00082BA328282AA329234C01AF035C01BF018
:100B00000B0E1F6EB80E9EEC01F0D8A48EEF05F010
:100B1000342A000E3522818C8FEF05F0819C040071
:100B200082B0A2EF05F073C05AF074C05BF075C0DC
:100B30005CF076C05DF0020EA96E54EC01F04C6ED4
:100B4000ADEF25F0040044500108D8A4B0EF05F043
:100B50003E0E886F200E896F200E8A6F200E8B6FDD
:100B6000040044500208D8A4BEEF05F0200E886FA0
:100B70003E0E896F200E8A6F200E8B6F040044504A
:100B80000308D8A4CCEF05F0200E886F200E896FE3
:100B90003E0E8A6F200E8B6F040044500408D8A4C8
:100BA000DAEF05F0200E886F200E896F200E8A6F15
:100BB0003E0E8B6F040032B0F0EF05F032AAF0EF7A
:100BC00005F0346A356A040081ACF0EF05F0442A80
:100BD0000400050E445CD8A0F0EF05F0010E446E51
:100BE000040032B609EF06F033A009EF06F0346ACC
:100BF000356A040081AC09EF06F0422A0400020EB7
:100C0000425CD8A009EF06F0426A456A32981EEFAE
:100C100011F0040082BE66EF06F0346A356A040003
:100C200081AC66EF06F0040044500108D8A427EF19
:100C300006F0732B0400650E735DD8A022EF06F05A
:100C4000640E736F500EA96E73515BEC01F00400DB
:100C500044500208D8A43BEF06F0742B0400650E44
:100C6000745DD8A036EF06F0640E746F510EA96E55
:100C700074515BEC01F0040044500308D8A44FEF1A
:100C800006F0752B0400650E755DD8A04AEF06F0DE
:100C9000640E756F520EA96E75515BEC01F0040085
:100CA00044500408D8A463EF06F0762B0400650EC8
:100CB000765DD8A05EEF06F0640E766F530EA96ED7
:100CC00076515BEC01F03C0E69EC01F0040082BA55
:100CD0001BEF07F0346A356A040081AC1BEF07F0A4
:100CE000040044500108D8A49AEF06F0730773C0BB
:100CF0001AF0010EA7EC01F02A6E73C01AF0640E10
:100D0000A1EC01F02E6E2AC01AF02E50D1EC01F0A9
:100D10002E6E2F6E306E316E04002E502F1030105C
:100D20003110D8B495EF06F0736B500EA96E735165
:100D30005BEC01F0040044500208D8A4C4EF06F0B4
:100D4000740774C01AF0010EA7EC01F02A6E74C08B
:100D50001AF0640EA1EC01F02E6E2AC01AF02E508B
:100D6000D1EC01F02E6E2F6E306E316E04002E50DD
:100D70002F1030103110D8B4BFEF06F0746B510E45
:100D8000A96E74515BEC01F0040044500308D8A430
:100D9000EEEF06F0750775C01AF0010EA7EC01F032
:100DA0002A6E75C01AF0640EA1EC01F02E6E2AC0F6
:100DB0001AF02E50D1EC01F02E6E2F6E306E316E87
:100DC00004002E502F1030103110D8B4E9EF06F087
:100DD000756B520EA96E75515BEC01F00400445026
:100DE0000408D8A418EF07F0760776C01AF0010EB1
:100DF000A7EC01F02A6E76C01AF0640EA1EC01F0A7
:100E00002E6E2AC01AF02E50D1EC01F02E6E2F6EED
:100E1000306E316E04002E502F1030103110D8B4C7
:100E200013EF07F0766B530EA96E76515BEC01F071
:100E30003C0E69EC01F0FE0EA3EC00F0020EA3ECF8
:100E400000F08851A3EC00F0230EA3EC00F0310E6B
:100E5000A3EC00F0200EA3EC00F0030E036E73C0B1
:100E600022F0236A246A256A440E0A6E010E0B6E74
:100E7000F5EC00F0250EA3EC00F08951A3EC00F096
:100E8000320EA3EC00F0230EA3EC00F0200EA3EC36
:100E900000F0030E036E74C022F0236A246A256AF0
:100EA000440E0A6E010E0B6EF5EC00F0250EA3EC5D
:100EB00000F0200EA3EC00F0FE0EA3EC00F0C00E3C
:100EC000A3EC00F08A51A3EC00F0230EA3EC00F099
:100ED000330EA3EC00F0200EA3EC00F0030E036E23
:100EE00075C022F0236A246A256A440E0A6E010E38
:100EF0000B6EF5EC00F0250EA3EC00F08B51A3EC8B
:100F000000F0340EA3EC00F0230EA3EC00F0200E52
:100F1000A3EC00F0030E036E76C022F0236A246A6D
:100F2000256A440E0A6E010E0B6EF5EC00F0250EDC
:100F3000A3EC00F0200EA3EC00F032B6338032A612
:100F4000339032B4328E32A4329E32B0328A32A022
:100F5000329A32B2328C32A2329C67EF05F03CC03A
:100F60004AF03DC026F0276A286A296A3C0E1E6EA8
:100F70001F6A206A216A1AEC02F02A6E23C02BF045
:100F800024C02CF025C02DF03C502A243A6EE86A8B
:100F90002B203B6E04004A505E5CD8B4D4EF07F0BF
:100FA000010E496ED5EF07F0496A99C059F09AC011
:100FB00048F09BC04EF09DC058F09EC047F09FC0C7
:100FC0004DF059C026F0276A286A296A3C0E1E6E29
:100FD0001F6A206A216A1AEC02F02A6E23C02BF0E5
:100FE00024C02CF025C02DF048502A24386EE86A21
:100FF0002B20396E58C026F0276A286A296A3C0ED1
:101000001E6E1F6A206A216A1AEC02F02A6E23C043
:101010002BF024C02CF025C02DF047502A24366E2A
:10102000E86A2B20376E38C01AF039C01BF03BC07D
:101030001FF03A50A4EC01F02A6E36C01AF037C007
:101040001BF03BC01FF03A509EEC01F02E6E2AC000
:101050001AF02E50CAEC01F02E6E2F6E306E316EEB
:1010600004002E502F1030103110D8B4F5EF08F0D6
:1010700038C01AF039C01BF03BC01FF03A509BEC4F
:1010800001F02A6E3E500008D8A4E868FF0A2E6ED0
:101090002AC01AF02E50CAEC01F02E6E2F6E306E60
:1010A000316E04002E502F1030103110D8B46EEF76
:1010B00008F04EC026F0276A286A296A640E1E6E60
:1010C0001F6A206A216A1AEC02F0776F23C078F059
:1010D00024C079F025C07AF0F5EF08F036C01AF098
:1010E00037C01BF03BC01FF03A509BEC01F02A6E5A
:1010F0003E500008D8A4E868FF0A2E6E2AC01AF0F5
:101100002E50CAEC01F02E6E2F6E306E316E040040
:101110002E502F1030103110D8B4A4EF08F04DC06D
:1011200026F0276A286A296A640E1E6E1F6A206AE2
:10113000216A1AEC02F0776F23C078F024C079F0AE
:1011400025C07AF0F5EF08F0040049500108D8A452
:10115000F5EF08F04E504D5C2A6EE86AD8A0E8041E
:101160002B6E2C6E2D6E2AC026F02BC027F02CC0C3
:1011700028F02DC029F0640E1E6E1F6A206A216AB5
:101180001AEC02F02A6E23C02BF024C02CF025C0EC
:101190002DF03850365C2E6E395037582F6EE86A75
:1011A000D8A0E804306E316E2AC01AF02BC01BF0B4
:1011B0002CC01CF02DC01DF02EC01EF02FC01FF043
:1011C00030C020F031C021F0D6EC01F02E6E1BC0F3
:1011D0002FF01CC030F01DC031F02E5077272F505B
:1011E00078233050792331507A23A1C059F0A2C01E
:1011F00048F0A3C04EF0A5C058F0A6C047F0A7C065
:101200004DF059C026F0276A286A296A3C0E1E6EE6
:101210001F6A206A216A1AEC02F02A6E23C02BF0A2
:1012200024C02CF025C02DF048502A24386EE86ADE
:101230002B20396E58C026F0276A286A296A3C0E8E
:101240001E6E1F6A206A216A1AEC02F02A6E23C001
:101250002BF024C02CF025C02DF047502A24366EE8
:10126000E86A2B20376E38C01AF039C01BF03BC03B
:101270001FF03A50A4EC01F02A6E36C01AF037C0C5
:101280001BF03BC01FF03A509EEC01F02E6E2AC0BE
:101290001AF02E50CAEC01F02E6E2F6E306E316EA9
:1012A00004002E502F1030103110D8B415EF0AF072
:1012B00038C01AF039C01BF03BC01FF03A509BEC0D
:1012C00001F02A6E3E500008D8A4E868FF0A2E6E8E
:1012D0002AC01AF02E50CAEC01F02E6E2F6E306E1E
:1012E000316E04002E502F1030103110D8B48EEF14
:1012F00009F04EC026F0276A286A296A640E1E6E1D
:101300001F6A206A216A1AEC02F0776F23C078F016
:1013100024C079F025C07AF015EF0AF036C01AF033
:1013200037C01BF03BC01FF03A509BEC01F02A6E17
:101330003E500008D8A4E868FF0A2E6E2AC01AF0B2
:101340002E50CAEC01F02E6E2F6E306E316E0400FE
:101350002E502F1030103110D8B4C4EF09F04DC00A
:1013600026F0276A286A296A640E1E6E1F6A206AA0
:10137000216A1AEC02F0776F23C078F024C079F06C
:1013800025C07AF015EF0AF0040049500108D8A4EE
:1013900015EF0AF04D504E5C2A6EE86AD8A0E804BA
:1013A0002B6E2C6E2D6E2AC026F02BC027F02CC081
:1013B00028F02DC029F0640E1E6E1F6A206A216A73
:1013C0001AEC02F02A6E23C02BF024C02CF025C0AA
:1013D0002DF03850365C2E6E395037582F6EE86A33
:1013E000D8A0E804306E316E2AC01AF02BC01BF072
:1013F0002CC01CF02DC01DF02EC01EF02FC01FF001
:1014000030C020F031C021F0D6EC01F02E6E1BC0B0
:101410002FF01CC030F01DC031F02E50775F2F50E0
:10142000785B3050795B31507A5BA9C059F0AAC023
:1014300048F0ABC04EF0ADC058F0AEC047F0AFC002
:101440004DF059C026F0276A286A296A3C0E1E6EA4
:101450001F6A206A216A1AEC02F02A6E23C02BF060
:1014600024C02CF025C02DF048502A24386EE86A9C
:101470002B20396E58C026F0276A286A296A3C0E4C
:101480001E6E1F6A206A216A1AEC02F02A6E23C0BF
:101490002BF024C02CF025C02DF047502A24366EA6
:1014A000E86A2B20376E38C01AF039C01BF03BC0F9
:1014B0001FF03A50A4EC01F02A6E36C01AF037C083
:1014C0001BF03BC01FF03A509EEC01F02E6E2AC07C
:1014D0001AF02E50CAEC01F02E6E2F6E306E316E67
:1014E00004002E502F1030103110D8B435EF0BF00F
:1014F00038C01AF039C01BF03BC01FF03A509BECCB
:1015000001F02A6E3E500008D8A4E868FF0A2E6E4B
:101510002AC01AF02E50CAEC01F02E6E2F6E306EDB
:10152000316E04002E502F1030103110D8B4AEEFB1
:101530000AF04EC026F0276A286A296A640E1E6ED9
:101540001F6A206A216A1AEC02F07B6F23C07CF0CC
:1015500024C07DF025C07EF035EF0BF036C01AF0C8
:1015600037C01BF03BC01FF03A509BEC01F02A6ED5
:101570003E500008D8A4E868FF0A2E6E2AC01AF070
:101580002E50CAEC01F02E6E2F6E306E316E0400BC
:101590002E502F1030103110D8B4E4EF0AF04DC0A7
:1015A00026F0276A286A296A640E1E6E1F6A206A5E
:1015B000216A1AEC02F07B6F23C07CF024C07DF01E
:1015C00025C07EF035EF0BF0040049500108D8A487
:1015D00035EF0BF04E504D5C2A6EE86AD8A0E80457
:1015E0002B6E2C6E2D6E2AC026F02BC027F02CC03F
:1015F00028F02DC029F0640E1E6E1F6A206A216A31
:101600001AEC02F02A6E23C02BF024C02CF025C067
:101610002DF03850365C2E6E395037582F6EE86AF0
:10162000D8A0E804306E316E2AC01AF02BC01BF02F
:101630002CC01CF02DC01DF02EC01EF02FC01FF0BE
:1016400030C020F031C021F0D6EC01F02E6E1BC06E
:101650002FF01CC030F01DC031F02E507B272F50D2
:101660007C2330507D2331507E23B1C059F0B2C06D
:1016700048F0B3C04EF0B5C058F0B6C047F0B7C0A0
:101680004DF059C026F0276A286A296A3C0E1E6E62
:101690001F6A206A216A1AEC02F02A6E23C02BF01E
:1016A00024C02CF025C02DF048502A24386EE86A5A
:1016B0002B20396E58C026F0276A286A296A3C0E0A
:1016C0001E6E1F6A206A216A1AEC02F02A6E23C07D
:1016D0002BF024C02CF025C02DF047502A24366E64
:1016E000E86A2B20376E38C01AF039C01BF03BC0B7
:1016F0001FF03A50A4EC01F02A6E36C01AF037C041
:101700001BF03BC01FF03A509EEC01F02E6E2AC039
:101710001AF02E50CAEC01F02E6E2F6E306E316E24
:1017200004002E502F1030103110D8B457EF0CF0A9
:1017300038C01AF039C01BF03BC01FF03A509BEC88
:1017400001F02A6E3E500008D8A4E868FF0A2E6E09
:101750002AC01AF02E50CAEC01F02E6E2F6E306E99
:10176000316E04002E502F1030103110D8B4D0EF4D
:101770000BF04EC074F04EC026F0276A286A296A22
:10178000640E1E6E1F6A206A216A1AEC02F07B6FDB
:1017900023C07CF024C07DF025C07EF057EF0CF014
:1017A00036C01AF037C01BF03BC01FF03A509BEC1C
:1017B00001F02A6E3E500008D8A4E868FF0A2E6E99
:1017C0002AC01AF02E50CAEC01F02E6E2F6E306E29
:1017D000316E04002E502F1030103110D8B406EFA7
:1017E0000CF04DC026F0276A286A296A640E1E6E26
:1017F0001F6A206A216A1AEC02F07B6F23C07CF01A
:1018000024C07DF025C07EF057EF0CF00400495055
:101810000108D8A457EF0CF04D504E5C2A6EE86AD0
:10182000D8A0E8042B6E2C6E2D6E2AC026F02BC09B
:1018300027F02CC028F02DC029F0640E1E6E1F6A00
:10184000206A216A1AEC02F02A6E23C02BF024C011
:101850002CF025C02DF03850365C2E6E395037589C
:101860002F6EE86AD8A0E804306E316E2AC01AF0F4
:101870002BC01BF02CC01CF02DC01DF02EC01EF084
:101880002FC01FF030C020F031C021F0D6EC01F0A5
:101890002E6E1BC02FF01CC030F01DC031F02E503A
:1018A0007B5F2F507C5B30507D5B31507E5BB9C0DD
:1018B00059F0BAC048F0BBC04EF0BDC058F0BEC031
:1018C00047F0BFC04DF059C026F0276A286A296A40
:1018D0003C0E1E6E1F6A206A216A1AEC02F02A6E04
:1018E00023C02BF024C02CF025C02DF048502A2412
:1018F000386EE86A2B20396E58C026F0276A286AAD
:10190000296A3C0E1E6E1F6A206A216A1AEC02F0D8
:101910002A6E23C02BF024C02CF025C02DF0475098
:101920002A24366EE86A2B20376E38C01AF039C088
:101930001BF03BC01FF03A50A4EC01F02A6E36C0F9
:101940001AF037C01BF03BC01FF03A509EEC01F07C
:101950002E6E2AC01AF02E50CAEC01F02E6E2F6E99
:10196000306E316E04002E502F1030103110D8B46C
:1019700077EF0DF038C01AF039C01BF03BC01FF0F4
:101980003A509BEC01F02A6E3E500008D8A4E8685B
:10199000FF0A2E6E2AC01AF02E50CAEC01F02E6EED
:1019A0002F6E306E316E04002E502F10301031101B
:1019B000D8B4F0EF0CF04EC026F0276A286A296AE6
:1019C000640E1E6E1F6A206A216A1AEC02F07F6F95
:1019D00023C080F024C081F025C082F077EF0DF0A5
:1019E00036C01AF037C01BF03BC01FF03A509BECDA
:1019F00001F02A6E3E500008D8A4E868FF0A2E6E57
:101A00002AC01AF02E50CAEC01F02E6E2F6E306EE6
:101A1000316E04002E502F1030103110D8B426EF44
:101A20000DF04DC026F0276A286A296A640E1E6EE2
:101A30001F6A206A216A1AEC02F07F6F23C080F0CF
:101A400024C081F025C082F077EF0DF004004950EA
:101A50000108D8A477EF0DF04E504D5C2A6EE86A6D
:101A6000D8A0E8042B6E2C6E2D6E2AC026F02BC059
:101A700027F02CC028F02DC029F0640E1E6E1F6ABE
:101A8000206A216A1AEC02F02A6E23C02BF024C0CF
:101A90002CF025C02DF03850365C2E6E395037585A
:101AA0002F6EE86AD8A0E804306E316E2AC01AF0B2
:101AB0002BC01BF02CC01CF02DC01DF02EC01EF042
:101AC0002FC01FF030C020F031C021F0D6EC01F063
:101AD0002E6E1BC02FF01CC030F01DC031F02E50F8
:101AE0007F272F5080233050812331508223C1C063
:101AF00059F0C2C048F0C3C04EF0C5C058F0C6C0CF
:101B000047F0C7C04DF059C026F0276A286A296AF5
:101B10003C0E1E6E1F6A206A216A1AEC02F02A6EC1
:101B200023C02BF024C02CF025C02DF048502A24CF
:101B3000386EE86A2B20396E58C026F0276A286A6A
:101B4000296A3C0E1E6E1F6A206A216A1AEC02F096
:101B50002A6E23C02BF024C02CF025C02DF0475056
:101B60002A24366EE86A2B20376E38C01AF039C046
:101B70001BF03BC01FF03A50A4EC01F02A6E36C0B7
:101B80001AF037C01BF03BC01FF03A509EEC01F03A
:101B90002E6E2AC01AF02E50CAEC01F02E6E2F6E57
:101BA000306E316E04002E502F1030103110D8B42A
:101BB00097EF0EF038C01AF039C01BF03BC01FF091
:101BC0003A509BEC01F02A6E3E500008D8A4E86819
:101BD000FF0A2E6E2AC01AF02E50CAEC01F02E6EAB
:101BE0002F6E306E316E04002E502F1030103110D9
:101BF000D8B410EF0EF04EC026F0276A286A296A82
:101C0000640E1E6E1F6A206A216A1AEC02F07F6F52
:101C100023C080F024C081F025C082F097EF0EF041
:101C200036C01AF037C01BF03BC01FF03A509BEC97
:101C300001F02A6E3E500008D8A4E868FF0A2E6E14
:101C40002AC01AF02E50CAEC01F02E6E2F6E306EA4
:101C5000316E04002E502F1030103110D8B446EFE2
:101C60000EF04DC026F0276A286A296A640E1E6E9F
:101C70001F6A206A216A1AEC02F07F6F23C080F08D
:101C800024C081F025C082F097EF0EF00400495087
:101C90000108D8A497EF0EF04D504E5C2A6EE86A0A
:101CA000D8A0E8042B6E2C6E2D6E2AC026F02BC017
:101CB00027F02CC028F02DC029F0640E1E6E1F6A7C
:101CC000206A216A1AEC02F02A6E23C02BF024C08D
:101CD0002CF025C02DF03850365C2E6E3950375818
:101CE0002F6EE86AD8A0E804306E316E2AC01AF070
:101CF0002BC01BF02CC01CF02DC01DF02EC01EF000
:101D00002FC01FF030C020F031C021F0D6EC01F020
:101D10002E6E1BC02FF01CC030F01DC031F02E50B5
:101D20007F5F2F50805B3050815B3150825BC9C038
:101D300059F0CAC048F0CBC04EF0CDC058F0CEC06C
:101D400047F0CFC04DF059C026F0276A286A296AAB
:101D50003C0E1E6E1F6A206A216A1AEC02F02A6E7F
:101D600023C02BF024C02CF025C02DF048502A248D
:101D7000386EE86A2B20396E58C026F0276A286A28
:101D8000296A3C0E1E6E1F6A206A216A1AEC02F054
:101D90002A6E23C02BF024C02CF025C02DF0475014
:101DA0002A24366EE86A2B20376E38C01AF039C004
:101DB0001BF03BC01FF03A50A4EC01F02A6E36C075
:101DC0001AF037C01BF03BC01FF03A509EEC01F0F8
:101DD0002E6E2AC01AF02E50CAEC01F02E6E2F6E15
:101DE000306E316E04002E502F1030103110D8B4E8
:101DF000B7EF0FF038C01AF039C01BF03BC01FF02E
:101E00003A509BEC01F02A6E3E500008D8A4E868D6
:101E1000FF0A2E6E2AC01AF02E50CAEC01F02E6E68
:101E20002F6E306E316E04002E502F103010311096
:101E3000D8B430EF0FF04EC026F0276A286A296A1E
:101E4000640E1E6E1F6A206A216A1AEC02F0836F0C
:101E500023C084F024C085F025C086F0B7EF0FF0D2
:101E600036C01AF037C01BF03BC01FF03A509BEC55
:101E700001F02A6E3E500008D8A4E868FF0A2E6ED2
:101E80002AC01AF02E50CAEC01F02E6E2F6E306E62
:101E9000316E04002E502F1030103110D8B466EF80
:101EA0000FF04DC026F0276A286A296A640E1E6E5C
:101EB0001F6A206A216A1AEC02F0836F23C084F043
:101EC00024C085F025C086F0B7EF0FF0040049501C
:101ED0000108D8A4B7EF0FF04E504D5C2A6EE86AA7
:101EE000D8A0E8042B6E2C6E2D6E2AC026F02BC0D5
:101EF00027F02CC028F02DC029F0640E1E6E1F6A3A
:101F0000206A216A1AEC02F02A6E23C02BF024C04A
:101F10002CF025C02DF03850365C2E6E39503758D5
:101F20002F6EE86AD8A0E804306E316E2AC01AF02D
:101F30002BC01BF02CC01CF02DC01DF02EC01EF0BD
:101F40002FC01FF030C020F031C021F0D6EC01F0DE
:101F50002E6E1BC02FF01CC030F01DC031F02E5073
:101F600083272F5084233050852331508623D1C0BE
:101F700059F0D2C048F0D3C04EF0D5C058F0D6C00A
:101F800047F0D7C04DF059C026F0276A286A296A61
:101F90003C0E1E6E1F6A206A216A1AEC02F02A6E3D
:101FA00023C02BF024C02CF025C02DF048502A244B
:101FB000386EE86A2B20396E58C026F0276A286AE6
:101FC000296A3C0E1E6E1F6A206A216A1AEC02F012
:101FD0002A6E23C02BF024C02CF025C02DF04750D2
:101FE0002A24366EE86A2B20376E38C01AF039C0C2
:101FF0001BF03BC01FF03A50A4EC01F02A6E36C033
:102000001AF037C01BF03BC01FF03A509EEC01F0B5
:102010002E6E2AC01AF02E50CAEC01F02E6E2F6ED2
:10202000306E316E04002E502F1030103110D8B4A5
:10203000D7EF10F038C01AF039C01BF03BC01FF0CA
:102040003A509BEC01F02A6E3E500008D8A4E86894
:10205000FF0A2E6E2AC01AF02E50CAEC01F02E6E26
:102060002F6E306E316E04002E502F103010311054
:10207000D8B450EF10F04EC026F0276A286A296ABB
:10208000640E1E6E1F6A206A216A1AEC02F0836FCA
:1020900023C084F024C085F025C086F0D7EF10F06F
:1020A00036C01AF037C01BF03BC01FF03A509BEC13
:1020B00001F02A6E3E500008D8A4E868FF0A2E6E90
:1020C0002AC01AF02E50CAEC01F02E6E2F6E306E20
:1020D000316E04002E502F1030103110D8B486EF1E
:1020E00010F04DC026F0276A286A296A640E1E6E19
:1020F0001F6A206A216A1AEC02F0836F23C084F001
:1021000024C085F025C086F0D7EF10F004004950B8
:102110000108D8A4D7EF10F04D504E5C2A6EE86A43
:10212000D8A0E8042B6E2C6E2D6E2AC026F02BC092
:1021300027F02CC028F02DC029F0640E1E6E1F6AF7
:10214000206A216A1AEC02F02A6E23C02BF024C008
:102150002CF025C02DF03850365C2E6E3950375893
:102160002F6EE86AD8A0E804306E316E2AC01AF0EB
:102170002BC01BF02CC01CF02DC01DF02EC01EF07B
:102180002FC01FF030C020F031C021F0D6EC01F09C
:102190002E6E1BC02FF01CC030F01DC031F02E5031
:1021A000835F2F50845B3050855B3150865B040029
:1021B00032B81BEF11F077C01AF078C01BF079C06D
:1021C0001CF07AC01DF0640E1E6E1F6A206A216A20
:1021D000D6EC01F0736F7BC01AF07CC01BF07DC0A1
:1021E0001CF07EC01DF0640E1E6E1F6A206A216AFC
:1021F000D6EC01F0746F7FC01AF080C01BF081C074
:102200001CF082C01DF0640E1E6E1F6A206A216AD7
:10221000D6EC01F0756F83C01AF084C01BF085C046
:102220001CF086C01DF0640E1E6E1F6A206A216AB3
:10223000D6EC01F0766F4AC05EF01200A1EC27F0F8
:10224000AFEC07F082BC328082AC329082B832862A
:1022500082A8329682BE328482AE329482BA3282B0
:1022600082AA329234C01AF035C01BF00B0E1F6EDA
:10227000B80E9EEC01F0D8A444EF11F0342A000E01
:102280003522818C45EF11F0819C040082B058EF1B
:1022900011F073C05AF074C05BF075C05CF076C08A
:1022A0005DF0020EA96E54EC01F04C6EADEF25F01E
:1022B000040032B475EF11F032AE75EF11F0346AEC
:1022C000356A040081AC75EF11F0422A0400020E59
:1022D000425CD8A075EF11F0040E45260400490EAB
:1022E000455CD8A075EF11F0456A040032B295EF55
:1022F00011F032AC95EF11F0346A356A040081AC0C
:1023000095EF11F0422A0400020E425CD8A095EF2E
:1023100011F0040045500008D8A493EF11F0480EC6
:10232000456E95EF11F0040E455E040032B6ACEF39
:1023300011F033A0ACEF11F0346A356A040081ACBF
:10234000ACEF11F0422A0400020E425CD8A0ACEFC0
:1023500011F0480E456E426A040045500008D8A4AA
:1023600026EF12F0FE0EA3EC00F0020EA3EC00F03C
:102370003E0EA3EC00F0520EA3EC00F0540EA3ECC2
:1023800000F0430EA3EC00F0200EA3EC00F0740E5E
:10239000A3EC00F0690EA3EC00F06D0EA3EC00F0CE
:1023A000650EA3EC00F0200EA3EC00F0200EA3ECD1
:1023B00000F0200EA3EC00F0200EA3EC00F0200EA5
:1023C000A3EC00F0200EA3EC00F0200EA3EC00F034
:1023D000FE0EA3EC00F0C00EA3EC00F0200EA3EC68
:1023E00000F04D0EA3EC00F06F0EA3EC00F0640EB5
:1023F000A3EC00F0650EA3EC00F0200EA3EC00F0BF
:10240000200EA3EC00F0200EA3EC00F0200EA3ECB5
:1024100000F0200EA3EC00F0200EA3EC00F0200E44
:10242000A3EC00F0200EA3EC00F0200EA3EC00F0D3
:10243000200EA3EC00F0200EA3EC00F0200EA3EC85
:1024400000F0200EA3EC00F03BEF1BF00400455021
:102450000408D8A4A3EF12F0FE0EA3EC00F0020EC5
:10246000A3EC00F0200EA3EC00F0520EA3EC00F061
:10247000540EA3EC00F0430EA3EC00F0200EA3ECEE
:1024800000F0740EA3EC00F0690EA3EC00F06D0EEA
:10249000A3EC00F0650EA3EC00F0200EA3EC00F01E
:1024A000200EA3EC00F0200EA3EC00F0200EA3EC15
:1024B00000F0200EA3EC00F0200EA3EC00F0200EA4
:1024C000A3EC00F0200EA3EC00F0FE0EA3EC00F055
:1024D000C00EA3EC00F03E0EA3EC00F04D0EA3ECFA
:1024E00000F06F0EA3EC00F0640EA3EC00F0650E9C
:1024F000A3EC00F0200EA3EC00F0200EA3EC00F003
:10250000200EA3EC00F0200EA3EC00F0200EA3ECB4
:1025100000F0200EA3EC00F0200EA3EC00F0200E43
:10252000A3EC00F0200EA3EC00F0200EA3EC00F0D2
:10253000200EA3EC00F0200EA3EC00F0200EA3EC84
:1025400000F03BEF1BF0040045500808D8A432EF20
:1025500013F0FE0EA3EC00F0020EA3EC00F03E0E12
:10256000A3EC00F0230EA3EC00F0310EA3EC00F07E
:10257000200EA3EC00F0530EA3EC00F0750EA3ECBC
:1025800000F06E0EA3EC00F0720EA3EC00F0690EEA
:10259000A3EC00F0730EA3EC00F0650EA3EC00F0CA
:1025A000200EA3EC00F04F0EA3EC00F04E0EA3ECB7
:1025B00000F0200EA3EC00F0200EA3EC00F0200EA3
:1025C000A3EC00F0200EA3EC00F0200EA3EC00F032
:1025D000200EA3EC00F0FE0EA3EC00F0C00EA3EC66
:1025E00000F0200EA3EC00F0230EA3EC00F0310E5F
:1025F000A3EC00F0200EA3EC00F0530EA3EC00F0CF
:10260000750EA3EC00F06E0EA3EC00F0720EA3ECBE
:1026100000F0690EA3EC00F0730EA3EC00F0650E61
:10262000A3EC00F0200EA3EC00F04F0EA3EC00F0A2
:10263000460EA3EC00F0460EA3EC00F0200EA3EC37
:1026400000F0200EA3EC00F0200EA3EC00F0200E12
:10265000A3EC00F0200EA3EC00F0200EA3EC00F0A1
:102660003BEF1BF0040045500C08D8A4BBEF13F05F
:10267000FE0EA3EC00F0020EA3EC00F0200EA3EC83
:1026800000F0230EA3EC00F0310EA3EC00F0200EBE
:10269000A3EC00F0530EA3EC00F0750EA3EC00F0D9
:1026A0006E0EA3EC00F0720EA3EC00F0690EA3EC2A
:1026B00000F0730EA3EC00F0650EA3EC00F0200E0A
:1026C000A3EC00F04F0EA3EC00F04E0EA3EC00F0D4
:1026D000200EA3EC00F0200EA3EC00F0200EA3ECE3
:1026E00000F0200EA3EC00F0200EA3EC00F0FE0E94
:1026F000A3EC00F0C00EA3EC00F03E0EA3EC00F043
:10270000230EA3EC00F0310EA3EC00F0200EA3EC9E
:1027100000F0530EA3EC00F0750EA3EC00F06E0E6B
:10272000A3EC00F0720EA3EC00F0690EA3EC00F035
:10273000730EA3EC00F0650EA3EC00F0200EA3ECEA
:1027400000F04F0EA3EC00F0460EA3EC00F0460E96
:10275000A3EC00F0200EA3EC00F0200EA3EC00F0A0
:10276000200EA3EC00F0200EA3EC00F0200EA3EC52
:1027700000F03BEF1BF0040045501008D8A43EEFDA
:1027800014F0FE0EA3EC00F0020EA3EC00F03E0EDF
:10279000A3EC00F0230EA3EC00F0310EA3EC00F04C
:1027A000200EA3EC00F0530EA3EC00F0750EA3EC8A
:1027B00000F06E0EA3EC00F0730EA3EC00F0650EBB
:1027C000A3EC00F0740EA3EC00F0200EA3EC00F0DC
:1027D0004F0EA3EC00F04E0EA3EC00F0200EA3EC85
:1027E00000F0200EA3EC00F0200EA3EC00F0200E71
:1027F000A3EC00F0200EA3EC00F0FE0EA3EC00F022
:10280000C00EA3EC00F0200EA3EC00F0230EA3EC0E
:1028100000F0310EA3EC00F0200EA3EC00F0530EFC
:10282000A3EC00F0750EA3EC00F06E0EA3EC00F02C
:10283000730EA3EC00F0650EA3EC00F0740EA3EC95
:1028400000F0200EA3EC00F04F0EA3EC00F0460EBB
:10285000A3EC00F0460EA3EC00F0200EA3EC00F079
:10286000200EA3EC00F0200EA3EC00F0200EA3EC51
:1028700000F0200EA3EC00F03BEF1BF004004550ED
:102880001408D8A4C1EF14F0FE0EA3EC00F0020E61
:10289000A3EC00F0200EA3EC00F0230EA3EC00F05C
:1028A000310EA3EC00F0200EA3EC00F0530EA3ECCD
:1028B00000F0750EA3EC00F06E0EA3EC00F0730EAA
:1028C000A3EC00F0650EA3EC00F0740EA3EC00F096
:1028D000200EA3EC00F04F0EA3EC00F04E0EA3EC84
:1028E00000F0200EA3EC00F0200EA3EC00F0200E70
:1028F000A3EC00F0200EA3EC00F0200EA3EC00F0FF
:10290000FE0EA3EC00F0C00EA3EC00F03E0EA3EC14
:1029100000F0230EA3EC00F0310EA3EC00F0200E2B
:10292000A3EC00F0530EA3EC00F0750EA3EC00F046
:102930006E0EA3EC00F0730EA3EC00F0650EA3EC9A
:1029400000F0740EA3EC00F0200EA3EC00F04F0E8C
:10295000A3EC00F0460EA3EC00F0460EA3EC00F052
:10296000200EA3EC00F0200EA3EC00F0200EA3EC50
:1029700000F0200EA3EC00F0200EA3EC00F03BEFE3
:102980001BF0040045501808D8A44AEF15F0FE0EBD
:10299000A3EC00F0020EA3EC00F03E0EA3EC00F05E
:1029A000230EA3EC00F0320EA3EC00F0200EA3ECFB
:1029B00000F0530EA3EC00F0750EA3EC00F06E0EC9
:1029C000A3EC00F0720EA3EC00F0690EA3EC00F093
:1029D000730EA3EC00F0650EA3EC00F0200EA3EC48
:1029E00000F04F0EA3EC00F04E0EA3EC00F0200E12
:1029F000A3EC00F0200EA3EC00F0200EA3EC00F0FE
:102A0000200EA3EC00F0200EA3EC00F0FE0EA3ECD1
:102A100000F0C00EA3EC00F0200EA3EC00F0230E9B
:102A2000A3EC00F0320EA3EC00F0200EA3EC00F0BB
:102A3000530EA3EC00F0750EA3EC00F06E0EA3ECA9
:102A400000F0720EA3EC00F0690EA3EC00F0730E20
:102A5000A3EC00F0650EA3EC00F0200EA3EC00F058
:102A60004F0EA3EC00F0460EA3EC00F0460EA3ECD4
:102A700000F0200EA3EC00F0200EA3EC00F0200EDE
:102A8000A3EC00F0200EA3EC00F0200EA3EC00F06D
:102A90003BEF1BF0040045501C08D8A4D3EF15F001
:102AA000FE0EA3EC00F0020EA3EC00F0200EA3EC4F
:102AB00000F0230EA3EC00F0320EA3EC00F0200E89
:102AC000A3EC00F0530EA3EC00F0750EA3EC00F0A5
:102AD0006E0EA3EC00F0720EA3EC00F0690EA3ECF6
:102AE00000F0730EA3EC00F0650EA3EC00F0200ED6
:102AF000A3EC00F04F0EA3EC00F04E0EA3EC00F0A0
:102B0000200EA3EC00F0200EA3EC00F0200EA3ECAE
:102B100000F0200EA3EC00F0200EA3EC00F0FE0E5F
:102B2000A3EC00F0C00EA3EC00F03E0EA3EC00F00E
:102B3000230EA3EC00F0320EA3EC00F0200EA3EC69
:102B400000F0530EA3EC00F0750EA3EC00F06E0E37
:102B5000A3EC00F0720EA3EC00F0690EA3EC00F001
:102B6000730EA3EC00F0650EA3EC00F0200EA3ECB6
:102B700000F04F0EA3EC00F0460EA3EC00F0460E62
:102B8000A3EC00F0200EA3EC00F0200EA3EC00F06C
:102B9000200EA3EC00F0200EA3EC00F0200EA3EC1E
:102BA00000F03BEF1BF0040045502008D8A456EF7E
:102BB00016F0FE0EA3EC00F0020EA3EC00F03E0EA9
:102BC000A3EC00F0230EA3EC00F0320EA3EC00F017
:102BD000200EA3EC00F0530EA3EC00F0750EA3EC56
:102BE00000F06E0EA3EC00F0730EA3EC00F0650E87
:102BF000A3EC00F0740EA3EC00F0200EA3EC00F0A8
:102C00004F0EA3EC00F04E0EA3EC00F0200EA3EC50
:102C100000F0200EA3EC00F0200EA3EC00F0200E3C
:102C2000A3EC00F0200EA3EC00F0FE0EA3EC00F0ED
:102C3000C00EA3EC00F0200EA3EC00F0230EA3ECDA
:102C400000F0320EA3EC00F0200EA3EC00F0530EC7
:102C5000A3EC00F0750EA3EC00F06E0EA3EC00F0F8
:102C6000730EA3EC00F0650EA3EC00F0740EA3EC61
:102C700000F0200EA3EC00F04F0EA3EC00F0460E87
:102C8000A3EC00F0460EA3EC00F0200EA3EC00F045
:102C9000200EA3EC00F0200EA3EC00F0200EA3EC1D
:102CA00000F0200EA3EC00F03BEF1BF004004550B9
:102CB0002408D8A4D9EF16F0FE0EA3EC00F0020E03
:102CC000A3EC00F0200EA3EC00F0230EA3EC00F028
:102CD000320EA3EC00F0200EA3EC00F0530EA3EC98
:102CE00000F0750EA3EC00F06E0EA3EC00F0730E76
:102CF000A3EC00F0650EA3EC00F0740EA3EC00F062
:102D0000200EA3EC00F04F0EA3EC00F04E0EA3EC4F
:102D100000F0200EA3EC00F0200EA3EC00F0200E3B
:102D2000A3EC00F0200EA3EC00F0200EA3EC00F0CA
:102D3000FE0EA3EC00F0C00EA3EC00F03E0EA3ECE0
:102D400000F0230EA3EC00F0320EA3EC00F0200EF6
:102D5000A3EC00F0530EA3EC00F0750EA3EC00F012
:102D60006E0EA3EC00F0730EA3EC00F0650EA3EC66
:102D700000F0740EA3EC00F0200EA3EC00F04F0E58
:102D8000A3EC00F0460EA3EC00F0460EA3EC00F01E
:102D9000200EA3EC00F0200EA3EC00F0200EA3EC1C
:102DA00000F0200EA3EC00F0200EA3EC00F03BEFAF
:102DB0001BF0040045502808D8A462EF17F0FE0E5F
:102DC000A3EC00F0020EA3EC00F03E0EA3EC00F02A
:102DD000230EA3EC00F0330EA3EC00F0200EA3ECC6
:102DE00000F0530EA3EC00F0750EA3EC00F06E0E95
:102DF000A3EC00F0720EA3EC00F0690EA3EC00F05F
:102E0000730EA3EC00F0650EA3EC00F0200EA3EC13
:102E100000F04F0EA3EC00F04E0EA3EC00F0200EDD
:102E2000A3EC00F0200EA3EC00F0200EA3EC00F0C9
:102E3000200EA3EC00F0200EA3EC00F0FE0EA3EC9D
:102E400000F0C00EA3EC00F0200EA3EC00F0230E67
:102E5000A3EC00F0330EA3EC00F0200EA3EC00F086
:102E6000530EA3EC00F0750EA3EC00F06E0EA3EC75
:102E700000F0720EA3EC00F0690EA3EC00F0730EEC
:102E8000A3EC00F0650EA3EC00F0200EA3EC00F024
:102E90004F0EA3EC00F0460EA3EC00F0460EA3ECA0
:102EA00000F0200EA3EC00F0200EA3EC00F0200EAA
:102EB000A3EC00F0200EA3EC00F0200EA3EC00F039
:102EC0003BEF1BF0040045502C08D8A4EBEF17F0A3
:102ED000FE0EA3EC00F0020EA3EC00F0200EA3EC1B
:102EE00000F0230EA3EC00F0330EA3EC00F0200E54
:102EF000A3EC00F0530EA3EC00F0750EA3EC00F071
:102F00006E0EA3EC00F0720EA3EC00F0690EA3ECC1
:102F100000F0730EA3EC00F0650EA3EC00F0200EA1
:102F2000A3EC00F04F0EA3EC00F04E0EA3EC00F06B
:102F3000200EA3EC00F0200EA3EC00F0200EA3EC7A
:102F400000F0200EA3EC00F0200EA3EC00F0FE0E2B
:102F5000A3EC00F0C00EA3EC00F03E0EA3EC00F0DA
:102F6000230EA3EC00F0330EA3EC00F0200EA3EC34
:102F700000F0530EA3EC00F0750EA3EC00F06E0E03
:102F8000A3EC00F0720EA3EC00F0690EA3EC00F0CD
:102F9000730EA3EC00F0650EA3EC00F0200EA3EC82
:102FA00000F04F0EA3EC00F0460EA3EC00F0460E2E
:102FB000A3EC00F0200EA3EC00F0200EA3EC00F038
:102FC000200EA3EC00F0200EA3EC00F0200EA3ECEA
:102FD00000F03BEF1BF0040045503008D8A46EEF22
:102FE00018F0FE0EA3EC00F0020EA3EC00F03E0E73
:102FF000A3EC00F0230EA3EC00F0330EA3EC00F0E2
:10300000200EA3EC00F0530EA3EC00F0750EA3EC21
:1030100000F06E0EA3EC00F0730EA3EC00F0650E52
:10302000A3EC00F0740EA3EC00F0200EA3EC00F073
:103030004F0EA3EC00F04E0EA3EC00F0200EA3EC1C
:1030400000F0200EA3EC00F0200EA3EC00F0200E08
:10305000A3EC00F0200EA3EC00F0FE0EA3EC00F0B9
:10306000C00EA3EC00F0200EA3EC00F0230EA3ECA6
:1030700000F0330EA3EC00F0200EA3EC00F0530E92
:10308000A3EC00F0750EA3EC00F06E0EA3EC00F0C4
:10309000730EA3EC00F0650EA3EC00F0740EA3EC2D
:1030A00000F0200EA3EC00F04F0EA3EC00F0460E53
:1030B000A3EC00F0460EA3EC00F0200EA3EC00F011
:1030C000200EA3EC00F0200EA3EC00F0200EA3ECE9
:1030D00000F0200EA3EC00F03BEF1BF00400455085
:1030E0003408D8A4F1EF18F0FE0EA3EC00F0020EA5
:1030F000A3EC00F0200EA3EC00F0230EA3EC00F0F4
:10310000330EA3EC00F0200EA3EC00F0530EA3EC62
:1031100000F0750EA3EC00F06E0EA3EC00F0730E41
:10312000A3EC00F0650EA3EC00F0740EA3EC00F02D
:10313000200EA3EC00F04F0EA3EC00F04E0EA3EC1B
:1031400000F0200EA3EC00F0200EA3EC00F0200E07
:10315000A3EC00F0200EA3EC00F0200EA3EC00F096
:10316000FE0EA3EC00F0C00EA3EC00F03E0EA3ECAC
:1031700000F0230EA3EC00F0330EA3EC00F0200EC1
:10318000A3EC00F0530EA3EC00F0750EA3EC00F0DE
:103190006E0EA3EC00F0730EA3EC00F0650EA3EC32
:1031A00000F0740EA3EC00F0200EA3EC00F04F0E24
:1031B000A3EC00F0460EA3EC00F0460EA3EC00F0EA
:1031C000200EA3EC00F0200EA3EC00F0200EA3ECE8
:1031D00000F0200EA3EC00F0200EA3EC00F03BEF7B
:1031E0001BF0040045503808D8A47AEF19F0FE0E01
:1031F000A3EC00F0020EA3EC00F03E0EA3EC00F0F6
:10320000230EA3EC00F0340EA3EC00F0200EA3EC90
:1032100000F0530EA3EC00F0750EA3EC00F06E0E60
:10322000A3EC00F0720EA3EC00F0690EA3EC00F02A
:10323000730EA3EC00F0650EA3EC00F0200EA3ECDF
:1032400000F04F0EA3EC00F04E0EA3EC00F0200EA9
:10325000A3EC00F0200EA3EC00F0200EA3EC00F095
:10326000200EA3EC00F0200EA3EC00F0FE0EA3EC69
:1032700000F0C00EA3EC00F0200EA3EC00F0230E33
:10328000A3EC00F0340EA3EC00F0200EA3EC00F051
:10329000530EA3EC00F0750EA3EC00F06E0EA3EC41
:1032A00000F0720EA3EC00F0690EA3EC00F0730EB8
:1032B000A3EC00F0650EA3EC00F0200EA3EC00F0F0
:1032C0004F0EA3EC00F0460EA3EC00F0460EA3EC6C
:1032D00000F0200EA3EC00F0200EA3EC00F0200E76
:1032E000A3EC00F0200EA3EC00F0200EA3EC00F005
:1032F0003BEF1BF0040045503C08D8A403EF1AF044
:10330000FE0EA3EC00F0020EA3EC00F0200EA3ECE6
:1033100000F0230EA3EC00F0340EA3EC00F0200E1E
:10332000A3EC00F0530EA3EC00F0750EA3EC00F03C
:103330006E0EA3EC00F0720EA3EC00F0690EA3EC8D
:1033400000F0730EA3EC00F0650EA3EC00F0200E6D
:10335000A3EC00F04F0EA3EC00F04E0EA3EC00F037
:10336000200EA3EC00F0200EA3EC00F0200EA3EC46
:1033700000F0200EA3EC00F0200EA3EC00F0FE0EF7
:10338000A3EC00F0C00EA3EC00F03E0EA3EC00F0A6
:10339000230EA3EC00F0340EA3EC00F0200EA3ECFF
:1033A00000F0530EA3EC00F0750EA3EC00F06E0ECF
:1033B000A3EC00F0720EA3EC00F0690EA3EC00F099
:1033C000730EA3EC00F0650EA3EC00F0200EA3EC4E
:1033D00000F04F0EA3EC00F0460EA3EC00F0460EFA
:1033E000A3EC00F0200EA3EC00F0200EA3EC00F004
:1033F000200EA3EC00F0200EA3EC00F0200EA3ECB6
:1034000000F03BEF1BF0040045504008D8A486EFC5
:103410001AF0FE0EA3EC00F0020EA3EC00F03E0E3C
:10342000A3EC00F0230EA3EC00F0340EA3EC00F0AC
:10343000200EA3EC00F0530EA3EC00F0750EA3ECED
:1034400000F06E0EA3EC00F0730EA3EC00F0650E1E
:10345000A3EC00F0740EA3EC00F0200EA3EC00F03F
:103460004F0EA3EC00F04E0EA3EC00F0200EA3ECE8
:1034700000F0200EA3EC00F0200EA3EC00F0200ED4
:10348000A3EC00F0200EA3EC00F0FE0EA3EC00F085
:10349000C00EA3EC00F0200EA3EC00F0230EA3EC72
:1034A00000F0340EA3EC00F0200EA3EC00F0530E5D
:1034B000A3EC00F0750EA3EC00F06E0EA3EC00F090
:1034C000730EA3EC00F0650EA3EC00F0740EA3ECF9
:1034D00000F0200EA3EC00F04F0EA3EC00F0460E1F
:1034E000A3EC00F0460EA3EC00F0200EA3EC00F0DD
:1034F000200EA3EC00F0200EA3EC00F0200EA3ECB5
:1035000000F0200EA3EC00F03BEF1BF00400455050
:103510004408D8A409EF1BF0FE0EA3EC00F0020E45
:10352000A3EC00F0200EA3EC00F0230EA3EC00F0BF
:10353000340EA3EC00F0200EA3EC00F0530EA3EC2D
:1035400000F0750EA3EC00F06E0EA3EC00F0730E0D
:10355000A3EC00F0650EA3EC00F0740EA3EC00F0F9
:10356000200EA3EC00F04F0EA3EC00F04E0EA3ECE7
:1035700000F0200EA3EC00F0200EA3EC00F0200ED3
:10358000A3EC00F0200EA3EC00F0200EA3EC00F062
:10359000FE0EA3EC00F0C00EA3EC00F03E0EA3EC78
:1035A00000F0230EA3EC00F0340EA3EC00F0200E8C
:1035B000A3EC00F0530EA3EC00F0750EA3EC00F0AA
:1035C0006E0EA3EC00F0730EA3EC00F0650EA3ECFE
:1035D00000F0740EA3EC00F0200EA3EC00F04F0EF0
:1035E000A3EC00F0460EA3EC00F0460EA3EC00F0B6
:1035F000200EA3EC00F0200EA3EC00F0200EA3ECB4
:1036000000F0200EA3EC00F0200EA3EC00F03BEF46
:103610001BF0040045504808D8A43BEF1BF0030EF4
:10362000A96E54EC01F0726F040072510108D8A425
:103630001CEF1BF017EF04F0040072510208D8A42D
:103640003BEF1BF0426A010E446E500EA96E54EC23
:1036500001F0736F510EA96E54EC01F0746F520EAD
:10366000A96E54EC01F0756F530EA96E54EC01F085
:10367000766F67EF05F0040032B036EF1FF032AA24
:1036800036EF1FF0726B346A356A73C05AF074C03B
:103690005BF075C05CF076C05DF0040081AC36EF85
:1036A0001FF0446A040045500008D8A428EF1CF01D
:1036B000CD90800E0F6E0F0E116E020E0D6E800EED
:1036C000106E0F0E126E010E0E6ED00E29EC00F071
:1036D000000E29EC00F010EC00F0556E10EC00F03C
:1036E000536E10EC00F0526E10EC00F0516E10ECC6
:1036F00000F0506E10EC00F0546E0EEC00F0566EC0
:10370000CD80F00E53142A6E2B6A2C6A2D6A2AC0C3
:103710001AF02BC01BF02CC01CF02DC01DF0040EA5
:1037200096EC01F02A6E1BC02BF01CC02CF01DC0C3
:103730002DF02AC026F02BC027F02CC028F02DC079
:1037400029F00A0E1E6E1F6A206A216A1AEC02F026
:103750002A6E23C02BF024C02CF025C02DF00F0EB4
:1037600053142E6E2F6A306A316A2A502E243C6E12
:10377000F00E52142A6E2B6A2C6A2D6A2AC01AF097
:103780002BC01BF02CC01CF02DC01DF0040E96ECBD
:1037900001F02A6E1BC02BF01CC02CF01DC02DF0B8
:1037A0002AC026F02BC027F02CC028F02DC029F00D
:1037B0000A0E1E6E1F6A206A216A1AEC02F02A6E37
:1037C00023C02BF024C02CF025C02DF00F0E521476
:1037D0002E6E2F6A306A316A2A502E243D6EF00E0A
:1037E00055142A6E2B6A2C6A2D6A2AC01AF02BC037
:1037F0001BF02CC01CF02DC01DF0040E96EC01F047
:103800002A6E1BC02BF01CC02CF01DC02DF02AC04E
:1038100026F02BC027F02CC028F02DC029F00A0E6E
:103820001E6E1F6A206A216A1AEC02F02A6E23C0FB
:103830002BF024C02CF025C02DF00F0E55142E6E49
:103840002F6A306A316A2A502E243E6EB4EF23F07C
:10385000040045500408D8A435EF1CF0030EA96EEF
:1038600054EC01F0726F48EF1FF004004550080857
:10387000D8A467EF1CF0010E436E010E5F6E010EBF
:103880004F6E010E446E736B45C0A9FF54EC01F0FE
:10389000576E45282A6E2B6A2C6A2D6A2B362AC051
:1038A000A9FF54EC01F0466E020E45242A6E2B6AE5
:1038B0002C6A2D6A000E2B22000E2C22000E2D22C7
:1038C0002AC0A9FF54EC01F04B6E5AEF20F004001F
:1038D00045500C08D8A497EF1CF0010E436E010E62
:1038E0005F6E4F6A010E446E45C0A9FF54EC01F0B3
:1038F000576E45282A6E2B6A2C6A2D6A2B362AC0F1
:10390000A9FF54EC01F0466E020E45242A6E2B6A84
:103910002C6A2D6A000E2B22000E2C22000E2D2266
:103920002AC0A9FF54EC01F04B6E5AEF20F00400BE
:1039300045501008D8A4C7EF1CF0010E436E5F6A13
:10394000010E4F6E010E446E45C0A9FF54EC01F00C
:10395000576E45282A6E2B6A2C6A2D6A2B362AC090
:10396000A9FF54EC01F0466E020E45242A6E2B6A24
:103970002C6A2D6A000E2B22000E2C22000E2D2206
:103980002AC0A9FF54EC01F04B6E5AEF20F004005E
:1039900045501408D8A4F6EF1CF0010E436E5F6A80
:1039A0004F6A010E446E45C0A9FF54EC01F0576EFA
:1039B00045282A6E2B6A2C6A2D6A2B362AC0A9FF4D
:1039C00054EC01F0466E020E45242A6E2B6A2C6AD6
:1039D0002D6A000E2B22000E2C22000E2D222AC052
:1039E000A9FF54EC01F04B6E5AEF20F00400455053
:1039F0001808D8A427EF1DF0020E436E010E5F6E6B
:103A0000010E4F6E010E446E45C0A9FF54EC01F04B
:103A1000576E45282A6E2B6A2C6A2D6A2B362AC0CF
:103A2000A9FF54EC01F0466E020E45242A6E2B6A63
:103A30002C6A2D6A000E2B22000E2C22000E2D2245
:103A40002AC0A9FF54EC01F04B6E5AEF20F004009D
:103A500045501C08D8A457EF1DF0020E436E010E0E
:103A60005F6E4F6A010E446E45C0A9FF54EC01F031
:103A7000576E45282A6E2B6A2C6A2D6A2B362AC06F
:103A8000A9FF54EC01F0466E020E45242A6E2B6A03
:103A90002C6A2D6A000E2B22000E2C22000E2D22E5
:103AA0002AC0A9FF54EC01F04B6E5AEF20F004003D
:103AB00045502008D8A487EF1DF0020E436E5F6AC0
:103AC000010E4F6E010E446E45C0A9FF54EC01F08B
:103AD000576E45282A6E2B6A2C6A2D6A2B362AC00F
:103AE000A9FF54EC01F0466E020E45242A6E2B6AA3
:103AF0002C6A2D6A000E2B22000E2C22000E2D2285
:103B00002AC0A9FF54EC01F04B6E5AEF20F00400DC
:103B100045502408D8A4B6EF1DF0020E436E5F6A2C
:103B20004F6A010E446E45C0A9FF54EC01F0576E78
:103B300045282A6E2B6A2C6A2D6A2B362AC0A9FFCB
:103B400054EC01F0466E020E45242A6E2B6A2C6A54
:103B50002D6A000E2B22000E2C22000E2D222AC0D0
:103B6000A9FF54EC01F04B6E5AEF20F004004550D1
:103B70002808D8A4E7EF1DF0030E436E010E5F6E18
:103B8000010E4F6E010E446E45C0A9FF54EC01F0CA
:103B9000576E45282A6E2B6A2C6A2D6A2B362AC04E
:103BA000A9FF54EC01F0466E020E45242A6E2B6AE2
:103BB0002C6A2D6A000E2B22000E2C22000E2D22C4
:103BC0002AC0A9FF54EC01F04B6E5AEF20F004001C
:103BD00045502C08D8A417EF1EF0030E436E010EBB
:103BE0005F6E4F6A010E446E45C0A9FF54EC01F0B0
:103BF000576E45282A6E2B6A2C6A2D6A2B362AC0EE
:103C0000A9FF54EC01F0466E020E45242A6E2B6A81
:103C10002C6A2D6A000E2B22000E2C22000E2D2263
:103C20002AC0A9FF54EC01F04B6E5AEF20F00400BB
:103C300045503008D8A447EF1EF0030E436E5F6A6C
:103C4000010E4F6E010E446E45C0A9FF54EC01F009
:103C5000576E45282A6E2B6A2C6A2D6A2B362AC08D
:103C6000A9FF54EC01F0466E020E45242A6E2B6A21
:103C70002C6A2D6A000E2B22000E2C22000E2D2203
:103C80002AC0A9FF54EC01F04B6E5AEF20F004005B
:103C900045503408D8A476EF1EF0030E436E5F6AD9
:103CA0004F6A010E446E45C0A9FF54EC01F0576EF7
:103CB00045282A6E2B6A2C6A2D6A2B362AC0A9FF4A
:103CC00054EC01F0466E020E45242A6E2B6A2C6AD3
:103CD0002D6A000E2B22000E2C22000E2D222AC04F
:103CE000A9FF54EC01F04B6E5AEF20F00400455050
:103CF0003808D8A4A7EF1EF0040E436E010E5F6EC5
:103D0000010E4F6E010E446E45C0A9FF54EC01F048
:103D1000576E45282A6E2B6A2C6A2D6A2B362AC0CC
:103D2000A9FF54EC01F0466E020E45242A6E2B6A60
:103D30002C6A2D6A000E2B22000E2C22000E2D2242
:103D40002AC0A9FF54EC01F04B6E5AEF20F004009A
:103D500045503C08D8A4D7EF1EF0040E436E010E68
:103D60005F6E4F6A010E446E45C0A9FF54EC01F02E
:103D7000576E45282A6E2B6A2C6A2D6A2B362AC06C
:103D8000A9FF54EC01F0466E020E45242A6E2B6A00
:103D90002C6A2D6A000E2B22000E2C22000E2D22E2
:103DA0002AC0A9FF54EC01F04B6E5AEF20F004003A
:103DB00045504008D8A407EF1FF0040E436E5F6A19
:103DC000010E4F6E010E446E45C0A9FF54EC01F088
:103DD000576E45282A6E2B6A2C6A2D6A2B362AC00C
:103DE000A9FF54EC01F0466E020E45242A6E2B6AA0
:103DF0002C6A2D6A000E2B22000E2C22000E2D2282
:103E00002AC0A9FF54EC01F04B6E5AEF20F00400D9
:103E100045504408D8A436EF1FF0040E436E5F6A85
:103E20004F6A010E446E45C0A9FF54EC01F0576E75
:103E300045282A6E2B6A2C6A2D6A2B362AC0A9FFC8
:103E400054EC01F0466E020E45242A6E2B6A2C6A51
:103E50002D6A000E2B22000E2C22000E2D222AC0CD
:103E6000A9FF54EC01F04B6E5AEF20F032B4328EC1
:103E700032A4329E32B0328A32A0329A32B2328CBE
:103E800032A2329C32B6338032A633901EEF11F04C
:103E9000A1EC27F0AFEC07F0818C82B8328682A8C3
:103EA000329682BE328482AE329482BA328282AA42
:103EB0003292040032B663EF1FF033A063EF1FF0BD
:103EC000426A1EEF11F0040032B47BEF1FF032AEF5
:103ED0007BEF1FF0040072510108D8A474EF1FF0AB
:103EE000020E726F76EF1FF0010E726F030EA96E55
:103EF00072515BEC01F0040032B293EF1FF032AC70
:103F000093EF1FF0040072510108D8A48CEF1FF04A
:103F1000020E726F8EEF1FF0010E726F030EA96E0C
:103F200072515BEC01F0FE0EA3EC00F0020EA3EC6C
:103F300000F04D0EA3EC00F06F0EA3EC00F0640E49
:103F4000A3EC00F0650EA3EC00F0200EA3EC00F053
:103F5000200EA3EC00F0200EA3EC00F0200EA3EC4A
:103F600000F0200EA3EC00F0200EA3EC00F0200ED9
:103F7000A3EC00F0200EA3EC00F0200EA3EC00F068
:103F8000200EA3EC00F0040072510108D8A405EF44
:103F900020F0FE0EA3EC00F0C00EA3EC00F03E0EED
:103FA000A3EC00F0410EA3EC00F0750EA3EC00F0C2
:103FB000740EA3EC00F06F0EA3EC00F06D0EA3ECFA
:103FC00000F0610EA3EC00F0740EA3EC00F0690E9B
:103FD000A3EC00F0630EA3EC00F0200EA3EC00F0C5
:103FE000200EA3EC00F0200EA3EC00F0200EA3ECBA
:103FF00000F0200EA3EC00F0200EA3EC00F0200E49
:10400000A3EC00F0200EA3EC00F0040072510208B3
:10401000D8A44DEF20F0FE0EA3EC00F0C00EA3ECF0
:1040200000F03E0EA3EC00F04D0EA3EC00F0610E8C
:10403000A3EC00F06E0EA3EC00F0750EA3EC00F004
:10404000610EA3EC00F06C0EA3EC00F0200EA3ECCC
:1040500000F0200EA3EC00F0200EA3EC00F0200EE8
:10406000A3EC00F0200EA3EC00F0200EA3EC00F077
:10407000200EA3EC00F0200EA3EC00F0200EA3EC29
:1040800000F0200EA3EC00F0200EA3EC00F0200EB8
:10409000A3EC00F0200EA3EC00F032B6338032A681
:1040A000339032B4328E32A4329E32B2328C32A28B
:1040B000329CEED6A1EC27F0AFEC07F0818C82B8F1
:1040C000328682A8329682BC328082AC329082BE26
:1040D000328482AE329482BA328282AA3292040050
:1040E00032B087EF20F032AA87EF20F0722B040065
:1040F000020E725DD8A087EF20F0726B442A040094
:10410000040E445CD8A087EF20F0010E446E04003A
:1041100044500108D8A493EF20F03E0E886F200E83
:10412000896F200E8A6F040044500208D8A49FEFC4
:1041300020F0200E886F3E0E896F200E8A6F0400DB
:1041400044500308D8A4ABEF20F0200E886F200E57
:10415000896F3E0E8A6F040082BE00EF21F00400DA
:1041600044500108D8A4C3EF20F0572A0400180EC9
:10417000575CD8A0BEEF20F0170E576E45C0A9FFC0
:1041800057505BEC01F0040044500208D8A4DDEF66
:1041900020F0462A04003C0E465CD8A0D2EF20F066
:1041A0003B0E466E45282A6E2B6A2C6A2D6A2B36EA
:1041B0002AC0A9FF46505BEC01F0040044500308FC
:1041C000D8A4FDEF20F04B2A0400650E4B5CD8A06C
:1041D000ECEF20F0640E4B6E020E45242A6E2B6A23
:1041E0002C6A2D6A000E2B22000E2C22000E2D228E
:1041F0002AC0A9FF4B505BEC01F03C0E69EC01F0CA
:10420000040082BA97EF21F0040044500108D8A4BA
:104210002EEF21F0570657C01AF0010EA7EC01F05F
:104220002A6E57C01AF0170EA1EC01F02E6E2AC0AC
:104230001AF02E50D1EC01F02E6E2F6E306E316ED2
:1042400004002E502F1030103110D8B429EF21F077
:10425000576A45C0A9FF57505BEC01F00400445079
:104260000208D8A45EEF21F0460646C01AF0010EFF
:10427000A7EC01F02A6E46C01AF03B0EA1EC01F04B
:104280002E6E2AC01AF02E50D1EC01F02E6E2F6E39
:10429000306E316E04002E502F1030103110D8B413
:1042A00053EF21F0466A45282A6E2B6A2C6A2D6A44
:1042B0002B362AC0A9FF46505BEC01F004004450A5
:1042C0000308D8A494EF21F04B064BC01AF0010E5E
:1042D000A7EC01F02A6E4BC01AF0640EA1EC01F0BD
:1042E0002E6E2AC01AF02E50D1EC01F02E6E2F6ED9
:1042F000306E316E04002E502F1030103110D8B4B3
:1043000083EF21F04B6A020E45242A6E2B6A2C6A39
:104310002D6A000E2B22000E2C22000E2D222AC008
:10432000A9FF4B505BEC01F03C0E69EC01F004007E
:10433000180E575CD8A09EEF21F0576A04003C0E7F
:10434000465CD8A0A5EF21F0466A0400650E4B5CE0
:10435000D8A0ACEF21F04B6A04005F500108D8A44C
:1043600055EF22F004004F500108D8A408EF22F0C6
:10437000FE0EA3EC00F0020EA3EC00F0530EA3EC33
:1043800000F0750EA3EC00F06E0EA3EC00F0720EC0
:10439000A3EC00F0690EA3EC00F0730EA3EC00F0A8
:1043A000650EA3EC00F0200EA3EC00F0230EA3ECAE
:1043B00000F043507EEC00F0200EA3EC00F0200E45
:1043C000A3EC00F04F0EA3EC00F04E0EA3EC00F0B7
:1043D000200EA3EC00F0200EA3EC00F0200EA3ECC6
:1043E00000F0200EA3EC00F0200EA3EC00F0200E55
:1043F000A3EC00F0200EA3EC00F0200EA3EC00F0E4
:10440000200EA3EC00F0200EA3EC00F053EF22F0FE
:10441000FE0EA3EC00F0020EA3EC00F0530EA3EC92
:1044200000F0750EA3EC00F06E0EA3EC00F0720E1F
:10443000A3EC00F0690EA3EC00F0730EA3EC00F007
:10444000650EA3EC00F0200EA3EC00F0230EA3EC0D
:1044500000F043507EEC00F0200EA3EC00F0200EA4
:10446000A3EC00F04F0EA3EC00F0460EA3EC00F01E
:10447000460EA3EC00F0200EA3EC00F0200EA3ECFF
:1044800000F0200EA3EC00F0200EA3EC00F0200EB4
:10449000A3EC00F0200EA3EC00F0200EA3EC00F043
:1044A000200EA3EC00F0F0EF22F004004F500108C2
:1044B000D8A4A8EF22F0FE0EA3EC00F0020EA3ECAD
:1044C00000F0530EA3EC00F0750EA3EC00F06E0E9E
:1044D000A3EC00F0730EA3EC00F0650EA3EC00F06B
:1044E000740EA3EC00F0200EA3EC00F0230EA3EC5E
:1044F00000F043507EEC00F0200EA3EC00F0200E04
:10450000A3EC00F04F0EA3EC00F04E0EA3EC00F075
:10451000200EA3EC00F0200EA3EC00F0200EA3EC84
:1045200000F0200EA3EC00F0200EA3EC00F0200E13
:10453000A3EC00F0200EA3EC00F0200EA3EC00F0A2
:10454000200EA3EC00F0200EA3EC00F0F0EF22F020
:10455000FE0EA3EC00F0020EA3EC00F0530EA3EC51
:1045600000F0750EA3EC00F06E0EA3EC00F0730EDD
:10457000A3EC00F0650EA3EC00F0740EA3EC00F0C9
:10458000200EA3EC00F0230EA3EC00F043507EECD1
:1045900000F0200EA3EC00F0200EA3EC00F04F0E74
:1045A000A3EC00F0460EA3EC00F0460EA3EC00F0E6
:1045B000200EA3EC00F0200EA3EC00F0200EA3ECE4
:1045C00000F0200EA3EC00F0200EA3EC00F0200E73
:1045D000A3EC00F0200EA3EC00F0200EA3EC00F002
:1045E000040044500308D8A422EF23F004004350F1
:1045F0000108D8A401EF23F04BC073F0746B756B06
:10460000766B040043500208D8A40CEF23F0736BC0
:104610004BC074F0756B766B040043500308D8A44C
:1046200017EF23F0736B746B4BC075F0766B04005F
:1046300043500408D8A422EF23F0736B746B756B9E
:104640004BC076F0FE0EA3EC00F0C00EA3EC00F021
:104650008851A3EC00F0020E036E57C022F0236ACB
:10466000246A256A440E0A6E010E0B6EF5EC00F00A
:104670003A0EA3EC00F08951A3EC00F0020E036E99
:1046800046C022F0236A246A256A440E0A6E010E8F
:104690000B6EF5EC00F0200EA3EC00F02A0EA3EC5C
:1046A00000F0200EA3EC00F08A51A3EC00F0030E02
:1046B000036E4BC022F0236A246A256A440E0A6EF8
:1046C000010E0B6EF5EC00F0250EA3EC00F0200EB1
:1046D000A3EC00F0200EA3EC00F0200EA3EC00F001
:1046E000200EA3EC00F0200EA3EC00F0200EA3ECB3
:1046F00000F0200EA3EC00F0200EA3EC00F0200E42
:10470000A3EC00F0200EA3EC00F0200EA3EC00F0D0
:10471000200EA3EC00F0200EA3EC00F0040032B653
:10472000A2EF23F033A0A2EF23F0D1EC26F05AC081
:1047300073F05BC074F05CC075F05DC076F0426AE7
:104740001EEF11F032B6338032A6339032B4328E7F
:1047500032A4329E32B0328A32A0329A32B2328CD5
:1047600032A2329C5AEF20F0A1EC27F0AFEC07F018
:10477000818C82B8328682A8329682BC328082AC2A
:10478000329082BE328482AE329482BA328282AA5F
:104790003292040032B0D9EF23F032AAD9EF23F0DD
:1047A000442A0400030E445CD8A0D9EF23F0010E84
:1047B000446E040032B672EF24F033A072EF24F09E
:1047C0003CC01AF01B6A1C6A1D6A010E85EC01F0E0
:1047D0002A6E2B6A2C6A2D6A2AC026F02BC027F07D
:1047E0002CC028F02DC029F0100E1E6E1F6A206A02
:1047F000216A1AEC02F02A6E23C02BF024C02CF0A0
:1048000025C02DF03CC01AF01B6A1C6A1D6A000E00
:1048100085EC01F02E6E2F6A306A316A2A502E2400
:10482000536E3DC01AF01B6A1C6A1D6A010E85ECAE
:1048300001F02A6E2B6A2C6A2D6A2AC026F02BC042
:1048400027F02CC028F02DC029F0100E1E6E1F6A14
:10485000206A216A1AEC02F02A6E23C02BF024C0D1
:104860002CF025C02DF03DC01AF01B6A1C6A1D6A91
:10487000000E85EC01F02E6E2F6A306A316A2A50E4
:104880002E24526E556ACD90800E0F6E0F0E116E53
:10489000020E0D6E800E106E0F0E126E010E0E6E59
:1048A000D00E29EC00F0000E29EC00F0555029EC58
:1048B00000F0535029EC00F0525029EC00F0515018
:1048C00029EC00F0505029EC00F0545029EC00F095
:1048D000565027EC00F0CD80140E69EC01F0426ACE
:1048E0001EEF11F0040044500108D8A47EEF24F01C
:1048F0003E0E886F200E896F88EF24F0040044502C
:104900000208D8A488EF24F0200E886F3E0E896F2D
:10491000040082BEB0EF24F0040044500108D8A483
:104920009EEF24F03D2A0400180E3D5CD8A09BEFBA
:1049300024F0170E3D6E3C0E69EC01F0040044506B
:104940000208D8A4B0EF24F03C2A04003C0E3C5CE2
:10495000D8A0ADEF24F03B0E3C6E3C0E69EC01F0AC
:10496000040082BA04EF25F0040044500108D8A4E2
:10497000DCEF24F03D063DC01AF0010EA7EC01F07B
:104980002A6E3DC01AF0170EA1EC01F02E6E2AC05F
:104990001AF02E50D1EC01F02E6E2F6E306E316E6B
:1049A00004002E502F1030103110D8B4D9EF24F05D
:1049B0003D6A3C0E69EC01F0040044500208D8A4A2
:1049C00004EF25F03C063CC01AF0010EA7EC01F004
:1049D0002A6E3CC01AF03B0EA1EC01F02E6E2AC0EC
:1049E0001AF02E50D1EC01F02E6E2F6E306E316E1B
:1049F00004002E502F1030103110D8B401EF25F0E4
:104A00003C6A3C0E69EC01F0FE0EA3EC00F0020ED5
:104A1000A3EC00F0520EA3EC00F0540EA3EC00F057
:104A2000430EA3EC00F0200EA3EC00F0200EA3EC4C
:104A300000F0540EA3EC00F0690EA3EC00F06D0E34
:104A4000A3EC00F0650EA3EC00F0200EA3EC00F048
:104A5000200EA3EC00F0200EA3EC00F0200EA3EC3F
:104A600000F0200EA3EC00F0200EA3EC00F0200ECE
:104A7000A3EC00F0200EA3EC00F0200EA3EC00F05D
:104A8000200EA3EC00F0200EA3EC00F0200EA3EC0F
:104A900000F0FE0EA3EC00F0C00EA3EC00F0885175
:104AA000A3EC00F0020E036E3DC022F0236A246ADC
:104AB000256A440E0A6E010E0B6EF5EC00F03A0EFC
:104AC000A3EC00F08951A3EC00F0020E036E3CC091
:104AD00022F0236A246A256A440E0A6E010E0B6EC8
:104AE000F5EC00F0200EA3EC00F0200EA3EC00F09B
:104AF000200EA3EC00F0200EA3EC00F0200EA3EC9F
:104B000000F0200EA3EC00F0200EA3EC00F0200E2D
:104B1000A3EC00F0200EA3EC00F0200EA3EC00F0BC
:104B2000200EA3EC00F0200EA3EC00F0200EA3EC6E
:104B300000F0200EA3EC00F032B6338032A63390A2
:104B400032B4328E32A4329E32B0328A32A0329ADD
:104B500032B2328C32A2329C07D63288A1EC27F0D6
:104B6000AFEC07F0818C82BE328482AE329482BA7E
:104B7000328282AA3292040082A0D7EF25F03298C6
:104B8000030EA96E54EC01F0726F0400725101081B
:104B9000D8A4CDEF25F017EF04F0040072510208FD
:104BA000D8A4D7EF25F0010E446E67EF05F004009E
:104BB00082BEECEF25F04C2A0400650E4C5CD8A0B8
:104BC000E4EF25F0640E4C6E020EA96E4C505BECC7
:104BD00001F03C0E69EC01F0040082BA17EF26F0F8
:104BE0004C064CC01AF0010EA7EC01F02A6E4CC026
:104BF0001AF0640EA1EC01F02E6E2AC01AF02E50AD
:104C0000D1EC01F02E6E2F6E306E316E04002E50FE
:104C10002F1030103110D8B40FEF26F04C6A020E6E
:104C2000A96E4C505BEC01F03C0E69EC01F0FE0EFD
:104C3000A3EC00F0020EA3EC00F04D0EA3EC00F08C
:104C4000610EA3EC00F0690EA3EC00F06E0EA3EC75
:104C500000F0740EA3EC00F0650EA3EC00F06E0EF5
:104C6000A3EC00F0610EA3EC00F06E0EA3EC00F0DC
:104C7000630EA3EC00F0650EA3EC00F0200EA3EC95
:104C800000F0250EA3EC00F0200EA3EC00F0200EA7
:104C9000A3EC00F0200EA3EC00F0200EA3EC00F03B
:104CA000200EA3EC00F0200EA3EC00F0200EA3ECED
:104CB00000F0200EA3EC00F0200EA3EC00F0200E7C
:104CC000A3EC00F0FE0EA3EC00F0C00EA3EC00F08D
:104CD000430EA3EC00F0680EA3EC00F0610EA3EC11
:104CE00000F06E0EA3EC00F06E0EA3EC00F0650E6B
:104CF000A3EC00F06C0EA3EC00F0200EA3EC00F08F
:104D0000230EA3EC00F0310EA3EC00F0200EA3EC78
:104D100000F02D0EA3EC00F0200EA3EC00F0030E2B
:104D2000036E4CC022F0236A246A256A440E0A6E80
:104D3000010E0B6EF5EC00F0200EA3EC00F0250E3A
:104D4000A3EC00F0200EA3EC00F0200EA3EC00F08A
:104D5000200EA3EC00F0200EA3EC00F0200EA3EC3C
:104D600000F0200EA3EC00F0200EA3EC00F0200ECB
:104D7000A3EC00F0200EA3EC00F0200EA3EC00F05A
:104D8000200EA3EC00F04CC073F0746B756B766B67
:104D900032B4328E32A4329E32B2328C32A2329C83
:104DA000DCD6080E426E0400490E425CD8B0F3EF28
:104DB00026F04250910FE96E000EEA6AEA22EF6A8D
:104DC00042C0A9FF54EC01F02A6E2B6A2C6A2D6AAE
:104DD0004250910FE96E000EEA6AEA222AC0EFFF04
:104DE000422AD8A0E0D71200010EA96E54EC01F0BF
:104DF000416E04004150FF08D8A4A0EF27F0080E30
:104E0000426E0400490E425CD8B03DEF27F042C02C
:104E1000A9FF000E5BEC01F042282A6E2B6A2C6A77
:104E20002D6A2B362AC0A9FF000E5BEC01F0020EA2
:104E300042242A6E2B6A2C6A2D6A000E2B22000E49
:104E40002C22000E2D222AC0A9FF000E5BEC01F0DF
:104E5000030E42242A6E2B6A2C6A2D6A000E2B2226
:104E6000000E2C22000E2D222AC0A9FF000E5BECA2
:104E700001F0040E4226D8A0C4D7010EA96E010E7F
:104E80005BEC01F0020EA96E0A0E5BEC01F0030E62
:104E9000A96E010E5BEC01F0500EA96E000E5BECEA
:104EA00001F0510EA96E000E5BEC01F0520EA96EDE
:104EB000000E5BEC01F0530EA96E000E5BEC01F0EE
:104EC000540EA96E000E5BEC01F0550EA96E000E9B
:104ED0005BEC01F0560EA96E000E5BEC01F0570E74
:104EE000A96E000E5BEC01F0CD90800E0F6E0F0EE0
:104EF000116E020E0D6E800E106E0F0E126E010EF0
:104F00000E6ED00E29EC00F0000E29EC00F0000E21
:104F100029EC00F0000E29EC00F0000E29EC00F066
:104F2000000E29EC00F0000E29EC00F0000E29EC38
:104F300000F0000E29EC00F0000E27EC00F0CD8010
:104F40001200800E0F6E0F0E116E020E0D6E800E8F
:104F5000106E0F0E126E010E0E6ED00E29EC00F0C8
:104F6000000E29EC00F010EC00F0556E10EC00F093
:104F7000536E10EC00F0526E10EC00F0516E10EC1D
:104F800000F0506E10EC00F0546E0EEC00F0566E17
:104F9000F00E53142A6E2B6A2C6A2D6A2AC01AF05E
:104FA0002BC01BF02CC01CF02DC01DF0040E96EC85
:104FB00001F02A6E1BC02BF01CC02CF01DC02DF080
:104FC0002AC026F02BC027F02CC028F02DC029F0D5
:104FD0000A0E1E6E1F6A206A216A1AEC02F02A6EFF
:104FE00023C02BF024C02CF025C02DF00F0E53143D
:104FF0002E6E2F6A306A316A2A502E243C6EF00ED3
:1050000052142A6E2B6A2C6A2D6A2AC01AF02BC001
:105010001BF02CC01CF02DC01DF0040E96EC01F00E
:105020002A6E1BC02BF01CC02CF01DC02DF02AC016
:1050300026F02BC027F02CC028F02DC029F00A0E36
:105040001E6E1F6A206A216A1AEC02F02A6E23C0C3
:105050002BF024C02CF025C02DF00F0E52142E6E14
:105060002F6A306A316A2A502E243D6EF00E551494
:105070002A6E2B6A2C6A2D6A2AC01AF02BC01BF0EC
:105080002CC01CF02DC01DF0040E96EC01F02A6E11
:105090001BC02BF01CC02CF01DC02DF02AC026F028
:1050A0002BC027F02CC028F02DC029F00A0E1E6E50
:1050B0001F6A206A216A1AEC02F02A6E23C02BF0C4
:1050C00024C02CF025C02DF00F0E55142E6E2F6A23
:1050D000306A316A2A502E243E6E12000300FED739
:020000040030CA
:0A000000E03CFEFFFF79BBFFFC3F70
:00000001FF
