:020000040000FA
:10000000006AA4EF02F0008A00AA009A00B603D0AA
:10001000008644D827E2080E176E54D81636172EDD
:10002000FCD700AA2ED85CD855D800BA1BD821D846
:100030001650D890A1EF02F0008A00AA009A00B4EE
:1000400005D0FE0B016E0084D8900AD000B805D010
:100050001E6E008823D806E21E5027D803E200AAAD
:10006000A1EF02F00ED83CD800940098009601D879
:10007000F7D710C0EAFF0E3CE96EE9880C50EC128D
:1000800008D010C0EAFF0EC0E9FF0C1CEE16E9888C
:10009000EC16040E126E122EFED71200EADF20D8E4
:1000A000F0DF18D8015000B60109166E080E176E61
:1000B0001636D8B0DEDFD8A0E4DF12D80BD8172E62
:1000C000F7D7D7DF0DD810C0EAFF0EC0E9FF0C50FC
:1000D000EF14FF0F11C0EAFF0FC0E9FF0D1CD6D7C8
:1000E00011C0EAFF0FC0E9FF0D50EE12E9880D1CA8
:1000F000EC16CFD7E9501F6E8098809A809A92981C
:10010000929A929AF00E92161F5000B221D03A0E97
:10011000136EFC0E55EC01F0330E1E6E30D8100E2F
:10012000136E680E55EC01F02AD8640E54EC01F001
:1001300026D8220E1E6E23D8280E09D80C0E07D8FA
:10014000010E05D8060E03D800821F5001D0008092
:100150001E6E00A00BD0809A03080FE30ED8070E86
:10016000136ED00E55EC01F0D88012000080FE080E
:10017000D8B4A1EF02F0808A00D01E3A00A000900F
:100180008088F00E80161E500F0B801280981E3A49
:1001900000B0F5D7320E54EC01F0D8801200019E69
:1001A0000350D8B4018E0A0E026E3B0E196E9A0EE1
:1001B000186ECA0E176E000E35D8050E196EF50EA4
:1001C000186EE10E176E000E2DD8196A980E186E73
:1001D000960E176E800E26D8196A0F0E186E420EF4
:1001E000176E400E1FD8196A010E186E860E176E14
:1001F000A00E18D8196A186A270E176E100E12D89A
:10020000196A186A030E176EE80E0CD8196A186A74
:10021000176A640E07D8196A186A176A0A0E02D894
:100220001A500CD0166E1D50156E1C50146E1B50BB
:10023000136E1A50126ED5EC01F01250126E024E6F
:10024000019E035003E0025CD8B012001250D8A403
:10025000019E01BE1200300F9BEF02F0A66AA6803D
:10026000A850A92AA1EF02F0E86AA86EA66AA6849F
:10027000550EA76EAA0EA76EA682A6B2FED7A694AA
:10028000A92AA1EF02F0176A186A196A166EE86ABD
:100290001606175A185A195AD8A0A1EF02F0030EE1
:1002A000136EE50E02D8F3D7136AFB0F126E00D05F
:1002B000E86A01D01206135AFDE2000012001F6E18
:1002C0000A0E166E176A186A196AD5EC01F01F0635
:1002D000FCE21A501200D890123613361436153636
:1002E000FF0FF9E21250A1EF02F0D890153214324C
:1002F00013321232FF0FF9E21250A1EF02F0166E24
:10030000020E17D0166E030E14D0166E010E0FD00B
:10031000166E060E0ED0166E040E09D0166E040E62
:1003200008D0166E050E05D0166E050E04D0026EAE
:100330000FD0026E0AD0026E1950151815E619502A
:10034000155C08E11850145C05E11750135C02E1DC
:100350001650125C040ED8B0010ED8B4020E02146E
:10036000D8A4FF0EA1EF02F01550195CF3D7E86690
:10037000FF0E1214D8A4FF0EA1EF02F01210D8A4A1
:10038000FF0EA1EF02F0216A15AE06D0217EE86AC9
:10039000126C13561456155619AE08D0217EE86A11
:1003A000166C17561856195601D0216A1A6A1B6A1C
:1003B0001C6A1D6A200E1E6E15341A361B361C363A
:1003C0001D3616501A5E17501B5A18501C5A1950D9
:1003D0001D5A09E216501A2617501B2218501C22CB
:1003E00019501D22D89012361336143615361E2E8B
:1003F000E3D721AE09D0E86A126C1356145615568D
:100400001A6C1B561C561D561250A1EF02F01650C6
:100410001E02F3CF1AF0F4CF1BF017501F02F3CFD8
:100420001CF0F4CF1DF01E02F3501B26F4501C22CA
:10043000E86A1D2216501F02F3501B26F4501C229E
:10044000E86A1D2218501E02F3501C26F4501D228B
:1004500018501F02E86A126A1222F3501D26F45047
:10046000122216502002F3501C26F4501D22E86A76
:10047000136A1222132217502002F3501D26F45043
:100480001222E86A132218502002F3501226F45068
:10049000132219501F02F3501226F4501322195040
:1004A0002002E86A146A1422F3501326F45014222E
:1004B00019501E02F3501D26F4501222E86A13222E
:1004C000142219502102F4CF15F0F3501426E86AD3
:1004D000152216502102F3501D26F4501222E86A0C
:1004E00013221422152217502102F3501226F45021
:1004F0001322E86A1422152218502102F350132601
:10050000F4501422E86A152221AE08D01650125E6B
:100510001750135A1850145A1950155A19AE08D0BA
:100520001E50125E1F50135A2050145A2150155A53
:100530001A50A1EF02F0E96EFB6A0B50FA6E0A50F6
:10054000F96E00010000120072EF04F0090E126E45
:100550003D0E136E146A156A4EC016F04FC017F0A8
:10056000186A196A10DF506E13C051F050C012F0B3
:1005700051C013F0176A040ED1DED8A4D2EF02F0F6
:10058000D89670B3D886D8B6C7EF02F0708570835E
:10059000D89670B1D886D8B6CFEF02F0708570814A
:1005A000F6EF02F0D89670A3D886D8B6D9EF02F04D
:1005B0007085709350C012F051C013F0176A000E8E
:1005C000A7DED8A4EEEF02F0D89670B1D886D8B6E0
:1005D000EBEF02F070857081F6EF02F0D89670A113
:1005E000D886D8B6F5EF02F070857091126A090EC0
:1005F000136E3D0E146E156A4EC016F04FC017F004
:10060000186A196AC0DE506E13C051F0D89670A1F6
:10061000D886D8B617EF03F050C012F051C013F0CF
:10062000146A156A020E66DE506E13C051F0D89639
:1006300070A3D886D8B628EF03F050C012F051C08E
:1006400013F0146A156A020E55DE506E13C051F095
:100650005004716F7151BB5CD8B430EF03F07087F8
:100660007129226E236A246A256A233622C012F079
:1006700023C013F0020E34DE506E13C051F050C090
:100680001EF051C01FF0206A216A4CC016F04DC008
:1006900017F0186A196ABBDE226E1BC023F01CC05B
:1006A00024F01DC025F022C012F023C013F024C096
:1006B00014F025C015F01668030E176E186A196A33
:1006C00062DE4C6E13C04DF06F51126E0508D8A05B
:1006D0007CEF03F0FA6AFB6A1236FA36EC0E122649
:1006E000060EFA22000EFB221250F96E21D004D021
:1006F00009D00ED013D018D0BECF50F0BDCF51F0DE
:1007000098EF03F067CF50F066CF51F098EF03F009
:100710005ECF50F05DCF51F098EF03F058CF50F01E
:1007200057CF51F098EF03F055CF50F054CF51F020
:1007300050C012F0136A146A156A020E70EC01F0D0
:10074000226E13C023F014C024F015C025F0300E23
:100750005114266E276A286A296A26C012F027C01B
:1007600013F028C014F029C015F0040E7AEC01F043
:10077000266E13C027F014C028F015C029F02250AF
:100780002610506E23502710516E50C012F051C0E9
:1007900013F04DC017F04C507FEC01F0D8A436EFA9
:1007A00004F04CC012F04DC013F0146A156A020E2A
:1007B0007AEC01F0506E13C051F0030E4C14226E0F
:1007C000000E4D14236E246A256A22C012F023C045
:1007D00013F024C014F025C015F0040E70EC01F0E5
:1007E000226E13C023F014C024F015C025F00C0EA7
:1007F0002210516EBAA402EF04F09E929EB202EF54
:1008000004F0FCD76F51126E0508D8A01AEF04F05F
:10081000FA6AFB6A1236FA36280E1226080EFA22F7
:10082000000EFB221250F96E21D004D009D00ED058
:1008300013D018D050C0BEFF51C0BDFF36EF04F03A
:1008400050C067FF51C066FF36EF04F050C05EFF36
:1008500051C05DFF36EF04F050C058FF51C057FF44
:1008600036EF04F050C055FF51C054FFBAB43AEF10
:1008700004F0BA84E86A70B5010F70B70109226EFE
:10088000236A246A256A22C012F023C013F024C010
:1008900014F025C015F0196A186A176A010E94EC55
:1008A00001F0D8A471EF04F09E929EB259EF04F0CB
:1008B000FCD7D89670A5D886D8B668EF04F07095A6
:1008C00070B1BA8070A1BA9070B3BA8270A3BA92B4
:1008D000D89670A7D886D8B671EF04F0709771C01B
:1008E000BBFF12000F01386B396BF19EF70E616E82
:1008F000780ED36ED26A800E9B6E070ECD6E386B6B
:10090000396B020E3A6F946892689368C80E0001C2
:1009100043EC01F08296949682989498829A949AE5
:10092000829C949C819693968190939082949494C7
:1009300093829388938A938C938E9384E968050EAF
:10094000EA6EED6AE950EA10FCE1EF6A300E4A6E99
:10095000750E4B6E3C863C8C3C8A3C883D803C8EC0
:100960003B9C8286820E0E6E0F0E106E010E0C6E78
:10097000820E0F6E0F0E116E020E0D6E900E1EEC9B
:1009800000F0010E1EEC00F0000E1CEC00F0140E46
:1009900043EC01F0010EA96E2EEC01F0976F975118
:1009A0000108D8B4D6EF04F0B2EC38F08BEC3EF08E
:1009B0003BAAE2EF04F0070EA96E2EEC01F0966F51
:1009C00057EC37F03CEC3EF0050EA96E2EEC01F032
:1009D000E8B03A80E8A03A90060EA96E2EEC01F03D
:1009E000E8B03A82E8A03A923AB0A5EF05F0640E7A
:1009F000A96E2EEC01F0756F650EA96E2EEC01F05C
:100A0000766F660EA96E2EEC01F0776F75C01EF042
:100A10001F6A206A216A166A040E176E186A196A1C
:100A200007EC02F0226E1BC023F01CC024F01DC096
:100A300025F022C012F023C013F024C014F025C00A
:100A400015F0640E166E176A186A196AC3EC01F085
:100A50009A6F13C09BF014C09CF015C09DF076C037
:100A60001EF01F6A206A216A166A040E176E186A41
:100A7000196A07EC02F0226E1BC023F01CC024F0A0
:100A80001DC025F022C012F023C013F024C014F0C2
:100A900025C015F0640E166E176A186A196AC3EC41
:100AA00001F09E6F13C09FF014C0A0F015C0A1F01C
:100AB00077C01EF01F6A206A216A166A040E176E3C
:100AC000186A196A07EC02F0226E1BC023F01CC0E2
:100AD00024F01DC025F022C012F023C013F024C062
:100AE00014F025C015F0640E166E176A186A196A9C
:100AF000C3EC01F0A26F13C0A3F014C0A4F015C0A2
:100B0000A5F0040E6F6F9AC04CF09BC04DF04AC028
:100B10004EF04BC04FF0A6EC02F0030E6F6F9EC07C
:100B20004CF09FC04DF04AC04EF04BC04FF0A6ECC9
:100B300002F0010E6F6FA2C04CF0A3C04DF04AC08E
:100B40004EF04BC04FF0A6EC02F03AB2E2EF05F0E7
:100B5000670EA96E2EEC01F0786F78C01EF01F6A48
:100B6000206A216A166A040E176E186A196A07EC61
:100B700002F0226E1BC023F01CC024F01DC025F023
:100B800022C012F023C013F024C014F025C015F0C9
:100B9000640E166E176A186A196AC3EC01F0A66F24
:100BA00013C0A7F014C0A8F015C0A9F0020E6F6F13
:100BB000A6C04CF0A7C04DF04AC04EF04BC04FF05D
:100BC000A6EC02F0FE0E7BEC00F0020E7BEC00F0D7
:100BD000410E7BEC00F0510E7BEC00F0550E7BECEF
:100BE00000F0410E7BEC00F02D0E7BEC00F04C0E83
:100BF0007BEC00F0450E7BEC00F0440E7BEC00F04B
:100C0000200E7BEC00F0200E7BEC00F0200E7BEC45
:100C100000F0200E7BEC00F0200E7BEC00F0200EAC
:100C20007BEC00F0200E7BEC00F0200E7BEC00F063
:100C3000200E7BEC00F0200E7BEC00F0200E7BEC15
:100C400000F0200E7BEC00F0FE0E7BEC00F0C00EFE
:100C50007BEC00F0440E7BEC00F0410E7BEC00F0EE
:100C60004E0E7BEC00F0450E7BEC00F0520E7BEC60
:100C700000F0200E7BEC00F0460E7BEC00F0570EEF
:100C80007BEC00F03A0E7BEC00F0330E7BEC00F0D6
:100C90002E0E7BEC00F0300E7BEC00F0200E7BEC97
:100CA00000F0200E7BEC00F0200E7BEC00F0200E1C
:100CB0007BEC00F0200E7BEC00F0200E7BEC00F0D3
:100CC000200E7BEC00F0050E176EDC0E44EC01F0FC
:100CD000010E976F6CEF06F08BEC3EF070EC3AF083
:100CE00040EC3DF03BAE7FEF06F082A67EEF06F0D3
:100CF000010E976F7BEF16F07FEF06F082863AA821
:100D0000C9EF06F082A6C8EF06F03AA090EF06F011
:100D10003A90050EA96E000E35EC01F0C6EF06F014
:100D20003A80AAC012F0ABC013F0ACC014F0ADC052
:100D300015F0640E166E176A186A196AC3EC01F092
:100D4000756FAEC012F0AFC013F0B0C014F0B1C0F8
:100D500015F0640E166E176A186A196AC3EC01F072
:100D6000766FB2C012F0B3C013F0B4C014F0B5C0C7
:100D700015F0640E166E176A186A196AC3EC01F052
:100D8000776F050EA96E010E35EC01F0C9EF06F084
:100D900082863AA6F3EF06F082A6F2EF06F03AA2B8
:100DA000DAEF06F03A92060EA96E000E35EC01F06D
:100DB000F0EF06F03A82060EA96E010E35EC01F056
:100DC000B6C012F0B7C013F0B8C014F0B9C015F037
:100DD000640E166E176A186A196AC3EC01F0786F10
:100DE000F3EF06F082863BAA04EF07F082A603EF3A
:100DF00007F03B8C020EA96E2EEC01F0856FB7EF69
:100E000030F004EF07F0828681B212EF07F0792B01
:100E1000330E795DD8A010EF07F082789498796B43
:100E200013EF07F0796B81B821EF07F06C2B330ECD
:100E30006C5DD8A01FEF07F0827A949A6C6B22EF5A
:100E400007F06C6B3AB0D8EF07F0640EA96E2EEC89
:100E500001F0756F650EA96E2EEC01F0766F660ECF
:100E6000A96E2EEC01F0776F75C01EF01F6A206A24
:100E7000216A166A040E176E186A196A07EC02F0E6
:100E8000226E1BC023F01CC024F01DC025F022C020
:100E900012F023C013F024C014F025C015F0640E26
:100EA000166E176A186A196AC3EC01F09A6F13C0BC
:100EB0009BF014C09CF015C09DF076C01EF01F6A18
:100EC000206A216A166A040E176E186A196A07ECFE
:100ED00002F0226E1BC023F01CC024F01DC025F0C0
:100EE00022C012F023C013F024C014F025C015F066
:100EF000640E166E176A186A196AC3EC01F09E6FC9
:100F000013C09FF014C0A0F015C0A1F077C01EF070
:100F10001F6A206A216A166A040E176E186A196A17
:100F200007EC02F0226E1BC023F01CC024F01DC091
:100F300025F022C012F023C013F024C014F025C005
:100F400015F0640E166E176A186A196AC3EC01F080
:100F5000A26F13C0A3F014C0A4F015C0A5F0040E36
:100F60006F6F9AC04CF09BC04DF04AC04EF04BC022
:100F70004FF0A6EC02F0030E6F6F9EC04CF09FC0C6
:100F80004DF04AC04EF04BC04FF0A6EC02F0010EFF
:100F90006F6FA2C04CF0A3C04DF04AC04EF04BC0E2
:100FA0004FF0A6EC02F04D0E466E476ADBEF07F0FD
:100FB000410E466E476A3AB21DEF08F0670EA96E01
:100FC0002EEC01F0786F78C01EF01F6A206A216A4B
:100FD000166A040E176E186A196A07EC02F0226E80
:100FE0001BC023F01CC024F01DC025F022C012F04D
:100FF00023C013F024C014F025C015F0640E166E43
:10100000176A186A196AC3EC01F0A66F13C0A7F03B
:1010100014C0A8F015C0A9F0020E6F6FA6C04CF066
:10102000A7C04DF04AC04EF04BC04FF0A6EC02F006
:101030004D0E5A6E5B6A20EF08F0410E5A6E5B6AE5
:10104000972B5A0E975DD8B028EF08F0200E6D6FE1
:1010500097C012F05A0E85EC01F0226E97C012F084
:10106000AA0E8BEC01F0266E22C012F02650B7ECCF
:1010700001F0266E276E286E296E26502710281044
:101080002910D8B446EF08F03A0E6D6FAB0E975D9D
:10109000D8A04CEF08F0976BE86A3AB8E868226E7F
:1010A000E86A3AB6E868266E22C012F02650BEEC16
:1010B00001F0266E276E286E296EE86A3ABAE86853
:1010C0002A6E2650271028102910126E2A50BEECC6
:1010D00001F02A6E2B6E2C6E2D6EE86A3AB4E86829
:1010E0002E6E2A502B102C102D10126E2E50BEEC8E
:1010F00001F02E6E2F6E306E316EE86A3BBEE868EE
:10110000326E2E502F1030103110126E3250BEEC55
:1011100001F0326E336E346E356EE86A3BBAE868C1
:10112000366E3250331034103510126E3650BEEC1D
:1011300001F0366E376E386E396E36503710381013
:101140003910D8B4A6EF08F0486A496A48C012F0CE
:1011500049C013F0060E176EA40E82EC01F0D8A45D
:10116000B8EF08F0482A000E49228286B9EF08F04D
:1011700082966BC012F00A0E85EC01F0226E6BC0F5
:1011800012F00F0E8BEC01F0266E22C012F02650EA
:10119000B7EC01F0266E276E286E296E6BC012F038
:1011A000190E85EC01F02A6E265027102810291000
:1011B000126E2A50BEEC01F02A6E2B6E2C6E2D6E34
:1011C0006BC012F01E0E8BEC01F02E6E2A502B100D
:1011D0002C102D10126E2E50B7EC01F02E6E2F6ECB
:1011E000306E316E6BC012F02D0E85EC01F0326E58
:1011F0002E502F1030103110126E3250BEEC01F014
:10120000326E336E346E356E6BC012F0320E8BEC74
:1012100001F0366E3250331034103510126E3650E5
:10122000B7EC01F0366E376E386E396E36503710C7
:1012300038103910D8B45BEF09F0FE0E7BEC00F0EB
:10124000020E7BEC00F0410E7BEC00F0510E7BECCB
:1012500000F0550E7BEC00F0410E7BEC00F02D0E03
:101260007BEC00F04C0E7BEC00F0450E7BEC00F0CC
:10127000440E7BEC00F0200E7BEC00F0200E7BECAB
:1012800000F0540E7BEC00F03D0E7BEC00F0020E03
:10129000036E95C01AF01B6A1C6A1D6AF40E0A6E72
:1012A0000B6ACFEC00F0DF0E7BEC00F0430E7BEC22
:1012B00000F09DEF09F0FE0E7BEC00F0020E7BECDF
:1012C00000F0410E7BEC00F0510E7BEC00F0550E6F
:1012D0007BEC00F0410E7BEC00F02D0E7BEC00F07F
:1012E0004C0E7BEC00F0450E7BEC00F0440E7BECEA
:1012F00000F0200E7BEC00F0200E7BEC00F0200EC6
:101300007BEC00F0020E036E69C01AF01B6A1C6AC7
:101310001D6AF40E0A6E0B6ACFEC00F06D517BEC87
:1013200000F0020E036E65C01AF01B6A1C6A1D6A8B
:10133000F40E0A6E0B6ACFEC00F0E86A82B8E86837
:10134000226EE86A82BAE868266E22C012F0265041
:10135000B7EC01F0266E276E286E296E26502710F6
:1013600028102910D8B4EBEF09F0FE0E7BEC00F04A
:10137000C00E7BEC00F0310E7BEC00F03D0E7BEC00
:1013800000F04F0E7BEC00F04E0E7BEC00F0200ED8
:101390007BEC00F0320E7BEC00F03D0E7BEC00F0BD
:1013A0004F0E7BEC00F04E0E7BEC00F0200E7BEC41
:1013B00000F0200E7BEC00F0200E7BEC00F0200E05
:1013C0007BEC00F046507BEC00F0230E7BEC00F051
:1013D0005A507BEC00F0E86A82B8E868226EE86A4E
:1013E00082AAE868266E22C012F02650B7EC01F0FF
:1013F000266E276E286E296E265027102810291079
:10140000D8B439EF0AF0FE0E7BEC00F0C00E7BEC96
:1014100000F0310E7BEC00F03D0E7BEC00F04F0E47
:101420007BEC00F04E0E7BEC00F0200E7BEC00F02D
:10143000320E7BEC00F03D0E7BEC00F04F0E7BECAF
:1014400000F0460E7BEC00F0460E7BEC00F0200E28
:101450007BEC00F0200E7BEC00F0200E7BEC00F02B
:1014600046507BEC00F0230E7BEC00F05A507BECF6
:1014700000F0E86A82A8E868226EE86A82AAE86852
:10148000266E22C012F02650B7EC01F0266E276EB1
:10149000286E296E2650271028102910D8B487EFFF
:1014A0000AF0FE0E7BEC00F0C00E7BEC00F0310E7B
:1014B0007BEC00F03D0E7BEC00F04F0E7BEC00F07F
:1014C000460E7BEC00F0460E7BEC00F0200E7BEC31
:1014D00000F0320E7BEC00F03D0E7BEC00F04F0E86
:1014E0007BEC00F0460E7BEC00F0460E7BEC00F04F
:1014F000200E7BEC00F0200E7BEC00F046507BECE5
:1015000000F0230E7BEC00F05A507BEC00F0E86A10
:1015100082A8E868226EE86A82BAE868266E22C06D
:1015200012F02650B7EC01F0266E276E286E296E59
:101530002650271028102910D8B4D5EF0AF0FE0E37
:101540007BEC00F0C00E7BEC00F0310E7BEC00F089
:101550003D0E7BEC00F04F0E7BEC00F0460E7BEC7A
:1015600000F0460E7BEC00F0200E7BEC00F0320E1B
:101570007BEC00F03D0E7BEC00F04F0E7BEC00F0BE
:101580004E0E7BEC00F0200E7BEC00F0200E7BEC8E
:1015900000F0200E7BEC00F046507BEC00F0230EB8
:1015A0007BEC00F05A507BEC00F0D9EC0AF06CEFC9
:1015B00006F065C084F069C01EF01F6A206A216AC7
:1015C0003C0E166E176A186A196A07EC02F0226E52
:1015D0001BC023F01CC024F01DC025F0655122243F
:1015E000636FE86A2320646F8451945DD8B4FDEF83
:1015F0000AF0010E836FFEEF0AF0836BDAC092F0FF
:10160000DBC081F0DCC088F0DEC091F0DFC080F08C
:10161000E0C087F092C01EF01F6A206A216A3C0E6B
:10162000166E176A186A196A07EC02F0226E1BC060
:1016300023F01CC024F01DC025F081512224546EDB
:10164000E86A2320556E91C01EF01F6A206A216A45
:101650003C0E166E176A186A196A07EC02F0226EC1
:101660001BC023F01CC024F01DC025F08051222493
:10167000526EE86A2320536E54C012F055C013F026
:1016800064C017F0635188EC01F0226E52C012F072
:1016900053C013F064C017F0635182EC01F0266E62
:1016A00022C012F02650B7EC01F0266E276E286E8D
:1016B000296E2650271028102910D8B41AEF0CF0E4
:1016C00054C012F055C013F064C017F063517FECA2
:1016D00001F0226E6B510008D8A4E868FF0A266E5C
:1016E00022C012F02650B7EC01F0266E276E286E4D
:1016F000296E2650271028102910D8B495EF0BF02A
:1017000088C01EF01F6A206A216A640E166E176A6E
:10171000186A196A07EC02F0AA6F1BC0ABF01CC074
:10172000ACF01DC0ADF01AEF0CF052C012F053C077
:1017300013F064C017F063517FEC01F0226E6B511F
:101740000008D8A4E868FF0A266E22C012F02650CE
:10175000B7EC01F0266E276E286E296E26502710F2
:1017600028102910D8B4CAEF0BF087C01EF01F6AEA
:10177000206A216A640E166E176A186A196A07ECE5
:1017800002F0AA6F1BC0ABF01CC0ACF01DC0ADF0E6
:101790001AEF0CF083510108D8A41AEF0CF088510D
:1017A000875D226EE86AD8A0E804236E246E256E59
:1017B00022C01EF023C01FF024C020F025C021F05D
:1017C000640E166E176A186A196A07EC02F0226E28
:1017D0001BC023F01CC024F01DC025F05450525CE7
:1017E000266E55505358276EE86AD8A0E804286E34
:1017F000296E22C012F023C013F024C014F025C0BB
:1018000015F026C016F027C017F028C018F029C020
:1018100019F0C3EC01F0266E13C027F014C028F0B5
:1018200015C029F02650AA272750AB232850AC23F7
:101830002950AD23E2C092F0E3C081F0E4C088F00B
:10184000E6C091F0E7C080F0E8C087F092C01EF0DB
:101850001F6A206A216A3C0E166E176A186A196A96
:1018600007EC02F0226E1BC023F01CC024F01DC048
:1018700025F081512224546EE86A2320556E91C0D0
:101880001EF01F6A206A216A3C0E166E176A186ADB
:10189000196A07EC02F0226E1BC023F01CC024F072
:1018A0001DC025F080512224526EE86A2320536E19
:1018B00054C012F055C013F064C017F0635188ECA7
:1018C00001F0226E52C012F053C013F064C017F042
:1018D000635182EC01F0266E22C012F02650B7EC64
:1018E00001F0266E276E286E296E265027102810CC
:1018F0002910D8B436EF0DF054C012F055C013F0D3
:1019000064C017F063517FEC01F0226E6B51000848
:10191000D8A4E868FF0A266E22C012F02650B7EC61
:1019200001F0266E276E286E296E2650271028108B
:101930002910D8B4B1EF0CF088C01EF01F6A206ADD
:10194000216A640E166E176A186A196A07EC02F0AB
:10195000AA6F1BC0ABF01CC0ACF01DC0ADF036EFE1
:101960000DF052C012F053C013F064C017F0635171
:101970007FEC01F0226E6B510008D8A4E868FF0AE2
:10198000266E22C012F02650B7EC01F0266E276EAC
:10199000286E296E2650271028102910D8B4E6EF9B
:1019A0000CF087C01EF01F6A206A216A640E166E52
:1019B000176A186A196A07EC02F0AA6F1BC0ABF02D
:1019C0001CC0ACF01DC0ADF036EF0DF08351010826
:1019D000D8A436EF0DF08751885D226EE86AD8A052
:1019E000E804236E246E256E22C01EF023C01FF073
:1019F00024C020F025C021F0640E166E176A186A04
:101A0000196A07EC02F0226E1BC023F01CC024F000
:101A10001DC025F05450525C266E55505358276E09
:101A2000E86AD8A0E804286E296E22C012F023C00C
:101A300013F024C014F025C015F026C016F027C0FE
:101A400017F028C018F029C019F0C3EC01F0266E79
:101A500013C027F014C028F015C029F02650AA5F43
:101A60002750AB5B2850AC5B2950AD5BAAC012F08D
:101A7000ABC013F0ACC014F0ADC015F0640E166E20
:101A8000176A186A196AC3EC01F0756FEAC092F020
:101A9000EBC081F0ECC088F0EEC091F0EFC080F0B8
:101AA000F0C087F092C01EF01F6A206A216A3C0EC7
:101AB000166E176A186A196A07EC02F0226E1BC0CC
:101AC00023F01CC024F01DC025F081512224546E47
:101AD000E86A2320556E91C01EF01F6A206A216AB1
:101AE0003C0E166E176A186A196A07EC02F0226E2D
:101AF0001BC023F01CC024F01DC025F080512224FF
:101B0000526EE86A2320536E54C012F055C013F091
:101B100064C017F0635188EC01F0226E52C012F0DD
:101B200053C013F064C017F0635182EC01F0266ECD
:101B300022C012F02650B7EC01F0266E276E286EF8
:101B4000296E2650271028102910D8B462EF0EF005
:101B500054C012F055C013F064C017F063517FEC0D
:101B600001F0226E6B510008D8A4E868FF0A266EC7
:101B700022C012F02650B7EC01F0266E276E286EB8
:101B8000296E2650271028102910D8B4DDEF0DF04B
:101B900088C01EF01F6A206A216A640E166E176ADA
:101BA000186A196A07EC02F0AE6F1BC0AFF01CC0D8
:101BB000B0F01DC0B1F062EF0EF052C012F053C091
:101BC00013F064C017F063517FEC01F0226E6B518B
:101BD0000008D8A4E868FF0A266E22C012F026503A
:101BE000B7EC01F0266E276E286E296E265027105E
:101BF00028102910D8B412EF0EF087C01EF01F6A0B
:101C0000206A216A640E166E176A186A196A07EC50
:101C100002F0AE6F1BC0AFF01CC0B0F01DC0B1F041
:101C200062EF0EF083510108D8A462EF0EF08851E4
:101C3000875D226EE86AD8A0E804236E246E256EC4
:101C400022C01EF023C01FF024C020F025C021F0C8
:101C5000640E166E176A186A196A07EC02F0226E93
:101C60001BC023F01CC024F01DC025F05450525C52
:101C7000266E55505358276EE86AD8A0E804286E9F
:101C8000296E22C012F023C013F024C014F025C026
:101C900015F026C016F027C017F028C018F029C08C
:101CA00019F0C3EC01F0266E13C027F014C028F021
:101CB00015C029F02650AE272750AF232850B02357
:101CC0002950B123F2C092F0F3C081F0F4C088F043
:101CD000F6C091F0F7C080F0F8C087F092C01EF017
:101CE0001F6A206A216A3C0E166E176A186A196A02
:101CF00007EC02F0226E1BC023F01CC024F01DC0B4
:101D000025F081512224546EE86A2320556E91C03B
:101D10001EF01F6A206A216A3C0E166E176A186A46
:101D2000196A07EC02F0226E1BC023F01CC024F0DD
:101D30001DC025F080512224526EE86A2320536E84
:101D400054C012F055C013F064C017F0635188EC12
:101D500001F0226E52C012F053C013F064C017F0AD
:101D6000635182EC01F0266E22C012F02650B7ECCF
:101D700001F0266E276E286E296E26502710281037
:101D80002910D8B47EEF0FF054C012F055C013F0F4
:101D900064C017F063517FEC01F0226E6B510008B4
:101DA000D8A4E868FF0A266E22C012F02650B7ECCD
:101DB00001F0266E276E286E296E265027102810F7
:101DC0002910D8B4F9EF0EF088C01EF01F6A206AFF
:101DD000216A640E166E176A186A196A07EC02F017
:101DE000AE6F1BC0AFF01CC0B0F01DC0B1F07EEFF5
:101DF0000FF052C012F053C013F064C017F06351DB
:101E00007FEC01F0226E6B510008D8A4E868FF0A4D
:101E1000266E22C012F02650B7EC01F0266E276E17
:101E2000286E296E2650271028102910D8B42EEFBE
:101E30000FF087C01EF01F6A206A216A640E166EBA
:101E4000176A186A196A07EC02F0AE6F1BC0AFF090
:101E50001CC0B0F01DC0B1F07EEF0FF0835101083F
:101E6000D8A47EEF0FF08751885D226EE86AD8A073
:101E7000E804236E246E256E22C01EF023C01FF0DE
:101E800024C020F025C021F0640E166E176A186A6F
:101E9000196A07EC02F0226E1BC023F01CC024F06C
:101EA0001DC025F05450525C266E55505358276E75
:101EB000E86AD8A0E804286E296E22C012F023C078
:101EC00013F024C014F025C015F026C016F027C06A
:101ED00017F028C018F029C019F0C3EC01F0266EE5
:101EE00013C027F014C028F015C029F02650AE5FAB
:101EF0002750AF5B2850B05B2950B15BAEC012F0E9
:101F0000AFC013F0B0C014F0B1C015F0640E166E7F
:101F1000176A186A196AC3EC01F0766FFAC092F07A
:101F2000FBC081F0FCC088F0FEC091F0FFC080F0E3
:101F300000C187F092C01EF01F6A206A216A3C0E21
:101F4000166E176A186A196A07EC02F0226E1BC037
:101F500023F01CC024F01DC025F081512224546EB2
:101F6000E86A2320556E91C01EF01F6A206A216A1C
:101F70003C0E166E176A186A196A07EC02F0226E98
:101F80001BC023F01CC024F01DC025F0805122246A
:101F9000526EE86A2320536E54C012F055C013F0FD
:101FA00064C017F0635188EC01F0226E52C012F049
:101FB00053C013F064C017F0635182EC01F0266E39
:101FC00022C012F02650B7EC01F0266E276E286E64
:101FD000296E2650271028102910D8B4AAEF10F027
:101FE00054C012F055C013F064C017F063517FEC79
:101FF00001F0226E6B510008D8A4E868FF0A266E33
:1020000022C012F02650B7EC01F0266E276E286E23
:10201000296E2650271028102910D8B425EF10F06B
:1020200088C01EF01F6A206A216A640E166E176A45
:10203000186A196A07EC02F0B26F1BC0B3F01CC03B
:10204000B4F01DC0B5F0AAEF10F052C012F053C0AA
:1020500013F064C017F063517FEC01F0226E6B51F6
:102060000008D8A4E868FF0A266E22C012F02650A5
:10207000B7EC01F0266E276E286E296E26502710C9
:1020800028102910D8B45AEF10F087C01EF01F6A2C
:10209000206A216A640E166E176A186A196A07ECBC
:1020A00002F0B26F1BC0B3F01CC0B4F01DC0B5F09D
:1020B000AAEF10F083510108D8A4AAEF10F08851BC
:1020C000875D226EE86AD8A0E804236E246E256E30
:1020D00022C01EF023C01FF024C020F025C021F034
:1020E000640E166E176A186A196A07EC02F0226EFF
:1020F0001BC023F01CC024F01DC025F05450525CBE
:10210000266E55505358276EE86AD8A0E804286E0A
:10211000296E22C012F023C013F024C014F025C091
:1021200015F026C016F027C017F028C018F029C0F7
:1021300019F0C3EC01F0266E13C027F014C028F08C
:1021400015C029F02650B2272750B3232850B423B6
:102150002950B52302C192F003C181F004C188F077
:1021600006C191F007C180F008C187F092C01EF04F
:102170001F6A206A216A3C0E166E176A186A196A6D
:1021800007EC02F0226E1BC023F01CC024F01DC01F
:1021900025F081512224546EE86A2320556E91C0A7
:1021A0001EF01F6A206A216A3C0E166E176A186AB2
:1021B000196A07EC02F0226E1BC023F01CC024F049
:1021C0001DC025F080512224526EE86A2320536EF0
:1021D00054C012F055C013F064C017F0635188EC7E
:1021E00001F0226E52C012F053C013F064C017F019
:1021F000635182EC01F0266E22C012F02650B7EC3B
:1022000001F0266E276E286E296E265027102810A2
:102210002910D8B4C6EF11F054C012F055C013F015
:1022200064C017F063517FEC01F0226E6B5100081F
:10223000D8A4E868FF0A266E22C012F02650B7EC38
:1022400001F0266E276E286E296E26502710281062
:102250002910D8B441EF11F088C01EF01F6A206A1F
:10226000216A640E166E176A186A196A07EC02F082
:10227000B26F1BC0B3F01CC0B4F01DC0B5F0C6EF08
:1022800011F052C012F053C013F064C017F0635144
:102290007FEC01F0226E6B510008D8A4E868FF0AB9
:1022A000266E22C012F02650B7EC01F0266E276E83
:1022B000286E296E2650271028102910D8B476EFE2
:1022C00011F087C01EF01F6A206A216A640E166E24
:1022D000176A186A196A07EC02F0B26F1BC0B3F0F4
:1022E0001CC0B4F01DC0B5F0C6EF11F08351010859
:1022F000D8A4C6EF11F08751885D226EE86AD8A095
:10230000E804236E246E256E22C01EF023C01FF049
:1023100024C020F025C021F0640E166E176A186ADA
:10232000196A07EC02F0226E1BC023F01CC024F0D7
:102330001DC025F05450525C266E55505358276EE0
:10234000E86AD8A0E804286E296E22C012F023C0E3
:1023500013F024C014F025C015F026C016F027C0D5
:1023600017F028C018F029C019F0C3EC01F0266E50
:1023700013C027F014C028F015C029F02650B25F12
:102380002750B35B2850B45B2950B55BB2C012F044
:10239000B3C013F0B4C014F0B5C015F0640E166EDF
:1023A000176A186A196AC3EC01F0776F0AC192F0D4
:1023B0000BC181F00CC188F00EC191F00FC180F00B
:1023C00010C187F092C01EF01F6A206A216A3C0E7D
:1023D000166E176A186A196A07EC02F0226E1BC0A3
:1023E00023F01CC024F01DC025F081512224546E1E
:1023F000E86A2320556E91C01EF01F6A206A216A88
:102400003C0E166E176A186A196A07EC02F0226E03
:102410001BC023F01CC024F01DC025F080512224D5
:10242000526EE86A2320536E54C012F055C013F068
:1024300064C017F0635188EC01F0226E52C012F0B4
:1024400053C013F064C017F0635182EC01F0266EA4
:1024500022C012F02650B7EC01F0266E276E286ECF
:10246000296E2650271028102910D8B4F2EF12F048
:1024700054C012F055C013F064C017F063517FECE4
:1024800001F0226E6B510008D8A4E868FF0A266E9E
:1024900022C012F02650B7EC01F0266E276E286E8F
:1024A000296E2650271028102910D8B46DEF12F08D
:1024B00088C01EF01F6A206A216A640E166E176AB1
:1024C000186A196A07EC02F0B66F1BC0B7F01CC09F
:1024D000B8F01DC0B9F0F2EF12F052C012F053C0C4
:1024E00013F064C017F063517FEC01F0226E6B5162
:1024F0000008D8A4E868FF0A266E22C012F0265011
:10250000B7EC01F0266E276E286E296E2650271034
:1025100028102910D8B4A2EF12F087C01EF01F6A4D
:10252000206A216A640E166E176A186A196A07EC27
:1025300002F0B66F1BC0B7F01CC0B8F01DC0B9F0F8
:10254000F2EF12F083510108D8A4F2EF12F0885193
:10255000875D226EE86AD8A0E804236E246E256E9B
:1025600022C01EF023C01FF024C020F025C021F09F
:10257000640E166E176A186A196A07EC02F0226E6A
:102580001BC023F01CC024F01DC025F05450525C29
:10259000266E55505358276EE86AD8A0E804286E76
:1025A000296E22C012F023C013F024C014F025C0FD
:1025B00015F026C016F027C017F028C018F029C063
:1025C00019F0C3EC01F0266E13C027F014C028F0F8
:1025D00015C029F02650B6272750B7232850B82316
:1025E0002950B92312C192F013C181F014C188F0AF
:1025F00016C191F017C180F018C187F092C01EF08B
:102600001F6A206A216A3C0E166E176A186A196AD8
:1026100007EC02F0226E1BC023F01CC024F01DC08A
:1026200025F081512224546EE86A2320556E91C012
:102630001EF01F6A206A216A3C0E166E176A186A1D
:10264000196A07EC02F0226E1BC023F01CC024F0B4
:102650001DC025F080512224526EE86A2320536E5B
:1026600054C012F055C013F064C017F0635188ECE9
:1026700001F0226E52C012F053C013F064C017F084
:10268000635182EC01F0266E22C012F02650B7ECA6
:1026900001F0266E276E286E296E2650271028100E
:1026A0002910D8B40EEF14F054C012F055C013F036
:1026B00064C017F063517FEC01F0226E6B5100088B
:1026C000D8A4E868FF0A266E22C012F02650B7ECA4
:1026D00001F0266E276E286E296E265027102810CE
:1026E0002910D8B489EF13F088C01EF01F6A206A41
:1026F000216A640E166E176A186A196A07EC02F0EE
:10270000B66F1BC0B7F01CC0B8F01DC0B9F00EEF1B
:1027100014F052C012F053C013F064C017F06351AC
:102720007FEC01F0226E6B510008D8A4E868FF0A24
:10273000266E22C012F02650B7EC01F0266E276EEE
:10274000286E296E2650271028102910D8B4BEEF05
:1027500013F087C01EF01F6A206A216A640E166E8D
:10276000176A186A196A07EC02F0B66F1BC0B7F057
:102770001CC0B8F01DC0B9F00EEF14F08351010871
:10278000D8A40EEF14F08751885D226EE86AD8A0B5
:10279000E804236E246E256E22C01EF023C01FF0B5
:1027A00024C020F025C021F0640E166E176A186A46
:1027B000196A07EC02F0226E1BC023F01CC024F043
:1027C0001DC025F05450525C266E55505358276E4C
:1027D000E86AD8A0E804286E296E22C012F023C04F
:1027E00013F024C014F025C015F026C016F027C041
:1027F00017F028C018F029C019F0C3EC01F0266EBC
:1028000013C027F014C028F015C029F02650B65F79
:102810002750B75B2850B85B2950B95BB6C012F09F
:10282000B7C013F0B8C014F0B9C015F0640E166E3E
:10283000176A186A196AC3EC01F0786F8A510008A8
:10284000D8A400EF15F03BBC00EF15F03AA0C8EF9C
:1028500014F075C01EF01F6A206A216A166A040E01
:10286000176E186A196A07EC02F0226E1BC023F07B
:102870001CC024F01DC025F022C012F023C013F0AC
:1028800024C014F025C015F0640E166E176A186A7D
:10289000196AC3EC01F09A6F13C09BF014C09CF04E
:1028A00015C09DF076C01EF01F6A206A216A166A64
:1028B000040E176E186A196A07EC02F0226E1BC02C
:1028C00023F01CC024F01DC025F022C012F023C04C
:1028D00013F024C014F025C015F0640E166E176AAC
:1028E000186A196AC3EC01F09E6F13C09FF014C000
:1028F000A0F015C0A1F077C01EF01F6A206A216AFF
:10290000166A040E176E186A196A07EC02F0226E36
:102910001BC023F01CC024F01DC025F022C012F003
:1029200023C013F024C014F025C015F0640E166EF9
:10293000176A186A196AC3EC01F0A26F13C0A3F0FA
:1029400014C0A4F015C0A5F0040E6F6F9AC04CF02F
:102950009BC04DF04AC04EF04BC04FF0A6EC02F0C9
:10296000030E6F6F9EC04CF09FC04DF04AC04EF0FA
:102970004BC04FF0A6EC02F0010E6F6FA2C04CF0FE
:10298000A3C04DF04AC04EF04BC04FF0A6EC02F091
:102990003AA200EF15F078C01EF01F6A206A216A83
:1029A000166A040E176E186A196A07EC02F0226E96
:1029B0001BC023F01CC024F01DC025F022C012F063
:1029C00023C013F024C014F025C015F0640E166E59
:1029D000176A186A196AC3EC01F0A66F13C0A7F052
:1029E00014C0A8F015C0A9F0020E6F6FA6C04CF07D
:1029F000A7C04DF04AC04EF04BC04FF0A6EC02F01D
:102A0000C251695DD8A4E868FF0A226EC351655DB2
:102A1000D8A4E868FF0A266E22C012F02650B7EC50
:102A200001F0266E276E286E296E6B510008D8A41F
:102A3000E868FF0A2A6E2650271028102910126E07
:102A40002A50B7EC01F02A6E2B6E2C6E2D6E2A5098
:102A50002B102C102D10D8B42FEF15F08288C451F4
:102A6000695DD8A4E868FF0A226EC551655DD8A4E7
:102A7000E868FF0A266E22C012F02650B7EC01F07B
:102A8000266E276E286E296E6B510008D8A4E86860
:102A9000FF0A2A6E2650271028102910126E2A507D
:102AA000B7EC01F02A6E2B6E2C6E2D6E2A502B1077
:102AB0002C102D10D8B45EEF15F08298C651695DC8
:102AC000D8A4E868FF0A226EC751655DD8A4E868FB
:102AD000FF0A266E22C012F02650B7EC01F0266ED7
:102AE000276E286E296E6B510008D8A4E868FF0A8B
:102AF0002A6E2650271028102910126E2A50B7EC83
:102B000001F02A6E2B6E2C6E2D6E2A502B102C107D
:102B10002D10D8B48DEF15F08288C851695DD8A406
:102B2000E868FF0A226EC951655DD8A4E868FF0A0B
:102B3000266E22C012F02650B7EC01F0266E276EEA
:102B4000286E296E6B510008D8A4E868FF0A2A6E27
:102B50002650271028102910126E2A50B7EC01F0C9
:102B60002A6E2B6E2C6E2D6E2A502B102C102D10D1
:102B7000D8B4BCEF15F08298CA51695DD8A4E86852
:102B8000FF0A226ECB51655DD8A4E868FF0A266E65
:102B900022C012F02650B7EC01F0266E276E286E88
:102BA000296E6B510008D8A4E868FF0A2A6E2650E7
:102BB000271028102910126E2A50B7EC01F02A6E47
:102BC0002B6E2C6E2D6E2A502B102C102D10D8B47D
:102BD000EBEF15F0828ACC51695DD8A4E868FF0A52
:102BE000226ECD51655DD8A4E868FF0A266E22C02A
:102BF00012F02650B7EC01F0266E276E286E296E73
:102C00006B510008D8A4E868FF0A2A6E26502710E6
:102C100028102910126E2A50B7EC01F02A6E2B6E84
:102C20002C6E2D6E2A502B102C102D10D8B41AEFAC
:102C300016F0829ACE51695DD8A4E868FF0A226E28
:102C4000CF51655DD8A4E868FF0A266E22C012F055
:102C50002650B7EC01F0266E276E286E296E6B5158
:102C60000008D8A4E868FF0A2A6E2650271028100A
:102C70002910126E2A50B7EC01F02A6E2B6E2C6EC2
:102C80002D6E2A502B102C102D10D8B449EF16F0B1
:102C9000828AD051695DD8A4E868FF0A226ED151BA
:102CA000655DD8A4E868FF0A266E22C012F026509F
:102CB000B7EC01F0266E276E286E296E6B51000866
:102CC000D8A4E868FF0A2A6E265027102810291079
:102CD000126E2A50B7EC01F02A6E2B6E2C6E2D6E00
:102CE0002A502B102C102D10D8B478EF16F0829AA1
:102CF00084C094F012008286D9EC0AF03AA68BEFD9
:102D000016F097510308D8A48AEF16F0030E976FB8
:102D10008BEF16F0972B3AA898EF16F09751010811
:102D2000D8A497EF16F0010E976F98EF16F097075B
:102D30003AAAA1EF16F0486A496A010E976F6CEF44
:102D400006F08BEC3EF097510108D8A447EF17F03E
:102D5000FE0E7BEC00F0020E7BEC00F07E0E7BECB6
:102D600000F04C0E7BEC00F0450E7BEC00F0440EC6
:102D70007BEC00F02D0E7BEC00F06C0E7BEC00F099
:102D8000690E7BEC00F0670E7BEC00F0680E7BECCC
:102D900000F0740E7BEC00F0200E7BEC00F0200EB7
:102DA0007BEC00F0200E7BEC00F0200E7BEC00F0C2
:102DB000200E7BEC00F0200E7BEC00F0200E7BEC74
:102DC00000F0200E7BEC00F0200E7BEC00F0FE0EFD
:102DD0007BEC00F0C00E7BEC00F0200E7BEC00F0F2
:102DE000490E7BEC00F06E0E7BEC00F0740E7BEC79
:102DF00000F0650E7BEC00F0720E7BEC00F06E0EC6
:102E00007BEC00F0610E7BEC00F06C0E7BEC00F0D4
:102E1000200E7BEC00F0730E7BEC00F0770E7BEC69
:102E200000F0690E7BEC00F0740E7BEC00F0630E9A
:102E30007BEC00F0680E7BEC00F0200E7BEC00F0E9
:102E4000200E7BEC00F0200E7BEC00F0200E7BECE3
:102E500000F0200E7BEC00F0200E7BEC00F0200E4A
:102E60007BEC00F0200E7BEC00F0200E7BEC00F001
:102E7000200E7BEC00F0200E7BEC00F03BAE45EF2B
:102E800017F0010E976F58EF18F057EF18F09751A1
:102E90000208D8A4D0EF17F0FE0E7BEC00F0020E73
:102EA0007BEC00F0200E7BEC00F04C0E7BEC00F095
:102EB000450E7BEC00F0440E7BEC00F02D0E7BEC1D
:102EC00000F06C0E7BEC00F0690E7BEC00F0670EFE
:102ED0007BEC00F0680E7BEC00F0740E7BEC00F0F5
:102EE000200E7BEC00F0200E7BEC00F0200E7BEC43
:102EF00000F0200E7BEC00F0200E7BEC00F0200EAA
:102F00007BEC00F0200E7BEC00F0200E7BEC00F060
:102F1000FE0E7BEC00F0C00E7BEC00F07E0E7BEC36
:102F200000F0490E7BEC00F06E0E7BEC00F0740EAE
:102F30007BEC00F0650E7BEC00F0720E7BEC00F099
:102F40006E0E7BEC00F0610E7BEC00F06C0E7BEC07
:102F500000F0200E7BEC00F0730E7BEC00F0770E9F
:102F60007BEC00F0690E7BEC00F0740E7BEC00F063
:102F7000630E7BEC00F0680E7BEC00F0200E7BEC27
:102F800000F0200E7BEC00F0200E7BEC00F03BAE5E
:102F9000CEEF17F0010E976FACEF24F057EF18F05B
:102FA00097510308D8A457EF18F0FE0E7BEC00F001
:102FB000020E7BEC00F07E0E7BEC00F0540E7BECFE
:102FC00000F06F0E7BEC00F06F0E7BEC00F06C0EEF
:102FD0007BEC00F0730E7BEC00F0200E7BEC00F03D
:102FE000200E7BEC00F0200E7BEC00F0200E7BEC42
:102FF00000F0200E7BEC00F0200E7BEC00F0200EA9
:103000007BEC00F0200E7BEC00F0200E7BEC00F05F
:10301000200E7BEC00F0200E7BEC00F0200E7BEC11
:1030200000F0200E7BEC00F0FE0E7BEC00F0C00EFA
:103030007BEC00F0200E7BEC00F0200E7BEC00F02F
:10304000200E7BEC00F0200E7BEC00F0200E7BECE1
:1030500000F0200E7BEC00F0200E7BEC00F0200E48
:103060007BEC00F0200E7BEC00F0200E7BEC00F0FF
:10307000200E7BEC00F0200E7BEC00F0200E7BECB1
:1030800000F0200E7BEC00F0200E7BEC00F0200E18
:103090007BEC00F0200E7BEC00F0200E7BEC00F0CF
:1030A0003BAE57EF18F0010E976F45EF2FF023D688
:1030B000D9EC0AF08BEC3EF03AA669EF18F0975184
:1030C0000208D8A468EF18F0020E976F69EF18F0A5
:1030D000972B3AA876EF18F097510108D8A475EF0E
:1030E00018F0010E976F76EF18F097073AAA7DEF68
:1030F00018F0010E976F7BEF16F097510108D8A4D6
:1031000012EF19F0FE0E7BEC00F0020E7BEC00F0EB
:103110007E0E7BEC00F0410E7BEC00F0750E7BEC3C
:1031200000F0740E7BEC00F06F0E7BEC00F06D0E87
:103130007BEC00F0610E7BEC00F0740E7BEC00F099
:10314000690E7BEC00F0630E7BEC00F0200E7BEC54
:1031500000F0200E7BEC00F0200E7BEC00F0200E47
:103160007BEC00F0200E7BEC00F0200E7BEC00F0FE
:10317000200E7BEC00F0200E7BEC00F0200E7BECB0
:1031800000F0200E7BEC00F0FE0E7BEC00F0C00E99
:103190007BEC00F0200E7BEC00F04D0E7BEC00F0A1
:1031A000610E7BEC00F06E0E7BEC00F0750E7BEC9C
:1031B00000F0610E7BEC00F06C0E7BEC00F0200E5A
:1031C0007BEC00F0200E7BEC00F0200E7BEC00F09E
:1031D000200E7BEC00F0200E7BEC00F0200E7BEC50
:1031E00000F0200E7BEC00F0200E7BEC00F0200EB7
:1031F0007BEC00F0200E7BEC00F0200E7BEC00F06E
:10320000200E7BEC00F0200E7BEC00F0200E7BEC1F
:1032100000F03BAE10EF19F0010E976FA6EF19F01A
:10322000A5EF19F097510208D8A4A5EF19F0FE0EEA
:103230007BEC00F0020E7BEC00F0200E7BEC00F04B
:10324000410E7BEC00F0750E7BEC00F0740E7BEC15
:1032500000F06F0E7BEC00F06D0E7BEC00F0610E69
:103260007BEC00F0740E7BEC00F0690E7BEC00F060
:10327000630E7BEC00F0200E7BEC00F0200E7BEC6C
:1032800000F0200E7BEC00F0200E7BEC00F0200E16
:103290007BEC00F0200E7BEC00F0200E7BEC00F0CD
:1032A000200E7BEC00F0200E7BEC00F0200E7BEC7F
:1032B00000F0200E7BEC00F0FE0E7BEC00F0C00E68
:1032C0007BEC00F07E0E7BEC00F04D0E7BEC00F012
:1032D000610E7BEC00F06E0E7BEC00F0750E7BEC6B
:1032E00000F0610E7BEC00F06C0E7BEC00F0200E29
:1032F0007BEC00F0200E7BEC00F0200E7BEC00F06D
:10330000200E7BEC00F0200E7BEC00F0200E7BEC1E
:1033100000F0200E7BEC00F0200E7BEC00F0200E85
:103320007BEC00F0200E7BEC00F0200E7BEC00F03C
:10333000200E7BEC00F0200E7BEC00F03BAEA5EF06
:1033400019F0010E976F98EF2AF0B2D6D9EC0AF077
:103350008BEC3EF03AA6B7EF19F097510208D8A4CB
:10336000B6EF19F0020E976FB7EF19F0972B3AA846
:10337000C4EF19F097510108D8A4C3EF19F0010E5A
:10338000976FC4EF19F097073AAACAEF19F0010E28
:10339000976F8ED697510108D8A46BEF1AF0FE0EE6
:1033A0007BEC00F0020E7BEC00F07E0E7BEC00F07C
:1033B000410E7BEC00F0710E7BEC00F0750E7BECA7
:1033C00000F0610E7BEC00F0720E7BEC00F0690EF9
:1033D0007BEC00F0750E7BEC00F06D0E7BEC00F0EA
:1033E000200E7BEC00F06C0E7BEC00F0690E7BECA9
:1033F00000F0670E7BEC00F0680E7BEC00F0740EC2
:103400007BEC00F0200E7BEC00F0200E7BEC00F05B
:10341000200E7BEC00F0200E7BEC00F0200E7BEC0D
:1034200000F0200E7BEC00F0FE0E7BEC00F0C00EF6
:103430007BEC00F0200E7BEC00F0520E7BEC00F0F9
:103440006F0E7BEC00F06F0E7BEC00F06D0E7BECF2
:1034500000F0200E7BEC00F06C0E7BEC00F0690EAF
:103460007BEC00F0670E7BEC00F0680E7BEC00F06C
:10347000740E7BEC00F0200E7BEC00F0200E7BEC59
:1034800000F0200E7BEC00F0200E7BEC00F0200E14
:103490007BEC00F0200E7BEC00F0200E7BEC00F0CB
:1034A000200E7BEC00F0200E7BEC00F0200E7BEC7D
:1034B00000F0200E7BEC00F0200E7BEC00F0200EE4
:1034C0007BEC00F03BAE69EF1AF0010E976F01EF55
:1034D0001BF000EF1BF097510208D8A400EF1BF07F
:1034E000FE0E7BEC00F0020E7BEC00F0200E7BEC7D
:1034F00000F0410E7BEC00F0710E7BEC00F0750EDD
:103500007BEC00F0610E7BEC00F0720E7BEC00F0C7
:10351000690E7BEC00F0750E7BEC00F06D0E7BEC21
:1035200000F0200E7BEC00F06C0E7BEC00F0690EDE
:103530007BEC00F0670E7BEC00F0680E7BEC00F09B
:10354000740E7BEC00F0200E7BEC00F0200E7BEC88
:1035500000F0200E7BEC00F0200E7BEC00F0200E43
:103560007BEC00F0FE0E7BEC00F0C00E7BEC00F07C
:103570007E0E7BEC00F0520E7BEC00F06F0E7BECCD
:1035800000F06F0E7BEC00F06D0E7BEC00F0200E77
:103590007BEC00F06C0E7BEC00F0690E7BEC00F035
:1035A000670E7BEC00F0680E7BEC00F0740E7BEC99
:1035B00000F0200E7BEC00F0200E7BEC00F0200EE3
:1035C0007BEC00F0200E7BEC00F0200E7BEC00F09A
:1035D000200E7BEC00F0200E7BEC00F0200E7BEC4C
:1035E00000F0200E7BEC00F0200E7BEC00F03BAEF8
:1035F00000EF1BF0010E976F040E5D6ECBEF1CF019
:10360000A5D6D9EC0AF08BEC3EF03AA612EF1BF0EF
:1036100097510308D8A411EF1BF0030E976F12EF18
:103620001BF0972B3AA81FEF1BF097510108D8A465
:103630001EEF1BF0010E976F1FEF1BF097073AAAC2
:1036400025EF1BF0010E976F81D697510108D8A482
:10365000B3EF1BF0FE0E7BEC00F0020E7BEC00F0F3
:103660007E0E7BEC00F0430E7BEC00F0680E7BECF2
:1036700000F0610E7BEC00F06E0E7BEC00F06E0E45
:103680007BEC00F0650E7BEC00F06C0E7BEC00F048
:10369000200E7BEC00F0230E7BEC00F0310E7BEC77
:1036A00000F0200E7BEC00F0200E7BEC00F0200EF2
:1036B0007BEC00F0200E7BEC00F0200E7BEC00F0A9
:1036C000200E7BEC00F0200E7BEC00F0200E7BEC5B
:1036D00000F0FE0E7BEC00F0C00E7BEC00F0200E44
:1036E0007BEC00F0430E7BEC00F0680E7BEC00F00E
:1036F000610E7BEC00F06E0E7BEC00F06E0E7BEC4E
:1037000000F0650E7BEC00F06C0E7BEC00F0200E00
:103710007BEC00F0230E7BEC00F0320E7BEC00F033
:10372000200E7BEC00F0200E7BEC00F0200E7BECFA
:1037300000F0200E7BEC00F0200E7BEC00F0200E61
:103740007BEC00F0200E7BEC00F0200E7BEC00F018
:103750003BAEB1EF1BF0010E5D6E010E976FCBEF2C
:103760001CF0CAEF1CF097510208D8A441EF1CF0DE
:10377000FE0E7BEC00F0020E7BEC00F0200E7BECEA
:1037800000F0430E7BEC00F0680E7BEC00F0610E65
:103790007BEC00F06E0E7BEC00F06E0E7BEC00F02C
:1037A000650E7BEC00F06C0E7BEC00F0200E7BECE9
:1037B00000F0230E7BEC00F0310E7BEC00F0200ECD
:1037C0007BEC00F0200E7BEC00F0200E7BEC00F098
:1037D000200E7BEC00F0200E7BEC00F0200E7BEC4A
:1037E00000F0200E7BEC00F0FE0E7BEC00F0C00E33
:1037F0007BEC00F07E0E7BEC00F0430E7BEC00F0E7
:10380000680E7BEC00F0610E7BEC00F06E0E7BEC42
:1038100000F06E0E7BEC00F0650E7BEC00F06C0EA1
:103820007BEC00F0200E7BEC00F0230E7BEC00F034
:10383000320E7BEC00F0200E7BEC00F0200E7BECD7
:1038400000F0200E7BEC00F0200E7BEC00F0200E50
:103850007BEC00F0200E7BEC00F0200E7BEC00F007
:10386000200E7BEC00F0200E7BEC00F03BAE3FEF37
:103870001CF0020E5D6E010E976FCBEF1CF0CAEFCD
:103880001CF097510308D8A4CAEF1CF0FE0E7BEC85
:1038900000F0020E7BEC00F07E0E7BEC00F0430E9D
:1038A0007BEC00F0680E7BEC00F0610E7BEC00F02E
:1038B0006E0E7BEC00F06E0E7BEC00F0650E7BEC88
:1038C00000F06C0E7BEC00F0200E7BEC00F0230E81
:1038D0007BEC00F0330E7BEC00F0200E7BEC00F074
:1038E000200E7BEC00F0200E7BEC00F0200E7BEC39
:1038F00000F0200E7BEC00F0200E7BEC00F0200EA0
:103900007BEC00F0200E7BEC00F0200E7BEC00F056
:10391000FE0E7BEC00F0C00E7BEC00F0200E7BEC8A
:1039200000F0200E7BEC00F0200E7BEC00F0200E6F
:103930007BEC00F0200E7BEC00F0200E7BEC00F026
:10394000200E7BEC00F0200E7BEC00F0200E7BECD8
:1039500000F0200E7BEC00F0200E7BEC00F0200E3F
:103960007BEC00F0200E7BEC00F0200E7BEC00F0F6
:10397000200E7BEC00F0200E7BEC00F0200E7BECA8
:1039800000F03BAECAEF1CF0030E5D6E010E976FA8
:10399000CBEF1CF036D6D9EC0AF08BEC3EF03AA611
:1039A000DCEF1CF097510208D8A4DBEF1CF0020EEC
:1039B000976FDCEF1CF0972B3AA8E9EF1CF09751BA
:1039C0000108D8A4E8EF1CF0010E976FE9EF1CF096
:1039D00097073AAAFAEF1CF05D500408D8A4F7EF55
:1039E0001CF0020E976FA6EF19F0FAEF1CF05DC005
:1039F00097F007D697510108D8A479EF1DF0FE0E75
:103A00007BEC00F0020E7BEC00F07E0E7BEC00F015
:103A1000530E7BEC00F0750E7BEC00F06E0E7BEC31
:103A200000F0720E7BEC00F0690E7BEC00F0730E80
:103A30007BEC00F0650E7BEC00F0200E7BEC00F0E0
:103A4000200E7BEC00F0200E7BEC00F0200E7BECD7
:103A500000F0200E7BEC00F0200E7BEC00F0200E3E
:103A60007BEC00F0200E7BEC00F0200E7BEC00F0F5
:103A7000200E7BEC00F0FE0E7BEC00F0C00E7BEC29
:103A800000F0200E7BEC00F0530E7BEC00F0750E86
:103A90007BEC00F06E0E7BEC00F0730E7BEC00F024
:103AA000650E7BEC00F0740E7BEC00F0200E7BECDE
:103AB00000F0200E7BEC00F0200E7BEC00F0200EDE
:103AC0007BEC00F0200E7BEC00F0200E7BEC00F095
:103AD000200E7BEC00F0200E7BEC00F0200E7BEC47
:103AE00000F0200E7BEC00F0200E7BEC00F014EFD9
:103AF0001EF097510208D8A414EF1EF0FE0E7BECC6
:103B000000F0020E7BEC00F0200E7BEC00F0530E78
:103B10007BEC00F0750E7BEC00F06E0E7BEC00F0A1
:103B2000720E7BEC00F0690E7BEC00F0730E7BEC08
:103B300000F0650E7BEC00F0200E7BEC00F0200E18
:103B40007BEC00F0200E7BEC00F0200E7BEC00F014
:103B5000200E7BEC00F0200E7BEC00F0200E7BECC6
:103B600000F0200E7BEC00F0200E7BEC00F0200E2D
:103B70007BEC00F0200E7BEC00F0200E7BEC00F0E4
:103B8000200E7BEC00F0200E7BEC00F0200E7BEC96
:103B900000F0200E7BEC00F0200E7BEC00F0200EFD
:103BA0007BEC00F0FE0E7BEC00F0C00E7BEC00F036
:103BB0007E0E7BEC00F0530E7BEC00F0750E7BEC80
:103BC00000F06E0E7BEC00F0730E7BEC00F0650EE7
:103BD0007BEC00F0740E7BEC00F0200E7BEC00F030
:103BE000200E7BEC00F0200E7BEC00F0200E7BEC36
:103BF00000F0200E7BEC00F0200E7BEC00F0200E9D
:103C00007BEC00F0200E7BEC00F0200E7BEC00F053
:103C1000200E7BEC00F0200E7BEC00F0200E7BEC05
:103C200000F0200E7BEC00F03BAEE7EF1FF0975169
:103C30000108D8A41DEF1EF03A9C97510208D8A4A1
:103C400023EF1EF03A8C5D500108D8A4E868FF0A03
:103C5000226EE86A3AACE868266E22C012F026505E
:103C6000B7EC01F0266E276E286E296E26502710BD
:103C700028102910D8B45BEF1EF0080EA96E2EECA8
:103C800001F0676F090EA96E2EEC01F05F6E0A0E4F
:103C9000A96E2EEC01F0736F0C0EA96E2EEC01F0E4
:103CA000686F0D0EA96E2EEC01F0606F0E0EA96EFE
:103CB0002EEC01F0746F5D500108D8A4E868FF0A8B
:103CC000226EE86A3ABCE868266E22C012F02650DE
:103CD000B7EC01F0266E276E286E296E265027104D
:103CE00028102910D8B493EF1EF0100EA96E2EECF8
:103CF00001F0676F110EA96E2EEC01F05F6E120ECF
:103D0000A96E2EEC01F0736F140EA96E2EEC01F06B
:103D1000686F150EA96E2EEC01F0606F160EA96E7D
:103D20002EEC01F0746F5D500208D8A4E868FF0A19
:103D3000226EE86A3AACE868266E22C012F026507D
:103D4000B7EC01F0266E276E286E296E26502710DC
:103D500028102910D8B4CBEF1EF0180EA96E2EEC47
:103D600001F0676F190EA96E2EEC01F05F6E1A0E4E
:103D7000A96E2EEC01F0736F1C0EA96E2EEC01F0F3
:103D8000686F1D0EA96E2EEC01F0606F1E0EA96EFD
:103D90002EEC01F0746F5D500208D8A4E868FF0AA9
:103DA000226EE86A3ABCE868266E22C012F02650FD
:103DB000B7EC01F0266E276E286E296E265027106C
:103DC00028102910D8B403EF1FF0200EA96E2EEC96
:103DD00001F0676F210EA96E2EEC01F05F6E220ECE
:103DE000A96E2EEC01F0736F240EA96E2EEC01F07B
:103DF000686F250EA96E2EEC01F0606F260EA96E7D
:103E00002EEC01F0746F5D500308D8A4E868FF0A37
:103E1000226EE86A3AACE868266E22C012F026509C
:103E2000B7EC01F0266E276E286E296E26502710FB
:103E300028102910D8B43BEF1FF0280EA96E2EECE5
:103E400001F0676F290EA96E2EEC01F05F6E2A0E4D
:103E5000A96E2EEC01F0736F2C0EA96E2EEC01F002
:103E6000686F2D0EA96E2EEC01F0606F2E0EA96EFC
:103E70002EEC01F0746F5D500308D8A4E868FF0AC7
:103E8000226EE86A3ABCE868266E22C012F026501C
:103E9000B7EC01F0266E276E286E296E265027108B
:103EA00028102910D8B473EF1FF0300EA96E2EEC35
:103EB00001F0676F310EA96E2EEC01F05F6E320ECD
:103EC000A96E2EEC01F0736F340EA96E2EEC01F08A
:103ED000686F350EA96E2EEC01F0606F360EA96E7C
:103EE0002EEC01F0746F5D500408D8A4E868FF0A56
:103EF000226EE86A3AACE868266E22C012F02650BC
:103F0000B7EC01F0266E276E286E296E265027101A
:103F100028102910D8B4ABEF1FF0380EA96E2EEC84
:103F200001F0676F390EA96E2EEC01F05F6E3A0E4C
:103F3000A96E2EEC01F0736F3C0EA96E2EEC01F011
:103F4000686F3D0EA96E2EEC01F0606F3E0EA96EFB
:103F50002EEC01F0746F5D500408D8A4E868FF0AE5
:103F6000226EE86A3ABCE868266E22C012F026503B
:103F7000B7EC01F0266E276E286E296E26502710AA
:103F800028102910D8B4E3EF1FF0400EA96E2EECD4
:103F900001F0676F410EA96E2EEC01F05F6E420ECC
:103FA000A96E2EEC01F0736F440EA96E2EEC01F099
:103FB000686F450EA96E2EEC01F0606F460EA96E7B
:103FC0002EEC01F0746F010E976FE9EF1FF0CBEF4D
:103FD0001CF0D9EC0AF08BEC3EF03AA4FAEF1FF09B
:103FE00097510608D8A4F9EF1FF0010E976FFAEF6A
:103FF0001FF0972B97510108D8A40BEF20F07E0EED
:10400000BB6F200EBC6F200EBD6F200EBE6F200E4A
:10401000BF6F200EC06F97510208D8A41CEF20F08C
:10402000200EBB6F7E0EBC6F200EBD6F200EBE6FCC
:10403000200EBF6F200EC06F97510308D8A42DEF3C
:1040400020F0200EBB6F200EBC6F7E0EBD6F200EC9
:10405000BE6F200EBF6F200EC06F97510408D8A40A
:104060003EEF20F0200EBB6F200EBC6F200EBD6F08
:104070007E0EBE6F200EBF6F200EC06F97510508D9
:10408000D8A44FEF20F0200EBB6F200EBC6F200E87
:10409000BD6F200EBE6F7E0EBF6F200EC06F97519A
:1040A0000608D8A460EF20F0200EBB6F200EBC6F76
:1040B000200EBD6F200EBE6F200EBF6F7E0EC06F34
:1040C0003AAA6EEF20F03ABC6AEF20F0010E976F2B
:1040D0006CEF20F0020E976FCBEF1CF081BC5BEF12
:1040E00021F097510108D8A498EF20F0672B67C002
:1040F00012F0010E8BEC01F0226E67C012F0170E69
:1041000085EC01F0266E22C012F02650BEEC01F0C4
:10411000266E276E286E296E26502710281029102B
:10412000D8B495EF20F0170E676F6E0E43EC01F0D8
:1041300097510208D8A4BFEF20F05F2A5FC012F0A9
:10414000010E8BEC01F0226E5FC012F03B0E85EC8D
:1041500001F0266E22C012F02650BEEC01F0266E51
:10416000276E286E296E2650271028102910D8B4E3
:10417000BCEF20F03B0E5F6E6E0E43EC01F09751EA
:104180000308D8A4E6EF20F0732B73C012F0010EE1
:104190008BEC01F0226E73C012F0640E85EC01F01E
:1041A000266E22C012F02650BEEC01F0266E276E5D
:1041B000286E296E2650271028102910D8B4E3EF56
:1041C00020F0640E736F6E0E43EC01F097510408FB
:1041D000D8A40DEF21F0682B68C012F0010E8BEC13
:1041E00001F0226E68C012F0170E85EC01F0266E09
:1041F00022C012F02650BEEC01F0266E276E286E0B
:10420000296E2650271028102910D8B40AEF21F063
:10421000170E686F6E0E43EC01F097510508D8A495
:1042200034EF21F0602B60C012F0010E8BEC01F036
:10423000226E60C012F03B0E85EC01F0266E22C0AB
:1042400012F02650BEEC01F0266E276E286E296E05
:104250002650271028102910D8B431EF21F03B0E3A
:10426000606F6E0E43EC01F097510608D8A45BEF27
:1042700021F0742B74C012F0010E8BEC01F0226E51
:1042800074C012F0640E85EC01F0266E22C012F0AC
:104290002650BEEC01F0266E276E286E296E265041
:1042A000271028102910D8B458EF21F0640E746F2D
:1042B0006E0E43EC01F081BA42EF22F097510108F3
:1042C000D8A484EF21F0670767C012F0010E8BECD1
:1042D00001F0226E67C012F0170E85EC01F0266E19
:1042E00022C012F02650BEEC01F0266E276E286E1A
:1042F000296E2650271028102910D8B481EF21F0FC
:10430000676B6E0E43EC01F097510208D8A4AAEF38
:1043100021F05F065FC012F0010E8BEC01F0226EFF
:104320005FC012F03B0E85EC01F0266E22C012F049
:104330002650BEEC01F0266E276E286E296E2650A0
:10434000271028102910D8B4A7EF21F05F6A6E0E4D
:1043500043EC01F097510308D8A4D0EF21F0730784
:1043600073C012F0010E8BEC01F0226E73C012F0DC
:10437000640E85EC01F0266E22C012F02650BEECD1
:1043800001F0266E276E286E296E26502710281001
:104390002910D8B4CDEF21F0736B6E0E43EC01F011
:1043A00097510408D8A4F6EF21F0680768C012F00E
:1043B000010E8BEC01F0226E68C012F0170E85EC36
:1043C00001F0266E22C012F02650BEEC01F0266EDF
:1043D000276E286E296E2650271028102910D8B471
:1043E000F3EF21F0686B6E0E43EC01F09751050876
:1043F000D8A41CEF22F0600760C012F0010E8BEC15
:1044000001F0226E60C012F03B0E85EC01F0266ECA
:1044100022C012F02650BEEC01F0266E276E286EE8
:10442000296E2650271028102910D8B419EF22F031
:10443000606B6E0E43EC01F097510608D8A442EF72
:1044400022F0740774C012F0010E8BEC01F0226EA2
:1044500074C012F0640E85EC01F0266E22C012F0DA
:104460002650BEEC01F0266E276E286E296E26506F
:10447000271028102910D8B43FEF22F0746B6E0E6D
:1044800043EC01F03BAE14EF24F05D500108D8A4DA
:10449000E868FF0A226EE86A3AACE868266E22C035
:1044A00012F02650B7EC01F0266E276E286E296EAA
:1044B0002650271028102910D8B47DEF22F0080EBE
:1044C000A96E675135EC01F0090EA96E5F5035EC0D
:1044D00001F00A0EA96E735135EC01F00C0EA96EB5
:1044E000685135EC01F00D0EA96E605135EC01F00C
:1044F0000E0EA96E745135EC01F05D500108D8A480
:10450000E868FF0A226EE86A3ABCE868266E22C0B4
:1045100012F02650B7EC01F0266E276E286E296E39
:104520002650271028102910D8B4B5EF22F0100E0D
:10453000A96E675135EC01F0110EA96E5F5035EC94
:1045400001F0120EA96E735135EC01F0140EA96E34
:10455000685135EC01F0150EA96E605135EC01F093
:10456000160EA96E745135EC01F05D500208D8A406
:10457000E868FF0A226EE86A3AACE868266E22C054
:1045800012F02650B7EC01F0266E276E286E296EC9
:104590002650271028102910D8B4EDEF22F0180E5D
:1045A000A96E675135EC01F0190EA96E5F5035EC1C
:1045B00001F01A0EA96E735135EC01F01C0EA96EB4
:1045C000685135EC01F01D0EA96E605135EC01F01B
:1045D0001E0EA96E745135EC01F05D500208D8A48E
:1045E000E868FF0A226EE86A3ABCE868266E22C0D4
:1045F00012F02650B7EC01F0266E276E286E296E59
:104600002650271028102910D8B425EF23F0200EAB
:10461000A96E675135EC01F0210EA96E5F5035ECA3
:1046200001F0220EA96E735135EC01F0240EA96E33
:10463000685135EC01F0250EA96E605135EC01F0A2
:10464000260EA96E745135EC01F05D500308D8A414
:10465000E868FF0A226EE86A3AACE868266E22C073
:1046600012F02650B7EC01F0266E276E286E296EE8
:104670002650271028102910D8B45DEF23F0280EFB
:10468000A96E675135EC01F0290EA96E5F5035EC2B
:1046900001F02A0EA96E735135EC01F02C0EA96EB3
:1046A000685135EC01F02D0EA96E605135EC01F02A
:1046B0002E0EA96E745135EC01F05D500308D8A49C
:1046C000E868FF0A226EE86A3ABCE868266E22C0F3
:1046D00012F02650B7EC01F0266E276E286E296E78
:1046E0002650271028102910D8B495EF23F0300E4B
:1046F000A96E675135EC01F0310EA96E5F5035ECB3
:1047000001F0320EA96E735135EC01F0340EA96E32
:10471000685135EC01F0350EA96E605135EC01F0B1
:10472000360EA96E745135EC01F05D500408D8A422
:10473000E868FF0A226EE86A3AACE868266E22C092
:1047400012F02650B7EC01F0266E276E286E296E07
:104750002650271028102910D8B4CDEF23F0380E9A
:10476000A96E675135EC01F0390EA96E5F5035EC3A
:1047700001F03A0EA96E735135EC01F03C0EA96EB2
:10478000685135EC01F03D0EA96E605135EC01F039
:104790003E0EA96E745135EC01F05D500408D8A4AA
:1047A000E868FF0A226EE86A3ABCE868266E22C012
:1047B00012F02650B7EC01F0266E276E286E296E97
:1047C0002650271028102910D8B405EF24F0400EE9
:1047D000A96E675135EC01F0410EA96E5F5035ECC2
:1047E00001F0420EA96E735135EC01F0440EA96E32
:1047F000685135EC01F0450EA96E605135EC01F0C1
:10480000460EA96E745135EC01F03CEC3EF01CEC08
:1048100038F03ABC10EF24F0010E976F12EF24F03D
:10482000020E976FCBEF1CF0FE0E7BEC00F0020E39
:104830007BEC00F0530E7BEC00F03A0E7BEC00F0CA
:10484000BB517BEC00F0020E036E67C01AF01B6ACE
:104850001C6A1D6AF40E0A6E0B6ACFEC00F03A0E69
:104860007BEC00F0BC517BEC00F0020E036E5FC0ED
:104870001AF01B6A1C6A1D6AF40E0A6E0B6ACFECF2
:1048800000F02D0E7BEC00F0BD517BEC00F0030E30
:10489000036E73C01AF01B6A1C6A1D6AF40E0A6E5E
:1048A0000B6ACFEC00F0250E7BEC00F0200E7BECC9
:1048B00000F0200E7BEC00F0200E7BEC00F0200ED0
:1048C0007BEC00F0FE0E7BEC00F0C00E7BEC00F009
:1048D000450E7BEC00F03A0E7BEC00F0BE517BEC19
:1048E00000F0020E036E68C01AF01B6A1C6A1D6A93
:1048F000F40E0A6E0B6ACFEC00F03A0E7BEC00F07F
:10490000BF517BEC00F0020E036E60C01AF01B6A10
:104910001C6A1D6AF40E0A6E0B6ACFEC00F02D0EB5
:104920007BEC00F0C0517BEC00F0030E036E74C012
:104930001AF01B6A1C6A1D6AF40E0A6E0B6ACFEC31
:1049400000F0250E7BEC00F0200E7BEC00F0200E3A
:104950007BEC00F0E9EF1FF0D9EC0AF08BEC3EF0B5
:104960003AA6BDEF24F097510208D8A4BCEF24F07A
:10497000020E976FBDEF24F0972B3AA8CAEF24F0F0
:1049800097510108D8A4C9EF24F0010E976FCAEF20
:1049900024F097073AAAD1EF24F0020E976F7BEF2D
:1049A00016F097510108D8A47BEF25F0FE0E7BECA2
:1049B00000F0020E7BEC00F07E0E7BEC00F0530E5C
:1049C0007BEC00F0770E7BEC00F0690E7BEC00F0E6
:1049D000740E7BEC00F0630E7BEC00F0680E7BEC59
:1049E00000F0200E7BEC00F0230E7BEC00F0310E8B
:1049F0007BEC00F0200E7BEC00F0200E7BEC00F056
:104A0000200E7BEC00F0200E7BEC00F0200E7BEC07
:104A100000F0200E7BEC00F0200E7BEC00F0200E6E
:104A20007BEC00F0200E7BEC00F0200E7BEC00F025
:104A3000FE0E7BEC00F0C00E7BEC00F0200E7BEC59
:104A400000F0530E7BEC00F0770E7BEC00F0690E6B
:104A50007BEC00F0740E7BEC00F0630E7BEC00F05E
:104A6000680E7BEC00F0200E7BEC00F0230E7BEC5C
:104A700000F0320E7BEC00F0200E7BEC00F0200EFC
:104A80007BEC00F0200E7BEC00F0200E7BEC00F0C5
:104A9000200E7BEC00F0200E7BEC00F0200E7BEC77
:104AA00000F0200E7BEC00F0200E7BEC00F0200EDE
:104AB0007BEC00F0200E7BEC00F0200E7BEC00F095
:104AC000200E7BEC00F0200E7BEC00F0200E7BEC47
:104AD00000F0200E7BEC00F0200E7BEC00F03BAEF3
:104AE00079EF25F03C90010E896F010E976F09EF69
:104AF00026F008EF26F097510208D8A408EF26F018
:104B0000FE0E7BEC00F0020E7BEC00F0200E7BEC46
:104B100000F0530E7BEC00F0770E7BEC00F0690E9A
:104B20007BEC00F0740E7BEC00F0630E7BEC00F08D
:104B3000680E7BEC00F0200E7BEC00F0230E7BEC8B
:104B400000F0310E7BEC00F0200E7BEC00F0200E2C
:104B50007BEC00F0200E7BEC00F0200E7BEC00F0F4
:104B6000200E7BEC00F0200E7BEC00F0200E7BECA6
:104B700000F0200E7BEC00F0200E7BEC00F0FE0E2F
:104B80007BEC00F0C00E7BEC00F07E0E7BEC00F0C6
:104B9000530E7BEC00F0770E7BEC00F0690E7BECA3
:104BA00000F0740E7BEC00F0630E7BEC00F0680EFE
:104BB0007BEC00F0200E7BEC00F0230E7BEC00F091
:104BC000320E7BEC00F0200E7BEC00F0200E7BEC34
:104BD00000F0200E7BEC00F0200E7BEC00F0200EAD
:104BE0007BEC00F0200E7BEC00F0200E7BEC00F064
:104BF000200E7BEC00F0200E7BEC00F03BAE08EFCB
:104C000026F03C80020E896F010E976F09EF26F0A7
:104C1000A3D6D9EC0AF08BEC3EF03AA61AEF26F0B8
:104C200097510208D8A419EF26F0020E976F1AEFD9
:104C300026F0972B3AA827EF26F097510108D8A421
:104C400026EF26F0010E976F27EF26F097073AAA76
:104C50002DEF26F089C097F07FD697510108D8A490
:104C6000CDEF26F0FE0E7BEC00F0020E7BEC00F0A8
:104C70007E0E7BEC00F0540E7BEC00F0690E7BECBA
:104C800000F06D0E7BEC00F0650E7BEC00F0200E6A
:104C90007BEC00F0310E7BEC00F0200E7BEC00F0A2
:104CA000200E7BEC00F0200E7BEC00F0200E7BEC65
:104CB00000F0200E7BEC00F0200E7BEC00F0200ECC
:104CC0007BEC00F0200E7BEC00F0200E7BEC00F083
:104CD000200E7BEC00F0200E7BEC00F0200E7BEC35
:104CE00000F0200E7BEC00F0FE0E7BEC00F0C00E1E
:104CF0007BEC00F0200E7BEC00F0540E7BEC00F01F
:104D0000690E7BEC00F06D0E7BEC00F0650E7BEC29
:104D100000F0200E7BEC00F0320E7BEC00F0200E59
:104D20007BEC00F0200E7BEC00F0200E7BEC00F022
:104D3000200E7BEC00F0200E7BEC00F0200E7BECD4
:104D400000F0200E7BEC00F0200E7BEC00F0200E3B
:104D50007BEC00F0200E7BEC00F0200E7BEC00F0F2
:104D6000200E7BEC00F0200E7BEC00F0200E7BECA4
:104D700000F0200E7BEC00F0200E7BEC00F0200E0B
:104D80007BEC00F0200E7BEC00F0200E7BEC00F0C2
:104D9000200E7BEC00F068EF27F097510208D8A4B2
:104DA00068EF27F0FE0E7BEC00F0020E7BEC00F0CB
:104DB000200E7BEC00F0540E7BEC00F0690E7BECD7
:104DC00000F06D0E7BEC00F0650E7BEC00F0200E29
:104DD0007BEC00F0310E7BEC00F0200E7BEC00F061
:104DE000200E7BEC00F0200E7BEC00F0200E7BEC24
:104DF00000F0200E7BEC00F0200E7BEC00F0200E8B
:104E00007BEC00F0200E7BEC00F0200E7BEC00F041
:104E1000200E7BEC00F0200E7BEC00F0200E7BECF3
:104E200000F0200E7BEC00F0200E7BEC00F0200E5A
:104E30007BEC00F0200E7BEC00F0200E7BEC00F011
:104E4000200E7BEC00F0FE0E7BEC00F0C00E7BEC45
:104E500000F07E0E7BEC00F0540E7BEC00F0690E4F
:104E60007BEC00F06D0E7BEC00F0650E7BEC00F04F
:104E7000200E7BEC00F0320E7BEC00F0200E7BEC81
:104E800000F0200E7BEC00F0200E7BEC00F0200EFA
:104E90007BEC00F0200E7BEC00F0200E7BEC00F0B1
:104EA000200E7BEC00F0200E7BEC00F0200E7BEC63
:104EB00000F0200E7BEC00F0200E7BEC00F0200ECA
:104EC0007BEC00F0200E7BEC00F0200E7BEC00F081
:104ED0003BAE32EF28F097510108D8A471EF27F0CC
:104EE0003D9297510208D8A477EF27F03D82E86AF7
:104EF0003CA0E868226EE86A3DA2E868266E22C0FF
:104F000012F02650B7EC01F0266E276E286E296E3F
:104F10002650271028102910D8B4A3EF27F04A0EE6
:104F2000A96E2EEC01F0676F4B0EA96E2EEC01F00E
:104F30005F6E4C0EA96E2EEC01F0686F4D0EA96EDF
:104F40002EEC01F0606FE86A3CA0E868226EE86A27
:104F50003DB2E868266E22C012F02650B7EC01F090
:104F6000266E276E286E296E2650271028102910CD
:104F7000D8B4CFEF27F04E0EA96E2EEC01F0676F7C
:104F80004F0EA96E2EEC01F05F6E500EA96E2EEC46
:104F900001F0686F510EA96E2EEC01F0606FE86AA7
:104FA0003CB0E868226EE86A3DA2E868266E22C03E
:104FB00012F02650B7EC01F0266E276E286E296E8F
:104FC0002650271028102910D8B4FBEF27F0520ED6
:104FD000A96E2EEC01F0676F530EA96E2EEC01F056
:104FE0005F6E540EA96E2EEC01F0686F550EA96E1F
:104FF0002EEC01F0606FE86A3CB0E868226EE86A67
:105000003DB2E868266E22C012F02650B7EC01F0DF
:10501000266E276E286E296E26502710281029101C
:10502000D8B427EF28F0560EA96E2EEC01F0676F6A
:10503000570EA96E2EEC01F05F6E580EA96E2EEC85
:1050400001F0686F590EA96E2EEC01F0606F3DB251
:105050002EEF28F0010E976F30EF28F0010E976FBA
:1050600034EF28F009EF26F0D9EC0AF08BEC3EF093
:105070003AA445EF28F097510408D8A444EF28F04B
:10508000010E976F45EF28F0972B97510108D8A490
:1050900052EF28F07E0EBB6F200EBC6F200EBD6F4E
:1050A000200EBE6F97510208D8A45FEF28F0200EA3
:1050B000BB6F7E0EBC6F200EBD6F200EBE6F975172
:1050C0000308D8A46CEF28F0200EBB6F200EBC6F35
:1050D0007E0EBD6F200EBE6F97510408D8A479EFE5
:1050E00028F0200EBB6F200EBC6F200EBD6F7E0E11
:1050F000BE6F3AAA7EEF28F009EF26F081BCC1EF1F
:1051000028F097510108D8A491EF28F0672B180ECA
:10511000675DD8A08EEF28F0170E676F6E0E43EC18
:1051200001F097510208D8A4A1EF28F05F2A3C0EA5
:105130005F5CD8A09EEF28F03B0E5F6E6E0E43ECD6
:1051400001F097510308D8A4B1EF28F0682B180E8E
:10515000685DD8A0AEEF28F0170E686F6E0E43ECB6
:1051600001F097510408D8A4C1EF28F0602B3C0E41
:10517000605DD8A0BEEF28F03B0E606F6E0E43EC72
:1051800001F081BA5CEF29F097510108D8A4EAEF49
:1051900028F0670767C012F0010E8BEC01F0226E59
:1051A00067C012F0170E85EC01F0266E22C012F0D7
:1051B0002650BEEC01F0266E276E286E296E265012
:1051C000271028102910D8B4E7EF28F0676B6E0E6F
:1051D00043EC01F097510208D8A410EF29F05F06C4
:1051E0005FC012F0010E8BEC01F0226E5FC012F076
:1051F0003B0E85EC01F0266E22C012F02650BEEC6C
:1052000001F0266E276E286E296E26502710281072
:105210002910D8B40DEF29F05F6A6E0E43EC01F04F
:1052200097510308D8A436EF29F0680768C012F038
:10523000010E8BEC01F0226E68C012F0170E85ECA7
:1052400001F0266E22C012F02650BEEC01F0266E50
:10525000276E286E296E2650271028102910D8B4E2
:1052600033EF29F0686B6E0E43EC01F097510408A0
:10527000D8A45CEF29F0600760C012F0010E8BEC3F
:1052800001F0226E60C012F03B0E85EC01F0266E3C
:1052900022C012F02650BEEC01F0266E276E286E5A
:1052A000296E2650271028102910D8B459EF29F05C
:1052B000606B6E0E43EC01F03BAE1EEF2AF0E86A25
:1052C0003CA0E868226EE86A3DA2E868266E22C02B
:1052D00012F02650B7EC01F0266E276E286E296E6C
:1052E0002650271028102910D8B48BEF29F04A0E29
:1052F000A96E675135EC01F04B0EA96E5F5035EC8D
:1053000001F04C0EA96E685135EC01F04D0EA96EFE
:10531000605135EC01F0E86A3CA0E868226EE86A6A
:105320003DB2E868266E22C012F02650B7EC01F0BC
:10533000266E276E286E296E2650271028102910F9
:10534000D8B4B7EF29F04E0EA96E675135EC01F0D5
:105350004F0EA96E5F5035EC01F0500EA96E6851EA
:1053600035EC01F0510EA96E605135EC01F0E86AA0
:105370003CB0E868226EE86A3DA2E868266E22C06A
:1053800012F02650B7EC01F0266E276E286E296EBB
:105390002650271028102910D8B4E3EF29F0520E18
:1053A000A96E675135EC01F0530EA96E5F5035ECD4
:1053B00001F0540EA96E685135EC01F0550EA96E3E
:1053C000605135EC01F0E86A3CB0E868226EE86AAA
:1053D0003DB2E868266E22C012F02650B7EC01F00C
:1053E000266E276E286E296E265027102810291049
:1053F000D8B40FEF2AF0560EA96E675135EC01F0C4
:10540000570EA96E5F5035EC01F0580EA96E685129
:1054100035EC01F0590EA96E605135EC01F03DB24A
:1054200016EF2AF0010E976F18EF2AF0020E976F11
:105430003CEC3EF01CEC38F009EF26F0FE0E7BEC65
:1054400000F0020E7BEC00F04F0E7BEC00F04E0EF5
:105450007BEC00F03A0E7BEC00F0200E7BEC00F0D1
:10546000BB517BEC00F0020E036E67C01AF01B6AA2
:105470001C6A1D6AF40E0A6E0B6ACFEC00F03A0E3D
:105480007BEC00F0BC517BEC00F0020E036E5FC0C1
:105490001AF01B6A1C6A1D6AF40E0A6E0B6ACFECC6
:1054A00000F0200E7BEC00F0200E7BEC00F0200ED4
:1054B0007BEC00F0FE0E7BEC00F0C00E7BEC00F00D
:1054C0004F0E7BEC00F0460E7BEC00F0460E7BECC2
:1054D00000F03A0E7BEC00F0BD517BEC00F0020EC8
:1054E000036E68C01AF01B6A1C6A1D6AF40E0A6E0D
:1054F0000B6ACFEC00F03A0E7BEC00F0BE517BEC77
:1055000000F0020E036E60C01AF01B6A1C6A1D6A6E
:10551000F40E0A6E0B6ACFEC00F0200E7BEC00F06C
:10552000200E7BEC00F0200E7BEC00F034EF28F036
:10553000D9EC0AF08BEC3EF03AA6A9EF2AF097518D
:105540000208D8A4A8EF2AF0020E976FA9EF2AF05C
:10555000972B3AA8B6EF2AF097510108D8A4B5EFD7
:105560002AF0010E976FB6EF2AF097073AAABDEF1F
:105570002AF0020E976F58EF18F097510108D8A43F
:105580006BEF2BF0FE0E7BEC00F0020E7BEC00F0DC
:105590007E0E7BEC00F0410E7BEC00F0710E7BEC9C
:1055A00000F0750E7BEC00F0610E7BEC00F0720EEB
:1055B0007BEC00F0690E7BEC00F0750E7BEC00F0EC
:1055C0006D0E7BEC00F0200E7BEC00F06C0E7BECA3
:1055D00000F0690E7BEC00F0670E7BEC00F0680ECB
:1055E0007BEC00F0740E7BEC00F0200E7BEC00F006
:1055F000200E7BEC00F0200E7BEC00F0200E7BEC0C
:1056000000F0200E7BEC00F0200E7BEC00F0FE0E94
:105610007BEC00F0C00E7BEC00F0200E7BEC00F089
:10562000520E7BEC00F06F0E7BEC00F06F0E7BEC0B
:1056300000F06D0E7BEC00F0200E7BEC00F06C0EA9
:105640007BEC00F0690E7BEC00F0670E7BEC00F069
:10565000680E7BEC00F0740E7BEC00F0200E7BEC0F
:1056600000F0200E7BEC00F0200E7BEC00F0200E12
:105670007BEC00F0200E7BEC00F0200E7BEC00F0C9
:10568000200E7BEC00F0200E7BEC00F0200E7BEC7B
:1056900000F0200E7BEC00F0200E7BEC00F0200EE2
:1056A0007BEC00F03BAE69EF2BF0010E976F3A9068
:1056B000640EA96E2EEC01F08B6F650EA96E2EECB8
:1056C00001F08C6F660EA96E2EEC01F08D6FFAEF73
:1056D0002BF0F9EF2BF097510208D8A4F9EF2BF03B
:1056E000FE0E7BEC00F0020E7BEC00F0200E7BEC5B
:1056F00000F0410E7BEC00F0710E7BEC00F0750EBB
:105700007BEC00F0610E7BEC00F0720E7BEC00F0A5
:10571000690E7BEC00F0750E7BEC00F06D0E7BECFF
:1057200000F0200E7BEC00F06C0E7BEC00F0690EBC
:105730007BEC00F0670E7BEC00F0680E7BEC00F079
:10574000740E7BEC00F0200E7BEC00F0200E7BEC66
:1057500000F0200E7BEC00F0200E7BEC00F0200E21
:105760007BEC00F0200E7BEC00F0FE0E7BEC00F0FA
:10577000C00E7BEC00F07E0E7BEC00F0520E7BEC5A
:1057800000F06F0E7BEC00F06F0E7BEC00F06D0E06
:105790007BEC00F0200E7BEC00F06C0E7BEC00F05C
:1057A000690E7BEC00F0670E7BEC00F0680E7BEC82
:1057B00000F0740E7BEC00F0200E7BEC00F0200E6D
:1057C0007BEC00F0200E7BEC00F0200E7BEC00F078
:1057D000200E7BEC00F0200E7BEC00F03BAEF9EFEE
:1057E0002BF03A92670EA96E2EEC01F0976F2EEF18
:1057F0002EF09ED6D9EC0AF08BEC3EF03AA40BEFDB
:105800002CF097510308D8A40AEF2CF0010E976FE3
:105810000BEF2CF0972B3AAA19EF2CF0050EA96E7E
:105820002EEC01F0E8B03A80E8A03A90010E976FB4
:105830007FD697510108D8A424EF2CF07E0EBB6FC1
:10584000200EBC6F200EBD6F97510208D8A42FEF19
:105850002CF0200EBB6F7E0EBC6F200EBD6F9751DB
:105860000308D8A43AEF2CF0200EBB6F200EBC6FBB
:105870007E0EBD6F81BC67EF2CF097510108D8A454
:105880004AEF2CF08B2B650E8B5DD8A04AEF2CF0E5
:10589000640E8B6F97510208D8A457EF2CF08C2B15
:1058A000650E8C5DD8A057EF2CF0640E8C6F97516D
:1058B0000308D8A464EF2CF08D2B650E8D5DD8A065
:1058C00064EF2CF0640E8D6F6E0E43EC01F081BA24
:1058D000D6EF2CF097510108D8A48DEF2CF08B0750
:1058E0008BC012F0010E8BEC01F0226E8BC012F017
:1058F000640E85EC01F0266E22C012F02650BEEC3C
:1059000001F0266E276E286E296E2650271028106B
:105910002910D8B48DEF2CF08B6B97510208D8A4C6
:10592000B0EF2CF08C078CC012F0010E8BEC01F064
:10593000226E8CC012F0640E85EC01F0266E22C03F
:1059400012F02650BEEC01F0266E276E286E296EEE
:105950002650271028102910D8B4B0EF2CF08C6BEB
:1059600097510308D8A4D3EF2CF08D078DC012F007
:10597000010E8BEC01F0226E8DC012F0640E85ECEE
:1059800001F0266E22C012F02650BEEC01F0266E09
:10599000276E286E296E2650271028102910D8B49B
:1059A000D3EF2CF08D6B6E0E43EC01F0FE0E7BEC12
:1059B00000F0020E7BEC00F0BB517BEC00F0230EFC
:1059C0007BEC00F0310E7BEC00F0200E7BEC00F065
:1059D000030E036E8BC01AF01B6A1C6A1D6AF40E5C
:1059E0000A6E0B6ACFEC00F0250E7BEC00F0BC5188
:1059F0007BEC00F0320E7BEC00F0230E7BEC00F031
:105A0000200E7BEC00F0030E036E8CC01AF01B6AB4
:105A10001C6A1D6AF40E0A6E0B6ACFEC00F0250EAC
:105A20007BEC00F0200E7BEC00F0200E7BEC00F015
:105A3000200E7BEC00F0200E7BEC00F0200E7BECC7
:105A400000F0200E7BEC00F0200E7BEC00F0200E2E
:105A50007BEC00F0FE0E7BEC00F0C00E7BEC00F067
:105A6000BD517BEC00F0230E7BEC00F0330E7BECA1
:105A700000F0200E7BEC00F0030E036E8DC01AF0D8
:105A80001B6A1C6A1D6AF40E0A6E0B6ACFEC00F0EA
:105A9000250E7BEC00F0200E7BEC00F0200E7BEC62
:105AA00000F0200E7BEC00F0200E7BEC00F0200ECE
:105AB0007BEC00F0200E7BEC00F0200E7BEC00F085
:105AC000200E7BEC00F0200E7BEC00F0200E7BEC37
:105AD00000F0200E7BEC00F0200E7BEC00F03BAEE3
