:020000040000FA
:10000000006A69EF02F0008A00AA009A00B603D0E5
:10001000008644D827E2080E176E54D81636172EDD
:10002000FCD700AA2ED85CD855D800BA1BD821D846
:100030001650D89066EF02F0008A00AA009A00B429
:1000400005D0FE0B016E0084D8900AD000B805D010
:100050001E6E008823D806E21E5027D803E200AAAD
:1000600066EF02F00ED83CD800940098009601D8B4
:10007000F7D710C0EAFF0E3CE96EE9880C50EC128D
:1000800008D010C0EAFF0EC0E9FF0C1CEE16E9888C
:10009000EC16040E126E122EFED71200EADF20D8E4
:1000A000F0DF18D8015000B60109166E080E176E61
:1000B0001636D8B0DEDFD8A0E4DF12D80BD8172E62
:1000C000F7D7D7DF0DD810C0EAFF0EC0E9FF0C50FC
:1000D000EF14FF0F11C0EAFF0FC0E9FF0D1CD6D7C8
:1000E00011C0EAFF0FC0E9FF0D50EE12E9880D1CA8
:1000F000EC16CFD7E9501F6E8098809A809A92981C
:10010000929A929AF00E92161F5000B221D03A0E97
:10011000136EFC0E40EC01F0330E1E6E30D8100E44
:10012000136E680E40EC01F02AD8640E3FEC01F02B
:1001300026D8220E1E6E23D8280E09D80C0E07D8FA
:10014000010E05D8060E03D800821F5001D0008092
:100150001E6E00A00BD0809A03080FE30ED8070E86
:10016000136ED00E40EC01F0D88012000080FE0823
:10017000D8B466EF02F0808A00D01E3A00A000904A
:100180008088F00E80161E500F0B801280981E3A49
:1001900000B0F5D7320E3FEC01F0D8801200019E7E
:1001A0000350D8B4018E0A0E026E3B0E196E9A0EE1
:1001B000186ECA0E176E000E35D8050E196EF50EA4
:1001C000186EE10E176E000E2DD8196A980E186E73
:1001D000960E176E800E26D8196A0F0E186E420EF4
:1001E000176E400E1FD8196A010E186E860E176E14
:1001F000A00E18D8196A186A270E176E100E12D89A
:10020000196A186A030E176EE80E0CD8196A186A74
:10021000176A640E07D8196A186A176A0A0E02D894
:100220001A500CD0166E1D50156E1C50146E1B50BB
:10023000136E1A50126E9AEC01F01250126E024EAA
:10024000019E035003E0025CD8B012001250D8A403
:10025000019E01BE1200300F60EF02F0176A186AAB
:10026000196A166EE86A1606175A185A195AD8A04B
:1002700066EF02F0030E136EE50E02D8F3D7136A91
:10028000FB0F126E00D0E86A01D01206135AFDE28D
:1002900000001200D8901236133614361536FF0FB0
:1002A000F9E2125066EF02F0D89015321432133290
:1002B0001232FF0FF9E2125066EF02F0166E020ED4
:1002C00009D0166E060E06D0166E040E03D0166EFA
:1002D000050E02D0026E0AD0026E1950151815E6EE
:1002E0001950155C08E11850145C05E11750135CB7
:1002F00002E11650125C040ED8B0010ED8B4020E02
:100300000214D8A4FF0E66EF02F01550195CF3D763
:10031000216A15AE06D0217EE86A126C1356145677
:10032000155619AE08D0217EE86A166C1756185675
:10033000195601D0216A1A6A1B6A1C6A1D6A200EAE
:100340001E6E15341A361B361C361D3616501A5EB4
:1003500017501B5A18501C5A19501D5A09E21650B2
:100360001A2617501B2218501C2219501D22D890F3
:1003700012361336143615361E2EE3D721AE09D0A9
:10038000E86A126C1356145615561A6C1B561C56F6
:100390001D56125066EF02F016501E02F3CF1AF0EF
:1003A000F4CF1BF017501F02F3CF1CF0F4CF1DF059
:1003B0001E02F3501B26F4501C22E86A1D22165020
:1003C0001F02F3501B26F4501C22E86A1D2218500D
:1003D0001E02F3501C26F4501D2218501F02E86A1A
:1003E000126A1222F3501D26F450122216502002D7
:1003F000F3501C26F4501D22E86A136A12221322BD
:1004000017502002F3501D26F4501222E86A1322DE
:1004100018502002F3501226F450132219501F02D4
:10042000F3501226F450132219502002E86A146A7D
:100430001422F3501326F450142219501E02F350C4
:100440001D26F4501222E86A1322142219502102A8
:10045000F4CF15F0F3501426E86A15221650210245
:10046000F3501D26F4501222E86A1322142215229A
:1004700017502102F3501226F4501322E86A142276
:10048000152218502102F3501326F4501422E86A62
:10049000152221AE08D01650125E1750135A18506C
:1004A000145A1950155A19AE08D01E50125E1F501A
:1004B000135A2050145A2150155A1A5066EF02F060
:1004C000E96EFB6A0B50FA6E0A50F96E00010000EB
:1004D00012001BEF04F0090E126E3D0E136E146A2B
:1004E000156A36C016F037C017F0186A196A10DF9F
:1004F000386E13C039F038C012F039C013F0176AE3
:10050000040EE2DED8A491EF02F059B289EF02F0B6
:100510005984598259B08EEF02F059845980ACEF5A
:1005200002F059A295EF02F05984599238C012F0A6
:1005300039C013F0176A000EC4DED8A4A7EF02F08A
:1005400059B0A4EF02F059845980ACEF02F059A0E1
:10055000ABEF02F059845990126A090E136E3D0EEA
:10056000146E156A36C016F037C017F0186A196A8B
:10057000CFDE386E13C039F059A0CAEF02F038C090
:1005800012F039C013F0146A156A020E92DE386E4A
:1005900013C039F059A2D8EF02F038C012F039C0B8
:1005A00013F0146A156A020E84DE386E13C039F037
:1005B00038045A6E5A50BB5CD8B4E0EF02F059864A
:1005C0005A28226E236A246A256A233622C012F032
:1005D00023C013F0020E63DE386E13C039F038C04A
:1005E0001EF039C01FF0206A216A34C016F035C0F1
:1005F00017F0186A196AD0DE226E1BC023F01CC0E7
:1006000024F01DC025F022C012F023C013F024C036
:1006100014F025C015F01668030E176E186A196AD3
:1006200077DE346E13C035F05850126E0508D8A02E
:100630002CEF03F0FA6AFB6A1236FA364C0E1226D9
:10064000060EFA22000EFB221250F96E21D004D0C1
:1006500009D00ED013D018D0BECF38F0BDCF39F0AE
:1006600048EF03F067CF38F066CF39F048EF03F07A
:100670005ECF38F05DCF39F048EF03F058CF38F057
:1006800057CF39F048EF03F055CF38F054CF39F059
:1006900038C012F0136A146A156A020E00DE226E68
:1006A00013C023F014C024F015C025F0300E391407
:1006B000266E276A286A296A26C012F027C013F01E
:1006C00028C014F029C015F0040E59EC01F0266E74
:1006D00013C027F014C028F015C029F022502610AE
:1006E000386E23502710396E38C012F039C013F01D
:1006F00035C017F034505EEC01F0D8A4E5EF03F0FC
:1007000034C012F035C013F0146A156A020E59ECA9
:1007100001F0386E13C039F0030E3414226E000E4F
:100720003514236E246A256A22C012F023C013F008
:1007300024C014F025C015F0040E4FEC01F0226E19
:1007400013C023F014C024F015C025F00C0E2210A5
:10075000396EBAA4B1EF03F09E929EB2B1EF03F0EE
:10076000FCD75850126E0508D8A0C9EF03F0FA6AFA
:10077000FB6A1236FA36860E1226070EFA22000E91
:10078000FB221250F96E21D004D009D00ED013D024
:1007900018D038C0BEFF39C0BDFFE5EF03F038C048
:1007A00067FF39C066FFE5EF03F038C05EFF39C070
:1007B0005DFFE5EF03F038C058FF39C057FFE5EFA4
:1007C00003F038C055FF39C054FFBAB4E9EF03F065
:1007D000BA84E86A59B4010F59B60109226E236A36
:1007E000246A256A22C012F023C013F024C014F03A
:1007F00025C015F0196A186A176A010E67EC01F036
:10080000D8A41AEF04F09E929EB208EF04F0FCD731
:1008100059A414EF04F0599459B0BA8059A0BA9071
:1008200059B2BA8259A2BA9259A61AEF04F059964F
:100830005AC0BBFF12000F01386B396BF19EF70EE7
:10084000616E780ED36ED26A800E9B6E070ECD6EEF
:10085000386B396B020E3A6F946892689368C80ED1
:1008600000012EEC01F08296949682989498829AD8
:10087000949A829C949C8196939681909390829472
:10088000949493829388938A938C938E9384E9684B
:10089000050EEA6EED6AE950EA10FCE1EF6A300EEF
:1008A000326E750E336E2C882C8E2C8C2C8A2D82F9
:1008B0002D802B9E010E556E82862A8C820E0E6E26
:1008C0000F0E106E010E0C6E820E0F6E0F0E116E5B
:1008D000020E0D6E910E1EEC00F0010E1EEC00F0EB
:1008E000000E1CEC00F0140E2EEC01F09AEC05F05A
:1008F000300E326E750E336E7B6B020E7C6F7D6B2D
:100900007E6B7F6B020E806F816B826B836B020E3E
:10091000846F856B866B876B020E886F896B8A6B21
:10092000040E586E87C034F088C035F032C036F0FF
:1009300033C037F06BEC02F0030E586E83C034F016
:1009400084C035F032C036F033C037F06BEC02F0C3
:10095000020E586E7FC034F080C035F032C036F0E1
:1009600033C037F06BEC02F0010E586E7BC034F0F0
:100970007CC035F032C036F033C037F06BEC02F09B
:1009800081B2C7EF04F0640E2EEC01F0552ACEECD4
:1009900005F0FE0E7BEC00F0020E7BEC00F0560E34
:1009A0007BEC00F0720E7BEC00F0650E7BEC00F04F
:1009B0006D0E7BEC00F0650E7BEC00F0200E7BEC06
:1009C00000F03E0E7BEC00F0200E7BEC00F0020EFF
:1009D000036E52C01AF01B6A1C6A1D6AF40E0A6E7E
:1009E0000B6ACFEC00F03A0E7BEC00F0020E036EC7
:1009F0004EC01AF01B6A1C6A1D6AF40E0A6E0B6A5E
:100A0000CFEC00F03A0E7BEC00F0020E036E54C007
:100A10001AF01B6A1C6A1D6AF40E0A6E0B6ACFEC90
:100A200000F0FE0E7BEC00F0C00E7BEC00F0030E3D
:100A3000036E77C01AF01B6A1C6A1D6AF40E0A6EF8
:100A40000B6ACFEC00F0200E7BEC00F055507BECF5
:100A500000F0200E7BEC00F0030E036E55C01AF080
:100A60001B6A1C6A1D6AF40E0A6E0B6ACFEC00F05A
:100A7000200E7BEC00F0200E7BEC00F0200E7BECD7
:100A800000F0200E7BEC00F0200E7BEC00F0200E3E
:100A90007BEC00F0200E7BEC00F0200E7BEC00F0F5
:100AA000200E7BEC00F0200E7BEC00F0200E7BECA7
:100AB00000F0200E7BEC00F0200E7BEC00F0200E0E
:100AC0007BEC00F068EC05F0320E2EEC01F058D70C
:100AD000820E0E6E0F0E106E010E0C6E820E0F6ED9
:100AE0000F0E116E020E0D6E910E1EEC00F0000E38
:100AF0001EEC00F003EC00F0776F140E2EEC01F00A
:100B0000820E0E6E0F0E106E010E0C6E820E0F6EA8
:100B10000F0E116E020E0D6E910E1EEC00F0000E07
:100B20001EEC00F005EC00F0416E03EC00F0406EAE
:100B300012001200756B636B576A010E4B6E010E4B
:100B40007A6F010E666F820E0E6E0F0E106E010E22
:100B50000C6E820E0F6E0F0E116E020E0D6EA20E37
:100B60001EEC00F0020E1EEC00F075511EEC00F0C1
:100B700063511EEC00F057501EEC00F04B501EEC81
:100B800000F0020E1EEC00F066511EEC00F07A51EF
:100B90001CEC00F00A0E2EEC01F01200820E0E6E1C
:100BA0000F0E106E010E0C6E820E0F6E0F0E116E78
:100BB000020E0D6EA20E1EEC00F0020E1EEC00F0F6
:100BC00005EC00F0756F05EC00F0636F03EC00F0CE
:100BD000576E0A0E2EEC01F0639F579E579CF00E45
:100BE0006315226E236A246A256A22C012F023C08C
:100BF00013F024C014F025C015F0040E59EC01F0D8
:100C0000226E13C023F014C024F015C025F022C0BA
:100C10001EF023C01FF024C020F025C021F00A0ED2
:100C2000166E176A186A196ACCEC01F0226E1BC0A6
:100C300023F01CC024F01DC025F00F0E6315266E96
:100C4000276A286A296A225026244E6EF00E57140D
:100C5000226E236A246A256A22C012F023C013F090
:100C600024C014F025C015F0040E59EC01F0226EDA
:100C700013C023F014C024F015C025F022C01EF0CC
:100C800023C01FF024C020F025C021F00A0E166EEC
:100C9000176A186A196ACCEC01F0226E1BC023F0A7
:100CA0001CC024F01DC025F00F0E5714266E276AB5
:100CB000286A296A22502624526EF00E7515226E7B
:100CC000236A246A256A22C012F023C013F024C0CC
:100CD00014F025C015F0040E59EC01F0226E13C07B
:100CE00023F014C024F015C025F022C01EF023C04C
:100CF0001FF024C020F025C021F00A0E166E176ADE
:100D0000186A196ACCEC01F0226E1BC023F01CC0DB
:100D100024F01DC025F00F0E7515266E276A286A6F
:0A0D2000296A22502624546E1200A6
:020000040030CA
:0300010028003C98
:02000500188160
:0600080000800FE00F4034
:00000001FF
