:020000040000FA
:10000000006A09EF02F0E9501F6E819A8198819889
:10001000939A93989398F00E93161F5000B221D0A4
:100020003A0E136EFC0EE0EC00F0330E1E6E30D86C
:10003000100E136E680EE0EC00F02AD8640EDFECB0
:1000400000F026D8220E1E6E23D8280E09D80C0EDA
:1000500007D8010E05D8060E03D800821F5001D024
:1000600000801E6E00A00BD0819803080FE30ED80D
:10007000070E136ED00EE0EC00F0D8801200008066
:10008000FE08D8B406EF02F0818800D01E3A00A026
:100090000090818AF00E81161E500F0B8112819AFA
:1000A0001E3A00B0F5D7320EDFEC00F0D880120017
:1000B000019E0350D8B4018E0A0E026E3B0E196EDB
:1000C0009A0E186ECA0E176E000E35D8050E196EF0
:1000D000F50E186EE10E176E000E2DD8196A980EE7
:1000E000186E960E176E800E26D8196A0F0E186EAF
:1000F000420E176E400E1FD8196A010E186E860E3A
:10010000176EA00E18D8196A186A270E176E100EEF
:1001100012D8196A186A030E176EE80E0CD8196AFD
:10012000186A176A640E07D8196A186A176A0A0EDD
:1001300002D81A500CD0166E1D50156E1C50146E3D
:100140001B50136E1A50126E3AEC01F01250126EE0
:10015000024E019E035003E0025CD8B01200125020
:10016000D8A4019E01BE1200300F00EF02F0A66A73
:10017000A680A850A94AAA2A06EF02F0E86AA86E4B
:10018000A66AA684550EA76EAA0EA76EA682A6B270
:10019000FED7A694A94AAA2A06EF02F0176A186A9F
:1001A000196A166EE86A1606175A185A195AD8A00C
:1001B00006EF02F0030E136EE50E02D8F3D7136AB2
:1001C000FB0F126E00D0E86A01D01206135AFDE24E
:1001D00004001200166E020E11D0166E030E0ED021
:1001E000166E010E09D0166E060E08D0166E040E9D
:1001F00003D0166E050E02D0026E0FD0026E0AD02A
:10020000026E1950151815E61950155C08E11850C2
:10021000145C05E11750135C02E11650125C040EE9
:10022000D8B0010ED8B4020E0214D8A4FF0E06EF07
:1002300002F01550195CF3D7E866FF0E1214D8A42B
:10024000FF0E06EF02F01210D8A4FF0E06EF02F028
:10025000216A15AE06D0217EE86A126C1356145638
:10026000155619AE08D0217EE86A166C1756185636
:10027000195601D0216A1A6A1B6A1C6A1D6A200E6F
:100280001E6E15341A361B361C361D3616501A5E75
:1002900017501B5A18501C5A19501D5A09E2165073
:1002A0001A2617501B2218501C2219501D22D890B4
:1002B00012361336143615361E2EE3D721AE09D06A
:1002C000E86A126C1356145615561A6C1B561C56B7
:1002D0001D56125006EF02F016501E02F3CF1AF010
:1002E000F4CF1BF017501F02F3CF1CF0F4CF1DF01A
:1002F0001E02F3501B26F4501C22E86A1D221650E1
:100300001F02F3501B26F4501C22E86A1D221850CD
:100310001E02F3501C26F4501D2218501F02E86ADA
:10032000126A1222F3501D26F45012221650200297
:10033000F3501C26F4501D22E86A136A122213227D
:1003400017502002F3501D26F4501222E86A13229F
:1003500018502002F3501226F450132219501F0295
:10036000F3501226F450132219502002E86A146A3E
:100370001422F3501326F450142219501E02F35085
:100380001D26F4501222E86A132214221950210269
:10039000F4CF15F0F3501426E86A15221650210206
:1003A000F3501D26F4501222E86A1322142215225B
:1003B00017502102F3501226F4501322E86A142237
:1003C000152218502102F3501326F4501422E86A23
:1003D000152221AE08D01650125E1750135A18502D
:1003E000145A1950155A19AE08D01E50125E1F50DB
:1003F000135A2050145A2150155A1A5006EF02F081
:10040000E96EFB6A0B50FA6E0A50F96E00010400A7
:100410001200946892689368C80EC0DE8296949623
:100420009488948A829C949C82949494958E958CC2
:10043000958A958895849586E968070EEA6EED6A37
:10044000E950EA10FCE1EF6A3C863C8C3C8A3C882F
:100450003D803C8E3B9C71EC2DF0FE0E04EC00F0D8
:10046000020E04EC00F0410E04EC00F0510E04EC1E
:1004700000F0550E04EC00F0410E04EC00F02D0EDF
:1004800004EC00F04C0E04EC00F0450E04EC00F01F
:10049000440E04EC00F0200E04EC00F0200E04ECFE
:1004A00000F0200E04EC00F0200E04EC00F0200E12
:1004B00004EC00F0200E04EC00F0200E04EC00F040
:1004C000200E04EC00F0200E04EC00F0200E04ECF2
:1004D00000F0200E04EC00F0200E04EC00F0FE0E04
:1004E00004EC00F0C00E04EC00F0440E04EC00F04C
:1004F000410E04EC00F04E0E04EC00F0450E04EC4E
:1005000000F0520E04EC00F0200E04EC00F0460E59
:1005100004EC00F0570E04EC00F03A0E04EC00F08E
:10052000330E04EC00F02E0E04EC00F0300E04EC60
:1005300000F0200E04EC00F0200E04EC00F0200E81
:1005400004EC00F0200E04EC00F0200E04EC00F0AF
:10055000200E04EC00F0200E04EC00F0050E176EE7
:10056000DC0E1DDE010E816FB6EF02F094EC31F06F
:1005700004003BAEC7EF02F0040082A6C6EF02F013
:10058000010E816FF6EF0EF0C7EF02F082860400D5
:100590003AA813EF03F0040082A612EF03F0040060
:1005A0003AA0DCEF02F03A90050EA96EAA6A000E9E
:1005B000BFEC00F010EF03F03A8094C012F095C049
:1005C00013F096C014F097C015F0640E166E176AFB
:1005D000186A196A3DDE636F98C012F099C013F073
:1005E0009AC014F09BC015F0640E166E176A186A54
:1005F000196A2EDE646F9CC012F09DC013F09EC07D
:1006000014F09FC015F0640E166E176A186A196A06
:100610001FDE656F050EA96EAA6A010EBFEC00F021
:1006200013EF03F0828604003AA626EF03F00400DD
:1006300082A625EF03F004003AA222EF03F03A92DB
:1006400023EF03F03A8226EF03F0828604003BAAF0
:100650003AEF03F0040082A639EF03F03B8C020E60
:10066000A96EAA6AB7EC00F06F6FB7EF29F03AEF06
:1006700003F08286040083BE48EF03F0672B04007A
:10068000330E675DD8A046EF03F0676B49EF03F0C8
:10069000676B040083BC57EF03F05D2A0400330E40
:1006A0005D5CD8A055EF03F05D6A58EF03F05D6A1A
:1006B00004003AB061EF03F04D0E3E6E3F6A64EF06
:1006C00003F0410E3E6E3F6A04003AB26DEF03F054
:1006D0004D0E4C6E4D6A70EF03F0410E4C6E4D6A3C
:1006E000040083B276EF03F0C5EC30F0812B0400F8
:1006F0005A0E815DD8B07FEF03F0200E5E6E81C090
:1007000012F05A0EF0EC00F0226E81C012F0AA0E28
:10071000F6EC00F0266E22C012F026501CEC01F020
:10072000266E276E286E296E04002650271028108A
:100730002910D8B49EEF03F03A0E5E6E0400AB0EA3
:10074000815DD8A0A5EF03F0816BE86A3AB8E8684C
:10075000226EE86A3AB6E868266E22C012F0265089
:1007600023EC01F0266E276E286E296EE86A3ABAED
:10077000E8682A6E2650271028102910126E2A5079
:1007800023EC01F02A6E2B6E2C6E2D6EE86A3AB4C3
:10079000E8682E6E2A502B102C102D10126E2E5041
:1007A00023EC01F02E6E2F6E306E316EE86A3BBE88
:1007B000E868326E2E502F1030103110126E325009
:1007C00023EC01F0326E336E346E356EE86A3BBA5C
:1007D000E868366E3250331034103510126E3650D1
:1007E00023EC01F0366E376E386E396E04003650E9
:1007F000371038103910D8B400EF04F0406A416A5D
:1008000040C012F041C013F0060E176EA40EEDECBE
:1008100000F0D8A412EF04F0402A000E4122828694
:1008200013EF04F08296040083B04FEF04F0FE0E45
:1008300004EC00F0020E04EC00F0410E04EC00F0B9
:10084000510E04EC00F0550E04EC00F0410E04ECE7
:1008500000F02D0E04EC00F04C0E04EC00F0450E00
:1008600004EC00F0440E04EC00F0200E04EC00F068
:10087000200E04EC00F0540E04EC00F03D0E04ECED
:1008800000F0320E04EC00F0350E04EC00F0DF0E48
:1008900004EC00F0430E04EC00F085EF04F0FE0ED3
:1008A00004EC00F0020E04EC00F0410E04EC00F049
:1008B000510E04EC00F0550E04EC00F0410E04EC77
:1008C00000F02D0E04EC00F04C0E04EC00F0450E90
:1008D00004EC00F0440E04EC00F0200E04EC00F0F8
:1008E000200E04EC00F0200E04EC00F0310E04ECBD
:1008F00000F0380E04EC00F05E5004EC00F0350E11
:1009000004EC00F0310E04EC00F0E86A82B8E8680C
:10091000226EE86A82BAE868266E22C012F026507B
:100920001CEC01F0266E276E286E296E04002650FE
:10093000271028102910D8B4D4EF04F0FE0E04ECD0
:1009400000F0C00E04EC00F0310E04EC00F03D0E9F
:1009500004EC00F04F0E04EC00F04E0E04EC00F03E
:10096000200E04EC00F0320E04EC00F03D0E04EC1E
:1009700000F04F0E04EC00F04E0E04EC00F0200EE0
:1009800004EC00F0200E04EC00F0200E04EC00F06B
:10099000200E04EC00F03E5004EC00F0230E04ECBA
:1009A00000F04C5004EC00F0E86A82B8E868226E6F
:1009B000E86A82AAE868266E22C012F026501CEC73
:1009C00001F0266E276E286E296E0400265027102F
:1009D00028102910D8B423EF05F0FE0E04EC00F027
:1009E000C00E04EC00F0310E04EC00F03D0E04ECFF
:1009F00000F04F0E04EC00F04E0E04EC00F0200E60
:100A000004EC00F0320E04EC00F03D0E04EC00F0BB
:100A10004F0E04EC00F0460E04EC00F0460E04EC21
:100A200000F0200E04EC00F0200E04EC00F0200E8C
:100A300004EC00F03E5004EC00F0230E04EC00F057
:100A40004C5004EC00F0E86A82A8E868226EE86A7C
:100A500082AAE868266E22C012F026501CEC01F033
:100A6000266E276E286E296E040026502710281047
:100A70002910D8B472EF05F0FE0E04EC00F0C00EA1
:100A800004EC00F0310E04EC00F03D0E04EC00F03C
:100A90004F0E04EC00F0460E04EC00F0460E04ECA1
:100AA00000F0200E04EC00F0320E04EC00F03D0EDD
:100AB00004EC00F04F0E04EC00F0460E04EC00F0E5
:100AC000460E04EC00F0200E04EC00F0200E04ECC6
:100AD00000F03E5004EC00F0230E04EC00F04C500B
:100AE00004EC00F0E86A82A8E868226EE86A82BA3C
:100AF000E868266E22C012F026501CEC01F0266E2B
:100B0000276E286E296E0400265027102810291001
:100B1000D8B4C1EF05F0FE0E04EC00F0C00E04ECFA
:100B200000F0310E04EC00F03D0E04EC00F04F0E2E
:100B300004EC00F0460E04EC00F0460E04EC00F06D
:100B4000200E04EC00F0320E04EC00F03D0E04EC3C
:100B500000F04F0E04EC00F04E0E04EC00F0200EFE
:100B600004EC00F0200E04EC00F0200E04EC00F089
:100B70003E5004EC00F0230E04EC00F04C5004EC6A
:100B800000F0C5EC05F0B6EF02F056C06EF05AC0AA
:100B90001EF01F6A206A216A3C0E166E176A186AD8
:100BA000196A6CEC01F0226E1BC023F01CC024F00B
:100BB0001DC025F056502224506EE86A2320516E45
:100BC00004006E517E5DD8B4EAEF05F0010E6D6F42
:100BD000EBEF05F06D6BC4C07CF0C5C06BF0C6C018
:100BE00072F0C8C07BF0C9C06AF0CAC071F07CC0A6
:100BF0001EF01F6A206A216A3C0E166E176A186A78
:100C0000196A6CEC01F0226E1BC023F01CC024F0AA
:100C10001DC025F06B512224466EE86A2320476EE2
:100C20007BC01EF01F6A206A216A3C0E166E176A8E
:100C3000186A196A6CEC01F0226E1BC023F01CC00C
:100C400024F01DC025F06A512224446EE86A232056
:100C5000456E46C012F047C013F051C017F0505017
:100C6000F3EC00F0226E44C012F045C013F051C006
:100C700017F05050EDEC00F0266E22C012F0265016
:100C80001CEC01F0266E276E286E296E040026509B
:100C9000271028102910D8B40CEF07F046C012F026
:100CA00047C013F051C017F05050EAEC00F0226E2C
:100CB0005C500008D8A4E868FF0A266E22C012F033
:100CC00026501CEC01F0266E276E286E296E04005B
:100CD0002650271028102910D8B486EF06F072C0CD
:100CE00063F072C01EF01F6A206A216A640E166EDD
:100CF000176A186A196A6CEC01F0946F1BC095F0C2
:100D00001CC096F01DC097F00CEF07F044C012F025
:100D100045C013F051C017F05050EAEC00F0226EBD
:100D20005C500008D8A4E868FF0A266E22C012F0C2
:100D300026501CEC01F0266E276E286E296E0400EA
:100D40002650271028102910D8B4ABEF06F071C038
:100D500063F00CEF07F004006D510108D8A40CEF0C
:100D600007F07251715D226EE86AD8A0E804236E24
:100D7000246E256E22C01EF023C01FF024C020F078
:100D800025C021F0640E166E176A186A196A6CEC99
:100D900001F0226E1BC023F01CC024F01DC025F002
:100DA0004650445C266E47504558276EE86AD8A0E6
:100DB000E804286E296E22C012F023C013F024C06C
:100DC00014F025C015F026C016F027C017F028C073
:100DD00018F029C019F028EC01F0266E13C027F096
:100DE00014C028F015C029F02650942727509523C9
:100DF000285096232950972394C012F095C013F0E1
:100E000096C014F097C015F0640E166E176A186A33
:100E1000196A28EC01F0636FCCC07CF0CDC06BF098
:100E2000CEC072F0D0C07BF0D1C06AF0D2C071F0F9
:100E30007CC01EF01F6A206A216A3C0E166E176A7B
:100E4000186A196A6CEC01F0226E1BC023F01CC0FA
:100E500024F01DC025F06B512224466EE86A232041
:100E6000476E7BC01EF01F6A206A216A3C0E166E18
:100E7000176A186A196A6CEC01F0226E1BC023F025
:100E80001CC024F01DC025F06A512224446EE86A7B
:100E90002320456E46C012F047C013F051C017F032
:100EA0005050F3EC00F0226E44C012F045C013F035
:100EB00051C017F05050EDEC00F0266E22C012F039
:100EC00026501CEC01F0266E276E286E296E040059
:100ED0002650271028102910D8B42DEF08F046C04E
:100EE00012F047C013F051C017F05050EAEC00F078
:100EF000226E5C500008D8A4E868FF0A266E22C063
:100F000012F026501CEC01F0266E276E286E296E1A
:100F100004002650271028102910D8B4A7EF07F096
:100F200072C063F072C01EF01F6A206A216A640EEC
:100F3000166E176A186A196A6CEC01F0946F1BC080
:100F400095F01CC096F01DC097F02DEF08F044C03E
:100F500012F045C013F051C017F05050EAEC00F009
:100F6000226E5C500008D8A4E868FF0A266E22C0F2
:100F700012F026501CEC01F0266E276E286E296EAA
:100F800004002650271028102910D8B4CCEF07F001
:100F900071C063F02DEF08F004006D510108D8A472
:100FA0002DEF08F07151725D226EE86AD8A0E80456
:100FB000236E246E256E22C01EF023C01FF024C0B5
:100FC00020F025C021F0640E166E176A186A196A9F
:100FD0006CEC01F0226E1BC023F01CC024F01DC07D
:100FE00025F04650445C266E47504558276EE86A07
:100FF000D8A0E804286E296E22C012F023C013F096
:1010000024C014F025C015F026C016F027C017F034
:1010100028C018F029C019F028EC01F0266E13C082
:1010200027F014C028F015C029F02650945F2750EF
:10103000955B2850965B2950975B94C012F095C041
:1010400013F096C014F097C015F0640E166E176A70
:10105000186A196A28EC01F0636FD4C07CF0D5C01F
:101060006BF0D6C072F0D8C07BF0D9C06AF0DAC09D
:1010700071F07CC01EF01F6A206A216A3C0E166E59
:10108000176A186A196A6CEC01F0226E1BC023F013
:101090001CC024F01DC025F06B512224466EE86A66
:1010A0002320476E7BC01EF01F6A206A216A3C0E17
:1010B000166E176A186A196A6CEC01F0226E1BC072
:1010C00023F01CC024F01DC025F06A512224446E78
:1010D000E86A2320456E46C012F047C013F051C0A5
:1010E00017F05050F3EC00F0226E44C012F045C0EF
:1010F00013F051C017F05050EDEC00F0266E22C0F6
:1011000012F026501CEC01F0266E276E286E296E18
:1011100004002650271028102910D8B44EEF09F0EB
:1011200046C012F047C013F051C017F05050EAEC1F
:1011300000F0226E5C500008D8A4E868FF0A266E12
:1011400022C012F026501CEC01F0266E276E286E8D
:10115000296E04002650271028102910D8B4C8EF93
:1011600008F072C064F072C01EF01F6A206A216A23
:10117000640E166E176A186A196A6CEC01F0986FA3
:101180001BC099F01CC09AF01DC09BF04EEF09F0F7
:1011900044C012F045C013F051C017F05050EAECB3
:1011A00000F0226E5C500008D8A4E868FF0A266EA2
:1011B00022C012F026501CEC01F0266E276E286E1D
:1011C000296E04002650271028102910D8B4EDEFFE
:1011D00008F071C064F04EEF09F004006D51010891
:1011E000D8A44EEF09F07251715D226EE86AD8A062
:1011F000E804236E246E256E22C01EF023C01FF06B
:1012000024C020F025C021F0640E166E176A186AFB
:10121000196A6CEC01F0226E1BC023F01CC024F094
:101220001DC025F04650445C266E47504558276E39
:10123000E86AD8A0E804286E296E22C012F023C004
:1012400013F024C014F025C015F026C016F027C0F6
:1012500017F028C018F029C019F028EC01F0266E0C
:1012600013C027F014C028F015C029F02650982785
:101270002750992328509A2329509B2398C012F075
:1012800099C013F09AC014F09BC015F0640E166E4E
:10129000176A186A196A28EC01F0646FDCC07CF0E8
:1012A000DDC06BF0DEC072F0E0C07BF0E1C06AF040
:1012B000E2C071F07CC01EF01F6A206A216A3C0EF9
:1012C000166E176A186A196A6CEC01F0226E1BC060
:1012D00023F01CC024F01DC025F06B512224466E63
:1012E000E86A2320476E7BC01EF01F6A206A216ACD
:1012F0003C0E166E176A186A196A6CEC01F0226EC1
:101300001BC023F01CC024F01DC025F06A5122240C
:10131000446EE86A2320456E46C012F047C013F0C1
:1013200051C017F05050F3EC00F0226E44C012F0A0
:1013300045C013F051C017F05050EDEC00F0266E90
:1013400022C012F026501CEC01F0266E276E286E8B
:10135000296E04002650271028102910D8B46FEFEA
:101360000AF046C012F047C013F051C017F05050B9
:10137000EAEC00F0226E5C500008D8A4E868FF0A8E
:10138000266E22C012F026501CEC01F0266E276E4D
:10139000286E296E04002650271028102910D8B472
:1013A000E9EF09F072C064F072C01EF01F6A206A93
:1013B000216A640E166E176A186A196A6CEC01F0DD
:1013C000986F1BC099F01CC09AF01DC09BF06FEF86
:1013D0000AF044C012F045C013F051C017F050504D
:1013E000EAEC00F0226E5C500008D8A4E868FF0A1E
:1013F000266E22C012F026501CEC01F0266E276EDD
:10140000286E296E04002650271028102910D8B401
:101410000EEF0AF071C064F06FEF0AF004006D5136
:101420000108D8A46FEF0AF07151725D226EE86A6C
:10143000D8A0E804236E246E256E22C01EF023C0BF
:101440001FF024C020F025C021F0640E166E176A2C
:10145000186A196A6CEC01F0226E1BC023F01CC0E4
:1014600024F01DC025F04650445C266E4750455878
:10147000276EE86AD8A0E804286E296E22C012F010
:1014800023C013F024C014F025C015F026C016F0B8
:1014900027C017F028C018F029C019F028EC01F077
:1014A000266E13C027F014C028F015C029F026506E
:1014B000985F2750995B28509A5B29509B5B98C096
:1014C00012F099C013F09AC014F09BC015F0640E8E
:1014D000166E176A186A196A28EC01F0646FE4C086
:1014E0007CF0E5C06BF0E6C072F0E8C07BF0E9C0CC
:1014F0006AF0EAC071F07CC01EF01F6A206A216A9F
:101500003C0E166E176A186A196A6CEC01F0226EAE
:101510001BC023F01CC024F01DC025F06B512224F9
:10152000466EE86A2320476E7BC01EF01F6A206A61
:10153000216A3C0E166E176A186A196A6CEC01F083
:10154000226E1BC023F01CC024F01DC025F06A5180
:101550002224446EE86A2320456E46C012F047C03C
:1015600013F051C017F05050F3EC00F0226E44C05D
:1015700012F045C013F051C017F05050EDEC00F0E0
:10158000266E22C012F026501CEC01F0266E276E4B
:10159000286E296E04002650271028102910D8B470
:1015A00090EF0BF046C012F047C013F051C017F097
:1015B0005050EAEC00F0226E5C500008D8A4E868B5
:1015C000FF0A266E22C012F026501CEC01F0266E97
:1015D000276E286E296E0400265027102810291027
:1015E000D8B40AEF0BF072C065F072C01EF01F6A2B
:1015F000206A216A640E166E176A186A196A6CEC02
:1016000001F09C6F1BC09DF01CC09EF01DC09FF0A0
:1016100090EF0BF044C012F045C013F051C017F02A
:101620005050EAEC00F0226E5C500008D8A4E86844
:10163000FF0A266E22C012F026501CEC01F0266E26
:10164000276E286E296E04002650271028102910B6
:10165000D8B42FEF0BF071C065F090EF0BF00400E1
:101660006D510108D8A490EF0BF07251715D226E9C
:10167000E86AD8A0E804236E246E256E22C01EF00E
:1016800023C01FF024C020F025C021F0640E166E88
:10169000176A186A196A6CEC01F0226E1BC023F0FD
:1016A0001CC024F01DC025F04650445C266E4750F7
:1016B0004558276EE86AD8A0E804286E296E22C033
:1016C00012F023C013F024C014F025C015F026C07A
:1016D00016F027C017F028C018F029C019F028EC20
:1016E00001F0266E13C027F014C028F015C029F0B1
:1016F00026509C2727509D2328509E2329509F2306
:101700009CC012F09DC013F09EC014F09FC015F055
:10171000640E166E176A186A196A28EC01F0656F74
:10172000ECC07CF0EDC06BF0EEC072F0F0C07BF06E
:10173000F1C06AF0F2C071F07CC01EF01F6A206A2E
:10174000216A3C0E166E176A186A196A6CEC01F071
:10175000226E1BC023F01CC024F01DC025F06B516D
:101760002224466EE86A2320476E7BC01EF01F6A63
:10177000206A216A3C0E166E176A186A196A6CECA8
:1017800001F0226E1BC023F01CC024F01DC025F008
:101790006A512224446EE86A2320456E46C012F046
:1017A00047C013F051C017F05050F3EC00F0226E18
:1017B00044C012F045C013F051C017F05050EDEC8A
:1017C00000F0266E22C012F026501CEC01F0266EAE
:1017D000276E286E296E0400265027102810291025
:1017E000D8B4B1EF0CF046C012F047C013F051C0AE
:1017F00017F05050EAEC00F0226E5C500008D8A4BC
:10180000E868FF0A266E22C012F026501CEC01F098
:10181000266E276E286E296E040026502710281089
:101820002910D8B42BEF0CF072C065F072C01EF016
:101830001F6A206A216A640E166E176A186A196A8E
:101840006CEC01F09C6F1BC09DF01CC09EF01DC095
:101850009FF0B1EF0CF044C012F045C013F051C03E
:1018600017F05050EAEC00F0226E5C500008D8A44B
:10187000E868FF0A266E22C012F026501CEC01F028
:10188000266E276E286E296E040026502710281019
:101890002910D8B450EF0CF071C065F0B1EF0CF026
:1018A00004006D510108D8A4B1EF0CF07151725DC4
:1018B000226EE86AD8A0E804236E246E256E22C04A
:1018C0001EF023C01FF024C020F025C021F0640EBC
:1018D000166E176A186A196A6CEC01F0226E1BC04A
:1018E00023F01CC024F01DC025F04650445C266E39
:1018F00047504558276EE86AD8A0E804286E296E3C
:1019000022C012F023C013F024C014F025C015F03B
:1019100026C016F027C017F028C018F029C019F00B
:1019200028EC01F0266E13C027F014C028F015C073
:1019300029F026509C5F27509D5B28509E5B2950C4
:101940009F5B9CC012F09DC013F09EC014F09FC01E
:1019500015F0640E166E176A186A196A28EC01F001
:10196000656FF4C07CF0F5C06BF0F6C072F0F8C0A3
:101970007BF0F9C06AF0FAC071F07CC01EF01F6AFB
:10198000206A216A3C0E166E176A186A196A6CEC96
:1019900001F0226E1BC023F01CC024F01DC025F0F6
:1019A0006B512224466EE86A2320476E7BC01EF0EE
:1019B0001F6A206A216A3C0E166E176A186A196A35
:1019C0006CEC01F0226E1BC023F01CC024F01DC083
:1019D00025F06A512224446EE86A2320456E46C0F1
:1019E00012F047C013F051C017F05050F3EC00F064
:1019F000226E44C012F045C013F051C017F0505091
:101A0000EDEC00F0266E22C012F026501CEC01F026
:101A1000266E276E286E296E040026502710281087
:101A20002910D8B4D2EF0DF046C012F047C013F021
:101A300051C017F05050EAEC00F0226E5C500008E4
:101A4000D8A4E868FF0A266E22C012F026501CECCB
:101A500001F0266E276E286E296E0400265027108E
:101A600028102910D8B44CEF0DF072C066F072C087
:101A70001EF01F6A206A216A640E166E176A186AC1
:101A8000196A6CEC01F0A06F1BC0A1F01CC0A2F0A1
:101A90001DC0A3F0D2EF0DF044C012F045C013F00A
:101AA00051C017F05050EAEC00F0226E5C50000874
:101AB000D8A4E868FF0A266E22C012F026501CEC5B
:101AC00001F0266E276E286E296E0400265027101E
:101AD00028102910D8B471EF0DF071C066F0D2EF64
:101AE0000DF004006D510108D8A4D2EF0DF0725131
:101AF000715D226EE86AD8A0E804236E246E256E1C
:101B000022C01EF023C01FF024C020F025C021F009
:101B1000640E166E176A186A196A6CEC01F0226E70
:101B20001BC023F01CC024F01DC025F04650445CAF
:101B3000266E47504558276EE86AD8A0E804286EFC
:101B4000296E22C012F023C013F024C014F025C067
:101B500015F026C016F027C017F028C018F029C0CD
:101B600019F028EC01F0266E13C027F014C028F0FD
:101B700015C029F02650A0272750A1232850A223C2
:101B80002950A323A0C012F0A1C013F0A2C014F0EA
:101B9000A3C015F0640E166E176A186A196A28EC4D
:101BA00001F0666FFCC07CF0FDC06BF0FEC072F00F
:101BB00000C17BF001C16AF002C171F07CC01EF06F
:101BC0001F6A206A216A3C0E166E176A186A196A23
:101BD0006CEC01F0226E1BC023F01CC024F01DC071
:101BE00025F06B512224466EE86A2320476E7BC0A5
:101BF0001EF01F6A206A216A3C0E166E176A186A68
:101C0000196A6CEC01F0226E1BC023F01CC024F09A
:101C10001DC025F06A512224446EE86A2320456ED7
:101C200046C012F047C013F051C017F05050F3EC0B
:101C300000F0226E44C012F045C013F051C017F0FE
:101C40005050EDEC00F0266E22C012F026501CEC35
:101C500001F0266E276E286E296E0400265027108C
:101C600028102910D8B4F3EF0EF046C012F047C088
:101C700013F051C017F05050EAEC00F0226E5C50A7
:101C80000008D8A4E868FF0A266E22C012F0265089
:101C90001CEC01F0266E276E286E296E040026507B
:101CA000271028102910D8B46DEF0EF072C066F01E
:101CB00072C01EF01F6A206A216A640E166E176ACF
:101CC000186A196A6CEC01F0A06F1BC0A1F01CC06F
:101CD000A2F01DC0A3F0F3EF0EF044C012F045C017
:101CE00013F051C017F05050EAEC00F0226E5C5037
:101CF0000008D8A4E868FF0A266E22C012F0265019
:101D00001CEC01F0266E276E286E296E040026500A
:101D1000271028102910D8B492EF0EF071C066F089
:101D2000F3EF0EF004006D510108D8A4F3EF0EF0AC
:101D30007151725D226EE86AD8A0E804236E246EA9
:101D4000256E22C01EF023C01FF024C020F025C045
:101D500021F0640E166E176A186A196A6CEC01F0AD
:101D6000226E1BC023F01CC024F01DC025F046507D
:101D7000445C266E47504558276EE86AD8A0E804B0
:101D8000286E296E22C012F023C013F024C014F074
:101D900025C015F026C016F027C017F028C018F08F
:101DA00029C019F028EC01F0266E13C027F014C0EA
:101DB00028F015C029F02650A05F2750A15B2850BD
:101DC000A25B2950A35BA0C012F0A1C013F0A2C077
:101DD00014F0A3C015F0640E166E176A186A196A1B
:101DE00028EC01F0666F6EC07EF012008286C5ECB2
:101DF00005F004003AA608EF0FF004008151030833
:101E0000D8A407EF0FF0030E816F08EF0FF0812BBE
:101E100004003AA817EF0FF0040081510108D8A47C
:101E200016EF0FF0010E816F17EF0FF0810704001E
:101E30003AAA21EF0FF0406A416A010E816FB6EFB6
:101E400002F094EC31F0040081510108D8A4C9EFEC
:101E50000FF0FE0E04EC00F0020E04EC00F07E0E1B
:101E600004EC00F04C0E04EC00F0450E04EC00F025
:101E7000440E04EC00F02D0E04EC00F06C0E04ECAB
:101E800000F0690E04EC00F0670E04EC00F0680E40
:101E900004EC00F0740E04EC00F0200E04EC00F0F2
:101EA000200E04EC00F0200E04EC00F0200E04ECF8
:101EB00000F0200E04EC00F0200E04EC00F0200EE8
:101EC00004EC00F0200E04EC00F0200E04EC00F016
:101ED000FE0E04EC00F0C00E04EC00F0200E04EC4A
:101EE00000F0490E04EC00F06E0E04EC00F0740EED
:101EF00004EC00F0650E04EC00F0720E04EC00F04F
:101F00006E0E04EC00F0610E04EC00F06C0E04ECBC
:101F100000F0200E04EC00F0730E04EC00F0770EDD
:101F200004EC00F0690E04EC00F0740E04EC00F018
:101F3000630E04EC00F0680E04EC00F0200E04ECDC
:101F400000F0200E04EC00F0200E04EC00F0200E57
:101F500004EC00F0200E04EC00F0200E04EC00F085
:101F6000200E04EC00F0200E04EC00F0200E04EC37
:101F700000F0200E04EC00F0200E04EC00F0040051
:101F80003BAEC7EF0FF0010E816FDEEF10F0DDEF1B
:101F900010F0040081510208D8A454EF10F0FE0E96
:101FA00004EC00F0020E04EC00F0200E04EC00F053
:101FB0004C0E04EC00F0450E04EC00F0440E04EC72
:101FC00000F02D0E04EC00F06C0E04EC00F0690E35
:101FD00004EC00F0670E04EC00F0680E04EC00F076
:101FE000740E04EC00F0200E04EC00F0200E04EC63
:101FF00000F0200E04EC00F0200E04EC00F0200EA7
:1020000004EC00F0200E04EC00F0200E04EC00F0D4
:10201000200E04EC00F0FE0E04EC00F0C00E04EC08
:1020200000F07E0E04EC00F0490E04EC00F06E0EA1
:1020300004EC00F0740E04EC00F0650E04EC00F00B
:10204000720E04EC00F06E0E04EC00F0610E04EC75
:1020500000F06C0E04EC00F0200E04EC00F0730EA7
:1020600004EC00F0770E04EC00F0690E04EC00F0D4
:10207000740E04EC00F0630E04EC00F0680E04EC47
:1020800000F0200E04EC00F0200E04EC00F0200E16
:1020900004EC00F004003BAE52EF10F0010E816F33
:1020A000F1EF1DF0DDEF10F0040081510308D8A41A
:1020B000DDEF10F0FE0E04EC00F0020E04EC00F078
:1020C0007E0E04EC00F0540E04EC00F06F0E04ECF5
:1020D00000F06F0E04EC00F06C0E04EC00F0730ED8
:1020E00004EC00F0200E04EC00F0200E04EC00F0F4
:1020F000200E04EC00F0200E04EC00F0200E04ECA6
:1021000000F0200E04EC00F0200E04EC00F0200E95
:1021100004EC00F0200E04EC00F0200E04EC00F0C3
:10212000200E04EC00F0200E04EC00F0200E04EC75
:1021300000F0FE0E04EC00F0C00E04EC00F0200EE7
:1021400004EC00F0200E04EC00F0200E04EC00F093
:10215000200E04EC00F0200E04EC00F0200E04EC45
:1021600000F0200E04EC00F0200E04EC00F0200E35
:1021700004EC00F0200E04EC00F0200E04EC00F063
:10218000200E04EC00F0200E04EC00F0200E04EC15
:1021900000F0200E04EC00F0200E04EC00F0200E05
:1021A00004EC00F0200E04EC00F004003BAEDDEF88
:1021B00010F0010E816F3CEF28F018D6C5EC05F049
:1021C00094EC31F004003AA6F1EF10F004008151D4
:1021D0000208D8A4F0EF10F0020E816FF1EF10F0BA
:1021E000812B04003AA800EF11F00400815101088E
:1021F000D8A4FFEF10F0010E816F00EF11F08107FE
:1022000004003AAA08EF11F0010E816FF6EF0EF00C
:10221000040081510108D8A49FEF11F0FE0E04ECD8
:1022200000F0020E04EC00F07E0E04EC00F0410E13
:1022300004EC00F0750E04EC00F0740E04EC00F0F9
:102240006F0E04EC00F06D0E04EC00F0610E04EC77
:1022500000F0740E04EC00F0690E04EC00F0630E64
:1022600004EC00F0200E04EC00F0200E04EC00F072
:10227000200E04EC00F0200E04EC00F0200E04EC24
:1022800000F0200E04EC00F0200E04EC00F0200E14
:1022900004EC00F0200E04EC00F0200E04EC00F042
:1022A000FE0E04EC00F0C00E04EC00F0200E04EC76
:1022B00000F04D0E04EC00F0610E04EC00F06E0E28
:1022C00004EC00F0750E04EC00F0610E04EC00F07C
:1022D0006C0E04EC00F0200E04EC00F0200E04EC78
:1022E00000F0200E04EC00F0200E04EC00F0200EB4
:1022F00004EC00F0200E04EC00F0200E04EC00F0E2
:10230000200E04EC00F0200E04EC00F0200E04EC93
:1023100000F0200E04EC00F0200E04EC00F0200E83
:1023200004EC00F0200E04EC00F004003BAE9DEF46
:1023300011F0010E816F35EF12F034EF12F004004E
:1023400081510208D8A434EF12F0FE0E04EC00F024
:10235000020E04EC00F0200E04EC00F0410E04EC40
:1023600000F0750E04EC00F0740E04EC00F06F0E3B
:1023700004EC00F06D0E04EC00F0610E04EC00F0D3
:10238000740E04EC00F0690E04EC00F0630E04EC33
:1023900000F0200E04EC00F0200E04EC00F0200E03
:1023A00004EC00F0200E04EC00F0200E04EC00F031
:1023B000200E04EC00F0200E04EC00F0200E04ECE3
:1023C00000F0200E04EC00F0200E04EC00F0200ED3
:1023D00004EC00F0FE0E04EC00F0C00E04EC00F083
:1023E0007E0E04EC00F04D0E04EC00F0610E04ECE7
:1023F00000F06E0E04EC00F0750E04EC00F0610EBF
:1024000004EC00F06C0E04EC00F0200E04EC00F084
:10241000200E04EC00F0200E04EC00F0200E04EC82
:1024200000F0200E04EC00F0200E04EC00F0200E72
:1024300004EC00F0200E04EC00F0200E04EC00F0A0
:10244000200E04EC00F0200E04EC00F0200E04EC52
:1024500000F0200E04EC00F004003BAE34EF12F06C
:10246000010E816F34EF24F0A9D6C5EC05F094EC91
:1024700031F004003AA648EF12F00400815102083E
:10248000D8A447EF12F0020E816F48EF12F0812BB3
:1024900004003AA857EF12F0040081510108D8A4B3
:1024A00056EF12F0010E816F57EF12F08107040012
:1024B0003AAA5EEF12F0010E816F80D604008151BE
:1024C0000108D8A401EF13F0FE0E04EC00F0020E98
:1024D00004EC00F07E0E04EC00F0410E04EC00F081
:1024E000710E04EC00F0750E04EC00F0610E04ECCB
:1024F00000F0720E04EC00F0690E04EC00F0750EB2
:1025000004EC00F06D0E04EC00F0200E04EC00F082
:102510006C0E04EC00F0690E04EC00F0670E04ECA5
:1025200000F0680E04EC00F0740E04EC00F0200ED5
:1025300004EC00F0200E04EC00F0200E04EC00F09F
:10254000200E04EC00F0200E04EC00F0200E04EC51
:1025500000F0FE0E04EC00F0C00E04EC00F0200EC3
:1025600004EC00F0520E04EC00F06F0E04EC00F0EE
:102570006F0E04EC00F06D0E04EC00F0200E04EC85
:1025800000F06C0E04EC00F0690E04EC00F0670E35
:1025900004EC00F0680E04EC00F0740E04EC00F0A3
:1025A000200E04EC00F0200E04EC00F0200E04ECF1
:1025B00000F0200E04EC00F0200E04EC00F0200EE1
:1025C00004EC00F0200E04EC00F0200E04EC00F00F
:1025D000200E04EC00F0200E04EC00F0200E04ECC1
:1025E00000F0200E04EC00F0200E04EC00F00400DB
:1025F0003BAEFFEF12F0010E816F99EF13F098EFF1
:1026000013F0040081510208D8A498EF13F0FE0ED5
:1026100004EC00F0020E04EC00F0200E04EC00F0DC
:10262000410E04EC00F0710E04EC00F0750E04ECA9
:1026300000F0610E04EC00F0720E04EC00F0690E84
:1026400004EC00F0750E04EC00F06D0E04EC00F0EC
:10265000200E04EC00F06C0E04EC00F0690E04ECAB
:1026600000F0670E04EC00F0680E04EC00F0740E4D
:1026700004EC00F0200E04EC00F0200E04EC00F05E
:10268000200E04EC00F0200E04EC00F0200E04EC10
:1026900000F0FE0E04EC00F0C00E04EC00F07E0E24
:1026A00004EC00F0520E04EC00F06F0E04EC00F0AD
:1026B0006F0E04EC00F06D0E04EC00F0200E04EC44
:1026C00000F06C0E04EC00F0690E04EC00F0670EF4
:1026D00004EC00F0680E04EC00F0740E04EC00F062
:1026E000200E04EC00F0200E04EC00F0200E04ECB0
:1026F00000F0200E04EC00F0200E04EC00F0200EA0
:1027000004EC00F0200E04EC00F0200E04EC00F0CD
:10271000200E04EC00F0200E04EC00F004003BAEB0
:1027200098EF13F0010E816F040E526E6EEF15F0EC
:102730009CD6C5EC05F094EC31F004003AA6ACEF61
:1027400013F0040081510308D8A4ABEF13F0030E7B
:10275000816FACEF13F0812B04003AA8BBEF13F0AC
:10276000040081510108D8A4BAEF13F0010E816F63
:10277000BBEF13F0810704003AAAC2EF13F0010E79
:10278000816F73D6040081510108D8A452EF14F070
:10279000FE0E04EC00F0020E04EC00F07E0E04ECE1
:1027A00000F0430E04EC00F0680E04EC00F0610E43
:1027B00004EC00F06E0E04EC00F06E0E04EC00F081
:1027C000650E04EC00F06C0E04EC00F0200E04EC3E
:1027D00000F0230E04EC00F0310E04EC00F0200EAB
:1027E00004EC00F0200E04EC00F0200E04EC00F0ED
:1027F000200E04EC00F0200E04EC00F0200E04EC9F
:1028000000F0200E04EC00F0200E04EC00F0FE0EB0
:1028100004EC00F0C00E04EC00F0200E04EC00F01C
:10282000430E04EC00F0680E04EC00F0610E04ECC2
:1028300000F06E0E04EC00F06E0E04EC00F0650E7D
:1028400004EC00F06C0E04EC00F0200E04EC00F040
:10285000230E04EC00F0320E04EC00F0200E04EC29
:1028600000F0200E04EC00F0200E04EC00F0200E2E
:1028700004EC00F0200E04EC00F0200E04EC00F05C
:10288000200E04EC00F0200E04EC00F004003BAE3F
:1028900050EF14F0010E526E010E816F6EEF15F0C5
:1028A0006DEF15F0040081510208D8A4E2EF14F096
:1028B000FE0E04EC00F0020E04EC00F0200E04EC1E
:1028C00000F0430E04EC00F0680E04EC00F0610E22
:1028D00004EC00F06E0E04EC00F06E0E04EC00F060
:1028E000650E04EC00F06C0E04EC00F0200E04EC1D
:1028F00000F0230E04EC00F0310E04EC00F0200E8A
:1029000004EC00F0200E04EC00F0200E04EC00F0CB
:10291000200E04EC00F0200E04EC00F0200E04EC7D
:1029200000F0200E04EC00F0FE0E04EC00F0C00EEF
:1029300004EC00F07E0E04EC00F0430E04EC00F01A
:10294000680E04EC00F0610E04EC00F06E0E04EC76
:1029500000F06E0E04EC00F0650E04EC00F06C0E5E
:1029600004EC00F0200E04EC00F0230E04EC00F068
:10297000320E04EC00F0200E04EC00F0200E04EC0B
:1029800000F0200E04EC00F0200E04EC00F0200E0D
:1029900004EC00F0200E04EC00F0200E04EC00F03B
:1029A000200E04EC00F0200E04EC00F004003BAE1E
:1029B000E0EF14F0020E526E010E816F6EEF15F013
:1029C0006DEF15F0040081510308D8A46DEF15F0E8
:1029D000FE0E04EC00F0020E04EC00F07E0E04EC9F
:1029E00000F0430E04EC00F0680E04EC00F0610E01
:1029F00004EC00F06E0E04EC00F06E0E04EC00F03F
:102A0000650E04EC00F06C0E04EC00F0200E04ECFB
:102A100000F0230E04EC00F0330E04EC00F0200E66
:102A200004EC00F0200E04EC00F0200E04EC00F0AA
:102A3000200E04EC00F0200E04EC00F0200E04EC5C
:102A400000F0200E04EC00F0200E04EC00F0200E4C
:102A500004EC00F0FE0E04EC00F0C00E04EC00F0FC
:102A6000200E04EC00F0200E04EC00F0200E04EC2C
:102A700000F0200E04EC00F0200E04EC00F0200E1C
:102A800004EC00F0200E04EC00F0200E04EC00F04A
:102A9000200E04EC00F0200E04EC00F0200E04ECFC
:102AA00000F0200E04EC00F0200E04EC00F0200EEC
:102AB00004EC00F0200E04EC00F0200E04EC00F01A
:102AC000200E04EC00F004003BAE6DEF15F0030E99
:102AD000526E010E816F6EEF15F02BD6C5EC05F02E
:102AE00094EC31F004003AA681EF15F00400815116
:102AF0000208D8A480EF15F0020E816F81EF15F067
:102B0000812B04003AA890EF15F0040081510108D0
:102B1000D8A48FEF15F0010E816F90EF15F08107AB
:102B200004003AAAA4EF15F0040052500408D8A4F7
:102B3000A0EF15F0020E816F35EF12F0A4EF15F043
:102B400052C081F099EF13F0040081510108D8A41C
:102B500024EF16F0FE0E04EC00F0020E04EC00F080
:102B60007E0E04EC00F0530E04EC00F0750E04EC45
:102B700000F06E0E04EC00F0720E04EC00F0690E32
:102B800004EC00F0730E04EC00F0650E04EC00F0B1
:102B9000200E04EC00F0200E04EC00F0200E04ECFB
:102BA00000F0200E04EC00F0200E04EC00F0200EEB
:102BB00004EC00F0200E04EC00F0200E04EC00F019
:102BC000200E04EC00F0200E04EC00F0FE0E04ECED
:102BD00000F0C00E04EC00F0200E04EC00F0530EE8
:102BE00004EC00F0750E04EC00F06E0E04EC00F046
:102BF000730E04EC00F0650E04EC00F0740E04ECAF
:102C000000F0200E04EC00F0200E04EC00F0200E8A
:102C100004EC00F0200E04EC00F0200E04EC00F0B8
:102C2000200E04EC00F0200E04EC00F0200E04EC6A
:102C300000F0200E04EC00F0200E04EC00F0200E5A
:102C400004EC00F0C0EF16F0040081510208D8A493
:102C5000C0EF16F0FE0E04EC00F0020E04EC00F0E3
:102C6000200E04EC00F0530E04EC00F0750E04ECA2
:102C700000F06E0E04EC00F0720E04EC00F0690E31
:102C800004EC00F0730E04EC00F0650E04EC00F0B0
:102C9000200E04EC00F0200E04EC00F0200E04ECFA
:102CA00000F0200E04EC00F0200E04EC00F0200EEA
:102CB00004EC00F0200E04EC00F0200E04EC00F018
:102CC000200E04EC00F0200E04EC00F0200E04ECCA
:102CD00000F0200E04EC00F0200E04EC00F0200EBA
:102CE00004EC00F0200E04EC00F0200E04EC00F0E8
:102CF000200E04EC00F0200E04EC00F0FE0E04ECBC
:102D000000F0C00E04EC00F07E0E04EC00F0530E58
:102D100004EC00F0750E04EC00F06E0E04EC00F014
:102D2000730E04EC00F0650E04EC00F0740E04EC7D
:102D300000F0200E04EC00F0200E04EC00F0200E59
:102D400004EC00F0200E04EC00F0200E04EC00F087
:102D5000200E04EC00F0200E04EC00F0200E04EC39
:102D600000F0200E04EC00F0200E04EC00F0200E29
:102D700004EC00F0200E04EC00F0200E04EC00F057
:102D800004003BAECEEF18F0040081510108D8A436
:102D9000CBEF16F03A9C040081510208D8A4D2EF80
:102DA00016F03A8C52500108D8A4E868FF0A226E47
:102DB000E86A3AACE868266E22C012F026501CEC95
:102DC00001F0266E276E286E296E0400265027100B
:102DD00028102910D8B411EF17F0080EA96EAA6AAE
:102DE000B7EC00F0586E090EA96EAA6AB7EC00F0B5
:102DF000546E0A0EA96EAA6AB7EC00F0616F0C0E51
:102E0000A96EAA6AB7EC00F0596E0D0EA96EAA6AF7
:102E1000B7EC00F0556E0E0EA96EAA6AB7EC00F082
:102E2000626F52500108D8A4E868FF0A226EE86A6F
:102E30003ABCE868266E22C012F026501CEC01F065
:102E4000266E276E286E296E040026502710281043
:102E50002910D8B450EF17F0100EA96EAA6AB7EC7B
:102E600000F0586E110EA96EAA6AB7EC00F0546E0D
:102E7000120EA96EAA6AB7EC00F0616F140EA96E6B
:102E8000AA6AB7EC00F0596E150EA96EAA6AB7ECE3
:102E900000F0556E160EA96EAA6AB7EC00F0626FCC
:102EA00052500208D8A4E868FF0A226EE86A3AACD9
:102EB000E868266E22C012F026501CEC01F0266E47
:102EC000276E286E296E040026502710281029101E
:102ED000D8B48FEF17F0180EA96EAA6AB7EC00F0FD
:102EE000586E190EA96EAA6AB7EC00F0546E1A0E4D
:102EF000A96EAA6AB7EC00F0616F1C0EA96EAA6AEF
:102F0000B7EC00F0596E1D0EA96EAA6AB7EC00F07E
:102F1000556E1E0EA96EAA6AB7EC00F0626F525091
:102F20000208D8A4E868FF0A226EE86A3ABCE8689A
:102F3000266E22C012F026501CEC01F0266E276E81
:102F4000286E296E04002650271028102910D8B4A6
:102F5000CEEF17F0200EA96EAA6AB7EC00F0586EFB
:102F6000210EA96EAA6AB7EC00F0546E220EA96E6B
:102F7000AA6AB7EC00F0616F240EA96EAA6AB7ECDA
:102F800000F0596E250EA96EAA6AB7EC00F0556ED6
:102F9000260EA96EAA6AB7EC00F0626F52500308C1
:102FA000D8A4E868FF0A226EE86A3AACE868266EA0
:102FB00022C012F026501CEC01F0266E276E286EFF
:102FC000296E04002650271028102910D8B40DEFC0
:102FD00018F0280EA96EAA6AB7EC00F0586E290EF8
:102FE000A96EAA6AB7EC00F0546E2A0EA96EAA6AFE
:102FF000B7EC00F0616F2C0EA96EAA6AB7EC00F076
:10300000596E2D0EA96EAA6AB7EC00F0556E2E0E01
:10301000A96EAA6AB7EC00F0626F52500308D8A4F8
:10302000E868FF0A226EE86A3ABCE868266E22C0A9
:1030300012F026501CEC01F0266E276E286E296EC9
:1030400004002650271028102910D8B44CEF18F08F
:10305000300EA96EAA6AB7EC00F0586E310EA96E58
:10306000AA6AB7EC00F0546E320EA96EAA6AB7ECE9
:1030700000F0616F340EA96EAA6AB7EC00F0596EC9
:10308000350EA96EAA6AB7EC00F0556E360EA96E21
:10309000AA6AB7EC00F0626F52500408D8A4E8683E
:1030A000FF0A226EE86A3AACE868266E22C012F087
:1030B00026501CEC01F0266E276E286E296E040047
:1030C0002650271028102910D8B48BEF18F0380E8E
:1030D000A96EAA6AB7EC00F0586E390EA96EAA6AFA
:1030E000B7EC00F0546E3A0EA96EAA6AB7EC00F085
:1030F000616F3C0EA96EAA6AB7EC00F0596E3D0EE6
:10310000A96EAA6AB7EC00F0556E3E0EA96EAA6AC7
:10311000B7EC00F0626F52500408D8A4E868FF0AC8
:10312000226EE86A3ABCE868266E22C012F0265089
:103130001CEC01F0266E276E286E296E04002650C6
:10314000271028102910D8B4CAEF18F0400EA96E25
:10315000AA6AB7EC00F0586E410EA96EAA6AB7ECE5
:1031600000F0546E420EA96EAA6AB7EC00F0616FCF
:10317000440EA96EAA6AB7EC00F0596E450EA96E0E
:10318000AA6AB7EC00F0556E460EA96EAA6AB7ECB3
:1031900000F0626F010E816FD0EF18F06EEF15F046
:1031A000C5EC05F094EC31F004003AA4E3EF18F01C
:1031B000040081510608D8A4E2EF18F0010E816FD7
:1031C000E3EF18F0812B040081510108D8A4F5EF3A
:1031D00018F07E0EA56F200EA66F200EA76F200E92
:1031E000A86F200EA96F200EAA6F0400815102085B
:1031F000D8A407EF19F0200EA56F7E0EA66F200E43
:10320000A76F200EA86F200EA96F200EAA6F0400D2
:1032100081510308D8A419EF19F0200EA56F200ED4
:10322000A66F7E0EA76F200EA86F200EA96F200E2E
:10323000AA6F040081510408D8A42BEF19F0200EC6
:10324000A56F200EA66F200EA76F7E0EA86F200E12
:10325000A96F200EAA6F040081510508D8A43DEF84
:1032600019F0200EA56F200EA66F200EA76F200E5E
:10327000A86F7E0EA96F200EAA6F04008151060868
:10328000D8A44FEF19F0200EA56F200EA66F200EC8
:10329000A76F200EA86F200EA96F7E0EAA6F0400E4
:1032A0003AAA5FEF19F004003ABC5BEF19F0010E87
:1032B000816F5DEF19F0020E816F6EEF15F0040063
:1032C00083B859EF1AF0040081510108D8A48CEF9B
:1032D00019F0582A58C012F0010EF6EC00F0226ED8
:1032E00058C012F0170EF0EC00F0266E22C012F05B
:1032F000265023EC01F0266E276E286E296E0400FE
:103300002650271028102910D8B489EF19F0170E6D
:10331000586E6E0ECEEC00F0040081510208D8A465
:10332000B5EF19F0542A54C012F0010EF6EC00F07B
:10333000226E54C012F03B0EF0EC00F0266E22C05C
:1033400012F0265023EC01F0266E276E286E296EAF
:1033500004002650271028102910D8B4B2EF19F015
:103360003B0E546E6E0ECEEC00F00400815103084B
:10337000D8A4DEEF19F0612B61C012F0010EF6EC5B
:1033800000F0226E61C012F0640EF0EC00F0266EC8
:1033900022C012F0265023EC01F0266E276E286E14
:1033A000296E04002650271028102910D8B4DBEF0E
:1033B00019F0640E616F6E0ECEEC00F004008151C6
:1033C0000408D8A407EF1AF0592A59C012F0010EC8
:1033D000F6EC00F0226E59C012F0170EF0EC00F07F
:1033E000266E22C012F0265023EC01F0266E276EC6
:1033F000286E296E04002650271028102910D8B4F2
:1034000004EF1AF0170E596E6E0ECEEC00F00400A9
:1034100081510508D8A430EF1AF0552A55C012F092
:10342000010EF6EC00F0226E55C012F03B0EF0ECEF
:1034300000F0266E22C012F0265023EC01F0266E1A
:10344000276E286E296E0400265027102810291098
:10345000D8B42DEF1AF03B0E556E6E0ECEEC00F088
:10346000040081510608D8A459EF1AF0622B62C0FB
:1034700012F0010EF6EC00F0226E62C012F0640E43
:10348000F0EC00F0266E22C012F0265023EC01F082
:10349000266E276E286E296E0400265027102810ED
:1034A0002910D8B456EF1AF0640E626F6E0ECEEC8F
:1034B00000F0040083BA4DEF1BF0040081510108B5
:1034C000D8A485EF1AF0580658C012F0010EF6EC99
:1034D00000F0226E58C012F0170EF0EC00F0266ECD
:1034E00022C012F0265023EC01F0266E276E286EC3
:1034F000296E04002650271028102910D8B482EF16
:103500001AF0586A6E0ECEEC00F0040081510208E9
:10351000D8A4ADEF1AF0540654C012F0010EF6EC28
:1035200000F0226E54C012F03B0EF0EC00F0266E5C
:1035300022C012F0265023EC01F0266E276E286E72
:10354000296E04002650271028102910D8B4AAEF9D
:103550001AF0546A6E0ECEEC00F00400815103089C
:10356000D8A4D5EF1AF0610761C012F0010EF6EC95
:1035700000F0226E61C012F0640EF0EC00F0266ED6
:1035800022C012F0265023EC01F0266E276E286E22
:10359000296E04002650271028102910D8B4D2EF25
:1035A0001AF0616B6E0ECEEC00F00400815104083D
:1035B000D8A4FDEF1AF0590659C012F0010EF6EC2E
:1035C00000F0226E59C012F0170EF0EC00F0266EDB
:1035D00022C012F0265023EC01F0266E276E286ED2
:1035E000296E04002650271028102910D8B4FAEFAD
:1035F0001AF0596A6E0ECEEC00F0040081510508F5
:10360000D8A425EF1BF0550655C012F0010EF6ECBC
:1036100000F0226E55C012F03B0EF0EC00F0266E6A
:1036200022C012F0265023EC01F0266E276E286E81
:10363000296E04002650271028102910D8B422EF34
:103640001BF0556A6E0ECEEC00F0040081510608A6
:10365000D8A44DEF1BF0620762C012F0010EF6EC29
:1036600000F0226E62C012F0640EF0EC00F0266EE4
:1036700022C012F0265023EC01F0266E276E286E31
:10368000296E04002650271028102910D8B44AEFBC
:103690001BF0626B6E0ECEEC00F004003BAE59EFF7
:1036A0001DF052500108D8A4E868FF0A226EE86AAB
:1036B0003AACE868266E22C012F026501CEC01F0ED
:1036C000266E276E286E296E0400265027102810BB
:1036D0002910D8B490EF1BF0080EA96EAA6A5850B2
:1036E000BFEC00F0090EA96EAA6A5450BFEC00F0BE
:1036F0000A0EA96EAA6A6151BFEC00F00C0EA96E09
:10370000AA6A5950BFEC00F00D0EA96EAA6A555076
:10371000BFEC00F00E0EA96EAA6A6251BFEC00F079
:1037200052500108D8A4E868FF0A226EE86A3ABC41
:10373000E868266E22C012F026501CEC01F0266EBE
:10374000276E286E296E0400265027102810291095
:10375000D8B4CFEF1BF0100EA96EAA6A5850BFEC78
:1037600000F0110EA96EAA6A5450BFEC00F0120EC0
:10377000A96EAA6A6151BFEC00F0140EA96EAA6A84
:103780005950BFEC00F0150EA96EAA6A5550BFEC57
:1037900000F0160EA96EAA6A6251BFEC00F05250FA
:1037A0000208D8A4E868FF0A226EE86A3AACE86822
:1037B000266E22C012F026501CEC01F0266E276EF9
:1037C000286E296E04002650271028102910D8B41E
:1037D0000EEF1CF0180EA96EAA6A5850BFEC00F04C
:1037E000190EA96EAA6A5450BFEC00F01A0EA96E09
:1037F000AA6A6151BFEC00F01C0EA96EAA6A59506A
:10380000BFEC00F01D0EA96EAA6A5550BFEC00F087
:103810001E0EA96EAA6A6251BFEC00F05250020857
:10382000D8A4E868FF0A226EE86A3ABCE868266E07
:1038300022C012F026501CEC01F0266E276E286E76
:10384000296E04002650271028102910D8B44DEFF7
:103850001CF0200EA96EAA6A5850BFEC00F0210E91
:10386000A96EAA6A5450BFEC00F0220EA96EAA6A93
:103870006151BFEC00F0240EA96EAA6A5950BFEC4A
:1038800000F0250EA96EAA6A5550BFEC00F0260E76
:10389000A96EAA6A6251BFEC00F052500308D8A486
:1038A000E868FF0A226EE86A3AACE868266E22C031
:1038B00012F026501CEC01F0266E276E286E296E41
:1038C00004002650271028102910D8B48CEF1CF0C3
:1038D000280EA96EAA6A5850BFEC00F0290EA96EF6
:1038E000AA6A5450BFEC00F02A0EA96EAA6A615170
:1038F000BFEC00F02C0EA96EAA6A5950BFEC00F084
:103900002D0EA96EAA6A5550BFEC00F02E0EA96EBE
:10391000AA6A6251BFEC00F052500308D8A4E868CC
:10392000FF0A226EE86A3ABCE868266E22C012F0EE
:1039300026501CEC01F0266E276E286E296E0400BE
:103940002650271028102910D8B4CBEF1CF0300EC9
:10395000A96EAA6A5850BFEC00F0310EA96EAA6A8F
:103960005450BFEC00F0320EA96EAA6A6151BFEC50
:1039700000F0340EA96EAA6A5950BFEC00F0350E63
:10398000A96EAA6A5550BFEC00F0360EA96EAA6A5D
:103990006251BFEC00F052500408D8A4E868FF0A56
:1039A000226EE86A3AACE868266E22C012F0265011
:1039B0001CEC01F0266E276E286E296E040026503E
:1039C000271028102910D8B40AEF1DF0380EA96E60
:1039D000AA6A5850BFEC00F0390EA96EAA6A54507A
:1039E000BFEC00F03A0EA96EAA6A6151BFEC00F07C
:1039F0003C0EA96EAA6A5950BFEC00F03D0EA96EAC
:103A0000AA6A5550BFEC00F03E0EA96EAA6A625138
:103A1000BFEC00F052500408D8A4E868FF0A226EF8
:103A2000E86A3ABCE868266E22C012F026501CEC08
:103A300001F0266E276E286E296E0400265027108E
:103A400028102910D8B449EF1DF0400EA96EAA6ABB
:103A50005850BFEC00F0410EA96EAA6A5450BFEC5A
:103A600000F0420EA96EAA6A6151BFEC00F0440E4C
:103A7000A96EAA6A5950BFEC00F0450EA96EAA6A59
:103A80005550BFEC00F0460EA96EAA6A6251BFEC19
:103A900000F040EC31F0DBEC2CF004003ABC55EFC8
:103AA0001DF0010E816F57EF1DF0020E816F6EEF5A
:103AB00015F0FE0E04EC00F0020E04EC00F0530EC4
:103AC00004EC00F03A0E04EC00F0A55104EC00F018
:103AD000020E036E58C01AF01B6A1C6A1D6A060E9D
:103AE0000A6E0B6A58EC00F03A0E04EC00F0A65196
:103AF00004EC00F0020E036E54C01AF01B6A1C6A3C
:103B00001D6A060E0A6E0B6A58EC00F02D0E04ECCE
:103B100000F0A75104EC00F0030E036E61C01AF030
:103B20001B6A1C6A1D6A060E0A6E0B6A58EC00F0CE
:103B3000250E04EC00F0200E04EC00F0200E04EC46
:103B400000F0200E04EC00F0200E04EC00F0FE0E5D
:103B500004EC00F0C00E04EC00F0450E04EC00F0A4
:103B60003A0E04EC00F0A85104EC00F0020E036ED3
:103B700059C01AF01B6A1C6A1D6A060E0A6E0B6A8F
:103B800058EC00F03A0E04EC00F0A95104EC00F0FF
:103B9000020E036E55C01AF01B6A1C6A1D6A060EDF
:103BA0000A6E0B6A58EC00F02D0E04EC00F0AA51DE
:103BB00004EC00F0030E036E62C01AF01B6A1C6A6C
:103BC0001D6A060E0A6E0B6A58EC00F0250E04EC16
:103BD00000F0200E04EC00F0200E04EC00F0D0EF1A
:103BE00018F0C5EC05F094EC31F004003AA604EFAF
:103BF0001EF0040081510208D8A403EF1EF0020E4B
:103C0000816F04EF1EF0812B04003AA813EF1EF021
:103C1000040081510108D8A412EF1EF0010E816F3B
:103C200013EF1EF0810704003AAA1BEF1EF0020EEC
:103C3000816FF6EF0EF0040081510108D8A4C7EFA0
:103C40001EF0FE0E04EC00F0020E04EC00F07E0EFE
:103C500004EC00F0530E04EC00F0770E04EC00F0DE
:103C6000690E04EC00F0740E04EC00F0630E04EC3A
:103C700000F0680E04EC00F0200E04EC00F0230EBF
:103C800004EC00F0310E04EC00F0200E04EC00F027
:103C9000200E04EC00F0200E04EC00F0200E04ECEA
:103CA00000F0200E04EC00F0200E04EC00F0200EDA
:103CB00004EC00F0200E04EC00F0200E04EC00F008
:103CC000200E04EC00F0FE0E04EC00F0C00E04EC3C
:103CD00000F0200E04EC00F0530E04EC00F0770E20
:103CE00004EC00F0690E04EC00F0740E04EC00F03B
:103CF000630E04EC00F0680E04EC00F0200E04ECFF
:103D000000F0230E04EC00F0320E04EC00F0200E64
:103D100004EC00F0200E04EC00F0200E04EC00F0A7
:103D2000200E04EC00F0200E04EC00F0200E04EC59
:103D300000F0200E04EC00F0200E04EC00F0200E49
:103D400004EC00F0200E04EC00F0200E04EC00F077
:103D5000200E04EC00F0200E04EC00F0200E04EC29
:103D600000F0200E04EC00F0200E04EC00F0200E19
:103D700004EC00F004003BAEC5EF1EF03C90010ED9
:103D8000736F010E816F57EF1FF056EF1FF00400A5
:103D900081510208D8A456EF1FF0FE0E04EC00F08B
:103DA000020E04EC00F0200E04EC00F0530E04ECC4
:103DB00000F0770E04EC00F0690E04EC00F0740ED5
:103DC00004EC00F0630E04EC00F0680E04EC00F06C
:103DD000200E04EC00F0230E04EC00F0310E04EC95
:103DE00000F0200E04EC00F0200E04EC00F0200E99
:103DF00004EC00F0200E04EC00F0200E04EC00F0C7
:103E0000200E04EC00F0200E04EC00F0200E04EC78
:103E100000F0200E04EC00F0FE0E04EC00F0C00EEA
:103E200004EC00F07E0E04EC00F0530E04EC00F005
:103E3000770E04EC00F0690E04EC00F0740E04EC54
:103E400000F0630E04EC00F0680E04EC00F0200EAD
:103E500004EC00F0230E04EC00F0320E04EC00F051
:103E6000200E04EC00F0200E04EC00F0200E04EC18
:103E700000F0200E04EC00F0200E04EC00F0200E08
:103E800004EC00F0200E04EC00F0200E04EC00F036
:103E9000200E04EC00F004003BAE56EF1FF03C8017
:103EA000020E736F010E816F57EF1FF09AD6C5ECAB
:103EB00005F094EC31F004003AA66AEF1FF004001C
:103EC00081510208D8A469EF1FF0020E816F6AEFDA
:103ED0001FF0812B04003AA879EF1FF004008151F4
:103EE0000108D8A478EF1FF0010E816F79EF1FF061
:103EF000810704003AAA80EF1FF073C081F071D6E9
:103F0000040081510108D8A421EF20F0FE0E04EC3A
:103F100000F0020E04EC00F07E0E04EC00F0540EF3
:103F200004EC00F0690E04EC00F06D0E04EC00F0FF
:103F3000650E04EC00F0200E04EC00F0310E04ECF1
:103F400000F0200E04EC00F0200E04EC00F0200E37
:103F500004EC00F0200E04EC00F0200E04EC00F065
:103F6000200E04EC00F0200E04EC00F0200E04EC17
:103F700000F0200E04EC00F0200E04EC00F0200E07
:103F800004EC00F0200E04EC00F0200E04EC00F035
:103F9000FE0E04EC00F0C00E04EC00F0200E04EC69
:103FA00000F0540E04EC00F0690E04EC00F06D0E0D
:103FB00004EC00F0650E04EC00F0200E04EC00F0C0
:103FC000320E04EC00F0200E04EC00F0200E04ECA5
:103FD00000F0200E04EC00F0200E04EC00F0200EA7
:103FE00004EC00F0200E04EC00F0200E04EC00F0D5
:103FF000200E04EC00F0200E04EC00F0200E04EC87
:1040000000F0200E04EC00F0200E04EC00F0200E76
:1040100004EC00F0200E04EC00F0200E04EC00F0A4
:10402000200E04EC00F0200E04EC00F0200E04EC56
:1040300000F0200E04EC00F0200E04EC00F0BDEFC8
:1040400020F0040081510208D8A4BDEF20F0FE0E3C
:1040500004EC00F0020E04EC00F0200E04EC00F082
:10406000540E04EC00F0690E04EC00F06D0E04EC4C
:1040700000F0650E04EC00F0200E04EC00F0310EB0
:1040800004EC00F0200E04EC00F0200E04EC00F034
:10409000200E04EC00F0200E04EC00F0200E04ECE6
:1040A00000F0200E04EC00F0200E04EC00F0200ED6
:1040B00004EC00F0200E04EC00F0200E04EC00F004
:1040C000200E04EC00F0200E04EC00F0200E04ECB6
:1040D00000F0200E04EC00F0200E04EC00F0200EA6
:1040E00004EC00F0200E04EC00F0200E04EC00F0D4
:1040F000FE0E04EC00F0C00E04EC00F07E0E04ECAA
:1041000000F0540E04EC00F0690E04EC00F06D0EAB
:1041100004EC00F0650E04EC00F0200E04EC00F05E
:10412000320E04EC00F0200E04EC00F0200E04EC43
:1041300000F0200E04EC00F0200E04EC00F0200E45
:1041400004EC00F0200E04EC00F0200E04EC00F073
:10415000200E04EC00F0200E04EC00F0200E04EC25
:1041600000F0200E04EC00F0200E04EC00F0200E15
:1041700004EC00F0200E04EC00F004003BAE9FEFD6
:1041800021F0040081510108D8A4C8EF20F03D922D
:10419000040081510208D8A4CFEF20F03D82E86AE4
:1041A0003CA0E868226EE86A3DA2E868266E22C05C
:1041B00012F026501CEC01F0266E276E286E296E38
:1041C00004002650271028102910D8B400EF21F041
:1041D0004A0EA96EAA6AB7EC00F0586E4B0EA96E93
:1041E000AA6AB7EC00F0546E4C0EA96EAA6AB7EC3E
:1041F00000F0596E4D0EA96EAA6AB7EC00F0556E2C
:10420000E86A3CA0E868226EE86A3DB2E868266E7B
:1042100022C012F026501CEC01F0266E276E286E8C
:10422000296E04002650271028102910D8B431EF29
:1042300021F04E0EA96EAA6AB7EC00F0586E4F0E30
:10424000A96EAA6AB7EC00F0546E500EA96EAA6A65
:10425000B7EC00F0596E510EA96EAA6AB7EC00F0E7
:10426000556EE86A3CB0E868226EE86A3DA2E868EC
:10427000266E22C012F026501CEC01F0266E276E2E
:10428000286E296E04002650271028102910D8B453
:1042900062EF21F0520EA96EAA6AB7EC00F0586ED8
:1042A000530EA96EAA6AB7EC00F0546E540EA96EB4
:1042B000AA6AB7EC00F0596E550EA96EAA6AB7EC5F
:1042C00000F0556EE86A3CB0E868226EE86A3DB2DC
:1042D000E868266E22C012F026501CEC01F0266E13
:1042E000276E286E296E04002650271028102910EA
:1042F000D8B493EF21F0560EA96EAA6AB7EC00F07D
:10430000586E570EA96EAA6AB7EC00F0546E580E9C
:10431000A96EAA6AB7EC00F0596E590EA96EAA6A86
:10432000B7EC00F0556E04003DB29BEF21F0010E9A
:10433000816F9DEF21F0010E816FA1EF21F057EF0A
:104340001FF0C5EC05F094EC31F004003AA4B4EF92
:1043500021F0040081510408D8A4B3EF21F0010E2C
:10436000816FB4EF21F0812B040081510108D8A4A2
:10437000C2EF21F07E0EA56F200EA66F200EA76F54
:10438000200EA86F040081510208D8A4D0EF21F0BC
:10439000200EA56F7E0EA66F200EA76F200EA86FB1
:1043A000040081510308D8A4DEEF21F0200EA56F90
:1043B000200EA66F7E0EA76F200EA86F04008151FD
:1043C0000408D8A4ECEF21F0200EA56F200EA66FF4
:1043D000200EA76F7E0EA86F04003AAAF2EF21F01C
:1043E00057EF1FF0040083B83EEF22F00400815124
:1043F0000108D8A408EF22F0582A0400180E585CCF
:10440000D8A005EF22F0170E586E6E0ECEEC00F01D
:10441000040081510208D8A41AEF22F0542A0400A3
:104420003C0E545CD8A017EF22F03B0E546E6E0E7B
:10443000CEEC00F0040081510308D8A42CEF22F048
:10444000592A0400180E595CD8A029EF22F0170E43
:10445000596E6E0ECEEC00F0040081510408D8A411
:104460003EEF22F0552A04003C0E555CD8A03BEFED
:1044700022F03B0E556E6E0ECEEC00F0040083BAB7
:10448000E2EF22F0040081510108D8A46AEF22F083
:10449000580658C012F0010EF6EC00F0226E58C01B
:1044A00012F0170EF0EC00F0266E22C012F026502B
:1044B00023EC01F0266E276E286E296E040026502C
:1044C000271028102910D8B467EF22F0586A6E0E12
:1044D000CEEC00F0040081510208D8A492EF22F043
:1044E000540654C012F0010EF6EC00F0226E54C0D7
:1044F00012F03B0EF0EC00F0266E22C012F02650B7
:1045000023EC01F0266E276E286E296E04002650DB
:10451000271028102910D8B48FEF22F0546A6E0E9D
:10452000CEEC00F0040081510308D8A4BAEF22F0C9
:10453000590659C012F0010EF6EC00F0226E59C077
:1045400012F0170EF0EC00F0266E22C012F026508A
:1045500023EC01F0266E276E286E296E040026508B
:10456000271028102910D8B4B7EF22F0596A6E0E20
:10457000CEEC00F0040081510408D8A4E2EF22F050
:10458000550655C012F0010EF6EC00F0226E55C033
:1045900012F03B0EF0EC00F0266E22C012F0265016
:1045A00023EC01F0266E276E286E296E040026503B
:1045B000271028102910D8B4DFEF22F0556A6E0EAC
:1045C000CEEC00F004003BAEBAEF23F0E86A3CA06A
:1045D000E868226EE86A3DA2E868266E22C012F002
:1045E00026501CEC01F0266E276E286E296E040002
:1045F0002650271028102910D8B417EF23F04A0EA0
:10460000A96EAA6A5850BFEC00F04B0EA96EAA6AB8
:104610005450BFEC00F04C0EA96EAA6A5950BFEC82
:1046200000F04D0EA96EAA6A5550BFEC00F0E86A82
:104630003CA0E868226EE86A3DB2E868266E22C0B7
:1046400012F026501CEC01F0266E276E286E296EA3
:1046500004002650271028102910D8B448EF23F062
:104660004E0EA96EAA6A5850BFEC00F04F0EA96E0C
:10467000AA6A5450BFEC00F0500EA96EAA6A5950B5
:10468000BFEC00F0510EA96EAA6A5550BFEC00F0C5
:10469000E86A3CB0E868226EE86A3DA2E868266EE7
:1046A00022C012F026501CEC01F0266E276E286EF8
:1046B000296E04002650271028102910D8B479EF4D
:1046C00023F0520EA96EAA6A5850BFEC00F0530EA8
:1046D000A96EAA6A5450BFEC00F0540EA96EAA6AE3
:1046E0005950BFEC00F0550EA96EAA6A5550BFECA8
:1046F00000F0E86A3CB0E868226EE86A3DB2E8681B
:10470000266E22C012F026501CEC01F0266E276E99
:10471000286E296E04002650271028102910D8B4BE
:10472000AAEF23F0560EA96EAA6A5850BFEC00F00B
:10473000570EA96EAA6A5450BFEC00F0580EA96E2D
:10474000AA6A5950BFEC00F0590EA96EAA6A5550DA
:10475000BFEC00F004003DB2B2EF23F0010E816F18
:10476000B4EF23F0020E816F40EC31F0DBEC2CF063
:1047700057EF1FF0FE0E04EC00F0020E04EC00F008
:104780004F0E04EC00F04E0E04EC00F03A0E04EC78
:1047900000F0200E04EC00F0A55104EC00F0020E35
:1047A000036E58C01AF01B6A1C6A1D6A060E0A6E58
:1047B0000B6A58EC00F03A0E04EC00F0A65104EC41
:1047C00000F0020E036E54C01AF01B6A1C6A1D6AC8
:1047D000060E0A6E0B6A58EC00F0200E04EC00F096
:1047E000200E04EC00F0200E04EC00F0FE0E04ECB1
:1047F00000F0C00E04EC00F04F0E04EC00F0460E8A
:1048000004EC00F0460E04EC00F03A0E04EC00F06C
:10481000A75104EC00F0020E036E59C01AF01B6A97
:104820001C6A1D6A060E0A6E0B6A58EC00F03A0EFE
:1048300004EC00F0A85104EC00F0020E036E55C029
:104840001AF01B6A1C6A1D6A060E0A6E0B6A58EC87
:1048500000F0200E04EC00F0200E04EC00F0200E1E
:1048600004EC00F0A1EF21F0C5EC05F094EC31F080
:1048700004003AA647EF24F0040081510208D8A4AE
:1048800046EF24F0020E816F47EF24F0812B0400E5
:104890003AA856EF24F0040081510108D8A455EF3E
:1048A00024F0010E816F56EF24F0810704003AAA2C
:1048B0005EEF24F0020E816FDEEF10F004008151F4
:1048C0000108D8A411EF25F0FE0E04EC00F0020E52
:1048D00004EC00F07E0E04EC00F0410E04EC00F05D
:1048E000710E04EC00F0750E04EC00F0610E04ECA7
:1048F00000F0720E04EC00F0690E04EC00F0750E8E
:1049000004EC00F06D0E04EC00F0200E04EC00F05E
:104910006C0E04EC00F0690E04EC00F0670E04EC81
:1049200000F0680E04EC00F0740E04EC00F0200EB1
:1049300004EC00F0200E04EC00F0200E04EC00F07B
:10494000200E04EC00F0200E04EC00F0200E04EC2D
:1049500000F0FE0E04EC00F0C00E04EC00F0200E9F
:1049600004EC00F0520E04EC00F06F0E04EC00F0CA
:104970006F0E04EC00F06D0E04EC00F0200E04EC61
:1049800000F06C0E04EC00F0690E04EC00F0670E11
:1049900004EC00F0680E04EC00F0740E04EC00F07F
:1049A000200E04EC00F0200E04EC00F0200E04ECCD
:1049B00000F0200E04EC00F0200E04EC00F0200EBD
:1049C00004EC00F0200E04EC00F0200E04EC00F0EB
:1049D000200E04EC00F0200E04EC00F0200E04EC9D
:1049E00000F0200E04EC00F004003BAE0FEF25F0C9
:1049F000010E816F3A90640EA96EAA6AB7EC00F0BE
:104A0000756F650EA96EAA6AB7EC00F0766F660E38
:104A1000A96EAA6AB7EC00F0776FA3EF25F0A2EFBA
:104A200025F0040081510208D8A4A2EF25F0FE0E63
:104A300004EC00F0020E04EC00F0200E04EC00F098
:104A4000410E04EC00F0710E04EC00F0750E04EC65
:104A500000F0610E04EC00F0720E04EC00F0690E40
:104A600004EC00F0750E04EC00F06D0E04EC00F0A8
:104A7000200E04EC00F06C0E04EC00F0690E04EC67
:104A800000F0670E04EC00F0680E04EC00F0740E09
:104A900004EC00F0200E04EC00F0200E04EC00F01A
:104AA000200E04EC00F0200E04EC00F0200E04ECCC
:104AB00000F0200E04EC00F0FE0E04EC00F0C00E3E
:104AC00004EC00F07E0E04EC00F0520E04EC00F05A
:104AD0006F0E04EC00F06F0E04EC00F06D0E04ECB1
:104AE00000F0200E04EC00F06C0E04EC00F0690EF7
:104AF00004EC00F0670E04EC00F0680E04EC00F02B
:104B0000740E04EC00F0200E04EC00F0200E04EC17
:104B100000F0200E04EC00F0200E04EC00F0200E5B
:104B200004EC00F0200E04EC00F004003BAEA2EF19
:104B300025F03A92670EA96EAA6AB7EC00F0816F71
:104B400051EF27F091D6C5EC05F094EC31F004005C
:104B50003AA4B6EF25F0040081510308D8A4B5EFBC
:104B600025F0010E816FB6EF25F0812B04003AAAE3
:104B7000C6EF25F0050EA96EAA6AB7EC00F0E8B002
:104B80003A80E8A03A90010E816F6ED60400815100
:104B90000108D8A4D2EF25F07E0EA56F200EA66FD7
:104BA000200EA76F040081510208D8A4DEEF25F083
:104BB000200EA56F7E0EA66F200EA76F04008151F8
:104BC0000308D8A4EAEF25F0200EA56F200EA66FEB
:104BD0007E0EA76F040083B81EEF26F004008151FB
:104BE0000108D8A4FDEF25F0752B0400650E755D56
:104BF000D8A0FDEF25F0640E756F04008151020806
:104C0000D8A40CEF26F0762B0400650E765DD8A0B4
:104C10000CEF26F0640E766F040081510308D8A4CF
:104C20001BEF26F0772B0400650E775DD8A01BEFF5
:104C300026F0640E776F6E0ECEEC00F0040083BA9F
:104C400094EF26F0040081510108D8A447EF26F024
:104C5000750775C012F0010EF6EC00F0226E75C0FB
:104C600012F0640EF0EC00F0266E22C012F0265016
:104C700023EC01F0266E276E286E296E0400265064
:104C8000271028102910D8B447EF26F0756B0400C0
:104C900081510208D8A46CEF26F0760776C012F096
:104CA000010EF6EC00F0226E76C012F0640EF0EC0D
:104CB00000F0266E22C012F0265023EC01F0266E82
:104CC000276E286E296E0400265027102810291000
:104CD000D8B46CEF26F0766B040081510308D8A499
:104CE00091EF26F0770777C012F0010EF6EC00F096
:104CF000226E77C012F0640EF0EC00F0266E22C037
:104D000012F0265023EC01F0266E276E286E296ED5
:104D100004002650271028102910D8B491EF26F04F
:104D2000776B6E0ECEEC00F0FE0E04EC00F0020E7F
:104D300004EC00F0A55104EC00F0230E04EC00F0AC
:104D4000310E04EC00F0200E04EC00F0030E036EB4
:104D500075C01AF01B6A1C6A1D6A060E0A6E0B6A81
:104D600058EC00F0250E04EC00F0A65104EC00F025
:104D7000320E04EC00F0230E04EC00F0200E04ECE4
:104D800000F0030E036E76C01AF01B6A1C6A1D6ADF
:104D9000060E0A6E0B6A58EC00F0250E04EC00F0CB
:104DA000200E04EC00F0200E04EC00F0200E04ECC9
:104DB00000F0200E04EC00F0200E04EC00F0200EB9
:104DC00004EC00F0200E04EC00F0200E04EC00F0E7
:104DD000FE0E04EC00F0C00E04EC00F0A75104EC51
:104DE00000F0230E04EC00F0330E04EC00F0200E73
:104DF00004EC00F0030E036E77C01AF01B6A1C6A05
:104E00001D6A060E0A6E0B6A58EC00F0250E04ECC3
:104E100000F0200E04EC00F0200E04EC00F0200E58
:104E200004EC00F0200E04EC00F0200E04EC00F086
:104E3000200E04EC00F0200E04EC00F0200E04EC38
:104E400000F0200E04EC00F0200E04EC00F0200E28
:104E500004EC00F0200E04EC00F004003BAE50EF38
:104E600027F0640EA96EAA6A7551BFEC00F0650EBA
:104E7000A96EAA6A7651BFEC00F0660EA96EAA6A06
:104E80007751BFEC00F0050EA96EAA6A000EBFECC8
:104E900000F03A90DBEC2CF0010E816F34EF24F03F
:104EA00052D6C5EC05F094EC31F03C94040083B884
:104EB00066EF27F0812B0400650E815DD8A063EFBB
:104EC00027F0640E816F6E0ECEEC00F0040083BA02
:104ED0008CEF27F0810781C012F0010EF6EC00F094
:104EE000226E81C012F0640EF0EC00F0266E22C03B
:104EF00012F0265023EC01F0266E276E286E296EE4
:104F000004002650271028102910D8B489EF27F064
:104F1000816B6E0ECEEC00F004003AAA9DEF27F0F4
:104F2000060EA96EAA6AB7EC00F0E8B03A82E8A0D3
:104F30003A92020E816F34EF24F004003BAEB4EFDE
:104F400027F0670EA96EAA6A8151BFEC00F0060E29
:104F5000A96EAA6A000EBFEC00F03A92DBEC2CF0CE
:104F6000020E816F34EF24F0FE0E04EC00F0020E0E
:104F700004EC00F0520E04EC00F06F0E04EC00F0B4
:104F80006F0E04EC00F06D0E04EC00F0200E04EC4B
:104F900000F06C0E04EC00F0690E04EC00F0670EFB
:104FA00004EC00F0680E04EC00F0740E04EC00F069
:104FB000200E04EC00F0230E04EC00F0340E04ECA0
:104FC00000F0200E04EC00F0200E04EC00F0200EA7
:104FD00004EC00F0200E04EC00F0200E04EC00F0D5
:104FE000200E04EC00F0200E04EC00F0FE0E04ECA9
:104FF00000F0C00E04EC00F07E0E04EC00F0030E96
:10500000036E81C01AF01B6A1C6A1D6A060E0A6EC6
:105010000B6A58EC00F0200E04EC00F0250E04ECB6
:1050200000F0200E04EC00F0200E04EC00F0200E46
:1050300004EC00F0200E04EC00F0200E04EC00F074
:10504000200E04EC00F0200E04EC00F0200E04EC26
:1050500000F0200E04EC00F0200E04EC00F0200E16
:1050600004EC00F0200E04EC00F0200E04EC00F044
:10507000200E04EC00F015D7C5EC05F094EC31F0EF
:1050800004003AA64FEF28F0040081510208D8A48A
:105090004EEF28F0020E816F4FEF28F0812B0400B5
:1050A0003AA85EEF28F0040081510108D8A45DEF12
:1050B00028F0010E816F5EEF28F0810704003AAA04
:1050C00066EF28F0030E816FF6EF0EF004008151B9
:1050D0000108D8A40FEF29F0FE0E04EC00F0020E38
:1050E00004EC00F07E0E04EC00F0540E04EC00F032
:1050F000690E04EC00F06D0E04EC00F0650E04EC9B
:1051000000F0200E04EC00F0200E04EC00F0200E65
:1051100004EC00F0200E04EC00F0200E04EC00F093
:10512000200E04EC00F0200E04EC00F0200E04EC45
:1051300000F0200E04EC00F0200E04EC00F0200E35
:1051400004EC00F0200E04EC00F0200E04EC00F063
:10515000200E04EC00F0200E04EC00F0200E04EC15
:1051600000F0200E04EC00F0200E04EC00F0200E05
:1051700004EC00F0200E04EC00F0FE0E04EC00F055
:10518000C00E04EC00F0200E04EC00F0440E04EC21
:1051900000F0650E04EC00F0660E04EC00F0610E09
:1051A00004EC00F0750E04EC00F06C0E04EC00F062
:1051B000740E04EC00F0200E04EC00F0730E04EC0E
:1051C00000F0650E04EC00F0740E04EC00F0740EB8
:1051D00004EC00F0690E04EC00F06E0E04EC00F03C
:1051E000670E04EC00F0730E04EC00F0200E04ECEB
:1051F00000F0200E04EC00F0200E04EC00F0200E75
:1052000004EC00F0200E04EC00F004003BAE0DEFC7
:1052100029F0010E816F34EF2FF0B6EF29F0040072
:1052200081510208D8A4B6EF29F0FE0E04EC00F07C
:10523000020E04EC00F0200E04EC00F0540E04EC1E
:1052400000F0690E04EC00F06D0E04EC00F0650E49
:1052500004EC00F0200E04EC00F0200E04EC00F052
:10526000200E04EC00F0200E04EC00F0200E04EC04
:1052700000F0200E04EC00F0200E04EC00F0200EF4
:1052800004EC00F0200E04EC00F0200E04EC00F022
:10529000200E04EC00F0200E04EC00F0200E04ECD4
:1052A00000F0200E04EC00F0200E04EC00F0200EC4
:1052B00004EC00F0200E04EC00F0200E04EC00F0F2
:1052C000200E04EC00F0200E04EC00F0FE0E04ECC6
:1052D00000F0C00E04EC00F07E0E04EC00F0440E72
:1052E00004EC00F0650E04EC00F0660E04EC00F037
:1052F000610E04EC00F0750E04EC00F06C0E04EC92
:1053000000F0740E04EC00F0200E04EC00F0730EBC
:1053100004EC00F0650E04EC00F0740E04EC00F0F8
:10532000740E04EC00F0690E04EC00F06E0E04EC58
:1053300000F0670E04EC00F0730E04EC00F0200E99
:1053400004EC00F0200E04EC00F0200E04EC00F061
:10535000200E04EC00F0200E04EC00F004003BAE44
:10536000B6EF29F0010E816FE2EF2AF085D6C5EC89
:1053700005F094EC31F0040083B8CBEF29F06F2BEB
:105380000400650E6F5DD8A0C8EF29F0640E6F6F42
:105390006E0ECEEC00F0040083BAF1EF29F06F0737
:1053A0006FC012F0010EF6EC00F0226E6FC012F02A
:1053B000640EF0EC00F0266E22C012F0265023ECB2
:1053C00001F0266E276E286E296E040026502710E5
:1053D00028102910D8B4EEEF29F06F6B6E0ECEECCA
:1053E00000F004003BAA48EF2AF03B9C020EA96E95
:1053F000AA6A6F51BFEC00F0010E816F04003AA061
:1054000032EF2AF094C012F095C013F096C014F059
:1054100097C015F0640E166E176A186A196A28ECA0
:1054200001F0636F98C012F099C013F09AC014F0A5
:105430009BC015F0640E166E176A186A196A28EC7C
:1054400001F0646F9CC012F09DC013F09EC014F078
:105450009FC015F0640E166E176A186A196A28EC58
:1054600001F0656F04003AA246EF2AF0A0C012F0E6
:10547000A1C013F0A2C014F0A3C015F0640E166E04
:10548000176A186A196A28EC01F0666FB6EF02F025
:10549000FE0E04EC00F0020E04EC00F0570E04ECDB
:1054A00000F06F0E04EC00F0720E04EC00F06B0ED6
:1054B00004EC00F0200E04EC00F06C0E04EC00F0A4
:1054C000690E04EC00F0670E04EC00F0680E04ECCA
:1054D00000F0740E04EC00F0200E04EC00F0200E3E
:1054E00004EC00F0200E04EC00F0200E04EC00F0C0
:1054F000200E04EC00F0200E04EC00F0200E04EC72
:1055000000F0200E04EC00F0200E04EC00F0200E61
:1055100004EC00F0FE0E04EC00F0C00E04EC00F011
:10552000430E04EC00F0680E04EC00F0610E04EC95
:1055300000F06E0E04EC00F06E0E04EC00F0650E50
:1055400004EC00F06C0E04EC00F0200E04EC00F013
:10555000230E04EC00F0310E04EC00F02D0E04ECF0
:1055600000F0030E036E6FC01AF01B6A1C6A1D6AFE
:10557000060E0A6E0B6A58EC00F0250E04EC00F0E3
:10558000200E04EC00F0200E04EC00F0200E04ECE1
:1055900000F0200E04EC00F0200E04EC00F0200ED1
:1055A00004EC00F0200E04EC00F0200E04EC00F0FF
:1055B000200E04EC00F0200E04EC00F0200E04ECB1
:1055C00000F0D5D694EC31F0C5EC05F004003BAE0C
:1055D000FCEF2AF0040081510008D8A4F4EF2AF06F
:1055E000020E816F3CEF28F0040081510108D8A41D
:1055F000FCEF2AF071EC2DF004003AAA04EF2BF036
:10560000020E816F3CEF28F004003AA813EF2BF054
:10561000040081510108D8A411EF2BF0816B13EF26
:105620002BF0010E816F04003AA622EF2BF004004C
:1056300081510108D8A420EF2BF0816B22EF2BF0D1
:10564000010E816FFE0E04EC00F0020E04EC00F07F
:10565000430E04EC00F06F0E04EC00F06E0E04EC50
:1056600000F0660E04EC00F0690E04EC00F0720E1F
:1056700004EC00F06D0E04EC00F0200E04EC00F0E1
:10568000630E04EC00F0680E04EC00F0610E04EC14
:1056900000F06E0E04EC00F0670E04EC00F0650EF6
:1056A00004EC00F0730E04EC00F0200E04EC00F0AB
:1056B000200E04EC00F0200E04EC00F0200E04ECB0
:1056C00000F0200E04EC00F0200E04EC00F0200EA0
:1056D00004EC00F0200E04EC00F0200E04EC00F0CE
:1056E000200E04EC00F0200E04EC00F0200E04EC80
:1056F00000F0200E04EC00F0040081510008D8A452
:10570000C4EF2BF0FE0E04EC00F0C00E04EC00F031
:105710007E0E04EC00F04E0E04EC00F04F0E04EC94
:1057200000F0200E04EC00F0200E04EC00F0200E3F
:1057300004EC00F0200E04EC00F0200E04EC00F06D
:10574000200E04EC00F0200E04EC00F0200E04EC1F
:1057500000F0200E04EC00F0200E04EC00F0200E0F
:1057600004EC00F0200E04EC00F0200E04EC00F03D
:10577000200E04EC00F0200E04EC00F0200E04ECEF
:1057800000F0200E04EC00F0040081510108D8A4C0
:105790000FEF2CF0FE0E04EC00F0C00E04EC00F055
:1057A0007E0E04EC00F0590E04EC00F0450E04EC03
:1057B00000F0530E04EC00F0200E04EC00F0200E7C
:1057C00004EC00F0200E04EC00F0200E04EC00F0DD
:1057D000200E04EC00F0200E04EC00F0200E04EC8F
:1057E00000F0200E04EC00F0200E04EC00F0200E7F
:1057F00004EC00F0200E04EC00F0200E04EC00F0AD
:10580000200E04EC00F0200E04EC00F0200E04EC5E
:1058100000F0200E04EC00F0200E04EC00F0D2D6D4
:1058200094EC31F004003BAE1EEF2CF0070EA96E95
:10583000AA6A8051BFEC00F02BEC02F0040083B8A0
:1058400026EF2CF0802B6E0ECEEC00F0040083BA15
:105850002EEF2CF080076E0ECEEC00F00400650EEB
:10586000805DD8A036EF2CF0640E806F04000A0E25
:10587000805DD8B03EEF2CF00A0E806FFE0E04EC77
:1058800000F0020E04EC00F0540E04EC00F0650E83
:1058900004EC00F06D0E04EC00F0700E04EC00F06F
:1058A000200E04EC00F0200E04EC00F0720E04EC6C
:1058B00000F0650E04EC00F06C0E04EC00F0610EDC
:1058C00004EC00F0790E04EC00F0200E04EC00F083
:1058D000200E04EC00F0200E04EC00F0200E04EC8E
:1058E00000F0200E04EC00F0200E04EC00F0200E7E
:1058F00004EC00F0200E04EC00F0200E04EC00F0AC
:10590000200E04EC00F0200E04EC00F0200E04EC5D
:1059100000F0FE0E04EC00F0C00E04EC00F03E0EB1
:1059200004EC00F0030E036E80C01AF01B6A1C6AC0
:105930001D6A060E0A6E0B6A58EC00F0200E04EC8D
:1059400000F0DF0E04EC00F0430E04EC00F0200E3B
:1059500004EC00F0200E04EC00F0200E04EC00F04B
:10596000200E04EC00F0200E04EC00F0200E04ECFD
:1059700000F0200E04EC00F0200E04EC00F0200EED
:1059800004EC00F0200E04EC00F0200E04EC00F01B
:10599000200E04EC00F0200E04EC00F0200E04ECCD
:1059A00000F0200E04EC00F0200E04EC00F0200EBD
:1059B00004EC00F035D7FE0E04EC00F0020E04EC0F
:1059C00000F0200E04EC00F0430E04EC00F0480E52
:1059D00004EC00F0410E04EC00F04E0E04EC00F07C
:1059E000470E04EC00F0450E04EC00F0530E04ECFE
:1059F00000F0200E04EC00F0200E04EC00F0530E3A
:105A000004EC00F0410E04EC00F0560E04EC00F043
:105A1000450E04EC00F0440E04EC00F0200E04EC03
:105A200000F0200E04EC00F0200E04EC00F0200E3C
:105A300004EC00F0200E04EC00F0200E04EC00F06A
:105A4000200E04EC00F0200E04EC00F0FE0E04EC3E
:105A500000F0C00E04EC00F0200E04EC00F0200E6C
:105A600004EC00F0200E04EC00F0200E04EC00F03A
:105A7000200E04EC00F0200E04EC00F0200E04ECEC
:105A800000F0200E04EC00F0200E04EC00F0200EDC
:105A900004EC00F0200E04EC00F0200E04EC00F00A
:105AA000200E04EC00F0200E04EC00F0200E04ECBC
:105AB00000F0200E04EC00F0200E04EC00F0200EAC
:105AC00004EC00F0200E04EC00F0200E04EC00F0DA
:105AD000200E04EC00F0050E176EDC0ECFEC00F08B
