:020000040000FA
:06000000006AB8EF02F0F7
:040008002CEF03F0E6
:08001800BCEF02F0008A00AA0F
:10002000009A00B603D0008640D827E2080E1F6E63
:1000300050D81E361F2EFCD700AA2ED858D851D81B
:1000400000BA1BD821D81E50D890B5EF02F0008A14
:1000500000AA009A00B405D0FE0B016E0084D8906F
:100060000AD000B805D0266E00881FD806E22650B8
:1000700023D803E200AAB5EF02F00ED838D80094D6
:100080000098009601D8F7D711C0EAFF0F3CE96E3F
:10009000E9880D50EC1208D011C0EAFF0FC0E9FF4B
:1000A0000D1CEE16E988EC161200EEDF20D8F4DF06
:1000B00018D8015000B601091E6E080E1F6E1E36BC
:1000C000D8B0E2DFD8A0E8DF12D80BD81F2EF7D7C0
:1000D000DBDF0DD811C0EAFF0FC0E9FF0D50EF14B0
:1000E000FF0F12C0EAFF10C0E9FF0E1CDAD712C0E2
:1000F000EAFF103CE96EE9880E50CCD7236A226EE5
:10010000018E270E1F6E100E0CD8030E1F6EE80E08
:1001100008D81F6A640E05D81F6A0A0E02D822503A
:100120000FD01E6E23501B6E22501A6E1C6A1D6A61
:10013000206A216AE9EC01F0E866019E01BE120026
:10014000300F01D0E950276E83968394839495965F
:10015000959495940F0E9516275000B221D03A0E23
:100160001B6EFC0E7CEC01F0330E266E2FD8100EA9
:100170001B6E680E7CEC01F029D8640E7BEC01F05C
:1001800025D8220E266E22D8280E09D80C0E07D8A4
:10019000010E05D8060E03D80082275001D000803A
:1001A000266E00A00BD0839403080FE30ED8070E31
:1001B0001B6ED00E7CEC01F0D88012000080FE088F
:1001C000D8B4B5EF02F0838400D000A000908386FD
:1001D0000F0E83162650F00B83128396263A00B03A
:1001E000F5D7280E7BEC01F0D8801200019E035059
:1001F000D8B4018E0A0E026E3B0E216E9A0E206E4E
:10020000CA0E1F6E000E35D8050E216EF50E206E3B
:10021000E10E1F6E000E2DD8216A980E206E960EEC
:100220001F6E800E26D8216A0F0E206E420E1F6EA2
:10023000400E1FD8216A010E206E860E1F6EA00E82
:1002400018D8216A206A270E1F6E100E12D8216A54
:10025000206A030E1F6EE80E0CD8216A206A1F6AFE
:10026000640E07D8216A206A1F6A0A0E02D822503B
:100270000CD01E6E25501D6E24501C6E23501B6E1C
:1002800022501A6EE9EC01F01A501A6E024E019ECD
:10029000035003E0025CD8B012001A50D8A4019EAB
:1002A00001BE1200300FAFEF02F0A66AA680A85080
:1002B000A92AB5EF02F0E86AA86EA66AA684550ED0
:1002C000A76EAA0EA76EA682A6B2FED7A694A92AEA
:1002D000B5EF02F01F6A206A216A1E6EE86A1E06E8
:1002E0001F5A205A215AD8A0B5EF02F0030E1B6EF8
:1002F000E60E02D8F3D71B6AFC0F1A6E0000E86AFC
:1003000001D01A0604001B5AFCE21200276E0A0EE6
:100310001E6E1F6A206A216AE9EC01F02706FCE2E2
:1003200022501200D8901D321C321B321A32FF0F9D
:10033000F9E21A50B5EF02F01E6E020E0ED01E6EDC
:10034000030E0BD01E6E010E06D01E6E060E05D0DB
:100350001E6E040E00D0026E0FD0026E0AD0026E26
:1003600021501D1815E621501D5C08E120501C5C31
:1003700005E11F501B5C02E11E501A5C040ED8B050
:10038000010ED8B4020E0214D8A4FF0EB5EF02F08D
:100390001D50215CF3D7E866FF0E1A14D8A4FF0E97
:1003A000B5EF02F01A10D8A4FF0EB5EF02F0296ADB
:1003B0001DAE06D0297EE86A1A6C1B561C561D56C7
:1003C00021AE08D0297EE86A1E6C1F5620562156A1
:1003D00001D0296A226A236A246A256A200E266EC1
:1003E0001D3422362336243625361E50225E1F50F9
:1003F000235A2050245A2150255A09E21E50222601
:100400001F5023222050242221502522D8901A3612
:100410001B361C361D36262EE3D729AE09D0E86AD6
:100420001A6C1B561C561D56226C235624562556F4
:100430001A50B5EF02F01E502602F3CF22F0F4CF8F
:1004400023F01F502702F3CF24F0F4CF25F026022B
:10045000F3502326F4502422E86A25221E50270256
:10046000F3502326F4502422E86A25222050260245
:10047000F3502426F450252220502702E86A1A6AF5
:100480001A22F3502526F4501A221E502802F35047
:100490002426F4502522E86A1B6A1A221B221F50C8
:1004A0002802F3502526F4501A22E86A1B22205015
:1004B0002802F3501A26F4501B2221502702F35031
:1004C0001A26F4501B2221502802E86A1C6A1C22BA
:1004D000F3501B26F4501C2221502602F3502526EF
:1004E000F4501A22E86A1B221C2221502902F4CF60
:1004F0001DF0F3501C26E86A1D221E502902F350FD
:100500002526F4501A22E86A1B221C221D221F50A5
:100510002902F3501A26F4501B22E86A1C221D22DD
:1005200020502902F3501B26F4501C22E86A1D2299
:1005300029AE08D01E501A5E1F501B5A20501C5A5C
:1005400021501D5A21AE08D026501A5E27501B5A42
:1005500028501C5A29501D5A2250B5EF02F0E96E5E
:10056000FB6A0B50FA6E0A50F96E0001040012008B
:10057000B49E0C6ABDEF02F01000939A93869382AA
:10058000938093849388010EC26E0D0EC16E960EF9
:10059000C06E816A826A836A846A8292949282942B
:1005A00094948290949084949694CD802AEF03F052
:1005B000CD90E10ECE26D8B0CF2AFE0ECF26CD802C
:1005C0007251D8A4E7EF02F08292EDEF02F03E50B4
:1005D000725DD8B08282D8A082927351D8A4F4EF11
:1005E00002F08294FAEF02F03E50735DD8B082843C
:1005F000D8A082947451D8A401EF03F0829007EF41
:1006000003F03E50745DD8B08280D8A082907551BE
:10061000D8A40EEF03F0849414EF03F03E50755D00
:10062000D8B08484D8A084943E2A640E3E5CD8B4AA
:100630003E6A0CB423EF03F019C0FBFF18C0FAFFA9
:100640001750E06AF96E16C0FBFF15C0FAFF145090
:10065000E06AF96E65EF03F0FBCF6FF0FACF6DF053
:10066000E9CF60F0EACF61F0E1CF64F0E2CF65F06E
:10067000D9CF68F0DACF69F00C840C90E06A9DA0C5
:100680004FEF03F09EA04FEF03F00C8004009C0E90
:10069000146E060E156E000E166E8AD79E90E06AD6
:1006A0000CB03DEF03F00C9460C0E9FF61C0EAFFBD
:1006B00064C0E1FF65C0E2FF68C0D9FF69C0DAFF2E
:1006C0006DC0FAFF6FC0FBFF1100F28EF28C9F80AD
:1006D0009D80E968070EEA6EED6AE950EA10FCE1D8
:1006E000EF6A3288328E328C328A446A4DEC27F0BF
:1006F000FE0EA3EC00F0010EA3EC00F0440EA3EC00
:1007000000F0200EA3EC00F0410EA3EC00F0200E50
:10071000A3EC00F04E0EA3EC00F0200EA3EC00F0D2
:10072000450EA3EC00F0200EA3EC00F0520EA3EC5B
:1007300000F0200EA3EC00F0200EA3EC00F04C0E15
:10074000A3EC00F0200EA3EC00F0450EA3EC00F0AB
:10075000200EA3EC00F0440EA3EC00F0FE0EA3EC80
:1007600000F0C00EA3EC00F0430EA3EC00F04F0E1F
:10077000A3EC00F04E0EA3EC00F0540EA3EC00F03E
:10078000520EA3EC00F04F0EA3EC00F04C0EA3ECC5
:1007900000F0200EA3EC00F0460EA3EC00F0570E84
:1007A000A3EC00F03A0EA3EC00F0310EA3EC00F045
:1007B0002E0EA3EC00F0300EA3EC00F0818A726BD9
:1007C000736B746B756B010E436E2AEC27F0030E8E
:1007D0001F6EE80E6BEC01F0030EA96E55EC01F0F4
:1007E0005F6E04005F500108D8A458EF04F0540E67
:1007F000A96E72515CEC01F0550EA96E73515CEC60
:1008000001F0560EA96E74515CEC01F0570EA96E02
:1008100075515CEC01F072C026F0276A286A296ADB
:10082000640E1E6E1F6A206A216A05DE766F23C081
:1008300077F024C078F025C079F073C026F0276ADD
:10084000286A296A640E1E6E1F6A206A216A1BECE0
:1008500002F07A6F23C07BF024C07CF025C07DF0CD
:1008600074C026F0276A286A296A640E1E6E1F6A01
:10087000206A216A1BEC02F07E6F23C07FF024C047
:1008800080F025C081F075C026F0276A286A296AA1
:10089000640E1E6E1F6A206A216A1BEC02F0826FD2
:1008A00023C083F024C084F025C085F076EF04F0E7
:1008B00004005F500208D8A476EF04F0010E436EE6
:1008C000500EA96E55EC01F0726F510EA96E55ECE9
:1008D00001F0736F520EA96E55EC01F0746F530E58
:1008E000A96E55EC01F0756FC6EF05F081B232804C
:1008F00081A2329081B6328681A6329681B032844E
:1009000081A0329481B4328281A432925F2A33C0B2
:100910001AF034C01BF00B0E1F6EB80E9FEC01F0E6
:10092000D8A499EF04F0332A000E3422818A9AEF7A
:1009300004F0819A4AEC23F0040032B4B4EF04F0DE
:1009400032ACB4EF04F0336A346A040081AAB4EF25
:1009500004F0412A0400010E415CD8A0B4EF04F079
:10096000416A446A4DEF11F0040032B2CDEF04F059
:1009700032AACDEF04F0336A346A040081AACDEFC5
:1009800004F0412A0400010E415CD8A0CDEF04F030
:10099000416A440E446E4DEF11F0040032B6D6EFBA
:1009A00004F032AED6EF04F0336A346A040032B099
:1009B000DFEF04F032A8DFEF04F0336A346A04009A
:1009C00081B8F2EF04F072C059F073C05AF074C0ED
:1009D0005BF075C05CF0020EA96E55EC01F04B6E39
:1009E0000DEF26F004005A0E5F5CD8B0FAEF04F069
:1009F000200E3F6E5FC01AF05A0EA2EC01F02A6E74
:100A00005FC01AF0B40EA8EC01F02E6E2AC01AF0E6
:100A10002E50CBEC01F02E6E2F6E306E316E040036
:100A20002E502F1030103110D8B419EF05F03A0EB7
:100A30003F6E0400B50E5F5CD8A020EF05F05F6A42
:100A4000FE0EA3EC00F0020EA3EC00F0440EA3ECAB
:100A500000F0200EA3EC00F0410EA3EC00F0200EFD
:100A6000A3EC00F04E0EA3EC00F0200EA3EC00F07F
:100A7000450EA3EC00F0200EA3EC00F0520EA3EC08
:100A800000F0200EA3EC00F0200EA3EC00F04C0EC2
:100A9000A3EC00F0200EA3EC00F0450EA3EC00F058
:100AA000200EA3EC00F0440EA3EC00F0FE0EA3EC2D
:100AB00000F0C00EA3EC00F03E0EA3EC00F0020E1E
:100AC000036E3CC022F0236A246A256A440E0A6E33
:100AD000010E0B6EF6EC00F03F50A3EC00F0020E9E
:100AE000036E3BC022F0236A246A256A440E0A6E14
:100AF000010E0B6EF6EC00F03F50A3EC00F0020E7E
:100B0000036E3DC022F0236A246A256A440E0A6EF1
:100B1000010E0B6EF6EC00F0200EA3EC00F0200EA0
:100B2000A3EC00F0200EA3EC00F0200EA3EC00F0EC
:100B3000200EA3EC00F0200EA3EC00F0200EA3EC9E
:100B400000F0200EA3EC00F0200EA3EC00F0200E2D
:100B5000A3EC00F0200EA3EC00F0200EA3EC00F0BC
:100B6000200EA3EC00F008EC08F032B4328C32A472
:100B7000329C32B0328832A0329832B2328A32A2FB
:100B8000329A32B6328E32A6329EB0D681B63286D4
:100B900081A6329681B2328081A2329081B03284B5
:100BA00081A0329481B4328281A4329233C01AF08F
:100BB00034C01BF00B0E1F6EB80E9FEC01F0D8A4D2
:100BC000E8EF05F0332A000E3422818AE9EF05F0C0
:100BD000819A040081B8FCEF05F072C059F073C02F
:100BE0005AF074C05BF075C05CF0020EA96E55EC53
:100BF00001F04B6E0DEF26F0040043500108D8A41D
:100C00000AEF06F03E0E876F200E886F200E896F68
:100C1000200E8A6F040043500208D8A418EF06F093
:100C2000200E876F3E0E886F200E896F200E8A6F10
:100C3000040043500308D8A426EF06F0200E876F67
:100C4000200E886F3E0E896F200E8A6F040043507D
:100C50000408D8A434EF06F0200E876F200E886FAA
:100C6000200E896F3E0E8A6F040032B04AEF06F004
:100C700032A84AEF06F0336A346A040081AA4AEFC8
:100C800006F0432A0400050E435CD8A04AEF06F0A4
:100C9000010E436E040032B662EF06F032AE62EF30
:100CA00006F0336A346A040081AA62EF06F0412A32
:100CB0000400020E415CD8A062EF06F0416A446A6B
:100CC0004DEF11F0040081B0BFEF06F0336A346AD3
:100CD000040081AABFEF06F0040043500108D8A425
:100CE00080EF06F0722B0400650E725DD8A07BEFDA
:100CF00006F0640E726F500EA96E72515CEC01F03A
:100D0000040043500208D8A494EF06F0732B0400AB
:100D1000650E735DD8A08FEF06F0640E736F510EF1
:100D2000A96E73515CEC01F0040043500308D8A491
:100D3000A8EF06F0742B0400650E745DD8A0A3EF35
:100D400006F0640E746F520EA96E74515CEC01F0E3
:100D5000040043500408D8A4BCEF06F0752B04002F
:100D6000650E755DD8A0B7EF06F0640E756F530E73
:100D7000A96E75515CEC01F03C0E6AEC01F00400C8
:100D800081B474EF07F0336A346A040081AA74EF07
:100D900007F0040043500108D8A4F3EF06F07207EF
:100DA00072C01AF0010EA8EC01F02A6E72C01AF09F
:100DB000640EA2EC01F02E6E2AC01AF02E50D2EC76
:100DC00001F02E6E2F6E306E316E04002E502F10FB
:100DD00030103110D8B4EEEF06F0726B500EA96EE1
:100DE00072515CEC01F0040043500208D8A41DEFDE
:100DF00007F0730773C01AF0010EA8EC01F02A6E19
:100E000073C01AF0640EA2EC01F02E6E2AC01AF024
:100E10002E50D2EC01F02E6E2F6E306E316E04002B
:100E20002E502F1030103110D8B418EF07F0736B1C
:100E3000510EA96E73515CEC01F00400435003089D
:100E4000D8A447EF07F0740774C01AF0010EA8EC9D
:100E500001F02A6E74C01AF0640EA2EC01F02E6E3E
:100E60002AC01AF02E50D2EC01F02E6E2F6E306E8A
:100E7000316E04002E502F1030103110D8B442EFD4
:100E800007F0746B520EA96E74515CEC01F0040013
:100E900043500408D8A471EF07F0750775C01AF025
:100EA000010EA8EC01F02A6E75C01AF0640EA2ECD7
:100EB00001F02E6E2AC01AF02E50D2EC01F02E6EE8
:100EC0002F6E306E316E04002E502F103010311006
:100ED000D8B46CEF07F0756B530EA96E75515CECCE
:100EE00001F03C0E6AEC01F0FE0EA3EC00F0020EE5
:100EF000A3EC00F08751A3EC00F0230EA3EC00F06C
:100F0000310EA3EC00F0200EA3EC00F0030E036EF4
:100F100072C022F0236A246A256A440E0A6E010E0A
:100F20000B6EF6EC00F0250EA3EC00F08851A3EC5C
:100F300000F0320EA3EC00F0230EA3EC00F0200E24
:100F4000A3EC00F0030E036E73C022F0236A246A40
:100F5000256A440E0A6E010E0B6EF6EC00F0250EAB
:100F6000A3EC00F0200EA3EC00F0FE0EA3EC00F0CA
:100F7000C00EA3EC00F08951A3EC00F0230EA3EC0B
:100F800000F0330EA3EC00F0200EA3EC00F0030EF3
:100F9000036E74C022F0236A246A256A440E0A6E26
:100FA000010E0B6EF6EC00F0250EA3EC00F08A515A
:100FB000A3EC00F0340EA3EC00F0230EA3EC00F041
:100FC000200EA3EC00F0030E036E75C022F0236A1E
:100FD000246A256A440E0A6E010E0B6EF6EC00F0D0
:100FE000250EA3EC00F0200EA3EC00F032B6328EFA
:100FF00032A6329E32B4328C32A4329C32B0328865
:1010000032A0329832B2328A32A2329AC6EF05F05A
:101010003BC049F03CC026F0276A286A296A3C0E8A
:101020001E6E1F6A206A216A1BEC02F02A6E23C022
:101030002BF024C02CF025C02DF03B502A24396E13
:10104000E86A2B203A6E040049505D5CD8B42DEF5D
:1010500008F0010E486E2EEF08F0486A93C058F071
:1010600094C047F095C04DF097C057F098C046F037
:1010700099C04CF058C026F0276A286A296A3C0EAD
:101080001E6E1F6A206A216A1BEC02F02A6E23C0C2
:101090002BF024C02CF025C02DF047502A24376EA9
:1010A000E86A2B20386E57C026F0276A286A296A1A
:1010B0003C0E1E6E1F6A206A216A1BEC02F02A6E2B
:1010C00023C02BF024C02CF025C02DF046502A243C
:1010D000356EE86A2B20366E37C01AF038C01BF028
:1010E0003AC01FF03950A5EC01F02A6E35C01AF055
:1010F00036C01BF03AC01FF039509FEC01F02E6E45
:101100002AC01AF02E50CBEC01F02E6E2F6E306EEE
:10111000316E04002E502F1030103110D8B44FEF24
:1011200009F037C01AF038C01BF03AC01FF0395030
:101130009CEC01F02A6E3D500008D8A4E868FF0A34
:101140002E6E2AC01AF02E50CBEC01F02E6E2F6EB0
:10115000306E316E04002E502F1030103110D8B484
:10116000C9EF08F04DC072F04DC026F0276A286A1A
:10117000296A640E1E6E1F6A206A216A1BEC02F047
:10118000766F23C077F024C078F025C079F04FEF58
:1011900009F035C01AF036C01BF03AC01FF03950C4
:1011A0009CEC01F02A6E3D500008D8A4E868FF0AC4
:1011B0002E6E2AC01AF02E50CBEC01F02E6E2F6E40
:1011C000306E316E04002E502F1030103110D8B414
:1011D000EEEF08F04CC072F04FEF09F004004850F9
:1011E0000108D8A44FEF09F04D504C5C2A6EE86A14
:1011F000D8A0E8042B6E2C6E2D6E2AC026F02BC0D2
:1012000027F02CC028F02DC029F0640E1E6E1F6A36
:10121000206A216A1BEC02F02A6E23C02BF024C046
:101220002CF025C02DF03750355C2E6E38503658D6
:101230002F6EE86AD8A0E804306E316E2AC01AF02A
:101240002BC01BF02CC01CF02DC01DF02EC01EF0BA
:101250002FC01FF030C020F031C021F0D7EC01F0DA
:101260002E6E1BC02FF01CC030F01DC031F02E5070
:1012700076272F507723305078233150792376C04A
:101280001AF077C01BF078C01CF079C01DF0640E16
:101290001E6E1F6A206A216AD7EC01F0726F9BC034
:1012A00058F09CC047F09DC04DF09FC057F0A0C0C3
:1012B00046F0A1C04CF058C026F0276A286A296A77
:1012C0003C0E1E6E1F6A206A216A1BEC02F02A6E19
:1012D00023C02BF024C02CF025C02DF047502A2429
:1012E000376EE86A2B20386E57C026F0276A286AC6
:1012F000296A3C0E1E6E1F6A206A216A1BEC02F0EE
:101300002A6E23C02BF024C02CF025C02DF04650AF
:101310002A24356EE86A2B20366E37C01AF038C0A2
:101320001BF03AC01FF03950A5EC01F02A6E35C011
:101330001AF036C01BF03AC01FF039509FEC01F094
:101340002E6E2AC01AF02E50CBEC01F02E6E2F6EAE
:10135000306E316E04002E502F1030103110D8B482
:1013600070EF0AF037C01AF038C01BF03AC01FF017
:1013700039509CEC01F02A6E3D500008D8A4E86872
:10138000FF0A2E6E2AC01AF02E50CBEC01F02E6E02
:101390002F6E306E316E04002E502F103010311031
:1013A000D8B4EAEF09F04DC072F04DC026F0276ABC
:1013B000286A296A640E1E6E1F6A206A216A1BEC65
:1013C00002F0766F23C077F024C078F025C079F062
:1013D00070EF0AF035C01AF036C01BF03AC01FF0AB
:1013E00039509CEC01F02A6E3D500008D8A4E86802
:1013F000FF0A2E6E2AC01AF02E50CBEC01F02E6E92
:101400002F6E306E316E04002E502F1030103110C0
:10141000D8B40FEF0AF04CC072F070EF0AF004007D
:1014200048500108D8A470EF0AF04C504D5C2A6E69
:10143000E86AD8A0E8042B6E2C6E2D6E2AC026F028
:101440002BC027F02CC028F02DC029F0640E1E6E92
:101450001F6A206A216A1BEC02F02A6E23C02BF05F
:1014600024C02CF025C02DF03750355C2E6E38503E
:1014700036582F6EE86AD8A0E804306E316E2AC064
:101480001AF02BC01BF02CC01CF02DC01DF02EC07C
:101490001EF02FC01FF030C020F031C021F0D7EC7B
:1014A00001F02E6E1BC02FF01CC030F01DC031F0BB
:1014B0002E50765F2F50775B3050785B3150795BE0
:1014C00076C01AF077C01BF078C01CF079C01DF010
:1014D000640E1E6E1F6A206A216AD7EC01F0726FDB
:1014E000A3C058F0A4C047F0A5C04DF0A7C057F066
:1014F000A8C046F0A9C04CF058C026F0276A286A58
:10150000296A3C0E1E6E1F6A206A216A1BEC02F0DB
:101510002A6E23C02BF024C02CF025C02DF047509C
:101520002A24376EE86A2B20386E57C026F0276AC7
:10153000286A296A3C0E1E6E1F6A206A216A1BEC0B
:1015400002F02A6E23C02BF024C02CF025C02DF011
:1015500046502A24356EE86A2B20366E37C01AF0C2
:1015600038C01BF03AC01FF03950A5EC01F02A6ECC
:1015700035C01AF036C01BF03AC01FF039509FEC4E
:1015800001F02E6E2AC01AF02E50CBEC01F02E6E18
:101590002F6E306E316E04002E502F10301031102F
:1015A000D8B491EF0BF037C01AF038C01BF03AC036
:1015B0001FF039509CEC01F02A6E3D500008D8A471
:1015C000E868FF0A2E6E2AC01AF02E50CBEC01F00C
:1015D0002E6E2F6E306E316E04002E502F10301094
:1015E0003110D8B40BEF0BF04DC073F04DC026F0A6
:1015F000276A286A296A640E1E6E1F6A206A216A99
:101600001BEC02F07A6F23C07BF024C07CF025C075
:101610007DF091EF0BF035C01AF036C01BF03AC0E8
:101620001FF039509CEC01F02A6E3D500008D8A400
:10163000E868FF0A2E6E2AC01AF02E50CBEC01F09B
:101640002E6E2F6E306E316E04002E502F10301023
:101650003110D8B430EF0BF04CC073F091EF0BF0B9
:10166000040048500108D8A491EF0BF04D504C5C99
:101670002A6EE86AD8A0E8042B6E2C6E2D6E2AC064
:1016800026F02BC027F02CC028F02DC029F0640EC6
:101690001E6E1F6A206A216A1BEC02F02A6E23C0AC
:1016A0002BF024C02CF025C02DF03750355C2E6E69
:1016B000385036582F6EE86AD8A0E804306E316E84
:1016C0002AC01AF02BC01BF02CC01CF02DC01DF03E
:1016D0002EC01EF02FC01FF030C020F031C021F00E
:1016E000D7EC01F02E6E1BC02FF01CC030F01DC0D7
:1016F00031F02E507A272F507B2330507C233150ED
:101700007D237AC01AF07BC01BF07CC01CF07DC02A
:101710001DF0640E1E6E1F6A206A216AD7EC01F06C
:10172000736FABC058F0ACC047F0ADC04DF0AFC068
:1017300057F0B0C046F0B1C04CF058C026F0276A50
:10174000286A296A3C0E1E6E1F6A206A216A1BECF9
:1017500002F02A6E23C02BF024C02CF025C02DF0FF
:1017600047502A24376EE86A2B20386E57C026F07F
:10177000276A286A296A3C0E1E6E1F6A206A216A3F
:101780001BEC02F02A6E23C02BF024C02CF025C0E5
:101790002DF046502A24356EE86A2B20366E37C06D
:1017A0001AF038C01BF03AC01FF03950A5EC01F018
:1017B0002A6E35C01AF036C01BF03AC01FF03950FF
:1017C0009FEC01F02E6E2AC01AF02E50CBEC01F0E7
:1017D0002E6E2F6E306E316E04002E502F10301092
:1017E0003110D8B4B2EF0CF037C01AF038C01BF08B
:1017F0003AC01FF039509CEC01F02A6E3D500008B1
:10180000D8A4E868FF0A2E6E2AC01AF02E50CBEC3E
:1018100001F02E6E2F6E306E316E04002E502F10A0
:1018200030103110D8B42CEF0CF04DC073F04DC017
:1018300026F0276A286A296A640E1E6E1F6A206ACB
:10184000216A1BEC02F07A6F23C07BF024C07CF08D
:1018500025C07DF0B2EF0CF035C01AF036C01BF099
:101860003AC01FF039509CEC01F02A6E3D50000840
:10187000D8A4E868FF0A2E6E2AC01AF02E50CBECCE
:1018800001F02E6E2F6E306E316E04002E502F1030
:1018900030103110D8B451EF0CF04CC073F0B2EFEF
:1018A0000CF0040048500108D8A4B2EF0CF04C50E2
:1018B0004D5C2A6EE86AD8A0E8042B6E2C6E2D6E63
:1018C0002AC026F02BC027F02CC028F02DC029F00C
:1018D000640E1E6E1F6A206A216A1BEC02F02A6EDB
:1018E00023C02BF024C02CF025C02DF03750355CE0
:1018F0002E6E385036582F6EE86AD8A0E804306E45
:10190000316E2AC01AF02BC01BF02CC01CF02DC069
:101910001DF02EC01EF02FC01FF030C020F031C0CF
:1019200021F0D7EC01F02E6E1BC02FF01CC030F060
:101930001DC031F02E507A5F2F507B5B30507C5BA6
:1019400031507D5B7AC01AF07BC01BF07CC01CF06C
:101950007DC01DF0640E1E6E1F6A206A216AD7ECDE
:1019600001F0736FB3C058F0B4C047F0B5C04DF08C
:10197000B7C057F0B8C046F0B9C04CF058C026F018
:10198000276A286A296A3C0E1E6E1F6A206A216A2D
:101990001BEC02F02A6E23C02BF024C02CF025C0D3
:1019A0002DF047502A24376EE86A2B20386E57C036
:1019B00026F0276A286A296A3C0E1E6E1F6A206A72
:1019C000216A1BEC02F02A6E23C02BF024C02CF0FD
:1019D00025C02DF046502A24356EE86A2B20366E3D
:1019E00037C01AF038C01BF03AC01FF03950A5ECD0
:1019F00001F02A6E35C01AF036C01BF03AC01FF055
:101A000039509FEC01F02E6E2AC01AF02E50CBEC0C
:101A100001F02E6E2F6E306E316E04002E502F109E
:101A200030103110D8B4D3EF0DF037C01AF038C0F1
:101A30001BF03AC01FF039509CEC01F02A6E3D506B
:101A40000008D8A4E868FF0A2E6E2AC01AF02E50AB
:101A5000CBEC01F02E6E2F6E306E316E04002E50E6
:101A60002F1030103110D8B44DEF0DF04DC074F080
:101A70004DC026F0276A286A296A640E1E6E1F6A06
:101A8000206A216A1BEC02F07E6F23C07FF024C025
:101A900080F025C081F0D3EF0DF035C01AF036C0CC
:101AA0001BF03AC01FF039509CEC01F02A6E3D50FB
:101AB0000008D8A4E868FF0A2E6E2AC01AF02E503B
:101AC000CBEC01F02E6E2F6E306E316E04002E5076
:101AD0002F1030103110D8B472EF0DF04CC074F0EC
:101AE000D3EF0DF0040048500108D8A4D3EF0DF057
:101AF0004D504C5C2A6EE86AD8A0E8042B6E2C6E20
:101B00002D6E2AC026F02BC027F02CC028F02DC047
:101B100029F0640E1E6E1F6A206A216A1BEC02F017
:101B20002A6E23C02BF024C02CF025C02DF0375096
:101B3000355C2E6E385036582F6EE86AD8A0E8040F
:101B4000306E316E2AC01AF02BC01BF02CC01CF076
:101B50002DC01DF02EC01EF02FC01FF030C020F091
:101B600031C021F0D7EC01F02E6E1BC02FF01CC04D
:101B700030F01DC031F02E507E272F507F23305083
:101B80008023315081237EC01AF07FC01BF080C0BB
:101B90001CF081C01DF0640E1E6E1F6A206A216A4F
:101BA000D7EC01F0746FBBC058F0BCC047F0BDC0AB
:101BB0004DF0BFC057F0C0C046F0C1C04CF058C097
:101BC00026F0276A286A296A3C0E1E6E1F6A206A60
:101BD000216A1BEC02F02A6E23C02BF024C02CF0EB
:101BE00025C02DF047502A24376EE86A2B20386E26
:101BF00057C026F0276A286A296A3C0E1E6E1F6AA3
:101C0000206A216A1BEC02F02A6E23C02BF024C04C
:101C10002CF025C02DF046502A24356EE86A2B2082
:101C2000366E37C01AF038C01BF03AC01FF039507A
:101C3000A5EC01F02A6E35C01AF036C01BF03AC090
:101C40001FF039509FEC01F02E6E2AC01AF02E5072
:101C5000CBEC01F02E6E2F6E306E316E04002E50E4
:101C60002F1030103110D8B4F4EF0EF037C01AF046
:101C700038C01BF03AC01FF039509CEC01F02A6EBE
:101C80003D500008D8A4E868FF0A2E6E2AC01AF05A
:101C90002E50CBEC01F02E6E2F6E306E316E0400A4
:101CA0002E502F1030103110D8B46EEF0EF04DC002
:101CB00074F04DC026F0276A286A296A640E1E6EE9
:101CC0001F6A206A216A1BEC02F07E6F23C07FF03E
:101CD00024C080F025C081F0F4EF0EF035C01AF07A
:101CE00036C01BF03AC01FF039509CEC01F02A6E50
:101CF0003D500008D8A4E868FF0A2E6E2AC01AF0EA
:101D00002E50CBEC01F02E6E2F6E306E316E040033
:101D10002E502F1030103110D8B493EF0EF04CC06D
:101D200074F0F4EF0EF0040048500108D8A4F4EF6A
:101D30000EF04C504D5C2A6EE86AD8A0E8042B6E79
:101D40002C6E2D6E2AC026F02BC027F02CC028F058
:101D50002DC029F0640E1E6E1F6A206A216A1BECDA
:101D600002F02A6E23C02BF024C02CF025C02DF0E9
:101D70003750355C2E6E385036582F6EE86AD8A032
:101D8000E804306E316E2AC01AF02BC01BF02CC054
:101D90001CF02DC01DF02EC01EF02FC01FF030C053
:101DA00020F031C021F0D7EC01F02E6E1BC02FF0D7
:101DB0001CC030F01DC031F02E507E5F2F507F5B75
:101DC0003050805B3150815B7EC01AF07FC01BF0C9
:101DD00080C01CF081C01DF0640E1E6E1F6A206A58
:101DE000216AD7EC01F0746FC3C058F0C4C047F04B
:101DF000C5C04DF0C7C057F0C8C046F0C9C04CF0D0
:101E000058C026F0276A286A296A3C0E1E6E1F6A8F
:101E1000206A216A1BEC02F02A6E23C02BF024C03A
:101E20002CF025C02DF047502A24376EE86A2B206D
:101E3000386E57C026F0276A286A296A3C0E1E6E43
:101E40001F6A206A216A1BEC02F02A6E23C02BF065
:101E500024C02CF025C02DF046502A24356EE86AA7
:101E60002B20366E37C01AF038C01BF03AC01FF076
:101E70003950A5EC01F02A6E35C01AF036C01BF0BF
:101E80003AC01FF039509FEC01F02E6E2AC01AF0B4
:101E90002E50CBEC01F02E6E2F6E306E316E0400A2
:101EA0002E502F1030103110D8B415EF10F037C06D
:101EB0001AF038C01BF03AC01FF039509CEC01F00A
:101EC0002A6E3D500008D8A4E868FF0A2E6E2AC08A
:101ED0001AF02E50CBEC01F02E6E2F6E306E316E5C
:101EE00004002E502F1030103110D8B48FEF0FF0A7
:101EF0004DC075F04DC026F0276A286A296A640E25
:101F00001E6E1F6A206A216A1BEC02F0826F23C0DA
:101F100083F024C084F025C085F015EF10F035C0A3
:101F20001AF036C01BF03AC01FF039509CEC01F09B
:101F30002A6E3D500008D8A4E868FF0A2E6E2AC019
:101F40001AF02E50CBEC01F02E6E2F6E306E316EEB
:101F500004002E502F1030103110D8B4B4EF0FF011
:101F60004CC075F015EF10F0040048500108D8A4DB
:101F700015EF10F04D504C5C2A6EE86AD8A0E804CA
:101F80002B6E2C6E2D6E2AC026F02BC027F02CC095
:101F900028F02DC029F0640E1E6E1F6A206A216A87
:101FA0001BEC02F02A6E23C02BF024C02CF025C0BD
:101FB0002DF03750355C2E6E385036582F6EE86A4B
:101FC000D8A0E804306E316E2AC01AF02BC01BF086
:101FD0002CC01CF02DC01DF02EC01EF02FC01FF015
:101FE00030C020F031C021F0D7EC01F02E6E1BC0C4
:101FF0002FF01CC030F01DC031F02E5082272F5022
:102000008323305084233150852382C01AF083C04B
:102010001BF084C01CF085C01DF0640E1E6E1F6A8C
:10202000206A216AD7EC01F0756FCBC058F0CCC0A4
:1020300047F0CDC04DF0CFC057F0D0C046F0D1C072
:102040004CF058C026F0276A286A296A3C0E1E6E9A
:102050001F6A206A216A1BEC02F02A6E23C02BF053
:1020600024C02CF025C02DF047502A24376EE86A92
:102070002B20386E57C026F0276A286A296A3C0E42
:102080001E6E1F6A206A216A1BEC02F02A6E23C0B2
:102090002BF024C02CF025C02DF046502A24356E9C
:1020A000E86A2B20366E37C01AF038C01BF03AC0F1
:1020B0001FF03950A5EC01F02A6E35C01AF036C079
:1020C0001BF03AC01FF039509FEC01F02E6E2AC071
:1020D0001AF02E50CBEC01F02E6E2F6E306E316E5A
:1020E00004002E502F1030103110D8B436EF11F0FC
:1020F00037C01AF038C01BF03AC01FF039509CECC2
:1021000001F02A6E3D500008D8A4E868FF0A2E6E40
:102110002AC01AF02E50CBEC01F02E6E2F6E306ECE
:10212000316E04002E502F1030103110D8B4B0EFA3
:1021300010F04DC075F04DC026F0276A286A296A54
:10214000640E1E6E1F6A206A216A1BEC02F0826F09
:1021500023C083F024C084F025C085F036EF11F051
:1021600035C01AF036C01BF03AC01FF039509CEC55
:1021700001F02A6E3D500008D8A4E868FF0A2E6ED0
:102180002AC01AF02E50CBEC01F02E6E2F6E306E5E
:10219000316E04002E502F1030103110D8B4D5EF0E
:1021A00010F04CC075F036EF11F0040048500108F3
:1021B000D8A436EF11F04C504D5C2A6EE86AD8A0D6
:1021C000E8042B6E2C6E2D6E2AC026F02BC027F053
:1021D0002CC028F02DC029F0640E1E6E1F6A206AE4
:1021E000216A1BEC02F02A6E23C02BF024C02CF0D5
:1021F00025C02DF03750355C2E6E385036582F6E76
:10220000E86AD8A0E804306E316E2AC01AF02BC0FC
:102210001BF02CC01CF02DC01DF02EC01EF02FC0D6
:102220001FF030C020F031C021F0D7EC01F02E6E4D
:102230001BC02FF01CC030F01DC031F02E50825F4B
:102240002F50835B3050845B3150855B82C01AF025
:1022500083C01BF084C01CF085C01DF0640E1E6E90
:102260001F6A206A216AD7EC01F0756F540EA96EBF
:1022700072515CEC01F0550EA96E73515CEC01F0EB
:10228000560EA96E74515CEC01F0570EA96E755193
:102290005CEC01F049C05DF0120081B2328081A295
:1022A000329081B6328681A6329681B0328481A086
:1022B000329481B4328281A4329233C01AF034C095
:1022C0001BF00B0E1F6EB80E9FEC01F0D8A46FEF41
:1022D00011F0332A000E3422818A70EF11F0819AB6
:1022E000040081B883EF11F072C059F073C05AF046
:1022F00074C05BF075C05CF0020EA96E55EC01F085
:102300004B6E0DEF26F0040032B4A0EF11F032ACAA
:10231000A0EF11F0336A346A040081AAA0EF11F033
:10232000412A0400020E415CD8A0A0EF11F0040E77
:1023300044260400490E445CD8A0A0EF11F0446A82
:10234000040032B2C0EF11F032AAC0EF11F0336ACC
:10235000346A040081AAC0EF11F0412A0400020E81
:10236000415CD8A0C0EF11F0040044500008D8A48C
:10237000BEEF11F0480E446EC0EF11F0040E445E43
:10238000040032B6D7EF11F032AED7EF11F0336A56
:10239000346A040081AAD7EF11F0412A0400020E2A
:1023A000415CD8A0D7EF11F0480E446E416A04009A
:1023B00044500008D8A45AEF12F0FE0EA3EC00F02F
:1023C000020EA3EC00F03E0EA3EC00F0520EA3ECC4
:1023D00000F0540EA3EC00F0430EA3EC00F0200E2E
:1023E000A3EC00F0760EA3EC00F0720EA3EC00F06C
:1023F000650EA3EC00F06D0EA3EC00F0650EA3ECEF
:1024000000F0200EA3EC00F0200EA3EC00F0200E54
:10241000A3EC00F0200EA3EC00F0200EA3EC00F0E3
:10242000200EA3EC00F0200EA3EC00F0200EA3EC95
:1024300000F0FE0EA3EC00F0C00EA3EC00F0200EA6
:10244000A3EC00F0520EA3EC00F0650EA3EC00F03C
:102450007A0EA3EC00F0690EA3EC00F06D0EA3EC75
:1024600000F0200EA3EC00F0200EA3EC00F0200EF4
:10247000A3EC00F0200EA3EC00F0200EA3EC00F083
:10248000200EA3EC00F0200EA3EC00F0200EA3EC35
:1024900000F0200EA3EC00F0200EA3EC00F0200EC4
:1024A000A3EC00F0200EA3EC00F0200EA3EC00F053
:1024B000A5EF1BF0040044500408D8A4DDEF12F08F
:1024C000FE0EA3EC00F0020EA3EC00F0200EA3EC35
:1024D00000F0520EA3EC00F0540EA3EC00F0430EFB
:1024E000A3EC00F0200EA3EC00F0760EA3EC00F0BD
:1024F000720EA3EC00F0650EA3EC00F06D0EA3ECE1
:1025000000F0650EA3EC00F0200EA3EC00F0200E0E
:10251000A3EC00F0200EA3EC00F0200EA3EC00F0E2
:10252000200EA3EC00F0200EA3EC00F0200EA3EC94
:1025300000F0200EA3EC00F0FE0EA3EC00F0C00EA5
:10254000A3EC00F03E0EA3EC00F0520EA3EC00F062
:10255000650EA3EC00F07A0EA3EC00F0690EA3EC7C
:1025600000F06D0EA3EC00F0200EA3EC00F0200EA6
:10257000A3EC00F0200EA3EC00F0200EA3EC00F082
:10258000200EA3EC00F0200EA3EC00F0200EA3EC34
:1025900000F0200EA3EC00F0200EA3EC00F0200EC3
:1025A000A3EC00F0200EA3EC00F0200EA3EC00F052
:1025B000200EA3EC00F0A5EF1BF004004450080827
:1025C000D8A472EF13F0FE0EA3EC00F0020EA3EC01
:1025D00000F03E0EA3EC00F0230EA3EC00F0310E51
:1025E000A3EC00F0200EA3EC00F0530EA3EC00F0DF
:1025F000760EA3EC00F0690EA3EC00F0740EA3ECD1
:1026000000F0610EA3EC00F06E0EA3EC00F06A0E79
:10261000A3EC00F0650EA3EC00F0200EA3EC00F09C
:102620004F0EA3EC00F04E0EA3EC00F0200EA3EC36
:1026300000F0200EA3EC00F0200EA3EC00F0200E22
:10264000A3EC00F0200EA3EC00F0200EA3EC00F0B1
:10265000FE0EA3EC00F0C00EA3EC00F0200EA3ECE5
:1026600000F0230EA3EC00F0310EA3EC00F0200EDE
:10267000A3EC00F0530EA3EC00F0760EA3EC00F0F8
:10268000690EA3EC00F0740EA3EC00F0610EA3EC55
:1026900000F06E0EA3EC00F06A0EA3EC00F0650EE5
:1026A000A3EC00F0200EA3EC00F04F0EA3EC00F022
:1026B000460EA3EC00F0460EA3EC00F0200EA3ECB7
:1026C00000F0200EA3EC00F0200EA3EC00F0200E92
:1026D000A3EC00F0200EA3EC00F0200EA3EC00F021
:1026E000A5EF1BF0040044500C08D8A401EF14F02F
:1026F000FE0EA3EC00F0020EA3EC00F0200EA3EC03
:1027000000F0230EA3EC00F0310EA3EC00F0200E3D
:10271000A3EC00F0530EA3EC00F0760EA3EC00F057
:10272000690EA3EC00F0740EA3EC00F0610EA3ECB4
:1027300000F06E0EA3EC00F06A0EA3EC00F0650E44
:10274000A3EC00F0200EA3EC00F04F0EA3EC00F081
:102750004E0EA3EC00F0200EA3EC00F0200EA3EC34
:1027600000F0200EA3EC00F0200EA3EC00F0200EF1
:10277000A3EC00F0FE0EA3EC00F0C00EA3EC00F002
:102780003E0EA3EC00F0230EA3EC00F0310EA3EC00
:1027900000F0200EA3EC00F0530EA3EC00F0760E38
:1027A000A3EC00F0690EA3EC00F0740EA3EC00F0B3
:1027B000610EA3EC00F06E0EA3EC00F06A0EA3EC29
:1027C00000F0650EA3EC00F0200EA3EC00F04F0E1D
:1027D000A3EC00F0460EA3EC00F0460EA3EC00F0D4
:1027E000200EA3EC00F0200EA3EC00F0200EA3ECD2
:1027F00000F0200EA3EC00F0200EA3EC00F0A5EFFB
:102800001BF0040044501008D8A484EF14F0FE0E0E
:10281000A3EC00F0020EA3EC00F03E0EA3EC00F0DF
:10282000230EA3EC00F0310EA3EC00F0200EA3EC7D
:1028300000F0530EA3EC00F0750EA3EC00F06D0E4B
:10284000A3EC00F0720EA3EC00F0610EA3EC00F01C
:102850006B0EA3EC00F0200EA3EC00F04F0EA3ECE7
:1028600000F04E0EA3EC00F0200EA3EC00F0200EC2
:10287000A3EC00F0200EA3EC00F0200EA3EC00F07F
:10288000200EA3EC00F0FE0EA3EC00F0C00EA3ECB3
:1028900000F0200EA3EC00F0230EA3EC00F0310EAC
:1028A000A3EC00F0200EA3EC00F0530EA3EC00F01C
:1028B000750EA3EC00F06D0EA3EC00F0720EA3EC0D
:1028C00000F0610EA3EC00F06B0EA3EC00F0200E04
:1028D000A3EC00F04F0EA3EC00F0460EA3EC00F0CA
:1028E000460EA3EC00F0200EA3EC00F0200EA3ECAB
:1028F00000F0200EA3EC00F0200EA3EC00F0200E60
:10290000A3EC00F0A5EF1BF0040044501408D8A479
:1029100007EF15F0FE0EA3EC00F0020EA3EC00F0A2
:10292000200EA3EC00F0230EA3EC00F0310EA3EC7C
:1029300000F0200EA3EC00F0530EA3EC00F0750E97
:10294000A3EC00F06D0EA3EC00F0720EA3EC00F00F
:10295000610EA3EC00F06B0EA3EC00F0200EA3ECD4
:1029600000F04F0EA3EC00F04E0EA3EC00F0200E92
:10297000A3EC00F0200EA3EC00F0200EA3EC00F07E
:10298000200EA3EC00F0200EA3EC00F0FE0EA3EC52
:1029900000F0C00EA3EC00F03E0EA3EC00F0230EFE
:1029A000A3EC00F0310EA3EC00F0200EA3EC00F03D
:1029B000530EA3EC00F0750EA3EC00F06D0EA3EC2B
:1029C00000F0720EA3EC00F0610EA3EC00F06B0EB1
:1029D000A3EC00F0200EA3EC00F04F0EA3EC00F0EF
:1029E000460EA3EC00F0460EA3EC00F0200EA3EC84
:1029F00000F0200EA3EC00F0200EA3EC00F0200E5F
:102A0000A3EC00F0200EA3EC00F0A5EF1BF00400F7
:102A100044501808D8A496EF15F0FE0EA3EC00F071
:102A2000020EA3EC00F03E0EA3EC00F0230EA3EC8C
:102A300000F0320EA3EC00F0200EA3EC00F0530ED9
:102A4000A3EC00F0760EA3EC00F0690EA3EC00F00E
:102A5000740EA3EC00F0610EA3EC00F06E0EA3EC7C
:102A600000F06A0EA3EC00F0650EA3EC00F0200E5F
:102A7000A3EC00F04F0EA3EC00F04E0EA3EC00F020
:102A8000200EA3EC00F0200EA3EC00F0200EA3EC2F
:102A900000F0200EA3EC00F0200EA3EC00F0FE0EE0
:102AA000A3EC00F0C00EA3EC00F0200EA3EC00F0AD
:102AB000230EA3EC00F0320EA3EC00F0200EA3ECEA
:102AC00000F0530EA3EC00F0760EA3EC00F0690EBC
:102AD000A3EC00F0740EA3EC00F0610EA3EC00F088
:102AE0006E0EA3EC00F06A0EA3EC00F0650EA3ECF2
:102AF00000F0200EA3EC00F04F0EA3EC00F0460E09
:102B0000A3EC00F0460EA3EC00F0200EA3EC00F0C6
:102B1000200EA3EC00F0200EA3EC00F0200EA3EC9E
:102B200000F0200EA3EC00F0A5EF1BF004004450D1
:102B30001C08D8A425EF16F0FE0EA3EC00F0020E40
:102B4000A3EC00F0200EA3EC00F0230EA3EC00F0A9
:102B5000320EA3EC00F0200EA3EC00F0530EA3EC19
:102B600000F0760EA3EC00F0690EA3EC00F0740EFA
:102B7000A3EC00F0610EA3EC00F06E0EA3EC00F0ED
:102B80006A0EA3EC00F0650EA3EC00F0200EA3EC9F
:102B900000F04F0EA3EC00F04E0EA3EC00F0200E60
:102BA000A3EC00F0200EA3EC00F0200EA3EC00F04C
:102BB000200EA3EC00F0200EA3EC00F0FE0EA3EC20
:102BC00000F0C00EA3EC00F03E0EA3EC00F0230ECC
:102BD000A3EC00F0320EA3EC00F0200EA3EC00F00A
:102BE000530EA3EC00F0760EA3EC00F0690EA3ECFC
:102BF00000F0740EA3EC00F0610EA3EC00F06E0E7A
:102C0000A3EC00F06A0EA3EC00F0650EA3EC00F05C
:102C1000200EA3EC00F04F0EA3EC00F0460EA3EC48
:102C200000F0460EA3EC00F0200EA3EC00F0200E06
:102C3000A3EC00F0200EA3EC00F0200EA3EC00F0BB
:102C4000200EA3EC00F0A5EF1BF004004450200878
:102C5000D8A4A8EF16F0FE0EA3EC00F0020EA3EC31
:102C600000F03E0EA3EC00F0230EA3EC00F0320EB9
:102C7000A3EC00F0200EA3EC00F0530EA3EC00F048
:102C8000750EA3EC00F06D0EA3EC00F0720EA3EC39
:102C900000F0610EA3EC00F06B0EA3EC00F0200E30
:102CA000A3EC00F04F0EA3EC00F04E0EA3EC00F0EE
:102CB000200EA3EC00F0200EA3EC00F0200EA3ECFD
:102CC00000F0200EA3EC00F0200EA3EC00F0FE0EAE
:102CD000A3EC00F0C00EA3EC00F0200EA3EC00F07B
:102CE000230EA3EC00F0320EA3EC00F0200EA3ECB8
:102CF00000F0530EA3EC00F0750EA3EC00F06D0E87
:102D0000A3EC00F0720EA3EC00F0610EA3EC00F057
:102D10006B0EA3EC00F0200EA3EC00F04F0EA3EC22
:102D200000F0460EA3EC00F0460EA3EC00F0200EDF
:102D3000A3EC00F0200EA3EC00F0200EA3EC00F0BA
:102D4000200EA3EC00F0200EA3EC00F0A5EF1BF08A
:102D5000040044502408D8A42BEF17F0FE0EA3EC77
:102D600000F0020EA3EC00F0200EA3EC00F0230E06
:102D7000A3EC00F0320EA3EC00F0200EA3EC00F068
:102D8000530EA3EC00F0750EA3EC00F06D0EA3EC57
:102D900000F0720EA3EC00F0610EA3EC00F06B0EDD
:102DA000A3EC00F0200EA3EC00F04F0EA3EC00F01B
:102DB0004E0EA3EC00F0200EA3EC00F0200EA3ECCE
:102DC00000F0200EA3EC00F0200EA3EC00F0200E8B
:102DD000A3EC00F0FE0EA3EC00F0C00EA3EC00F09C
:102DE0003E0EA3EC00F0230EA3EC00F0320EA3EC99
:102DF00000F0200EA3EC00F0530EA3EC00F0750ED3
:102E0000A3EC00F06D0EA3EC00F0720EA3EC00F04A
:102E1000610EA3EC00F06B0EA3EC00F0200EA3EC0F
:102E200000F04F0EA3EC00F0460EA3EC00F0460EAF
:102E3000A3EC00F0200EA3EC00F0200EA3EC00F0B9
:102E4000200EA3EC00F0200EA3EC00F0200EA3EC6B
:102E500000F0A5EF1BF0040044502808D8A4BAEFF6
:102E600017F0FE0EA3EC00F0020EA3EC00F03E0EF5
:102E7000A3EC00F0230EA3EC00F0330EA3EC00F063
:102E8000200EA3EC00F0530EA3EC00F0760EA3ECA2
:102E900000F0690EA3EC00F0740EA3EC00F0610EDC
:102EA000A3EC00F06E0EA3EC00F06A0EA3EC00F0B1
:102EB000650EA3EC00F0200EA3EC00F04F0EA3EC87
:102EC00000F04E0EA3EC00F0200EA3EC00F0200E5C
:102ED000A3EC00F0200EA3EC00F0200EA3EC00F019
:102EE000200EA3EC00F0FE0EA3EC00F0C00EA3EC4D
:102EF00000F0200EA3EC00F0230EA3EC00F0330E44
:102F0000A3EC00F0200EA3EC00F0530EA3EC00F0B5
:102F1000760EA3EC00F0690EA3EC00F0740EA3ECA7
:102F200000F0610EA3EC00F06E0EA3EC00F06A0E50
:102F3000A3EC00F0650EA3EC00F0200EA3EC00F073
:102F40004F0EA3EC00F0460EA3EC00F0460EA3ECEF
:102F500000F0200EA3EC00F0200EA3EC00F0200EF9
:102F6000A3EC00F0200EA3EC00F0200EA3EC00F088
:102F7000A5EF1BF0040044502C08D8A449EF18F02A
:102F8000FE0EA3EC00F0020EA3EC00F0200EA3EC6A
:102F900000F0230EA3EC00F0330EA3EC00F0200EA3
:102FA000A3EC00F0530EA3EC00F0760EA3EC00F0BF
:102FB000690EA3EC00F0740EA3EC00F0610EA3EC1C
:102FC00000F06E0EA3EC00F06A0EA3EC00F0650EAC
:102FD000A3EC00F0200EA3EC00F04F0EA3EC00F0E9
:102FE0004E0EA3EC00F0200EA3EC00F0200EA3EC9C
:102FF00000F0200EA3EC00F0200EA3EC00F0200E59
:10300000A3EC00F0FE0EA3EC00F0C00EA3EC00F069
:103010003E0EA3EC00F0230EA3EC00F0330EA3EC65
:1030200000F0200EA3EC00F0530EA3EC00F0760E9F
:10303000A3EC00F0690EA3EC00F0740EA3EC00F01A
:10304000610EA3EC00F06E0EA3EC00F06A0EA3EC90
:1030500000F0650EA3EC00F0200EA3EC00F04F0E84
:10306000A3EC00F0460EA3EC00F0460EA3EC00F03B
:10307000200EA3EC00F0200EA3EC00F0200EA3EC39
:1030800000F0200EA3EC00F0200EA3EC00F0A5EF62
:103090001BF0040044503008D8A4CCEF18F0FE0E0A
:1030A000A3EC00F0020EA3EC00F03E0EA3EC00F047
:1030B000230EA3EC00F0330EA3EC00F0200EA3ECE3
:1030C00000F0530EA3EC00F0750EA3EC00F06D0EB3
:1030D000A3EC00F0720EA3EC00F0610EA3EC00F084
:1030E0006B0EA3EC00F0200EA3EC00F04F0EA3EC4F
:1030F00000F04E0EA3EC00F0200EA3EC00F0200E2A
:10310000A3EC00F0200EA3EC00F0200EA3EC00F0E6
:10311000200EA3EC00F0FE0EA3EC00F0C00EA3EC1A
:1031200000F0200EA3EC00F0230EA3EC00F0330E11
:10313000A3EC00F0200EA3EC00F0530EA3EC00F083
:10314000750EA3EC00F06D0EA3EC00F0720EA3EC74
:1031500000F0610EA3EC00F06B0EA3EC00F0200E6B
:10316000A3EC00F04F0EA3EC00F0460EA3EC00F031
:10317000460EA3EC00F0200EA3EC00F0200EA3EC12
:1031800000F0200EA3EC00F0200EA3EC00F0200EC7
:10319000A3EC00F0A5EF1BF0040044503408D8A4C1
:1031A0004FEF19F0FE0EA3EC00F0020EA3EC00F0BE
:1031B000200EA3EC00F0230EA3EC00F0330EA3ECE2
:1031C00000F0200EA3EC00F0530EA3EC00F0750EFF
:1031D000A3EC00F06D0EA3EC00F0720EA3EC00F077
:1031E000610EA3EC00F06B0EA3EC00F0200EA3EC3C
:1031F00000F04F0EA3EC00F04E0EA3EC00F0200EFA
:10320000A3EC00F0200EA3EC00F0200EA3EC00F0E5
:10321000200EA3EC00F0200EA3EC00F0FE0EA3ECB9
:1032200000F0C00EA3EC00F03E0EA3EC00F0230E65
:10323000A3EC00F0330EA3EC00F0200EA3EC00F0A2
:10324000530EA3EC00F0750EA3EC00F06D0EA3EC92
:1032500000F0720EA3EC00F0610EA3EC00F06B0E18
:10326000A3EC00F0200EA3EC00F04F0EA3EC00F056
:10327000460EA3EC00F0460EA3EC00F0200EA3ECEB
:1032800000F0200EA3EC00F0200EA3EC00F0200EC6
:10329000A3EC00F0200EA3EC00F0A5EF1BF004005F
:1032A00044503808D8A4DEEF19F0FE0EA3EC00F06D
:1032B000020EA3EC00F03E0EA3EC00F0230EA3ECF4
:1032C00000F0340EA3EC00F0200EA3EC00F0530E3F
:1032D000A3EC00F0760EA3EC00F0690EA3EC00F076
:1032E000740EA3EC00F0610EA3EC00F06E0EA3ECE4
:1032F00000F06A0EA3EC00F0650EA3EC00F0200EC7
:10330000A3EC00F04F0EA3EC00F04E0EA3EC00F087
:10331000200EA3EC00F0200EA3EC00F0200EA3EC96
:1033200000F0200EA3EC00F0200EA3EC00F0FE0E47
:10333000A3EC00F0C00EA3EC00F0200EA3EC00F014
:10334000230EA3EC00F0340EA3EC00F0200EA3EC4F
:1033500000F0530EA3EC00F0760EA3EC00F0690E23
:10336000A3EC00F0740EA3EC00F0610EA3EC00F0EF
:103370006E0EA3EC00F06A0EA3EC00F0650EA3EC59
:1033800000F0200EA3EC00F04F0EA3EC00F0460E70
:10339000A3EC00F0460EA3EC00F0200EA3EC00F02E
:1033A000200EA3EC00F0200EA3EC00F0200EA3EC06
:1033B00000F0200EA3EC00F0A5EF1BF00400445039
:1033C0003C08D8A46DEF1AF0FE0EA3EC00F0020E3C
:1033D000A3EC00F0200EA3EC00F0230EA3EC00F011
:1033E000340EA3EC00F0200EA3EC00F0530EA3EC7F
:1033F00000F0760EA3EC00F0690EA3EC00F0740E62
:10340000A3EC00F0610EA3EC00F06E0EA3EC00F054
:103410006A0EA3EC00F0650EA3EC00F0200EA3EC06
:1034200000F04F0EA3EC00F04E0EA3EC00F0200EC7
:10343000A3EC00F0200EA3EC00F0200EA3EC00F0B3
:10344000200EA3EC00F0200EA3EC00F0FE0EA3EC87
:1034500000F0C00EA3EC00F03E0EA3EC00F0230E33
:10346000A3EC00F0340EA3EC00F0200EA3EC00F06F
:10347000530EA3EC00F0760EA3EC00F0690EA3EC63
:1034800000F0740EA3EC00F0610EA3EC00F06E0EE1
:10349000A3EC00F06A0EA3EC00F0650EA3EC00F0C4
:1034A000200EA3EC00F04F0EA3EC00F0460EA3ECB0
:1034B00000F0460EA3EC00F0200EA3EC00F0200E6E
:1034C000A3EC00F0200EA3EC00F0200EA3EC00F023
:1034D000200EA3EC00F0A5EF1BF0040044504008C0
:1034E000D8A4F0EF1AF0FE0EA3EC00F0020EA3EC4D
:1034F00000F03E0EA3EC00F0230EA3EC00F0340E1F
:10350000A3EC00F0200EA3EC00F0530EA3EC00F0AF
:10351000750EA3EC00F06D0EA3EC00F0720EA3ECA0
:1035200000F0610EA3EC00F06B0EA3EC00F0200E97
:10353000A3EC00F04F0EA3EC00F04E0EA3EC00F055
:10354000200EA3EC00F0200EA3EC00F0200EA3EC64
:1035500000F0200EA3EC00F0200EA3EC00F0FE0E15
:10356000A3EC00F0C00EA3EC00F0200EA3EC00F0E2
:10357000230EA3EC00F0340EA3EC00F0200EA3EC1D
:1035800000F0530EA3EC00F0750EA3EC00F06D0EEE
:10359000A3EC00F0720EA3EC00F0610EA3EC00F0BF
:1035A0006B0EA3EC00F0200EA3EC00F04F0EA3EC8A
:1035B00000F0460EA3EC00F0460EA3EC00F0200E47
:1035C000A3EC00F0200EA3EC00F0200EA3EC00F022
:1035D000200EA3EC00F0200EA3EC00F0A5EF1BF0F2
:1035E000040044504408D8A473EF1BF0FE0EA3EC73
:1035F00000F0020EA3EC00F0200EA3EC00F0230E6E
:10360000A3EC00F0340EA3EC00F0200EA3EC00F0CD
:10361000530EA3EC00F0750EA3EC00F06D0EA3ECBE
:1036200000F0720EA3EC00F0610EA3EC00F06B0E44
:10363000A3EC00F0200EA3EC00F04F0EA3EC00F082
:103640004E0EA3EC00F0200EA3EC00F0200EA3EC35
:1036500000F0200EA3EC00F0200EA3EC00F0200EF2
:10366000A3EC00F0FE0EA3EC00F0C00EA3EC00F003
:103670003E0EA3EC00F0230EA3EC00F0340EA3ECFE
:1036800000F0200EA3EC00F0530EA3EC00F0750E3A
:10369000A3EC00F06D0EA3EC00F0720EA3EC00F0B2
:1036A000610EA3EC00F06B0EA3EC00F0200EA3EC77
:1036B00000F04F0EA3EC00F0460EA3EC00F0460E17
:1036C000A3EC00F0200EA3EC00F0200EA3EC00F021
:1036D000200EA3EC00F0200EA3EC00F0200EA3ECD3
:1036E00000F0A5EF1BF0040044504808D8A4A5EF53
:1036F0001BF0030EA96E55EC01F05F6E04005F50E5
:103700000108D8A486EF1BF076EF04F004005F50A8
:103710000208D8A4A5EF1BF0416A010E436E500EBB
:10372000A96E55EC01F0726F510EA96E55EC01F0C7
:10373000736F520EA96E55EC01F0746F530EA96EA3
:1037400055EC01F0756FC6EF05F0040032B0D2EF12
:103750001EF032A8D2EF1EF05F6A336A346A72C07C
:1037600059F073C05AF074C05BF075C05CF004008F
:1037700081AAD2EF1EF0436A040044500008D8A486
:10378000C4EF1BF017EF24F0040044500408D8A441
:10379000D1EF1BF0030EA96E55EC01F05F6EE6EF62
:1037A0001EF0040044500808D8A403EF1CF0010EDA
:1037B000426E010E5E6E010E4E6E010E436E726B16
:1037C00044C0A9FF55EC01F0566E44282A6E2B6ABE
:1037D0002C6A2D6A2B362AC0A9FF55EC01F0456EE4
:1037E000020E44242A6E2B6A2C6A2D6A000E2B22AC
:1037F000000E2C22000E2D222AC0A9FF55EC01F04C
:103800004A6E06EF20F0040044500C08D8A433EFB1
:103810001CF0010E426E010E5E6E4E6A010E436E8A
:1038200044C0A9FF55EC01F0566E44282A6E2B6A5D
:103830002C6A2D6A2B362AC0A9FF55EC01F0456E83
:10384000020E44242A6E2B6A2C6A2D6A000E2B224B
:10385000000E2C22000E2D222AC0A9FF55EC01F0EB
:103860004A6E06EF20F0040044501008D8A463EF1D
:103870001CF0010E426E5E6A010E4E6E010E436E2A
:1038800044C0A9FF55EC01F0566E44282A6E2B6AFD
:103890002C6A2D6A2B362AC0A9FF55EC01F0456E23
:1038A000020E44242A6E2B6A2C6A2D6A000E2B22EB
:1038B000000E2C22000E2D222AC0A9FF55EC01F08B
:1038C0004A6E06EF20F0040044501408D8A492EF8A
:1038D0001CF0010E426E5E6A4E6A010E436E44C0D9
:1038E000A9FF55EC01F0566E44282A6E2B6A2C6A0B
:1038F0002D6A2B362AC0A9FF55EC01F0456E020E49
:1039000044242A6E2B6A2C6A2D6A000E2B22000E8C
:103910002C22000E2D222AC0A9FF55EC01F04A6E80
:1039200006EF20F0040044501808D8A4C3EF1CF0A0
:10393000020E426E010E5E6E010E4E6E010E436E61
:1039400044C0A9FF55EC01F0566E44282A6E2B6A3C
:103950002C6A2D6A2B362AC0A9FF55EC01F0456E62
:10396000020E44242A6E2B6A2C6A2D6A000E2B222A
:10397000000E2C22000E2D222AC0A9FF55EC01F0CA
:103980004A6E06EF20F0040044501C08D8A4F3EF60
:103990001CF0020E426E010E5E6E4E6A010E436E08
:1039A00044C0A9FF55EC01F0566E44282A6E2B6ADC
:1039B0002C6A2D6A2B362AC0A9FF55EC01F0456E02
:1039C000020E44242A6E2B6A2C6A2D6A000E2B22CA
:1039D000000E2C22000E2D222AC0A9FF55EC01F06A
:1039E0004A6E06EF20F0040044502008D8A423EFCC
:1039F0001DF0020E426E5E6A010E4E6E010E436EA7
:103A000044C0A9FF55EC01F0566E44282A6E2B6A7B
:103A10002C6A2D6A2B362AC0A9FF55EC01F0456EA1
:103A2000020E44242A6E2B6A2C6A2D6A000E2B2269
:103A3000000E2C22000E2D222AC0A9FF55EC01F009
:103A40004A6E06EF20F0040044502408D8A452EF38
:103A50001DF0020E426E5E6A4E6A010E436E44C055
:103A6000A9FF55EC01F0566E44282A6E2B6A2C6A89
:103A70002D6A2B362AC0A9FF55EC01F0456E020EC7
:103A800044242A6E2B6A2C6A2D6A000E2B22000E0B
:103A90002C22000E2D222AC0A9FF55EC01F04A6EFF
:103AA00006EF20F0040044502808D8A483EF1DF04E
:103AB000030E426E010E5E6E010E4E6E010E436EDF
:103AC00044C0A9FF55EC01F0566E44282A6E2B6ABB
:103AD0002C6A2D6A2B362AC0A9FF55EC01F0456EE1
:103AE000020E44242A6E2B6A2C6A2D6A000E2B22A9
:103AF000000E2C22000E2D222AC0A9FF55EC01F049
:103B00004A6E06EF20F0040044502C08D8A4B3EF0E
:103B10001DF0030E426E010E5E6E4E6A010E436E84
:103B200044C0A9FF55EC01F0566E44282A6E2B6A5A
:103B30002C6A2D6A2B362AC0A9FF55EC01F0456E80
:103B4000020E44242A6E2B6A2C6A2D6A000E2B2248
:103B5000000E2C22000E2D222AC0A9FF55EC01F0E8
:103B60004A6E06EF20F0040044503008D8A4E3EF7A
:103B70001DF0030E426E5E6A010E4E6E010E436E24
:103B800044C0A9FF55EC01F0566E44282A6E2B6AFA
:103B90002C6A2D6A2B362AC0A9FF55EC01F0456E20
:103BA000020E44242A6E2B6A2C6A2D6A000E2B22E8
:103BB000000E2C22000E2D222AC0A9FF55EC01F088
:103BC0004A6E06EF20F0040044503408D8A412EFE7
:103BD0001EF0030E426E5E6A4E6A010E436E44C0D2
:103BE000A9FF55EC01F0566E44282A6E2B6A2C6A08
:103BF0002D6A2B362AC0A9FF55EC01F0456E020E46
:103C000044242A6E2B6A2C6A2D6A000E2B22000E89
:103C10002C22000E2D222AC0A9FF55EC01F04A6E7D
:103C200006EF20F0040044503808D8A443EF1EF0FB
:103C3000040E426E010E5E6E010E4E6E010E436E5C
:103C400044C0A9FF55EC01F0566E44282A6E2B6A39
:103C50002C6A2D6A2B362AC0A9FF55EC01F0456E5F
:103C6000020E44242A6E2B6A2C6A2D6A000E2B2227
:103C7000000E2C22000E2D222AC0A9FF55EC01F0C7
:103C80004A6E06EF20F0040044503C08D8A473EFBD
:103C90001EF0040E426E010E5E6E4E6A010E436E01
:103CA00044C0A9FF55EC01F0566E44282A6E2B6AD9
:103CB0002C6A2D6A2B362AC0A9FF55EC01F0456EFF
:103CC000020E44242A6E2B6A2C6A2D6A000E2B22C7
:103CD000000E2C22000E2D222AC0A9FF55EC01F067
:103CE0004A6E06EF20F0040044504008D8A4A3EF29
:103CF0001EF0040E426E5E6A010E4E6E010E436EA1
:103D000044C0A9FF55EC01F0566E44282A6E2B6A78
:103D10002C6A2D6A2B362AC0A9FF55EC01F0456E9E
:103D2000020E44242A6E2B6A2C6A2D6A000E2B2266
:103D3000000E2C22000E2D222AC0A9FF55EC01F006
:103D40004A6E06EF20F0040044504408D8A4D2EF95
:103D50001EF0040E426E5E6A4E6A010E436E44C04F
:103D6000A9FF55EC01F0566E44282A6E2B6A2C6A86
:103D70002D6A2B362AC0A9FF55EC01F0456E020EC4
:103D800044242A6E2B6A2C6A2D6A000E2B22000E08
:103D90002C22000E2D222AC0A9FF55EC01F04A6EFC
:103DA00006EF20F008EC08F032B4328C32A4329CDA
:103DB00032B0328832A0329832B2328A32A2329A8B
:103DC00032B6328E32A6329E4DEF11F0818A81B624
:103DD000328681A6329681B0328481A0329481B439
:103DE000328281A43292040032B6FDEF1EF032AE70
:103DF000FDEF1EF0416A4DEF11F0040032B415EFF3
:103E00001FF032AC15EF1FF004005F500108D8A47A
:103E10000EEF1FF0020E5F6E10EF1FF0010E5F6ECF
:103E2000030EA96E5F505CEC01F0040032B22DEF7E
:103E30001FF032AA2DEF1FF004005F500108D8A434
:103E400026EF1FF0020E5F6E28EF1FF0010E5F6E6F
:103E5000030EA96E5F505CEC01F0FE0EA3EC00F0C7
:103E6000020EA3EC00F0520EA3EC00F0650EA3ECE2
:103E700000F07A0EA3EC00F0690EA3EC00F06D0EDA
:103E8000A3EC00F0200EA3EC00F0720EA3EC00F007
:103E9000610EA3EC00F0640EA3EC00F0610EA3EC45
:103EA00000F0200EA3EC00F0200EA3EC00F0200E9A
:103EB000A3EC00F0200EA3EC00F0200EA3EC00F029
:103EC000200EA3EC00F0200EA3EC00F0200EA3ECDB
:103ED00000F0200EA3EC00F0200EA3EC00F0040094
:103EE0005F500108D8A4B4EF1FF0FE0EA3EC00F061
:103EF000C00EA3EC00F03E0EA3EC00F0410EA3ECCC
:103F000000F0750EA3EC00F0740EA3EC00F06F0E41
:103F1000A3EC00F06D0EA3EC00F0610EA3EC00F03A
:103F2000740EA3EC00F0730EA3EC00F06B0EA3EC88
:103F300000F0690EA3EC00F0200EA3EC00F0200EC0
:103F4000A3EC00F0200EA3EC00F0200EA3EC00F098
:103F5000200EA3EC00F0200EA3EC00F0200EA3EC4A
:103F600000F0200EA3EC00F004005F500208D8A47B
:103F7000F9EF1FF0FE0EA3EC00F0C00EA3EC00F072
:103F80003E0EA3EC00F0520EA3EC00F0750EA3EC75
:103F900000F0630EA3EC00F06E0EA3EC00F06F0EC9
:103FA000A3EC00F0200EA3EC00F0200EA3EC00F038
:103FB000200EA3EC00F0200EA3EC00F0200EA3ECEA
:103FC00000F0200EA3EC00F0200EA3EC00F0200E79
:103FD000A3EC00F0200EA3EC00F0200EA3EC00F008
:103FE000200EA3EC00F0200EA3EC00F0200EA3ECBA
:103FF00000F032B6328E32A6329E32B4328C32A407
:10400000329C32B2328A32A2329AE0D6818A81B6AA
:10401000328681A6329681B2328081A2329081B0FE
:10402000328481A0329481B4328281A4329204001D
:1040300032B02FEF20F032A82FEF20F05F2A0400DB
:10404000020E5F5CD8A02FEF20F05F6A432A0400C5
:10405000040E435CD8A02FEF20F0010E436E040045
:1040600043500108D8A43BEF20F03E0E876F200E8E
:10407000886F200E896F040043500208D8A447EFD0
:1040800020F0200E876F3E0E886F200E896F04008F
:1040900043500308D8A453EF20F0200E876F200E62
:1040A000886F3E0E896F040081B0A8EF20F00400F5
:1040B00043500108D8A46BEF20F0562A0400180ED4
:1040C000565CD8A066EF20F0170E566E44C0A9FFCC
:1040D00056505CEC01F0040043500208D8A485EF70
:1040E00020F0452A04003C0E455CD8A07AEF20F071
:1040F0003B0E456E44282A6E2B6A2C6A2D6A2B369D
:104100002AC0A9FF45505CEC01F0040043500308AD
:10411000D8A4A5EF20F04A2A0400650E4A5CD8A076
:1041200094EF20F0640E4A6E020E44242A6E2B6A2D
:104130002C6A2D6A000E2B22000E2C22000E2D223E
:104140002AC0A9FF4A505CEC01F03C0E6AEC01F079
:10415000040081B43FEF21F0040043500108D8A4CB
:10416000D6EF20F0560656C01AF0010EA8EC01F06A
:104170002A6E56C01AF0170EA2EC01F02E6E2AC05D
:104180001AF02E50D2EC01F02E6E2F6E306E316E82
:1041900004002E502F1030103110D8B4D1EF20F081
:1041A000566A44C0A9FF56505CEC01F0040043502D
:1041B0000208D8A406EF21F0450645C01AF0010E0A
:1041C000A8EC01F02A6E45C01AF03B0EA2EC01F0FB
:1041D0002E6E2AC01AF02E50D2EC01F02E6E2F6EE9
:1041E000306E316E04002E502F1030103110D8B4C4
:1041F000FBEF20F0456A44282A6E2B6A2C6A2D6A50
:104200002B362AC0A9FF45505CEC01F00400435056
:104210000308D8A43CEF21F04A064AC01AF0010E68
:10422000A8EC01F02A6E4AC01AF0640EA2EC01F06C
:104230002E6E2AC01AF02E50D2EC01F02E6E2F6E88
:10424000306E316E04002E502F1030103110D8B463
:104250002BEF21F04A6A020E44242A6E2B6A2C6A44
:104260002D6A000E2B22000E2C22000E2D222AC0B9
:10427000A9FF4A505CEC01F03C0E6AEC01F004002E
:10428000180E565CD8A046EF21F0566A04003C0E8A
:10429000455CD8A04DEF21F0456A0400650E4A5CEC
:1042A000D8A054EF21F04A6A04005E500108D8A457
:1042B000F1EF21F004004E500108D8A4AAEF21F03C
:1042C000FE0EA3EC00F0020EA3EC00F0530EA3ECE4
:1042D00000F0760EA3EC00F0690EA3EC00F0740E73
:1042E000A3EC00F02E0EA3EC00F0200EA3EC00F0E7
:1042F000230EA3EC00F042507EEC00F0200EA3EC65
:1043000000F0200EA3EC00F04F0EA3EC00F04E0ED8
:10431000A3EC00F0200EA3EC00F0200EA3EC00F0C4
:10432000200EA3EC00F0200EA3EC00F0200EA3EC76
:1043300000F0200EA3EC00F0200EA3EC00F0200E05
:10434000A3EC00F0200EA3EC00F0200EA3EC00F094
:10435000EFEF21F0FE0EA3EC00F0020EA3EC00F054
:10436000530EA3EC00F0760EA3EC00F0690EA3EC64
:1043700000F0740EA3EC00F02E0EA3EC00F0200E63
:10438000A3EC00F0230EA3EC00F042507EEC00F012
:10439000200EA3EC00F0200EA3EC00F04F0EA3ECD7
:1043A00000F0460EA3EC00F0460EA3EC00F0200E49
:1043B000A3EC00F0200EA3EC00F0200EA3EC00F024
:1043C000200EA3EC00F0200EA3EC00F0200EA3ECD6
:1043D00000F0200EA3EC00F0200EA3EC00F086EF1E
:1043E00022F004004E500108D8A441EF22F0FE0E46
:1043F000A3EC00F0020EA3EC00F0530EA3EC00F0CF
:10440000750EA3EC00F06D0EA3EC00F0720EA3ECA1
:1044100000F02E0EA3EC00F0200EA3EC00F0230E13
:10442000A3EC00F042507EEC00F0200EA3EC00F074
:10443000200EA3EC00F04F0EA3EC00F04E0EA3EC08
:1044400000F0200EA3EC00F0200EA3EC00F0200EF4
:10445000A3EC00F0200EA3EC00F0200EA3EC00F083
:10446000200EA3EC00F0200EA3EC00F0200EA3EC35
:1044700000F0200EA3EC00F0200EA3EC00F086EF7D
:1044800022F0FE0EA3EC00F0020EA3EC00F0530E9F
:10449000A3EC00F0750EA3EC00F06D0EA3EC00F0A1
:1044A000720EA3EC00F02E0EA3EC00F0200EA3EC95
:1044B00000F0230EA3EC00F042507EEC00F0200E42
:1044C000A3EC00F0200EA3EC00F04F0EA3EC00F0E4
:1044D000460EA3EC00F0460EA3EC00F0200EA3EC79
:1044E00000F0200EA3EC00F0200EA3EC00F0200E54
:1044F000A3EC00F0200EA3EC00F0200EA3EC00F0E3
:10450000200EA3EC00F0200EA3EC00F004004350BA
:104510000308D8A4B8EF22F0040042500108D8A440
:1045200097EF22F04AC072F0736B746B756B0400E6
:1045300042500208D8A4A2EF22F0726B4AC073F076
:10454000746B756B040042500308D8A4ADEF22F0E1
:10455000726B736B4AC074F0756B040042500408B0
:10456000D8A4B8EF22F0726B736B746B4AC075F00D
:10457000FE0EA3EC00F0C00EA3EC00F08751A3ECFC
:1045800000F0020E036E56C022F0236A246A256AE8
:10459000440E0A6E010E0B6EF6EC00F03A0EA3EC20
:1045A00000F08851A3EC00F0020E036E45C022F02B
:1045B000236A246A256A440E0A6E010E0B6EF6EC1D
:1045C00000F0200EA3EC00F02A0EA3EC00F0200E69
:1045D000A3EC00F08951A3EC00F0030E036E4AC077
:1045E00022F0236A246A256A440E0A6E010E0B6EBD
:1045F000F6EC00F0250EA3EC00F0200EA3EC00F08A
:10460000200EA3EC00F0200EA3EC00F0200EA3EC93
:1046100000F0200EA3EC00F0200EA3EC00F0200E22
:10462000A3EC00F0200EA3EC00F0200EA3EC00F0B1
:10463000200EA3EC00F0200EA3EC00F0200EA3EC63
:1046400000F0200EA3EC00F0040032B638EF23F0A7
:1046500032AE38EF23F02AEC27F059C072F05AC07E
:1046600073F05BC074F05CC075F0416A4DEF11F0FF
:1046700032B6328E32A6329E32B4328C32A4329CA2
:1046800032B0328832A0329832B2328A32A2329AB2
:1046900006EF20F0830E0F6E0F0E116E010E0D6EE1
:1046A000830E106E0F0E126E020E0E6ED00E29ECDF
:1046B00000F0000E29EC00F010EC00F0546E10EC4D
:1046C00000F0526E10EC00F0516E10EC00F0506EE5
:1046D00010EC00F04F6E10EC00F0536E0EEC00F09A
:1046E000556EF00E52142A6E2B6A2C6A2D6A2AC05F
:1046F0001AF02BC01BF02CC01CF02DC01DF0040EB6
:1047000097EC01F02A6E1BC02BF01CC02CF01DC0D2
:104710002DF02AC026F02BC027F02CC028F02DC089
:1047200029F00A0E1E6E1F6A206A216A1BEC02F035
:104730002A6E23C02BF024C02CF025C02DF00F0EC4
:1047400052142E6E2F6A306A316A2A502E243B6E24
:10475000F00E51142A6E2B6A2C6A2D6A2AC01AF0A8
:104760002BC01BF02CC01CF02DC01DF0040E97ECCC
:1047700001F02A6E1BC02BF01CC02CF01DC02DF0C8
:104780002AC026F02BC027F02CC028F02DC029F01D
:104790000A0E1E6E1F6A206A216A1BEC02F02A6E46
:1047A00023C02BF024C02CF025C02DF00F0E511487
:1047B0002E6E2F6A306A316A2A502E243C6EF00E1B
:1047C00054142A6E2B6A2C6A2D6A2AC01AF02BC048
:1047D0001BF02CC01CF02DC01DF0040E97EC01F056
:1047E0002A6E1BC02BF01CC02CF01DC02DF02AC05F
:1047F00026F02BC027F02CC028F02DC029F00A0E7F
:104800001E6E1F6A206A216A1BEC02F02A6E23C00A
:104810002BF024C02CF025C02DF00F0E54142E6E5A
:104820002F6A306A316A2A502E243D6E1200818A26
:1048300081B6328681A6329681B2328081A23290D0
:1048400081B0328481A0329481B4328281A43292C8
:10485000040032B038EF24F032A838EF24F0432AB5
:104860000400030E435CD8A038EF24F0010E436E21
:10487000040032B642EF24F032AE42EF24F0416A37
:104880004DEF11F0040043500108D8A44EEF24F07E
:104890003E0E876F200E886F58EF24F004004350BF
:1048A0000208D8A458EF24F0200E876F3E0E886FC0
:1048B000040081B080EF24F0040043500108D8A424
:1048C0006EEF24F03C2A0400180E3C5CD8A06BEF7D
:1048D00024F0170E3C6E3C0E6AEC01F004004350CD
:1048E0000208D8A47DEF24F03B2A04003C0E3B5C78
:1048F000D8A07DEF24F03B0E3B6E3C0E6AEC01F03D
:10490000040081B4D4EF24F0040043500108D8A47B
:10491000ACEF24F03C063CC01AF0010EA8EC01F00C
:104920002A6E3CC01AF0170EA2EC01F02E6E2AC0BF
:104930001AF02E50D2EC01F02E6E2F6E306E316ECA
:1049400004002E502F1030103110D8B4A9EF24F0ED
:104950003C6A3C0E6AEC01F0040043500208D8A403
:10496000D4EF24F03B063BC01AF0010EA8EC01F096
:104970002A6E3BC01AF03B0EA2EC01F02E6E2AC04C
:104980001AF02E50D2EC01F02E6E2F6E306E316E7A
:1049900004002E502F1030103110D8B4D1EF24F075
:1049A0003B6A3C0E6AEC01F0FE0EA3EC00F0020E36
:1049B000A3EC00F0520EA3EC00F0540EA3EC00F0B8
:1049C000430EA3EC00F0200EA3EC00F0200EA3ECAD
:1049D00000F0560EA3EC00F0520EA3EC00F0450ED2
:1049E000A3EC00F04D0EA3EC00F0450EA3EC00F09C
:1049F000200EA3EC00F0200EA3EC00F0200EA3ECA0
:104A000000F0200EA3EC00F0200EA3EC00F0200E2E
:104A1000A3EC00F0200EA3EC00F0200EA3EC00F0BD
:104A2000200EA3EC00F0200EA3EC00F0200EA3EC6F
:104A300000F0200EA3EC00F0FE0EA3EC00F0C00E80
:104A4000A3EC00F08751A3EC00F0020E036E3CC013
:104A500022F0236A246A256A440E0A6E010E0B6E48
:104A6000F6EC00F03A0EA3EC00F08851A3EC00F055
:104A7000020E036E3BC022F0236A246A256A440EAC
:104A80000A6E010E0B6EF6EC00F0200EA3EC00F0A7
:104A9000200EA3EC00F0200EA3EC00F0200EA3ECFF
:104AA00000F0200EA3EC00F0200EA3EC00F0200E8E
:104AB000A3EC00F0200EA3EC00F0200EA3EC00F01D
:104AC000200EA3EC00F0200EA3EC00F0200EA3ECCF
:104AD00000F0200EA3EC00F0200EA3EC00F03BC091
:104AE0001AF01B6A1C6A1D6A010E86EC01F02A6E20
:104AF0002B6A2C6A2D6A2AC026F02BC027F02CC006
:104B000028F02DC029F0100E1E6E1F6A206A216A3F
:104B10001BEC02F02A6E23C02BF024C02CF025C021
:104B20002DF03BC01AF01B6A1C6A1D6A000E86EC51
:104B300001F02E6E2F6A306A316A2A502E24526E8E
:104B40003CC01AF01B6A1C6A1D6A010E86EC01F05B
:104B50002A6E2B6A2C6A2D6A2AC026F02BC027F0F9
:104B60002CC028F02DC029F0100E1E6E1F6A206A7E
:104B7000216A1BEC02F02A6E23C02BF024C02CF01B
:104B800025C02DF03CC01AF01B6A1C6A1D6A000E7D
:104B900086EC01F02E6E2F6A306A316A2A502E247C
:104BA000516E546A830E0F6E0F0E116E010E0D6E54
:104BB000830E106E0F0E126E020E0E6ED00E29ECCA
:104BC00000F0000E29EC00F0545029EC00F0525097
:104BD00029EC00F0515029EC00F0505029EC00F085
:104BE0004F5029EC00F0535029EC00F0555027ECC1
:104BF00000F00A0E6AEC01F032B6328E32A6329E16
:104C000032B4328C32A4329C32B0328832A0329824
:104C100032B2328A32A2329A0AD6818A81B0328482
:104C200081A0329481B4328281A43292040081A89E
:104C300039EF26F059C072F05AC073F05BC074F0BF
:104C40005CC075F0030EA96E55EC01F05F6E0400B8
:104C50005F500108D8A42FEF26F076EF04F004008F
:104C60005F500208D8A439EF26F0010E436EC6EF5C
:104C700005F0040081B04EEF26F04B2A0400650ECB
:104C80004B5CD8A046EF26F0640E4B6E020EA96E68
:104C90004B505CEC01F03C0E6AEC01F0040081B476
:104CA00079EF26F04B064BC01AF0010EA8EC01F08C
:104CB0002A6E4BC01AF0640EA2EC01F02E6E2AC0D0
:104CC0001AF02E50D2EC01F02E6E2F6E306E316E37
:104CD00004002E502F1030103110D8B471EF26F090
:104CE0004B6A020EA96E4B505CEC01F03C0E6AEC74
:104CF00001F0FE0EA3EC00F0020EA3EC00F04F0E4C
:104D0000A3EC00F0440EA3EC00F0520EA3EC00F074
:104D10005A0EA3EC00F0410EA3EC00F0560EA3ECEB
:104D200000F0410EA3EC00F04E0EA3EC00F06A0E72
:104D3000A3EC00F0450EA3EC00F0200EA3EC00F075
:104D4000250EA3EC00F0200EA3EC00F0200EA3EC47
:104D500000F0200EA3EC00F0200EA3EC00F0200EDB
:104D6000A3EC00F0200EA3EC00F0200EA3EC00F06A
:104D7000200EA3EC00F0200EA3EC00F0200EA3EC1C
:104D800000F0FE0EA3EC00F0C00EA3EC00F04B0E02
:104D9000A3EC00F0610EA3EC00F06E0EA3EC00F0AB
:104DA000610EA3EC00F06C0EA3EC00F0200EA3EC5F
:104DB00000F0230EA3EC00F0310EA3EC00F0200E67
:104DC000A3EC00F02D0EA3EC00F0200EA3EC00F0FD
:104DD000030E036E4BC022F0236A246A256A440E38
:104DE0000A6E010E0B6EF6EC00F0200EA3EC00F044
:104DF000250EA3EC00F0200EA3EC00F0200EA3EC97
:104E000000F0200EA3EC00F0200EA3EC00F0200E2A
:104E1000A3EC00F0200EA3EC00F0200EA3EC00F0B9
:104E2000200EA3EC00F0200EA3EC00F0200EA3EC6B
:104E300000F0200EA3EC00F04BC072F0736B746BAB
:104E4000756B32B4328C32A4329C32B2328A32A2C6
:104E5000329AE3D6080E416E0400490E415CD8B088
:104E60004CEF27F041508B0FE96E000EEA6AEA2200
:104E7000EF6A41C0A9FF55EC01F02A6E2B6A2C6A3B
:104E80002D6A41508B0FE96E000EEA6AEA222AC0B1
:104E9000EFFF412AD8A0E0D71200010EA96E55EC11
:104EA00001F0406E04004050FF08D8A4CDEF27F079
:104EB000080E416E0400490E415CD8B096EF27F011
:104EC00041C0A9FF000E5CEC01F041282A6E2B6A5C
:104ED0002C6A2D6A2B362AC0A9FF000E5CEC01F06B
:104EE000020E41242A6E2B6A2C6A2D6A000E2B2298
:104EF000000E2C22000E2D222AC0A9FF000E5CEC11
:104F000001F0030E41242A6E2B6A2C6A2D6A000ED2
:104F10002B22000E2C22000E2D222AC0A9FF000EEB
:104F20005CEC01F0040E4126D8A0C4D7010EA96E96
:104F3000010E5CEC01F0020EA96E0A0E5CEC01F0B1
:104F4000030EA96E010E5CEC01F0500EA96E000E6E
:104F50005CEC01F0510EA96E000E5CEC01F0520EFB
:104F6000A96E000E5CEC01F0530EA96E000E5CEC15
:104F700001F0540EA96E000E5CEC01F0550EA96E06
:104F8000000E5CEC01F0560EA96E000E5CEC01F018
:104F9000570EA96E000E5CEC01F0FE0EA3EC00F0C3
:0C4FA000010EA3EC00F012000300FED78D
:020000040030CA
:0A000000E03CFEF2FF79BBFFFC3F7D
:00000001FF
