:020000040000FA
:10000000006AA8EF02F0008A00AA009A00B603D0A6
:10001000008644D827E2080E176E54D81636172EDD
:10002000FCD700AA2ED85CD855D800BA1BD821D846
:100030001650D890A5EF02F0008A00AA009A00B4EA
:1000400005D0FE0B016E0084D8900AD000B805D010
:100050001E6E008823D806E21E5027D803E200AAAD
:10006000A5EF02F00ED83CD800940098009601D875
:10007000F7D710C0EAFF0E3CE96EE9880C50EC128D
:1000800008D010C0EAFF0EC0E9FF0C1CEE16E9888C
:10009000EC16040E126E122EFED71200EADF20D8E4
:1000A000F0DF18D8015000B60109166E080E176E61
:1000B0001636D8B0DEDFD8A0E4DF12D80BD8172E62
:1000C000F7D7D7DF0DD810C0EAFF0EC0E9FF0C50FC
:1000D000EF14FF0F11C0EAFF0FC0E9FF0D1CD6D7C8
:1000E00011C0EAFF0FC0E9FF0D50EE12E9880D1CA8
:1000F000EC16CFD71B6A1A6E018E270E176E100EE4
:100100000CD8030E176EE80E08D8176A640E05D8CF
:10011000176A0A0E02D81A500FD0166E1B50136EB3
:100120001A50126E146A156A186A196AD9EC01F02D
:10013000E866019E01BE1200300F01D0E9501F6E2B
:100140008098809A809A9298929A929AF00E92163B
:100150001F5000B221D03A0E136EFC0E7FEC01F05E
:10016000330E1E6E30D8100E136E680E7FEC01F049
:100170002AD8640E7EEC01F026D8220E1E6E23D8FB
:10018000280E09D80C0E07D8010E05D8060E03D884
:1001900000821F5001D000801E6E00A00BD0809AFC
:1001A00003080FE30ED8070E136ED00E7FEC01F09C
:1001B000D88012000080FE08D8B4A5EF02F0808A33
:1001C00000D01E3A00A000908088F00E80161E50CD
:1001D0000F0B801280981E3A00B0F5D7320E7EECDD
:1001E00001F0D8801200019E0350D8B4018E080E91
:1001F000026E1D380DD81D500BD81C3809D81C5064
:1002000007D81B3805D81B5003D81A3801D81A5004
:100210000F0BF60FD8B0070F0A0F4FD0019E0350F7
:10022000D8B4018E0A0E026E3B0E196E9A0E186E2D
:10023000CA0E176E000E35D8050E196EF50E186E23
:10024000E10E176E000E2DD8196A980E186E960ED4
:10025000176E800E26D8196A0F0E186E420E176E92
:10026000400E1FD8196A010E186E860E176EA00E6A
:1002700018D8196A186A270E176E100E12D8196A44
:10028000186A030E176EE80E0CD8196A186A176AF6
:10029000640E07D8196A186A176A0A0E02D81A502B
:1002A0000CD0166E1D50156E1C50146E1B50136E24
:1002B0001A50126ED9EC01F01250126E024E019ECD
:1002C000035003E0025CD8B012001250D8A4019E83
:1002D00001BE1200300F9FEF02F0176A186A196A08
:1002E000166EE86A1606175A185A195AD8A0A5EFBA
:1002F00002F0030E136EE50E02D8F3D7136AFB0F5C
:10030000126E00D0E86A01D01206135AFDE2000016
:100310001200D8901236133614361536FF0FF9E254
:100320001250A5EF02F0D890153214321332123267
:10033000FF0FF9E21250A5EF02F0166E020E09D07F
:10034000166E060E06D0166E040E03D0166E050E3F
:1003500002D0026E0AD0026E1950151815E6195017
:10036000155C08E11850145C05E11750135C02E1BC
:100370001650125C040ED8B0010ED8B4020E02144E
:10038000D8A4FF0EA5EF02F01550195CF3D7216A2F
:1003900015AE06D0217EE86A126C13561456155617
:1003A00019AE08D0217EE86A166C175618561956F1
:1003B00001D0216A1A6A1B6A1C6A1D6A200E1E6E11
:1003C00015341A361B361C361D3616501A5E175059
:1003D0001B5A18501C5A19501D5A09E216501A2659
:1003E00017501B2218501C2219501D22D89012366B
:1003F0001336143615361E2EE3D721AE09D0E86A1F
:10040000126C1356145615561A6C1B561C561D5654
:100410001250A5EF02F016501E02F3CF1AF0F4CFDF
:100420001BF017501F02F3CF1CF0F4CF1DF01E027B
:10043000F3501B26F4501C22E86A1D2216501F029E
:10044000F3501B26F4501C22E86A1D2218501E028D
:10045000F3501C26F4501D2218501F02E86A126A3D
:100460001222F3501D26F450122216502002F3508F
:100470001C26F4501D22E86A136A12221322175018
:100480002002F3501D26F4501222E86A132218505D
:100490002002F3501226F450132219501F02F35079
:1004A0001226F450132219502002E86A146A14220A
:1004B000F3501326F450142219501E02F3501D2637
:1004C000F4501222E86A1322142219502102F4CFA8
:1004D00015F0F3501426E86A152216502102F35045
:1004E0001D26F4501222E86A1322142215221750F6
:1004F0002102F3501226F4501322E86A1422152226
:1005000018502102F3501326F4501422E86A1522E1
:1005100021AE08D01650125E1750135A1850145AB4
:100520001950155A19AE08D01E50125E1F50135A9A
:100530002050145A2150155A1A50A5EF02F0E96EB6
:10054000FB6A0B50FA6E0A50F96E000100001200AF
:100550005AEF04F0090E126E3D0E136E146A156AFE
:1005600039C016F03AC017F0186A196A10DF3B6EEE
:1005700013C03CF03BC012F03CC013F0176A040EED
:10058000E2DED8A4D0EF02F047B2C8EF02F0478411
:10059000478247B0CDEF02F047844780EBEF02F08F
:1005A00047A2D4EF02F0478447923BC012F03CC010
:1005B00013F0176A000EC4DED8A4E6EF02F047B0CD
:1005C000E3EF02F047844780EBEF02F047A0EAEF49
:1005D00002F047844790126A090E136E3D0E146EA6
:1005E000156A39C016F03AC017F0186A196ACFDEDA
:1005F0003B6E13C03CF047A009EF03F03BC012F084
:100600003CC013F0146A156A020E92DE3B6E13C0F2
:100610003CF047A217EF03F03BC012F03CC013F0D0
:10062000146A156A020E84DE3B6E13C03CF03B0474
:10063000486E4850BB5CD8B41FEF03F0478648288B
:10064000226E236A246A256A233622C012F023C050
:1006500013F0020E63DE3B6E13C03CF03BC01EF095
:100660003CC01FF0206A216A37C016F038C017F06E
:10067000186A196AD0DE226E1BC023F01CC024F059
:100680001DC025F022C012F023C013F024C014F0C6
:1006900025C015F01668030E176E186A196A77DE02
:1006A000376E13C038F04650126E0508D8A06BEFB5
:1006B00003F0FA6AFB6A1236FA36CA0E1226060EE2
:1006C000FA22000EFB221250F96E21D004D009D07C
:1006D0000ED013D018D0BECF3BF0BDCF3CF087EF8B
:1006E00003F067CF3BF066CF3CF087EF03F05ECFBF
:1006F0003BF05DCF3CF087EF03F058CF3BF057CF96
:100700003CF087EF03F055CF3BF054CF3CF03BC0BB
:1007100012F0136A146A156A020E00DE226E13C00C
:1007200023F014C024F015C025F0300E3C14266EC2
:10073000276A286A296A26C012F027C013F028C049
:1007400014F029C015F0040E98EC01F0266E13C0C9
:1007500027F014C028F015C029F0225026103B6E57
:10076000235027103C6E3BC012F03CC013F038C041
:1007700017F037509DEC01F0D8A424EF04F037C0F7
:1007800012F038C013F0146A156A020E98EC01F0EA
:100790003B6E13C03CF0030E3714226E000E38146B
:1007A000236E246A256A22C012F023C013F024C0ED
:1007B00014F025C015F0040E8EEC01F0226E13C06B
:1007C00023F014C024F015C025F00C0E22103C6E4E
:1007D000BAA4F0EF03F09E929EB2F0EF03F0FCD7C4
:1007E0004650126E0508D8A008EF04F0FA6AFB6ABA
:1007F0001236FA36040E1226080EFA22000EFB22DA
:100800001250F96E21D004D009D00ED013D018D0D8
:100810003BC0BEFF3CC0BDFF24EF04F03BC067FF00
:100820003CC066FF24EF04F03BC05EFF3CC05DFFB0
:1008300024EF04F03BC058FF3CC057FF24EF04F006
:100840003BC055FF3CC054FFBAB428EF04F0BA8453
:10085000E86A47B4010F47B60109226E236A246A89
:10086000256A22C012F023C013F024C014F025C062
:1008700015F0196A186A176A010EA6EC01F0D8A4DF
:1008800059EF04F09E929EB247EF04F0FCD747A4C4
:1008900053EF04F0479447B0BA8047A0BA9047B2EC
:1008A000BA8247A2BA9247A659EF04F0479648C0C9
:1008B000BBFF12000F01386B396BF19EF70E616EB2
:1008C000780ED36ED26A800E9B6E070ECD6E386B9B
:1008D000396B020E3A6F946892689368829C949C7C
:1008E000819693968190939082949494C80E00017F
:1008F0006DEC01F08296949682989498829A949ADC
:1009000093829388938A938C938E9384E968050EDF
:10091000EA6EED6AE950EA10FCE1EF6A300E356EDE
:10092000750E366E9DEC05F02D6A020E2E6E2F6A46
:10093000020E306E316A020E326E336A020E346E6F
:10094000040E466E33C037F034C038F035C039F08D
:1009500036C03AF0AAEC02F0030E466E31C037F012
:1009600032C038F035C039F036C03AF0AAEC02F0A7
:10097000020E466E2FC037F030C038F035C039F067
:1009800036C03AF0AAEC02F0010E466E2DC037F0E8
:100990002EC038F035C039F036C03AF0AAEC02F07B
:1009A0008298829A82861DEC06F02BA6D9EF04F07D
:1009B0004E2A2AA6DDEF04F0492A2AA0E1EF04F02E
:1009C000422A2AA4E5EF04F0442A2AA2E9EF04F01F
:1009D000432A2BA4EDEF04F04D2AFE0E9FEC00F00D
:1009E000010E9FEC00F0020E036E49C01AF01B6A64
:1009F0001C6A1D6A3C0E0A6E010E0B6E0EEC01F0B5
:100A0000020E036E4EC01AF01B6A1C6A1D6A3C0E71
:100A10000A6E010E0B6E0EEC01F0020E036E42C068
:100A20001AF01B6A1C6A1D6A3C0E0A6E010E0B6EE0
:100A30000EEC01F0020E036E44C01AF01B6A1C6A31
:100A40001D6A3C0E0A6E010E0B6E0EEC01F0020EDA
:100A5000036E43C01AF01B6A1C6A1D6A3C0E0A6EC4
:100A6000010E0B6E0EEC01F0020E036E4DC01AF07B
:100A70001B6A1C6A1D6A3C0E0A6E010E0B6E0EECA0
:100A800001F0FE0E9FEC00F0C00E9FEC00F0000E97
:100A900081B2010E7AEC00F0000E81B4010E7AEC06
:100AA00000F0000E81B8010E7AEC00F0000E81BC5F
:100AB000010E7AEC00F0000E81BA010E7AEC00F023
:100AC000000E81BE010E7AEC00F0020E036E45C0EE
:100AD0001AF01B6A1C6A1D6A3C0E0A6E010E0B6E30
:100AE000F3EC00F0020E036E4BC01AF01B6A1C6A96
:100AF0001D6A3C0E0A6E010E0B6EF3EC00F0020E46
:100B0000036E4FC01AF01B6A1C6A1D6A3C0E0A6E07
:100B1000010E0B6EF3EC00F04A2A4A500A08D8A4E2
:100B200097EF05F082789498827A949A4A6AD1EC89
:100B300005F0640E6DEC01F036D74F6A4B6A456ADA
:100B4000010E416E010E536E010E4C6E820E0E6E42
:100B50000F0E106E010E0C6E820E0F6E0F0E116EC8
:100B6000020E0D6EA20E1EEC00F0020E1EEC00F046
:100B70004F501EEC00F04B501EEC00F045501EECA8
:100B800000F041501EEC00F0020E1EEC00F04C5044
:100B90001EEC00F053501CEC00F00A0E6DEC01F05E
:100BA0001200320E6DEC01F0820E0E6E0F0E106E02
:100BB000010E0C6E820E0F6E0F0E116E020E0D6E78
:100BC000A20E1EEC00F0020E1EEC00F005EC00F090
:100BD0004F6E05EC00F04B6E05EC00F0456E05EC39
:100BE00000F0416E05EC00F0506E05EC00F04C6E2C
:100BF00003EC00F0536E4B9E459E459C419E419CEC
:100C00004C9E4C9C4C9A1200320E6DEC01F0820E00
:100C10000E6E0F0E106E010E0C6E820E0F6E0F0E0A
:100C2000116E020E0D6E900E1EEC00F0000E1EEC0A
:100C300000F003EC00F0516E120081B82A8881A800
:100C40002A9881B22A8E81A22A9E81BC2A8C81ACEC
:100C50002A9C81BA2A8A81AA2A9A81B42B8281A4E9
:100C60002B9281BE2B8081AE2B902ABC3EEF06F0EA
:100C70002BAC3EEF06F02A843FEF06F02A942ABA06
:100C800048EF06F02BAA48EF06F02A8249EF06F05B
:100C90002A922ABE52EF06F02BAE52EF06F02A86B9
:100CA00053EF06F02A962AB85CEF06F02BA85CEF0B
:100CB00006F02A805DEF06F02A902BB266EF06F070
:100CC0002CA266EF06F02B8667EF06F02B962BB072
:100CD00070EF06F02CA070EF06F02B8471EF06F099
:100CE0002B942AB82B882AA82B982ABE2B8E2AAEA2
:100CF0002B9E2ABC2B8C2AAC2B9C2ABA2B8A2AAA84
:100D00002B9A2BB22C822BA22C922BB02C802BA0B6
:080D10002C9012000300FED735
:020000040030CA
:0300010028003C98
:02000500188160
:0600080000800FE00F4034
:00000001FF
